{"project/contracts/examples/ImprovedAPIExample.sol":{"ImprovedAPIExample":{"abi":[{"inputs":[],"name":"encodeComplexObject","outputs":[{"internalType":"bytes","name":"","type":"bytes"}],"stateMutability":"pure","type":"function"},{"inputs":[],"name":"encodeNestedObject","outputs":[{"internalType":"bytes","name":"","type":"bytes"}],"stateMutability":"pure","type":"function"},{"inputs":[{"internalType":"address","name":"from","type":"address"},{"internalType":"address","name":"to","type":"address"},{"internalType":"uint256","name":"amount","type":"uint256"},{"internalType":"uint256","name":"nonce","type":"uint256"},{"internalType":"bytes32","name":"txHash","type":"bytes32"}],"name":"encodeTransaction","outputs":[{"internalType":"bytes","name":"","type":"bytes"}],"stateMutability":"pure","type":"function"},{"inputs":[],"name":"encodeUserDataNewWay","outputs":[{"internalType":"bytes","name":"","type":"bytes"}],"stateMutability":"pure","type":"function"},{"inputs":[],"name":"encodeUserDataOldWay","outputs":[{"internalType":"bytes","name":"","type":"bytes"}],"stateMutability":"pure","type":"function"}],"evm":{"bytecode":{"linkReferences":{},"object":"608060405234801561000f575f80fd5b506111e28061001d5f395ff3fe608060405234801561000f575f80fd5b5060043610610055575f3560e01c80631f4ef43d146100595780633708614d14610077578063b65cb7111461007f578063bbdad36b14610087578063c46e82271461007f575b5f80fd5b61006161009a565b60405161006e919061107f565b60405180910390f35b6100616103d2565b610061610545565b6100616100953660046110e5565b61064b565b604080516003808252608082019092526060915f9190602082018480368337019050509050605f815f815181106100d3576100d3611142565b6020026020010181815250506057816001815181106100f4576100f4611142565b602002602001018181525050605c8160028151811061011557610115611142565b6020908102919091010152604080516002808252606082019092525f9181602001602082028036833701905050905073742d35cc6634c0532925a3b844bc9e7595f0beb1815f8151811061016b5761016b611142565b60200260200101906001600160a01b031690816001600160a01b031681525050731234567890123456789012345678901234567890816001815181106101b3576101b3611142565b60200260200101906001600160a01b031690816001600160a01b0316815250505f6101dc610775565b90506101e98160056107ba565b5061021081604051806040016040528060048152602001636e616d6560e01b8152506107ec565b5061023681604051806040016040528060038152602001622137b160e91b8152506107ec565b5061025f81604051806040016040528060068152602001651dd85b1b195d60d21b8152506107ec565b5061027e8173742d35cc6634c0532925a3b844bc9e7595f0beb1610821565b506102a581604051806040016040528060048152602001630d0c2e6d60e31b8152506107ec565b506102d0817f9c22ff5f21f0b81b113e63f7db6da94fedef11b2119b4088b89664fb9a3cb65861084a565b506102f9816040518060400160405280600681526020016573636f72657360d01b8152506107ec565b50610305818451610873565b505f5b8351811015610347576103348285838151811061032757610327611142565b602002602001015161089c565b508061033f8161116a565b915050610308565b506103728160405180604001604052806008815260200167636f6e746163747360c01b8152506107ec565b5061037e818351610873565b505f5b82518110156103c0576103ad828483815181106103a0576103a0611142565b6020026020010151610821565b50806103b88161116a565b915050610381565b506103ca816108c5565b935050505090565b60605f6103dd610775565b90506103ea8160036107ba565b5061041381604051806040016040528060068152602001651d5cd95c925960d21b8152506107ec565b5061043d81604051806040016040528060078152602001667573657231323360c81b8152506107ec565b5061046781604051806040016040528060078152602001663b32b939b4b7b760c91b8152506107ec565b5061047381600161089c565b5061049e816040518060400160405280600881526020016773657474696e677360c01b8152506107ec565b506104aa8160026107ba565b506104da816040518060400160405280600d81526020016c6e6f74696669636174696f6e7360981b8152506107ec565b506104e6816001610945565b5061050e81604051806040016040528060058152602001647468656d6560d81b8152506107ec565b5061053581604051806040016040528060048152602001636461726b60e01b8152506107ec565b5061053f816108c5565b91505090565b60605f610550610775565b905061055d8160046107ba565b5061058481604051806040016040528060048152602001636e616d6560e01b8152506107ec565b506105ac8160405180604001604052806005815260200164416c69636560d81b8152506107ec565b506105d2816040518060400160405280600381526020016261676560e81b8152506107ec565b506105de81601e61089c565b50610607816040518060400160405280600681526020016561637469766560d01b8152506107ec565b50610613816001610945565b5061063d816040518060400160405280600781526020016662616c616e636560c81b8152506107ec565b5061053581620f424061089c565b60605f610656610775565b90506106638160056107ba565b5061068a816040518060400160405280600481526020016366726f6d60e01b8152506107ec565b506106958188610821565b506106ba8160405180604001604052806002815260200161746f60f01b8152506107ec565b506106c58187610821565b506106ee8160405180604001604052806006815260200165185b5bdd5b9d60d21b8152506107ec565b506106f9818661089c565b5061072181604051806040016040528060058152602001646e6f6e636560d81b8152506107ec565b5061072c818561089c565b5061075581604051806040016040528060068152602001650e8f090c2e6d60d31b8152506107ec565b50610760818461084a565b5061076a816108c5565b979650505050505050565b60408051808201825260608082525f6020830152825161010081850181815261016083019095529293909283928301818036833750505081525f602090910152919050565b60408051808201909152606081525f60208201526107d98360036109bb565b6107e38383610a7f565b50815b92915050565b60408051808201909152606081525f602082015261081783835160036108129190611182565b6109bb565b6107e38383610b99565b60408051808201909152606081525f60208201526108408360156109bb565b6107e38383610d68565b60408051808201909152606081525f60208201526108698360226109bb565b6107e38383610dd4565b60408051808201909152606081525f60208201526108928360036109bb565b6107e38383610e30565b60408051808201909152606081525f60208201526108bb8360216109bb565b6107e38383610e7b565b60605f826020015167ffffffffffffffff8111156108e5576108e561112e565b6040519080825280601f01601f19166020018201604052801561090f576020820181803683370190505b50905060208351016020820160208501515f5b8181101561093a578381015183820152602001610922565b509295945050505050565b60408051808201909152606081525f60208201526109648360016109bb565b816109705760c2610973565b60c35b60f81b835f015184602001805180919061098c9061116a565b90528151811061099e5761099e611142565b60200101906001600160f81b03191690815f1a9053509192915050565b5f8183602001516109cc9190611182565b83515190915081116109dd57505050565b8251515f906109ed906002611195565b905081811015610a0557610a02826040611182565b90505b5f8167ffffffffffffffff811115610a1f57610a1f61112e565b6040519080825280601f01601f191660200182016040528015610a49576020820181803683370190505b50905060208551016020820160208701515f5b81811015610a74578381015183820152602001610a5c565b505050945250505050565b600f8111610ad757610a92816080611182565b60f81b825f0151836020018051809190610aab9061116a565b905281518110610abd57610abd611142565b60200101906001600160f81b03191690815f1a9053505050565b60ff8111610b37578151602083018051601b60fb1b9291610af78261116a565b905281518110610b0957610b09611142565b60200101906001600160f81b03191690815f1a905350815160208301805160f884901b9291610aab8261116a565b815160208301805160d960f81b9291610b4f8261116a565b905281518110610b6157610b61611142565b60200101906001600160f81b03191690815f1a90535081516020830180516001600160f81b031960f085901b169291610af78261116a565b80518190601f8111610bf657610bb08160a0611182565b60f81b845f0151856020018051809190610bc99061116a565b905281518110610bdb57610bdb611142565b60200101906001600160f81b03191690815f1a905350610d21565b60ff8111610c56578351602085018051606960f91b9291610c168261116a565b905281518110610c2857610c28611142565b60200101906001600160f81b03191690815f1a905350835160208501805160f884901b9291610bc98261116a565b835160208501805160d360f81b9291610c6e8261116a565b905281518110610c8057610c80611142565b60200101906001600160f81b03191690815f1a90535083516020850180516001600160f81b031960f085901b169291610cb88261116a565b905281518110610cca57610cca611142565b60200101906001600160f81b03191690815f1a905350835160208501805160f884901b9291610cf88261116a565b905281518110610d0a57610d0a611142565b60200101906001600160f81b03191690815f1a9053505b6020820160208501516020865101015f5b83811015610d4a578281015182820152602001610d32565b5050508084602001818151610d5f9190611182565b90525050505050565b8151602083018051603560fa1b9291610d808261116a565b905281518110610d9257610d92611142565b60200101906001600160f81b03191690815f1a90535060208201516020835101018160601b815250601482602001818151610dcd9190611182565b9052505050565b815160208301805160d560f81b9291610dec8261116a565b905281518110610dfe57610dfe611142565b60200101906001600160f81b03191690815f1a9053506020828101805184510182018390528051610dcd908390611182565b600f8111610e4357610a92816090611182565b60ff8111610e63578151602083018051606b60f91b9291610af78261116a565b815160208301805160d760f81b9291610b4f8261116a565b607f8111610e9b57815160208301805160f884901b9291610aab8261116a565b60ff8111610ebb578151602083018051603160fa1b9291610af78261116a565b61ffff8111610f2f57815160208301805160c560f81b9291610edc8261116a565b905281518110610eee57610eee611142565b60200101906001600160f81b03191690815f1a90535060208201516020835101018160081c815381600182015350600282602001818151610dcd9190611182565b63ffffffff8111610fb7578151602083018051606360f91b9291610f528261116a565b905281518110610f6457610f64611142565b60200101906001600160f81b03191690815f1a90535060208201516020835101018160181c81538160101c60018201538160081c600282015381600382015350600482602001818151610dcd9190611182565b67ffffffffffffffff811161106757815160208301805160c760f81b9291610fde8261116a565b905281518110610ff057610ff0611142565b60200101906001600160f81b03191690815f1a90535060208201516020835101018160381c81538160301c60018201538160281c60028201538160201c60038201538160181c60048201538160101c60058201538160081c600682015381600782015350600882602001818151610dcd9190611182565b815160208301805160c960f81b9291610dec8261116a565b5f6020808352835180828501525f5b818110156110aa5785810183015185820160400152820161108e565b505f604082860101526040601f19601f8301168501019250505092915050565b80356001600160a01b03811681146110e0575f80fd5b919050565b5f805f805f60a086880312156110f9575f80fd5b611102866110ca565b9450611110602087016110ca565b94979496505050506040830135926060810135926080909101359150565b634e487b7160e01b5f52604160045260245ffd5b634e487b7160e01b5f52603260045260245ffd5b634e487b7160e01b5f52601160045260245ffd5b5f6001820161117b5761117b611156565b5060010190565b808201808211156107e6576107e6611156565b80820281158282048414176107e6576107e661115656fea264697066735822122069f109dea759b36ad41a5b2eb53947f656852fcef5156871c3bb33eeebcd6f9c64736f6c63430008140033","opcodes":"PUSH1 0x80 PUSH1 0x40 MSTORE CALLVALUE DUP1 ISZERO PUSH2 0xF JUMPI PUSH0 DUP1 REVERT JUMPDEST POP PUSH2 0x11E2 DUP1 PUSH2 0x1D PUSH0 CODECOPY PUSH0 RETURN INVALID PUSH1 0x80 PUSH1 0x40 MSTORE CALLVALUE DUP1 ISZERO PUSH2 0xF JUMPI PUSH0 DUP1 REVERT JUMPDEST POP PUSH1 0x4 CALLDATASIZE LT PUSH2 0x55 JUMPI PUSH0 CALLDATALOAD PUSH1 0xE0 SHR DUP1 PUSH4 0x1F4EF43D EQ PUSH2 0x59 JUMPI DUP1 PUSH4 0x3708614D EQ PUSH2 0x77 JUMPI DUP1 PUSH4 0xB65CB711 EQ PUSH2 0x7F JUMPI DUP1 PUSH4 0xBBDAD36B EQ PUSH2 0x87 JUMPI DUP1 PUSH4 0xC46E8227 EQ PUSH2 0x7F JUMPI JUMPDEST PUSH0 DUP1 REVERT JUMPDEST PUSH2 0x61 PUSH2 0x9A JUMP JUMPDEST PUSH1 0x40 MLOAD PUSH2 0x6E SWAP2 SWAP1 PUSH2 0x107F JUMP JUMPDEST PUSH1 0x40 MLOAD DUP1 SWAP2 SUB SWAP1 RETURN JUMPDEST PUSH2 0x61 PUSH2 0x3D2 JUMP JUMPDEST PUSH2 0x61 PUSH2 0x545 JUMP JUMPDEST PUSH2 0x61 PUSH2 0x95 CALLDATASIZE PUSH1 0x4 PUSH2 0x10E5 JUMP JUMPDEST PUSH2 0x64B JUMP JUMPDEST PUSH1 0x40 DUP1 MLOAD PUSH1 0x3 DUP1 DUP3 MSTORE PUSH1 0x80 DUP3 ADD SWAP1 SWAP3 MSTORE PUSH1 0x60 SWAP2 PUSH0 SWAP2 SWAP1 PUSH1 0x20 DUP3 ADD DUP5 DUP1 CALLDATASIZE DUP4 CALLDATACOPY ADD SWAP1 POP POP SWAP1 POP PUSH1 0x5F DUP2 PUSH0 DUP2 MLOAD DUP2 LT PUSH2 0xD3 JUMPI PUSH2 0xD3 PUSH2 0x1142 JUMP JUMPDEST PUSH1 0x20 MUL PUSH1 0x20 ADD ADD DUP2 DUP2 MSTORE POP POP PUSH1 0x57 DUP2 PUSH1 0x1 DUP2 MLOAD DUP2 LT PUSH2 0xF4 JUMPI PUSH2 0xF4 PUSH2 0x1142 JUMP JUMPDEST PUSH1 0x20 MUL PUSH1 0x20 ADD ADD DUP2 DUP2 MSTORE POP POP PUSH1 0x5C DUP2 PUSH1 0x2 DUP2 MLOAD DUP2 LT PUSH2 0x115 JUMPI PUSH2 0x115 PUSH2 0x1142 JUMP JUMPDEST PUSH1 0x20 SWAP1 DUP2 MUL SWAP2 SWAP1 SWAP2 ADD ADD MSTORE PUSH1 0x40 DUP1 MLOAD PUSH1 0x2 DUP1 DUP3 MSTORE PUSH1 0x60 DUP3 ADD SWAP1 SWAP3 MSTORE PUSH0 SWAP2 DUP2 PUSH1 0x20 ADD PUSH1 0x20 DUP3 MUL DUP1 CALLDATASIZE DUP4 CALLDATACOPY ADD SWAP1 POP POP SWAP1 POP PUSH20 0x742D35CC6634C0532925A3B844BC9E7595F0BEB1 DUP2 PUSH0 DUP2 MLOAD DUP2 LT PUSH2 0x16B JUMPI PUSH2 0x16B PUSH2 0x1142 JUMP JUMPDEST PUSH1 0x20 MUL PUSH1 0x20 ADD ADD SWAP1 PUSH1 0x1 PUSH1 0x1 PUSH1 0xA0 SHL SUB AND SWAP1 DUP2 PUSH1 0x1 PUSH1 0x1 PUSH1 0xA0 SHL SUB AND DUP2 MSTORE POP POP PUSH20 0x1234567890123456789012345678901234567890 DUP2 PUSH1 0x1 DUP2 MLOAD DUP2 LT PUSH2 0x1B3 JUMPI PUSH2 0x1B3 PUSH2 0x1142 JUMP JUMPDEST PUSH1 0x20 MUL PUSH1 0x20 ADD ADD SWAP1 PUSH1 0x1 PUSH1 0x1 PUSH1 0xA0 SHL SUB AND SWAP1 DUP2 PUSH1 0x1 PUSH1 0x1 PUSH1 0xA0 SHL SUB AND DUP2 MSTORE POP POP PUSH0 PUSH2 0x1DC PUSH2 0x775 JUMP JUMPDEST SWAP1 POP PUSH2 0x1E9 DUP2 PUSH1 0x5 PUSH2 0x7BA JUMP JUMPDEST POP PUSH2 0x210 DUP2 PUSH1 0x40 MLOAD DUP1 PUSH1 0x40 ADD PUSH1 0x40 MSTORE DUP1 PUSH1 0x4 DUP2 MSTORE PUSH1 0x20 ADD PUSH4 0x6E616D65 PUSH1 0xE0 SHL DUP2 MSTORE POP PUSH2 0x7EC JUMP JUMPDEST POP PUSH2 0x236 DUP2 PUSH1 0x40 MLOAD DUP1 PUSH1 0x40 ADD PUSH1 0x40 MSTORE DUP1 PUSH1 0x3 DUP2 MSTORE PUSH1 0x20 ADD PUSH3 0x2137B1 PUSH1 0xE9 SHL DUP2 MSTORE POP PUSH2 0x7EC JUMP JUMPDEST POP PUSH2 0x25F DUP2 PUSH1 0x40 MLOAD DUP1 PUSH1 0x40 ADD PUSH1 0x40 MSTORE DUP1 PUSH1 0x6 DUP2 MSTORE PUSH1 0x20 ADD PUSH6 0x1DD85B1B195D PUSH1 0xD2 SHL DUP2 MSTORE POP PUSH2 0x7EC JUMP JUMPDEST POP PUSH2 0x27E DUP2 PUSH20 0x742D35CC6634C0532925A3B844BC9E7595F0BEB1 PUSH2 0x821 JUMP JUMPDEST POP PUSH2 0x2A5 DUP2 PUSH1 0x40 MLOAD DUP1 PUSH1 0x40 ADD PUSH1 0x40 MSTORE DUP1 PUSH1 0x4 DUP2 MSTORE PUSH1 0x20 ADD PUSH4 0xD0C2E6D PUSH1 0xE3 SHL DUP2 MSTORE POP PUSH2 0x7EC JUMP JUMPDEST POP PUSH2 0x2D0 DUP2 PUSH32 0x9C22FF5F21F0B81B113E63F7DB6DA94FEDEF11B2119B4088B89664FB9A3CB658 PUSH2 0x84A JUMP JUMPDEST POP PUSH2 0x2F9 DUP2 PUSH1 0x40 MLOAD DUP1 PUSH1 0x40 ADD PUSH1 0x40 MSTORE DUP1 PUSH1 0x6 DUP2 MSTORE PUSH1 0x20 ADD PUSH6 0x73636F726573 PUSH1 0xD0 SHL DUP2 MSTORE POP PUSH2 0x7EC JUMP JUMPDEST POP PUSH2 0x305 DUP2 DUP5 MLOAD PUSH2 0x873 JUMP JUMPDEST POP PUSH0 JUMPDEST DUP4 MLOAD DUP2 LT ISZERO PUSH2 0x347 JUMPI PUSH2 0x334 DUP3 DUP6 DUP4 DUP2 MLOAD DUP2 LT PUSH2 0x327 JUMPI PUSH2 0x327 PUSH2 0x1142 JUMP JUMPDEST PUSH1 0x20 MUL PUSH1 0x20 ADD ADD MLOAD PUSH2 0x89C JUMP JUMPDEST POP DUP1 PUSH2 0x33F DUP2 PUSH2 0x116A JUMP JUMPDEST SWAP2 POP POP PUSH2 0x308 JUMP JUMPDEST POP PUSH2 0x372 DUP2 PUSH1 0x40 MLOAD DUP1 PUSH1 0x40 ADD PUSH1 0x40 MSTORE DUP1 PUSH1 0x8 DUP2 MSTORE PUSH1 0x20 ADD PUSH8 0x636F6E7461637473 PUSH1 0xC0 SHL DUP2 MSTORE POP PUSH2 0x7EC JUMP JUMPDEST POP PUSH2 0x37E DUP2 DUP4 MLOAD PUSH2 0x873 JUMP JUMPDEST POP PUSH0 JUMPDEST DUP3 MLOAD DUP2 LT ISZERO PUSH2 0x3C0 JUMPI PUSH2 0x3AD DUP3 DUP5 DUP4 DUP2 MLOAD DUP2 LT PUSH2 0x3A0 JUMPI PUSH2 0x3A0 PUSH2 0x1142 JUMP JUMPDEST PUSH1 0x20 MUL PUSH1 0x20 ADD ADD MLOAD PUSH2 0x821 JUMP JUMPDEST POP DUP1 PUSH2 0x3B8 DUP2 PUSH2 0x116A JUMP JUMPDEST SWAP2 POP POP PUSH2 0x381 JUMP JUMPDEST POP PUSH2 0x3CA DUP2 PUSH2 0x8C5 JUMP JUMPDEST SWAP4 POP POP POP POP SWAP1 JUMP JUMPDEST PUSH1 0x60 PUSH0 PUSH2 0x3DD PUSH2 0x775 JUMP JUMPDEST SWAP1 POP PUSH2 0x3EA DUP2 PUSH1 0x3 PUSH2 0x7BA JUMP JUMPDEST POP PUSH2 0x413 DUP2 PUSH1 0x40 MLOAD DUP1 PUSH1 0x40 ADD PUSH1 0x40 MSTORE DUP1 PUSH1 0x6 DUP2 MSTORE PUSH1 0x20 ADD PUSH6 0x1D5CD95C9259 PUSH1 0xD2 SHL DUP2 MSTORE POP PUSH2 0x7EC JUMP JUMPDEST POP PUSH2 0x43D DUP2 PUSH1 0x40 MLOAD DUP1 PUSH1 0x40 ADD PUSH1 0x40 MSTORE DUP1 PUSH1 0x7 DUP2 MSTORE PUSH1 0x20 ADD PUSH7 0x75736572313233 PUSH1 0xC8 SHL DUP2 MSTORE POP PUSH2 0x7EC JUMP JUMPDEST POP PUSH2 0x467 DUP2 PUSH1 0x40 MLOAD DUP1 PUSH1 0x40 ADD PUSH1 0x40 MSTORE DUP1 PUSH1 0x7 DUP2 MSTORE PUSH1 0x20 ADD PUSH7 0x3B32B939B4B7B7 PUSH1 0xC9 SHL DUP2 MSTORE POP PUSH2 0x7EC JUMP JUMPDEST POP PUSH2 0x473 DUP2 PUSH1 0x1 PUSH2 0x89C JUMP JUMPDEST POP PUSH2 0x49E DUP2 PUSH1 0x40 MLOAD DUP1 PUSH1 0x40 ADD PUSH1 0x40 MSTORE DUP1 PUSH1 0x8 DUP2 MSTORE PUSH1 0x20 ADD PUSH8 0x73657474696E6773 PUSH1 0xC0 SHL DUP2 MSTORE POP PUSH2 0x7EC JUMP JUMPDEST POP PUSH2 0x4AA DUP2 PUSH1 0x2 PUSH2 0x7BA JUMP JUMPDEST POP PUSH2 0x4DA DUP2 PUSH1 0x40 MLOAD DUP1 PUSH1 0x40 ADD PUSH1 0x40 MSTORE DUP1 PUSH1 0xD DUP2 MSTORE PUSH1 0x20 ADD PUSH13 0x6E6F74696669636174696F6E73 PUSH1 0x98 SHL DUP2 MSTORE POP PUSH2 0x7EC JUMP JUMPDEST POP PUSH2 0x4E6 DUP2 PUSH1 0x1 PUSH2 0x945 JUMP JUMPDEST POP PUSH2 0x50E DUP2 PUSH1 0x40 MLOAD DUP1 PUSH1 0x40 ADD PUSH1 0x40 MSTORE DUP1 PUSH1 0x5 DUP2 MSTORE PUSH1 0x20 ADD PUSH5 0x7468656D65 PUSH1 0xD8 SHL DUP2 MSTORE POP PUSH2 0x7EC JUMP JUMPDEST POP PUSH2 0x535 DUP2 PUSH1 0x40 MLOAD DUP1 PUSH1 0x40 ADD PUSH1 0x40 MSTORE DUP1 PUSH1 0x4 DUP2 MSTORE PUSH1 0x20 ADD PUSH4 0x6461726B PUSH1 0xE0 SHL DUP2 MSTORE POP PUSH2 0x7EC JUMP JUMPDEST POP PUSH2 0x53F DUP2 PUSH2 0x8C5 JUMP JUMPDEST SWAP2 POP POP SWAP1 JUMP JUMPDEST PUSH1 0x60 PUSH0 PUSH2 0x550 PUSH2 0x775 JUMP JUMPDEST SWAP1 POP PUSH2 0x55D DUP2 PUSH1 0x4 PUSH2 0x7BA JUMP JUMPDEST POP PUSH2 0x584 DUP2 PUSH1 0x40 MLOAD DUP1 PUSH1 0x40 ADD PUSH1 0x40 MSTORE DUP1 PUSH1 0x4 DUP2 MSTORE PUSH1 0x20 ADD PUSH4 0x6E616D65 PUSH1 0xE0 SHL DUP2 MSTORE POP PUSH2 0x7EC JUMP JUMPDEST POP PUSH2 0x5AC DUP2 PUSH1 0x40 MLOAD DUP1 PUSH1 0x40 ADD PUSH1 0x40 MSTORE DUP1 PUSH1 0x5 DUP2 MSTORE PUSH1 0x20 ADD PUSH5 0x416C696365 PUSH1 0xD8 SHL DUP2 MSTORE POP PUSH2 0x7EC JUMP JUMPDEST POP PUSH2 0x5D2 DUP2 PUSH1 0x40 MLOAD DUP1 PUSH1 0x40 ADD PUSH1 0x40 MSTORE DUP1 PUSH1 0x3 DUP2 MSTORE PUSH1 0x20 ADD PUSH3 0x616765 PUSH1 0xE8 SHL DUP2 MSTORE POP PUSH2 0x7EC JUMP JUMPDEST POP PUSH2 0x5DE DUP2 PUSH1 0x1E PUSH2 0x89C JUMP JUMPDEST POP PUSH2 0x607 DUP2 PUSH1 0x40 MLOAD DUP1 PUSH1 0x40 ADD PUSH1 0x40 MSTORE DUP1 PUSH1 0x6 DUP2 MSTORE PUSH1 0x20 ADD PUSH6 0x616374697665 PUSH1 0xD0 SHL DUP2 MSTORE POP PUSH2 0x7EC JUMP JUMPDEST POP PUSH2 0x613 DUP2 PUSH1 0x1 PUSH2 0x945 JUMP JUMPDEST POP PUSH2 0x63D DUP2 PUSH1 0x40 MLOAD DUP1 PUSH1 0x40 ADD PUSH1 0x40 MSTORE DUP1 PUSH1 0x7 DUP2 MSTORE PUSH1 0x20 ADD PUSH7 0x62616C616E6365 PUSH1 0xC8 SHL DUP2 MSTORE POP PUSH2 0x7EC JUMP JUMPDEST POP PUSH2 0x535 DUP2 PUSH3 0xF4240 PUSH2 0x89C JUMP JUMPDEST PUSH1 0x60 PUSH0 PUSH2 0x656 PUSH2 0x775 JUMP JUMPDEST SWAP1 POP PUSH2 0x663 DUP2 PUSH1 0x5 PUSH2 0x7BA JUMP JUMPDEST POP PUSH2 0x68A DUP2 PUSH1 0x40 MLOAD DUP1 PUSH1 0x40 ADD PUSH1 0x40 MSTORE DUP1 PUSH1 0x4 DUP2 MSTORE PUSH1 0x20 ADD PUSH4 0x66726F6D PUSH1 0xE0 SHL DUP2 MSTORE POP PUSH2 0x7EC JUMP JUMPDEST POP PUSH2 0x695 DUP2 DUP9 PUSH2 0x821 JUMP JUMPDEST POP PUSH2 0x6BA DUP2 PUSH1 0x40 MLOAD DUP1 PUSH1 0x40 ADD PUSH1 0x40 MSTORE DUP1 PUSH1 0x2 DUP2 MSTORE PUSH1 0x20 ADD PUSH2 0x746F PUSH1 0xF0 SHL DUP2 MSTORE POP PUSH2 0x7EC JUMP JUMPDEST POP PUSH2 0x6C5 DUP2 DUP8 PUSH2 0x821 JUMP JUMPDEST POP PUSH2 0x6EE DUP2 PUSH1 0x40 MLOAD DUP1 PUSH1 0x40 ADD PUSH1 0x40 MSTORE DUP1 PUSH1 0x6 DUP2 MSTORE PUSH1 0x20 ADD PUSH6 0x185B5BDD5B9D PUSH1 0xD2 SHL DUP2 MSTORE POP PUSH2 0x7EC JUMP JUMPDEST POP PUSH2 0x6F9 DUP2 DUP7 PUSH2 0x89C JUMP JUMPDEST POP PUSH2 0x721 DUP2 PUSH1 0x40 MLOAD DUP1 PUSH1 0x40 ADD PUSH1 0x40 MSTORE DUP1 PUSH1 0x5 DUP2 MSTORE PUSH1 0x20 ADD PUSH5 0x6E6F6E6365 PUSH1 0xD8 SHL DUP2 MSTORE POP PUSH2 0x7EC JUMP JUMPDEST POP PUSH2 0x72C DUP2 DUP6 PUSH2 0x89C JUMP JUMPDEST POP PUSH2 0x755 DUP2 PUSH1 0x40 MLOAD DUP1 PUSH1 0x40 ADD PUSH1 0x40 MSTORE DUP1 PUSH1 0x6 DUP2 MSTORE PUSH1 0x20 ADD PUSH6 0xE8F090C2E6D PUSH1 0xD3 SHL DUP2 MSTORE POP PUSH2 0x7EC JUMP JUMPDEST POP PUSH2 0x760 DUP2 DUP5 PUSH2 0x84A JUMP JUMPDEST POP PUSH2 0x76A DUP2 PUSH2 0x8C5 JUMP JUMPDEST SWAP8 SWAP7 POP POP POP POP POP POP POP JUMP JUMPDEST PUSH1 0x40 DUP1 MLOAD DUP1 DUP3 ADD DUP3 MSTORE PUSH1 0x60 DUP1 DUP3 MSTORE PUSH0 PUSH1 0x20 DUP4 ADD MSTORE DUP3 MLOAD PUSH2 0x100 DUP2 DUP6 ADD DUP2 DUP2 MSTORE PUSH2 0x160 DUP4 ADD SWAP1 SWAP6 MSTORE SWAP3 SWAP4 SWAP1 SWAP3 DUP4 SWAP3 DUP4 ADD DUP2 DUP1 CALLDATASIZE DUP4 CALLDATACOPY POP POP POP DUP2 MSTORE PUSH0 PUSH1 0x20 SWAP1 SWAP2 ADD MSTORE SWAP2 SWAP1 POP JUMP JUMPDEST PUSH1 0x40 DUP1 MLOAD DUP1 DUP3 ADD SWAP1 SWAP2 MSTORE PUSH1 0x60 DUP2 MSTORE PUSH0 PUSH1 0x20 DUP3 ADD MSTORE PUSH2 0x7D9 DUP4 PUSH1 0x3 PUSH2 0x9BB JUMP JUMPDEST PUSH2 0x7E3 DUP4 DUP4 PUSH2 0xA7F JUMP JUMPDEST POP DUP2 JUMPDEST SWAP3 SWAP2 POP POP JUMP JUMPDEST PUSH1 0x40 DUP1 MLOAD DUP1 DUP3 ADD SWAP1 SWAP2 MSTORE PUSH1 0x60 DUP2 MSTORE PUSH0 PUSH1 0x20 DUP3 ADD MSTORE PUSH2 0x817 DUP4 DUP4 MLOAD PUSH1 0x3 PUSH2 0x812 SWAP2 SWAP1 PUSH2 0x1182 JUMP JUMPDEST PUSH2 0x9BB JUMP JUMPDEST PUSH2 0x7E3 DUP4 DUP4 PUSH2 0xB99 JUMP JUMPDEST PUSH1 0x40 DUP1 MLOAD DUP1 DUP3 ADD SWAP1 SWAP2 MSTORE PUSH1 0x60 DUP2 MSTORE PUSH0 PUSH1 0x20 DUP3 ADD MSTORE PUSH2 0x840 DUP4 PUSH1 0x15 PUSH2 0x9BB JUMP JUMPDEST PUSH2 0x7E3 DUP4 DUP4 PUSH2 0xD68 JUMP JUMPDEST PUSH1 0x40 DUP1 MLOAD DUP1 DUP3 ADD SWAP1 SWAP2 MSTORE PUSH1 0x60 DUP2 MSTORE PUSH0 PUSH1 0x20 DUP3 ADD MSTORE PUSH2 0x869 DUP4 PUSH1 0x22 PUSH2 0x9BB JUMP JUMPDEST PUSH2 0x7E3 DUP4 DUP4 PUSH2 0xDD4 JUMP JUMPDEST PUSH1 0x40 DUP1 MLOAD DUP1 DUP3 ADD SWAP1 SWAP2 MSTORE PUSH1 0x60 DUP2 MSTORE PUSH0 PUSH1 0x20 DUP3 ADD MSTORE PUSH2 0x892 DUP4 PUSH1 0x3 PUSH2 0x9BB JUMP JUMPDEST PUSH2 0x7E3 DUP4 DUP4 PUSH2 0xE30 JUMP JUMPDEST PUSH1 0x40 DUP1 MLOAD DUP1 DUP3 ADD SWAP1 SWAP2 MSTORE PUSH1 0x60 DUP2 MSTORE PUSH0 PUSH1 0x20 DUP3 ADD MSTORE PUSH2 0x8BB DUP4 PUSH1 0x21 PUSH2 0x9BB JUMP JUMPDEST PUSH2 0x7E3 DUP4 DUP4 PUSH2 0xE7B JUMP JUMPDEST PUSH1 0x60 PUSH0 DUP3 PUSH1 0x20 ADD MLOAD PUSH8 0xFFFFFFFFFFFFFFFF DUP2 GT ISZERO PUSH2 0x8E5 JUMPI PUSH2 0x8E5 PUSH2 0x112E JUMP JUMPDEST PUSH1 0x40 MLOAD SWAP1 DUP1 DUP3 MSTORE DUP1 PUSH1 0x1F ADD PUSH1 0x1F NOT AND PUSH1 0x20 ADD DUP3 ADD PUSH1 0x40 MSTORE DUP1 ISZERO PUSH2 0x90F JUMPI PUSH1 0x20 DUP3 ADD DUP2 DUP1 CALLDATASIZE DUP4 CALLDATACOPY ADD SWAP1 POP JUMPDEST POP SWAP1 POP PUSH1 0x20 DUP4 MLOAD ADD PUSH1 0x20 DUP3 ADD PUSH1 0x20 DUP6 ADD MLOAD PUSH0 JUMPDEST DUP2 DUP2 LT ISZERO PUSH2 0x93A JUMPI DUP4 DUP2 ADD MLOAD DUP4 DUP3 ADD MSTORE PUSH1 0x20 ADD PUSH2 0x922 JUMP JUMPDEST POP SWAP3 SWAP6 SWAP5 POP POP POP POP POP JUMP JUMPDEST PUSH1 0x40 DUP1 MLOAD DUP1 DUP3 ADD SWAP1 SWAP2 MSTORE PUSH1 0x60 DUP2 MSTORE PUSH0 PUSH1 0x20 DUP3 ADD MSTORE PUSH2 0x964 DUP4 PUSH1 0x1 PUSH2 0x9BB JUMP JUMPDEST DUP2 PUSH2 0x970 JUMPI PUSH1 0xC2 PUSH2 0x973 JUMP JUMPDEST PUSH1 0xC3 JUMPDEST PUSH1 0xF8 SHL DUP4 PUSH0 ADD MLOAD DUP5 PUSH1 0x20 ADD DUP1 MLOAD DUP1 SWAP2 SWAP1 PUSH2 0x98C SWAP1 PUSH2 0x116A JUMP JUMPDEST SWAP1 MSTORE DUP2 MLOAD DUP2 LT PUSH2 0x99E JUMPI PUSH2 0x99E PUSH2 0x1142 JUMP JUMPDEST PUSH1 0x20 ADD ADD SWAP1 PUSH1 0x1 PUSH1 0x1 PUSH1 0xF8 SHL SUB NOT AND SWAP1 DUP2 PUSH0 BYTE SWAP1 MSTORE8 POP SWAP2 SWAP3 SWAP2 POP POP JUMP JUMPDEST PUSH0 DUP2 DUP4 PUSH1 0x20 ADD MLOAD PUSH2 0x9CC SWAP2 SWAP1 PUSH2 0x1182 JUMP JUMPDEST DUP4 MLOAD MLOAD SWAP1 SWAP2 POP DUP2 GT PUSH2 0x9DD JUMPI POP POP POP JUMP JUMPDEST DUP3 MLOAD MLOAD PUSH0 SWAP1 PUSH2 0x9ED SWAP1 PUSH1 0x2 PUSH2 0x1195 JUMP JUMPDEST SWAP1 POP DUP2 DUP2 LT ISZERO PUSH2 0xA05 JUMPI PUSH2 0xA02 DUP3 PUSH1 0x40 PUSH2 0x1182 JUMP JUMPDEST SWAP1 POP JUMPDEST PUSH0 DUP2 PUSH8 0xFFFFFFFFFFFFFFFF DUP2 GT ISZERO PUSH2 0xA1F JUMPI PUSH2 0xA1F PUSH2 0x112E JUMP JUMPDEST PUSH1 0x40 MLOAD SWAP1 DUP1 DUP3 MSTORE DUP1 PUSH1 0x1F ADD PUSH1 0x1F NOT AND PUSH1 0x20 ADD DUP3 ADD PUSH1 0x40 MSTORE DUP1 ISZERO PUSH2 0xA49 JUMPI PUSH1 0x20 DUP3 ADD DUP2 DUP1 CALLDATASIZE DUP4 CALLDATACOPY ADD SWAP1 POP JUMPDEST POP SWAP1 POP PUSH1 0x20 DUP6 MLOAD ADD PUSH1 0x20 DUP3 ADD PUSH1 0x20 DUP8 ADD MLOAD PUSH0 JUMPDEST DUP2 DUP2 LT ISZERO PUSH2 0xA74 JUMPI DUP4 DUP2 ADD MLOAD DUP4 DUP3 ADD MSTORE PUSH1 0x20 ADD PUSH2 0xA5C JUMP JUMPDEST POP POP POP SWAP5 MSTORE POP POP POP POP JUMP JUMPDEST PUSH1 0xF DUP2 GT PUSH2 0xAD7 JUMPI PUSH2 0xA92 DUP2 PUSH1 0x80 PUSH2 0x1182 JUMP JUMPDEST PUSH1 0xF8 SHL DUP3 PUSH0 ADD MLOAD DUP4 PUSH1 0x20 ADD DUP1 MLOAD DUP1 SWAP2 SWAP1 PUSH2 0xAAB SWAP1 PUSH2 0x116A JUMP JUMPDEST SWAP1 MSTORE DUP2 MLOAD DUP2 LT PUSH2 0xABD JUMPI PUSH2 0xABD PUSH2 0x1142 JUMP JUMPDEST PUSH1 0x20 ADD ADD SWAP1 PUSH1 0x1 PUSH1 0x1 PUSH1 0xF8 SHL SUB NOT AND SWAP1 DUP2 PUSH0 BYTE SWAP1 MSTORE8 POP POP POP JUMP JUMPDEST PUSH1 0xFF DUP2 GT PUSH2 0xB37 JUMPI DUP2 MLOAD PUSH1 0x20 DUP4 ADD DUP1 MLOAD PUSH1 0x1B PUSH1 0xFB SHL SWAP3 SWAP2 PUSH2 0xAF7 DUP3 PUSH2 0x116A JUMP JUMPDEST SWAP1 MSTORE DUP2 MLOAD DUP2 LT PUSH2 0xB09 JUMPI PUSH2 0xB09 PUSH2 0x1142 JUMP JUMPDEST PUSH1 0x20 ADD ADD SWAP1 PUSH1 0x1 PUSH1 0x1 PUSH1 0xF8 SHL SUB NOT AND SWAP1 DUP2 PUSH0 BYTE SWAP1 MSTORE8 POP DUP2 MLOAD PUSH1 0x20 DUP4 ADD DUP1 MLOAD PUSH1 0xF8 DUP5 SWAP1 SHL SWAP3 SWAP2 PUSH2 0xAAB DUP3 PUSH2 0x116A JUMP JUMPDEST DUP2 MLOAD PUSH1 0x20 DUP4 ADD DUP1 MLOAD PUSH1 0xD9 PUSH1 0xF8 SHL SWAP3 SWAP2 PUSH2 0xB4F DUP3 PUSH2 0x116A JUMP JUMPDEST SWAP1 MSTORE DUP2 MLOAD DUP2 LT PUSH2 0xB61 JUMPI PUSH2 0xB61 PUSH2 0x1142 JUMP JUMPDEST PUSH1 0x20 ADD ADD SWAP1 PUSH1 0x1 PUSH1 0x1 PUSH1 0xF8 SHL SUB NOT AND SWAP1 DUP2 PUSH0 BYTE SWAP1 MSTORE8 POP DUP2 MLOAD PUSH1 0x20 DUP4 ADD DUP1 MLOAD PUSH1 0x1 PUSH1 0x1 PUSH1 0xF8 SHL SUB NOT PUSH1 0xF0 DUP6 SWAP1 SHL AND SWAP3 SWAP2 PUSH2 0xAF7 DUP3 PUSH2 0x116A JUMP JUMPDEST DUP1 MLOAD DUP2 SWAP1 PUSH1 0x1F DUP2 GT PUSH2 0xBF6 JUMPI PUSH2 0xBB0 DUP2 PUSH1 0xA0 PUSH2 0x1182 JUMP JUMPDEST PUSH1 0xF8 SHL DUP5 PUSH0 ADD MLOAD DUP6 PUSH1 0x20 ADD DUP1 MLOAD DUP1 SWAP2 SWAP1 PUSH2 0xBC9 SWAP1 PUSH2 0x116A JUMP JUMPDEST SWAP1 MSTORE DUP2 MLOAD DUP2 LT PUSH2 0xBDB JUMPI PUSH2 0xBDB PUSH2 0x1142 JUMP JUMPDEST PUSH1 0x20 ADD ADD SWAP1 PUSH1 0x1 PUSH1 0x1 PUSH1 0xF8 SHL SUB NOT AND SWAP1 DUP2 PUSH0 BYTE SWAP1 MSTORE8 POP PUSH2 0xD21 JUMP JUMPDEST PUSH1 0xFF DUP2 GT PUSH2 0xC56 JUMPI DUP4 MLOAD PUSH1 0x20 DUP6 ADD DUP1 MLOAD PUSH1 0x69 PUSH1 0xF9 SHL SWAP3 SWAP2 PUSH2 0xC16 DUP3 PUSH2 0x116A JUMP JUMPDEST SWAP1 MSTORE DUP2 MLOAD DUP2 LT PUSH2 0xC28 JUMPI PUSH2 0xC28 PUSH2 0x1142 JUMP JUMPDEST PUSH1 0x20 ADD ADD SWAP1 PUSH1 0x1 PUSH1 0x1 PUSH1 0xF8 SHL SUB NOT AND SWAP1 DUP2 PUSH0 BYTE SWAP1 MSTORE8 POP DUP4 MLOAD PUSH1 0x20 DUP6 ADD DUP1 MLOAD PUSH1 0xF8 DUP5 SWAP1 SHL SWAP3 SWAP2 PUSH2 0xBC9 DUP3 PUSH2 0x116A JUMP JUMPDEST DUP4 MLOAD PUSH1 0x20 DUP6 ADD DUP1 MLOAD PUSH1 0xD3 PUSH1 0xF8 SHL SWAP3 SWAP2 PUSH2 0xC6E DUP3 PUSH2 0x116A JUMP JUMPDEST SWAP1 MSTORE DUP2 MLOAD DUP2 LT PUSH2 0xC80 JUMPI PUSH2 0xC80 PUSH2 0x1142 JUMP JUMPDEST PUSH1 0x20 ADD ADD SWAP1 PUSH1 0x1 PUSH1 0x1 PUSH1 0xF8 SHL SUB NOT AND SWAP1 DUP2 PUSH0 BYTE SWAP1 MSTORE8 POP DUP4 MLOAD PUSH1 0x20 DUP6 ADD DUP1 MLOAD PUSH1 0x1 PUSH1 0x1 PUSH1 0xF8 SHL SUB NOT PUSH1 0xF0 DUP6 SWAP1 SHL AND SWAP3 SWAP2 PUSH2 0xCB8 DUP3 PUSH2 0x116A JUMP JUMPDEST SWAP1 MSTORE DUP2 MLOAD DUP2 LT PUSH2 0xCCA JUMPI PUSH2 0xCCA PUSH2 0x1142 JUMP JUMPDEST PUSH1 0x20 ADD ADD SWAP1 PUSH1 0x1 PUSH1 0x1 PUSH1 0xF8 SHL SUB NOT AND SWAP1 DUP2 PUSH0 BYTE SWAP1 MSTORE8 POP DUP4 MLOAD PUSH1 0x20 DUP6 ADD DUP1 MLOAD PUSH1 0xF8 DUP5 SWAP1 SHL SWAP3 SWAP2 PUSH2 0xCF8 DUP3 PUSH2 0x116A JUMP JUMPDEST SWAP1 MSTORE DUP2 MLOAD DUP2 LT PUSH2 0xD0A JUMPI PUSH2 0xD0A PUSH2 0x1142 JUMP JUMPDEST PUSH1 0x20 ADD ADD SWAP1 PUSH1 0x1 PUSH1 0x1 PUSH1 0xF8 SHL SUB NOT AND SWAP1 DUP2 PUSH0 BYTE SWAP1 MSTORE8 POP JUMPDEST PUSH1 0x20 DUP3 ADD PUSH1 0x20 DUP6 ADD MLOAD PUSH1 0x20 DUP7 MLOAD ADD ADD PUSH0 JUMPDEST DUP4 DUP2 LT ISZERO PUSH2 0xD4A JUMPI DUP3 DUP2 ADD MLOAD DUP3 DUP3 ADD MSTORE PUSH1 0x20 ADD PUSH2 0xD32 JUMP JUMPDEST POP POP POP DUP1 DUP5 PUSH1 0x20 ADD DUP2 DUP2 MLOAD PUSH2 0xD5F SWAP2 SWAP1 PUSH2 0x1182 JUMP JUMPDEST SWAP1 MSTORE POP POP POP POP POP JUMP JUMPDEST DUP2 MLOAD PUSH1 0x20 DUP4 ADD DUP1 MLOAD PUSH1 0x35 PUSH1 0xFA SHL SWAP3 SWAP2 PUSH2 0xD80 DUP3 PUSH2 0x116A JUMP JUMPDEST SWAP1 MSTORE DUP2 MLOAD DUP2 LT PUSH2 0xD92 JUMPI PUSH2 0xD92 PUSH2 0x1142 JUMP JUMPDEST PUSH1 0x20 ADD ADD SWAP1 PUSH1 0x1 PUSH1 0x1 PUSH1 0xF8 SHL SUB NOT AND SWAP1 DUP2 PUSH0 BYTE SWAP1 MSTORE8 POP PUSH1 0x20 DUP3 ADD MLOAD PUSH1 0x20 DUP4 MLOAD ADD ADD DUP2 PUSH1 0x60 SHL DUP2 MSTORE POP PUSH1 0x14 DUP3 PUSH1 0x20 ADD DUP2 DUP2 MLOAD PUSH2 0xDCD SWAP2 SWAP1 PUSH2 0x1182 JUMP JUMPDEST SWAP1 MSTORE POP POP POP JUMP JUMPDEST DUP2 MLOAD PUSH1 0x20 DUP4 ADD DUP1 MLOAD PUSH1 0xD5 PUSH1 0xF8 SHL SWAP3 SWAP2 PUSH2 0xDEC DUP3 PUSH2 0x116A JUMP JUMPDEST SWAP1 MSTORE DUP2 MLOAD DUP2 LT PUSH2 0xDFE JUMPI PUSH2 0xDFE PUSH2 0x1142 JUMP JUMPDEST PUSH1 0x20 ADD ADD SWAP1 PUSH1 0x1 PUSH1 0x1 PUSH1 0xF8 SHL SUB NOT AND SWAP1 DUP2 PUSH0 BYTE SWAP1 MSTORE8 POP PUSH1 0x20 DUP3 DUP2 ADD DUP1 MLOAD DUP5 MLOAD ADD DUP3 ADD DUP4 SWAP1 MSTORE DUP1 MLOAD PUSH2 0xDCD SWAP1 DUP4 SWAP1 PUSH2 0x1182 JUMP JUMPDEST PUSH1 0xF DUP2 GT PUSH2 0xE43 JUMPI PUSH2 0xA92 DUP2 PUSH1 0x90 PUSH2 0x1182 JUMP JUMPDEST PUSH1 0xFF DUP2 GT PUSH2 0xE63 JUMPI DUP2 MLOAD PUSH1 0x20 DUP4 ADD DUP1 MLOAD PUSH1 0x6B PUSH1 0xF9 SHL SWAP3 SWAP2 PUSH2 0xAF7 DUP3 PUSH2 0x116A JUMP JUMPDEST DUP2 MLOAD PUSH1 0x20 DUP4 ADD DUP1 MLOAD PUSH1 0xD7 PUSH1 0xF8 SHL SWAP3 SWAP2 PUSH2 0xB4F DUP3 PUSH2 0x116A JUMP JUMPDEST PUSH1 0x7F DUP2 GT PUSH2 0xE9B JUMPI DUP2 MLOAD PUSH1 0x20 DUP4 ADD DUP1 MLOAD PUSH1 0xF8 DUP5 SWAP1 SHL SWAP3 SWAP2 PUSH2 0xAAB DUP3 PUSH2 0x116A JUMP JUMPDEST PUSH1 0xFF DUP2 GT PUSH2 0xEBB JUMPI DUP2 MLOAD PUSH1 0x20 DUP4 ADD DUP1 MLOAD PUSH1 0x31 PUSH1 0xFA SHL SWAP3 SWAP2 PUSH2 0xAF7 DUP3 PUSH2 0x116A JUMP JUMPDEST PUSH2 0xFFFF DUP2 GT PUSH2 0xF2F JUMPI DUP2 MLOAD PUSH1 0x20 DUP4 ADD DUP1 MLOAD PUSH1 0xC5 PUSH1 0xF8 SHL SWAP3 SWAP2 PUSH2 0xEDC DUP3 PUSH2 0x116A JUMP JUMPDEST SWAP1 MSTORE DUP2 MLOAD DUP2 LT PUSH2 0xEEE JUMPI PUSH2 0xEEE PUSH2 0x1142 JUMP JUMPDEST PUSH1 0x20 ADD ADD SWAP1 PUSH1 0x1 PUSH1 0x1 PUSH1 0xF8 SHL SUB NOT AND SWAP1 DUP2 PUSH0 BYTE SWAP1 MSTORE8 POP PUSH1 0x20 DUP3 ADD MLOAD PUSH1 0x20 DUP4 MLOAD ADD ADD DUP2 PUSH1 0x8 SHR DUP2 MSTORE8 DUP2 PUSH1 0x1 DUP3 ADD MSTORE8 POP PUSH1 0x2 DUP3 PUSH1 0x20 ADD DUP2 DUP2 MLOAD PUSH2 0xDCD SWAP2 SWAP1 PUSH2 0x1182 JUMP JUMPDEST PUSH4 0xFFFFFFFF DUP2 GT PUSH2 0xFB7 JUMPI DUP2 MLOAD PUSH1 0x20 DUP4 ADD DUP1 MLOAD PUSH1 0x63 PUSH1 0xF9 SHL SWAP3 SWAP2 PUSH2 0xF52 DUP3 PUSH2 0x116A JUMP JUMPDEST SWAP1 MSTORE DUP2 MLOAD DUP2 LT PUSH2 0xF64 JUMPI PUSH2 0xF64 PUSH2 0x1142 JUMP JUMPDEST PUSH1 0x20 ADD ADD SWAP1 PUSH1 0x1 PUSH1 0x1 PUSH1 0xF8 SHL SUB NOT AND SWAP1 DUP2 PUSH0 BYTE SWAP1 MSTORE8 POP PUSH1 0x20 DUP3 ADD MLOAD PUSH1 0x20 DUP4 MLOAD ADD ADD DUP2 PUSH1 0x18 SHR DUP2 MSTORE8 DUP2 PUSH1 0x10 SHR PUSH1 0x1 DUP3 ADD MSTORE8 DUP2 PUSH1 0x8 SHR PUSH1 0x2 DUP3 ADD MSTORE8 DUP2 PUSH1 0x3 DUP3 ADD MSTORE8 POP PUSH1 0x4 DUP3 PUSH1 0x20 ADD DUP2 DUP2 MLOAD PUSH2 0xDCD SWAP2 SWAP1 PUSH2 0x1182 JUMP JUMPDEST PUSH8 0xFFFFFFFFFFFFFFFF DUP2 GT PUSH2 0x1067 JUMPI DUP2 MLOAD PUSH1 0x20 DUP4 ADD DUP1 MLOAD PUSH1 0xC7 PUSH1 0xF8 SHL SWAP3 SWAP2 PUSH2 0xFDE DUP3 PUSH2 0x116A JUMP JUMPDEST SWAP1 MSTORE DUP2 MLOAD DUP2 LT PUSH2 0xFF0 JUMPI PUSH2 0xFF0 PUSH2 0x1142 JUMP JUMPDEST PUSH1 0x20 ADD ADD SWAP1 PUSH1 0x1 PUSH1 0x1 PUSH1 0xF8 SHL SUB NOT AND SWAP1 DUP2 PUSH0 BYTE SWAP1 MSTORE8 POP PUSH1 0x20 DUP3 ADD MLOAD PUSH1 0x20 DUP4 MLOAD ADD ADD DUP2 PUSH1 0x38 SHR DUP2 MSTORE8 DUP2 PUSH1 0x30 SHR PUSH1 0x1 DUP3 ADD MSTORE8 DUP2 PUSH1 0x28 SHR PUSH1 0x2 DUP3 ADD MSTORE8 DUP2 PUSH1 0x20 SHR PUSH1 0x3 DUP3 ADD MSTORE8 DUP2 PUSH1 0x18 SHR PUSH1 0x4 DUP3 ADD MSTORE8 DUP2 PUSH1 0x10 SHR PUSH1 0x5 DUP3 ADD MSTORE8 DUP2 PUSH1 0x8 SHR PUSH1 0x6 DUP3 ADD MSTORE8 DUP2 PUSH1 0x7 DUP3 ADD MSTORE8 POP PUSH1 0x8 DUP3 PUSH1 0x20 ADD DUP2 DUP2 MLOAD PUSH2 0xDCD SWAP2 SWAP1 PUSH2 0x1182 JUMP JUMPDEST DUP2 MLOAD PUSH1 0x20 DUP4 ADD DUP1 MLOAD PUSH1 0xC9 PUSH1 0xF8 SHL SWAP3 SWAP2 PUSH2 0xDEC DUP3 PUSH2 0x116A JUMP JUMPDEST PUSH0 PUSH1 0x20 DUP1 DUP4 MSTORE DUP4 MLOAD DUP1 DUP3 DUP6 ADD MSTORE PUSH0 JUMPDEST DUP2 DUP2 LT ISZERO PUSH2 0x10AA JUMPI DUP6 DUP2 ADD DUP4 ADD MLOAD DUP6 DUP3 ADD PUSH1 0x40 ADD MSTORE DUP3 ADD PUSH2 0x108E JUMP JUMPDEST POP PUSH0 PUSH1 0x40 DUP3 DUP7 ADD ADD MSTORE PUSH1 0x40 PUSH1 0x1F NOT PUSH1 0x1F DUP4 ADD AND DUP6 ADD ADD SWAP3 POP POP POP SWAP3 SWAP2 POP POP JUMP JUMPDEST DUP1 CALLDATALOAD PUSH1 0x1 PUSH1 0x1 PUSH1 0xA0 SHL SUB DUP2 AND DUP2 EQ PUSH2 0x10E0 JUMPI PUSH0 DUP1 REVERT JUMPDEST SWAP2 SWAP1 POP JUMP JUMPDEST PUSH0 DUP1 PUSH0 DUP1 PUSH0 PUSH1 0xA0 DUP7 DUP9 SUB SLT ISZERO PUSH2 0x10F9 JUMPI PUSH0 DUP1 REVERT JUMPDEST PUSH2 0x1102 DUP7 PUSH2 0x10CA JUMP JUMPDEST SWAP5 POP PUSH2 0x1110 PUSH1 0x20 DUP8 ADD PUSH2 0x10CA JUMP JUMPDEST SWAP5 SWAP8 SWAP5 SWAP7 POP POP POP POP PUSH1 0x40 DUP4 ADD CALLDATALOAD SWAP3 PUSH1 0x60 DUP2 ADD CALLDATALOAD SWAP3 PUSH1 0x80 SWAP1 SWAP2 ADD CALLDATALOAD SWAP2 POP JUMP JUMPDEST PUSH4 0x4E487B71 PUSH1 0xE0 SHL PUSH0 MSTORE PUSH1 0x41 PUSH1 0x4 MSTORE PUSH1 0x24 PUSH0 REVERT JUMPDEST PUSH4 0x4E487B71 PUSH1 0xE0 SHL PUSH0 MSTORE PUSH1 0x32 PUSH1 0x4 MSTORE PUSH1 0x24 PUSH0 REVERT JUMPDEST PUSH4 0x4E487B71 PUSH1 0xE0 SHL PUSH0 MSTORE PUSH1 0x11 PUSH1 0x4 MSTORE PUSH1 0x24 PUSH0 REVERT JUMPDEST PUSH0 PUSH1 0x1 DUP3 ADD PUSH2 0x117B JUMPI PUSH2 0x117B PUSH2 0x1156 JUMP JUMPDEST POP PUSH1 0x1 ADD SWAP1 JUMP JUMPDEST DUP1 DUP3 ADD DUP1 DUP3 GT ISZERO PUSH2 0x7E6 JUMPI PUSH2 0x7E6 PUSH2 0x1156 JUMP JUMPDEST DUP1 DUP3 MUL DUP2 ISZERO DUP3 DUP3 DIV DUP5 EQ OR PUSH2 0x7E6 JUMPI PUSH2 0x7E6 PUSH2 0x1156 JUMP INVALID LOG2 PUSH5 0x6970667358 0x22 SLT KECCAK256 PUSH10 0xF109DEA759B36AD41A5B 0x2E 0xB5 CODECOPY SELFBALANCE 0xF6 JUMP DUP6 0x2F 0xCE CREATE2 ISZERO PUSH9 0x71C3BB33EEEBCD6F9C PUSH5 0x736F6C6343 STOP ADDMOD EQ STOP CALLER "},"methodIdentifiers":{"encodeComplexObject()":"1f4ef43d","encodeNestedObject()":"3708614d","encodeTransaction(address,address,uint256,uint256,bytes32)":"bbdad36b","encodeUserDataNewWay()":"c46e8227","encodeUserDataOldWay()":"b65cb711"}}}}}