{"project/contracts/examples/BytecodeSizeDemo.sol":{"MinimalContractOldAPI":{"abi":[{"inputs":[],"name":"encode","outputs":[{"internalType":"bytes","name":"","type":"bytes"}],"stateMutability":"pure","type":"function"}],"evm":{"bytecode":{"linkReferences":{},"object":"608060405234801561000f575f80fd5b5061097c8061001d5f395ff3fe608060405234801561000f575f80fd5b5060043610610029575f3560e01c8063bd14598f1461002d575b5f80fd5b61003561004b565b604051610042919061087d565b60405180910390f35b60605f61005661012c565b9050610063816003610171565b5061008a81604051806040016040528060048152602001636e616d6560e01b8152506101a3565b506100b28160405180604001604052806005815260200164416c69636560d81b8152506101a3565b506100d8816040518060400160405280600381526020016261676560e81b8152506101a3565b506100e481601e6101d8565b5061010e816040518060400160405280600781526020016662616c616e636560c81b8152506101a3565b5061011c81620f42406101d8565b5061012681610201565b91505090565b60408051808201825260608082525f6020830152825161010081850181815261016083019095529293909283928301818036833750505081525f602090910152919050565b60408051808201909152606081525f6020820152610190836003610281565b61019a8383610345565b50815b92915050565b60408051808201909152606081525f60208201526101ce83835160036101c991906108f0565b610281565b61019a838361045f565b60408051808201909152606081525f60208201526101f7836021610281565b61019a838361062e565b60605f826020015167ffffffffffffffff811115610221576102216108c8565b6040519080825280601f01601f19166020018201604052801561024b576020820181803683370190505b50905060208351016020820160208501515f5b8181101561027657838101518382015260200161025e565b509295945050505050565b5f81836020015161029291906108f0565b83515190915081116102a357505050565b8251515f906102b3906002610903565b9050818110156102cb576102c88260406108f0565b90505b5f8167ffffffffffffffff8111156102e5576102e56108c8565b6040519080825280601f01601f19166020018201604052801561030f576020820181803683370190505b50905060208551016020820160208701515f5b8181101561033a578381015183820152602001610322565b505050945250505050565b600f811161039d576103588160806108f0565b60f81b825f01518360200180518091906103719061091a565b90528151811061038357610383610932565b60200101906001600160f81b03191690815f1a9053505050565b60ff81116103fd578151602083018051601b60fb1b92916103bd8261091a565b9052815181106103cf576103cf610932565b60200101906001600160f81b03191690815f1a905350815160208301805160f884901b92916103718261091a565b815160208301805160d960f81b92916104158261091a565b90528151811061042757610427610932565b60200101906001600160f81b03191690815f1a90535081516020830180516001600160f81b031960f085901b1692916103bd8261091a565b80518190601f81116104bc576104768160a06108f0565b60f81b845f015185602001805180919061048f9061091a565b9052815181106104a1576104a1610932565b60200101906001600160f81b03191690815f1a9053506105e7565b60ff811161051c578351602085018051606960f91b92916104dc8261091a565b9052815181106104ee576104ee610932565b60200101906001600160f81b03191690815f1a905350835160208501805160f884901b929161048f8261091a565b835160208501805160d360f81b92916105348261091a565b90528151811061054657610546610932565b60200101906001600160f81b03191690815f1a90535083516020850180516001600160f81b031960f085901b16929161057e8261091a565b90528151811061059057610590610932565b60200101906001600160f81b03191690815f1a905350835160208501805160f884901b92916105be8261091a565b9052815181106105d0576105d0610932565b60200101906001600160f81b03191690815f1a9053505b6020820160208501516020865101015f5b838110156106105782810151828201526020016105f8565b505050808460200181815161062591906108f0565b90525050505050565b607f811161064e57815160208301805160f884901b92916103718261091a565b60ff811161066e578151602083018051603160fa1b92916103bd8261091a565b61ffff81116106e957815160208301805160c560f81b929161068f8261091a565b9052815181106106a1576106a1610932565b60200101906001600160f81b03191690815f1a90535060208201516020835101018160081c8153816001820153506002826020018181516106e291906108f0565b9052505050565b63ffffffff8111610771578151602083018051606360f91b929161070c8261091a565b90528151811061071e5761071e610932565b60200101906001600160f81b03191690815f1a90535060208201516020835101018160181c81538160101c60018201538160081c6002820153816003820153506004826020018181516106e291906108f0565b67ffffffffffffffff811161082157815160208301805160c760f81b92916107988261091a565b9052815181106107aa576107aa610932565b60200101906001600160f81b03191690815f1a90535060208201516020835101018160381c81538160301c60018201538160281c60028201538160201c60038201538160181c60048201538160101c60058201538160081c6006820153816007820153506008826020018181516106e291906108f0565b815160208301805160c960f81b92916108398261091a565b90528151811061084b5761084b610932565b60200101906001600160f81b03191690815f1a90535060208281018051845101820183905280516106e29083906108f0565b5f6020808352835180828501525f5b818110156108a85785810183015185820160400152820161088c565b505f604082860101526040601f19601f8301168501019250505092915050565b634e487b7160e01b5f52604160045260245ffd5b634e487b7160e01b5f52601160045260245ffd5b8082018082111561019d5761019d6108dc565b808202811582820484141761019d5761019d6108dc565b5f6001820161092b5761092b6108dc565b5060010190565b634e487b7160e01b5f52603260045260245ffdfea264697066735822122062b71cdc7dd41260f40c639bdaa956258dd7113bae83df55eb9e07b6203916bf64736f6c63430008140033","opcodes":"PUSH1 0x80 PUSH1 0x40 MSTORE CALLVALUE DUP1 ISZERO PUSH2 0xF JUMPI PUSH0 DUP1 REVERT JUMPDEST POP PUSH2 0x97C DUP1 PUSH2 0x1D PUSH0 CODECOPY PUSH0 RETURN INVALID PUSH1 0x80 PUSH1 0x40 MSTORE CALLVALUE DUP1 ISZERO PUSH2 0xF JUMPI PUSH0 DUP1 REVERT JUMPDEST POP PUSH1 0x4 CALLDATASIZE LT PUSH2 0x29 JUMPI PUSH0 CALLDATALOAD PUSH1 0xE0 SHR DUP1 PUSH4 0xBD14598F EQ PUSH2 0x2D JUMPI JUMPDEST PUSH0 DUP1 REVERT JUMPDEST PUSH2 0x35 PUSH2 0x4B JUMP JUMPDEST PUSH1 0x40 MLOAD PUSH2 0x42 SWAP2 SWAP1 PUSH2 0x87D JUMP JUMPDEST PUSH1 0x40 MLOAD DUP1 SWAP2 SUB SWAP1 RETURN JUMPDEST PUSH1 0x60 PUSH0 PUSH2 0x56 PUSH2 0x12C JUMP JUMPDEST SWAP1 POP PUSH2 0x63 DUP2 PUSH1 0x3 PUSH2 0x171 JUMP JUMPDEST POP PUSH2 0x8A DUP2 PUSH1 0x40 MLOAD DUP1 PUSH1 0x40 ADD PUSH1 0x40 MSTORE DUP1 PUSH1 0x4 DUP2 MSTORE PUSH1 0x20 ADD PUSH4 0x6E616D65 PUSH1 0xE0 SHL DUP2 MSTORE POP PUSH2 0x1A3 JUMP JUMPDEST POP PUSH2 0xB2 DUP2 PUSH1 0x40 MLOAD DUP1 PUSH1 0x40 ADD PUSH1 0x40 MSTORE DUP1 PUSH1 0x5 DUP2 MSTORE PUSH1 0x20 ADD PUSH5 0x416C696365 PUSH1 0xD8 SHL DUP2 MSTORE POP PUSH2 0x1A3 JUMP JUMPDEST POP PUSH2 0xD8 DUP2 PUSH1 0x40 MLOAD DUP1 PUSH1 0x40 ADD PUSH1 0x40 MSTORE DUP1 PUSH1 0x3 DUP2 MSTORE PUSH1 0x20 ADD PUSH3 0x616765 PUSH1 0xE8 SHL DUP2 MSTORE POP PUSH2 0x1A3 JUMP JUMPDEST POP PUSH2 0xE4 DUP2 PUSH1 0x1E PUSH2 0x1D8 JUMP JUMPDEST POP PUSH2 0x10E DUP2 PUSH1 0x40 MLOAD DUP1 PUSH1 0x40 ADD PUSH1 0x40 MSTORE DUP1 PUSH1 0x7 DUP2 MSTORE PUSH1 0x20 ADD PUSH7 0x62616C616E6365 PUSH1 0xC8 SHL DUP2 MSTORE POP PUSH2 0x1A3 JUMP JUMPDEST POP PUSH2 0x11C DUP2 PUSH3 0xF4240 PUSH2 0x1D8 JUMP JUMPDEST POP PUSH2 0x126 DUP2 PUSH2 0x201 JUMP JUMPDEST SWAP2 POP POP SWAP1 JUMP JUMPDEST PUSH1 0x40 DUP1 MLOAD DUP1 DUP3 ADD DUP3 MSTORE PUSH1 0x60 DUP1 DUP3 MSTORE PUSH0 PUSH1 0x20 DUP4 ADD MSTORE DUP3 MLOAD PUSH2 0x100 DUP2 DUP6 ADD DUP2 DUP2 MSTORE PUSH2 0x160 DUP4 ADD SWAP1 SWAP6 MSTORE SWAP3 SWAP4 SWAP1 SWAP3 DUP4 SWAP3 DUP4 ADD DUP2 DUP1 CALLDATASIZE DUP4 CALLDATACOPY POP POP POP DUP2 MSTORE PUSH0 PUSH1 0x20 SWAP1 SWAP2 ADD MSTORE SWAP2 SWAP1 POP JUMP JUMPDEST PUSH1 0x40 DUP1 MLOAD DUP1 DUP3 ADD SWAP1 SWAP2 MSTORE PUSH1 0x60 DUP2 MSTORE PUSH0 PUSH1 0x20 DUP3 ADD MSTORE PUSH2 0x190 DUP4 PUSH1 0x3 PUSH2 0x281 JUMP JUMPDEST PUSH2 0x19A DUP4 DUP4 PUSH2 0x345 JUMP JUMPDEST POP DUP2 JUMPDEST SWAP3 SWAP2 POP POP JUMP JUMPDEST PUSH1 0x40 DUP1 MLOAD DUP1 DUP3 ADD SWAP1 SWAP2 MSTORE PUSH1 0x60 DUP2 MSTORE PUSH0 PUSH1 0x20 DUP3 ADD MSTORE PUSH2 0x1CE DUP4 DUP4 MLOAD PUSH1 0x3 PUSH2 0x1C9 SWAP2 SWAP1 PUSH2 0x8F0 JUMP JUMPDEST PUSH2 0x281 JUMP JUMPDEST PUSH2 0x19A DUP4 DUP4 PUSH2 0x45F JUMP JUMPDEST PUSH1 0x40 DUP1 MLOAD DUP1 DUP3 ADD SWAP1 SWAP2 MSTORE PUSH1 0x60 DUP2 MSTORE PUSH0 PUSH1 0x20 DUP3 ADD MSTORE PUSH2 0x1F7 DUP4 PUSH1 0x21 PUSH2 0x281 JUMP JUMPDEST PUSH2 0x19A DUP4 DUP4 PUSH2 0x62E JUMP JUMPDEST PUSH1 0x60 PUSH0 DUP3 PUSH1 0x20 ADD MLOAD PUSH8 0xFFFFFFFFFFFFFFFF DUP2 GT ISZERO PUSH2 0x221 JUMPI PUSH2 0x221 PUSH2 0x8C8 JUMP JUMPDEST PUSH1 0x40 MLOAD SWAP1 DUP1 DUP3 MSTORE DUP1 PUSH1 0x1F ADD PUSH1 0x1F NOT AND PUSH1 0x20 ADD DUP3 ADD PUSH1 0x40 MSTORE DUP1 ISZERO PUSH2 0x24B JUMPI PUSH1 0x20 DUP3 ADD DUP2 DUP1 CALLDATASIZE DUP4 CALLDATACOPY ADD SWAP1 POP JUMPDEST POP SWAP1 POP PUSH1 0x20 DUP4 MLOAD ADD PUSH1 0x20 DUP3 ADD PUSH1 0x20 DUP6 ADD MLOAD PUSH0 JUMPDEST DUP2 DUP2 LT ISZERO PUSH2 0x276 JUMPI DUP4 DUP2 ADD MLOAD DUP4 DUP3 ADD MSTORE PUSH1 0x20 ADD PUSH2 0x25E JUMP JUMPDEST POP SWAP3 SWAP6 SWAP5 POP POP POP POP POP JUMP JUMPDEST PUSH0 DUP2 DUP4 PUSH1 0x20 ADD MLOAD PUSH2 0x292 SWAP2 SWAP1 PUSH2 0x8F0 JUMP JUMPDEST DUP4 MLOAD MLOAD SWAP1 SWAP2 POP DUP2 GT PUSH2 0x2A3 JUMPI POP POP POP JUMP JUMPDEST DUP3 MLOAD MLOAD PUSH0 SWAP1 PUSH2 0x2B3 SWAP1 PUSH1 0x2 PUSH2 0x903 JUMP JUMPDEST SWAP1 POP DUP2 DUP2 LT ISZERO PUSH2 0x2CB JUMPI PUSH2 0x2C8 DUP3 PUSH1 0x40 PUSH2 0x8F0 JUMP JUMPDEST SWAP1 POP JUMPDEST PUSH0 DUP2 PUSH8 0xFFFFFFFFFFFFFFFF DUP2 GT ISZERO PUSH2 0x2E5 JUMPI PUSH2 0x2E5 PUSH2 0x8C8 JUMP JUMPDEST PUSH1 0x40 MLOAD SWAP1 DUP1 DUP3 MSTORE DUP1 PUSH1 0x1F ADD PUSH1 0x1F NOT AND PUSH1 0x20 ADD DUP3 ADD PUSH1 0x40 MSTORE DUP1 ISZERO PUSH2 0x30F JUMPI PUSH1 0x20 DUP3 ADD DUP2 DUP1 CALLDATASIZE DUP4 CALLDATACOPY ADD SWAP1 POP JUMPDEST POP SWAP1 POP PUSH1 0x20 DUP6 MLOAD ADD PUSH1 0x20 DUP3 ADD PUSH1 0x20 DUP8 ADD MLOAD PUSH0 JUMPDEST DUP2 DUP2 LT ISZERO PUSH2 0x33A JUMPI DUP4 DUP2 ADD MLOAD DUP4 DUP3 ADD MSTORE PUSH1 0x20 ADD PUSH2 0x322 JUMP JUMPDEST POP POP POP SWAP5 MSTORE POP POP POP POP JUMP JUMPDEST PUSH1 0xF DUP2 GT PUSH2 0x39D JUMPI PUSH2 0x358 DUP2 PUSH1 0x80 PUSH2 0x8F0 JUMP JUMPDEST PUSH1 0xF8 SHL DUP3 PUSH0 ADD MLOAD DUP4 PUSH1 0x20 ADD DUP1 MLOAD DUP1 SWAP2 SWAP1 PUSH2 0x371 SWAP1 PUSH2 0x91A JUMP JUMPDEST SWAP1 MSTORE DUP2 MLOAD DUP2 LT PUSH2 0x383 JUMPI PUSH2 0x383 PUSH2 0x932 JUMP JUMPDEST PUSH1 0x20 ADD ADD SWAP1 PUSH1 0x1 PUSH1 0x1 PUSH1 0xF8 SHL SUB NOT AND SWAP1 DUP2 PUSH0 BYTE SWAP1 MSTORE8 POP POP POP JUMP JUMPDEST PUSH1 0xFF DUP2 GT PUSH2 0x3FD JUMPI DUP2 MLOAD PUSH1 0x20 DUP4 ADD DUP1 MLOAD PUSH1 0x1B PUSH1 0xFB SHL SWAP3 SWAP2 PUSH2 0x3BD DUP3 PUSH2 0x91A JUMP JUMPDEST SWAP1 MSTORE DUP2 MLOAD DUP2 LT PUSH2 0x3CF JUMPI PUSH2 0x3CF PUSH2 0x932 JUMP JUMPDEST PUSH1 0x20 ADD ADD SWAP1 PUSH1 0x1 PUSH1 0x1 PUSH1 0xF8 SHL SUB NOT AND SWAP1 DUP2 PUSH0 BYTE SWAP1 MSTORE8 POP DUP2 MLOAD PUSH1 0x20 DUP4 ADD DUP1 MLOAD PUSH1 0xF8 DUP5 SWAP1 SHL SWAP3 SWAP2 PUSH2 0x371 DUP3 PUSH2 0x91A JUMP JUMPDEST DUP2 MLOAD PUSH1 0x20 DUP4 ADD DUP1 MLOAD PUSH1 0xD9 PUSH1 0xF8 SHL SWAP3 SWAP2 PUSH2 0x415 DUP3 PUSH2 0x91A JUMP JUMPDEST SWAP1 MSTORE DUP2 MLOAD DUP2 LT PUSH2 0x427 JUMPI PUSH2 0x427 PUSH2 0x932 JUMP JUMPDEST PUSH1 0x20 ADD ADD SWAP1 PUSH1 0x1 PUSH1 0x1 PUSH1 0xF8 SHL SUB NOT AND SWAP1 DUP2 PUSH0 BYTE SWAP1 MSTORE8 POP DUP2 MLOAD PUSH1 0x20 DUP4 ADD DUP1 MLOAD PUSH1 0x1 PUSH1 0x1 PUSH1 0xF8 SHL SUB NOT PUSH1 0xF0 DUP6 SWAP1 SHL AND SWAP3 SWAP2 PUSH2 0x3BD DUP3 PUSH2 0x91A JUMP JUMPDEST DUP1 MLOAD DUP2 SWAP1 PUSH1 0x1F DUP2 GT PUSH2 0x4BC JUMPI PUSH2 0x476 DUP2 PUSH1 0xA0 PUSH2 0x8F0 JUMP JUMPDEST PUSH1 0xF8 SHL DUP5 PUSH0 ADD MLOAD DUP6 PUSH1 0x20 ADD DUP1 MLOAD DUP1 SWAP2 SWAP1 PUSH2 0x48F SWAP1 PUSH2 0x91A JUMP JUMPDEST SWAP1 MSTORE DUP2 MLOAD DUP2 LT PUSH2 0x4A1 JUMPI PUSH2 0x4A1 PUSH2 0x932 JUMP JUMPDEST PUSH1 0x20 ADD ADD SWAP1 PUSH1 0x1 PUSH1 0x1 PUSH1 0xF8 SHL SUB NOT AND SWAP1 DUP2 PUSH0 BYTE SWAP1 MSTORE8 POP PUSH2 0x5E7 JUMP JUMPDEST PUSH1 0xFF DUP2 GT PUSH2 0x51C JUMPI DUP4 MLOAD PUSH1 0x20 DUP6 ADD DUP1 MLOAD PUSH1 0x69 PUSH1 0xF9 SHL SWAP3 SWAP2 PUSH2 0x4DC DUP3 PUSH2 0x91A JUMP JUMPDEST SWAP1 MSTORE DUP2 MLOAD DUP2 LT PUSH2 0x4EE JUMPI PUSH2 0x4EE PUSH2 0x932 JUMP JUMPDEST PUSH1 0x20 ADD ADD SWAP1 PUSH1 0x1 PUSH1 0x1 PUSH1 0xF8 SHL SUB NOT AND SWAP1 DUP2 PUSH0 BYTE SWAP1 MSTORE8 POP DUP4 MLOAD PUSH1 0x20 DUP6 ADD DUP1 MLOAD PUSH1 0xF8 DUP5 SWAP1 SHL SWAP3 SWAP2 PUSH2 0x48F DUP3 PUSH2 0x91A JUMP JUMPDEST DUP4 MLOAD PUSH1 0x20 DUP6 ADD DUP1 MLOAD PUSH1 0xD3 PUSH1 0xF8 SHL SWAP3 SWAP2 PUSH2 0x534 DUP3 PUSH2 0x91A JUMP JUMPDEST SWAP1 MSTORE DUP2 MLOAD DUP2 LT PUSH2 0x546 JUMPI PUSH2 0x546 PUSH2 0x932 JUMP JUMPDEST PUSH1 0x20 ADD ADD SWAP1 PUSH1 0x1 PUSH1 0x1 PUSH1 0xF8 SHL SUB NOT AND SWAP1 DUP2 PUSH0 BYTE SWAP1 MSTORE8 POP DUP4 MLOAD PUSH1 0x20 DUP6 ADD DUP1 MLOAD PUSH1 0x1 PUSH1 0x1 PUSH1 0xF8 SHL SUB NOT PUSH1 0xF0 DUP6 SWAP1 SHL AND SWAP3 SWAP2 PUSH2 0x57E DUP3 PUSH2 0x91A JUMP JUMPDEST SWAP1 MSTORE DUP2 MLOAD DUP2 LT PUSH2 0x590 JUMPI PUSH2 0x590 PUSH2 0x932 JUMP JUMPDEST PUSH1 0x20 ADD ADD SWAP1 PUSH1 0x1 PUSH1 0x1 PUSH1 0xF8 SHL SUB NOT AND SWAP1 DUP2 PUSH0 BYTE SWAP1 MSTORE8 POP DUP4 MLOAD PUSH1 0x20 DUP6 ADD DUP1 MLOAD PUSH1 0xF8 DUP5 SWAP1 SHL SWAP3 SWAP2 PUSH2 0x5BE DUP3 PUSH2 0x91A JUMP JUMPDEST SWAP1 MSTORE DUP2 MLOAD DUP2 LT PUSH2 0x5D0 JUMPI PUSH2 0x5D0 PUSH2 0x932 JUMP JUMPDEST PUSH1 0x20 ADD ADD SWAP1 PUSH1 0x1 PUSH1 0x1 PUSH1 0xF8 SHL SUB NOT AND SWAP1 DUP2 PUSH0 BYTE SWAP1 MSTORE8 POP JUMPDEST PUSH1 0x20 DUP3 ADD PUSH1 0x20 DUP6 ADD MLOAD PUSH1 0x20 DUP7 MLOAD ADD ADD PUSH0 JUMPDEST DUP4 DUP2 LT ISZERO PUSH2 0x610 JUMPI DUP3 DUP2 ADD MLOAD DUP3 DUP3 ADD MSTORE PUSH1 0x20 ADD PUSH2 0x5F8 JUMP JUMPDEST POP POP POP DUP1 DUP5 PUSH1 0x20 ADD DUP2 DUP2 MLOAD PUSH2 0x625 SWAP2 SWAP1 PUSH2 0x8F0 JUMP JUMPDEST SWAP1 MSTORE POP POP POP POP POP JUMP JUMPDEST PUSH1 0x7F DUP2 GT PUSH2 0x64E JUMPI DUP2 MLOAD PUSH1 0x20 DUP4 ADD DUP1 MLOAD PUSH1 0xF8 DUP5 SWAP1 SHL SWAP3 SWAP2 PUSH2 0x371 DUP3 PUSH2 0x91A JUMP JUMPDEST PUSH1 0xFF DUP2 GT PUSH2 0x66E JUMPI DUP2 MLOAD PUSH1 0x20 DUP4 ADD DUP1 MLOAD PUSH1 0x31 PUSH1 0xFA SHL SWAP3 SWAP2 PUSH2 0x3BD DUP3 PUSH2 0x91A JUMP JUMPDEST PUSH2 0xFFFF DUP2 GT PUSH2 0x6E9 JUMPI DUP2 MLOAD PUSH1 0x20 DUP4 ADD DUP1 MLOAD PUSH1 0xC5 PUSH1 0xF8 SHL SWAP3 SWAP2 PUSH2 0x68F DUP3 PUSH2 0x91A JUMP JUMPDEST SWAP1 MSTORE DUP2 MLOAD DUP2 LT PUSH2 0x6A1 JUMPI PUSH2 0x6A1 PUSH2 0x932 JUMP JUMPDEST PUSH1 0x20 ADD ADD SWAP1 PUSH1 0x1 PUSH1 0x1 PUSH1 0xF8 SHL SUB NOT AND SWAP1 DUP2 PUSH0 BYTE SWAP1 MSTORE8 POP PUSH1 0x20 DUP3 ADD MLOAD PUSH1 0x20 DUP4 MLOAD ADD ADD DUP2 PUSH1 0x8 SHR DUP2 MSTORE8 DUP2 PUSH1 0x1 DUP3 ADD MSTORE8 POP PUSH1 0x2 DUP3 PUSH1 0x20 ADD DUP2 DUP2 MLOAD PUSH2 0x6E2 SWAP2 SWAP1 PUSH2 0x8F0 JUMP JUMPDEST SWAP1 MSTORE POP POP POP JUMP JUMPDEST PUSH4 0xFFFFFFFF DUP2 GT PUSH2 0x771 JUMPI DUP2 MLOAD PUSH1 0x20 DUP4 ADD DUP1 MLOAD PUSH1 0x63 PUSH1 0xF9 SHL SWAP3 SWAP2 PUSH2 0x70C DUP3 PUSH2 0x91A JUMP JUMPDEST SWAP1 MSTORE DUP2 MLOAD DUP2 LT PUSH2 0x71E JUMPI PUSH2 0x71E PUSH2 0x932 JUMP JUMPDEST PUSH1 0x20 ADD ADD SWAP1 PUSH1 0x1 PUSH1 0x1 PUSH1 0xF8 SHL SUB NOT AND SWAP1 DUP2 PUSH0 BYTE SWAP1 MSTORE8 POP PUSH1 0x20 DUP3 ADD MLOAD PUSH1 0x20 DUP4 MLOAD ADD ADD DUP2 PUSH1 0x18 SHR DUP2 MSTORE8 DUP2 PUSH1 0x10 SHR PUSH1 0x1 DUP3 ADD MSTORE8 DUP2 PUSH1 0x8 SHR PUSH1 0x2 DUP3 ADD MSTORE8 DUP2 PUSH1 0x3 DUP3 ADD MSTORE8 POP PUSH1 0x4 DUP3 PUSH1 0x20 ADD DUP2 DUP2 MLOAD PUSH2 0x6E2 SWAP2 SWAP1 PUSH2 0x8F0 JUMP JUMPDEST PUSH8 0xFFFFFFFFFFFFFFFF DUP2 GT PUSH2 0x821 JUMPI DUP2 MLOAD PUSH1 0x20 DUP4 ADD DUP1 MLOAD PUSH1 0xC7 PUSH1 0xF8 SHL SWAP3 SWAP2 PUSH2 0x798 DUP3 PUSH2 0x91A JUMP JUMPDEST SWAP1 MSTORE DUP2 MLOAD DUP2 LT PUSH2 0x7AA JUMPI PUSH2 0x7AA PUSH2 0x932 JUMP JUMPDEST PUSH1 0x20 ADD ADD SWAP1 PUSH1 0x1 PUSH1 0x1 PUSH1 0xF8 SHL SUB NOT AND SWAP1 DUP2 PUSH0 BYTE SWAP1 MSTORE8 POP PUSH1 0x20 DUP3 ADD MLOAD PUSH1 0x20 DUP4 MLOAD ADD ADD DUP2 PUSH1 0x38 SHR DUP2 MSTORE8 DUP2 PUSH1 0x30 SHR PUSH1 0x1 DUP3 ADD MSTORE8 DUP2 PUSH1 0x28 SHR PUSH1 0x2 DUP3 ADD MSTORE8 DUP2 PUSH1 0x20 SHR PUSH1 0x3 DUP3 ADD MSTORE8 DUP2 PUSH1 0x18 SHR PUSH1 0x4 DUP3 ADD MSTORE8 DUP2 PUSH1 0x10 SHR PUSH1 0x5 DUP3 ADD MSTORE8 DUP2 PUSH1 0x8 SHR PUSH1 0x6 DUP3 ADD MSTORE8 DUP2 PUSH1 0x7 DUP3 ADD MSTORE8 POP PUSH1 0x8 DUP3 PUSH1 0x20 ADD DUP2 DUP2 MLOAD PUSH2 0x6E2 SWAP2 SWAP1 PUSH2 0x8F0 JUMP JUMPDEST DUP2 MLOAD PUSH1 0x20 DUP4 ADD DUP1 MLOAD PUSH1 0xC9 PUSH1 0xF8 SHL SWAP3 SWAP2 PUSH2 0x839 DUP3 PUSH2 0x91A JUMP JUMPDEST SWAP1 MSTORE DUP2 MLOAD DUP2 LT PUSH2 0x84B JUMPI PUSH2 0x84B PUSH2 0x932 JUMP JUMPDEST PUSH1 0x20 ADD ADD SWAP1 PUSH1 0x1 PUSH1 0x1 PUSH1 0xF8 SHL SUB NOT AND SWAP1 DUP2 PUSH0 BYTE SWAP1 MSTORE8 POP PUSH1 0x20 DUP3 DUP2 ADD DUP1 MLOAD DUP5 MLOAD ADD DUP3 ADD DUP4 SWAP1 MSTORE DUP1 MLOAD PUSH2 0x6E2 SWAP1 DUP4 SWAP1 PUSH2 0x8F0 JUMP JUMPDEST PUSH0 PUSH1 0x20 DUP1 DUP4 MSTORE DUP4 MLOAD DUP1 DUP3 DUP6 ADD MSTORE PUSH0 JUMPDEST DUP2 DUP2 LT ISZERO PUSH2 0x8A8 JUMPI DUP6 DUP2 ADD DUP4 ADD MLOAD DUP6 DUP3 ADD PUSH1 0x40 ADD MSTORE DUP3 ADD PUSH2 0x88C JUMP JUMPDEST POP PUSH0 PUSH1 0x40 DUP3 DUP7 ADD ADD MSTORE PUSH1 0x40 PUSH1 0x1F NOT PUSH1 0x1F DUP4 ADD AND DUP6 ADD ADD SWAP3 POP POP POP SWAP3 SWAP2 POP POP JUMP JUMPDEST PUSH4 0x4E487B71 PUSH1 0xE0 SHL PUSH0 MSTORE PUSH1 0x41 PUSH1 0x4 MSTORE PUSH1 0x24 PUSH0 REVERT JUMPDEST PUSH4 0x4E487B71 PUSH1 0xE0 SHL PUSH0 MSTORE PUSH1 0x11 PUSH1 0x4 MSTORE PUSH1 0x24 PUSH0 REVERT JUMPDEST DUP1 DUP3 ADD DUP1 DUP3 GT ISZERO PUSH2 0x19D JUMPI PUSH2 0x19D PUSH2 0x8DC JUMP JUMPDEST DUP1 DUP3 MUL DUP2 ISZERO DUP3 DUP3 DIV DUP5 EQ OR PUSH2 0x19D JUMPI PUSH2 0x19D PUSH2 0x8DC JUMP JUMPDEST PUSH0 PUSH1 0x1 DUP3 ADD PUSH2 0x92B JUMPI PUSH2 0x92B PUSH2 0x8DC JUMP JUMPDEST POP PUSH1 0x1 ADD SWAP1 JUMP JUMPDEST PUSH4 0x4E487B71 PUSH1 0xE0 SHL PUSH0 MSTORE PUSH1 0x32 PUSH1 0x4 MSTORE PUSH1 0x24 PUSH0 REVERT INVALID LOG2 PUSH5 0x6970667358 0x22 SLT KECCAK256 PUSH3 0xB71CDC PUSH30 0xD41260F40C639BDAA956258DD7113BAE83DF55EB9E07B6203916BF64736F PUSH13 0x63430008140033000000000000 "},"methodIdentifiers":{"encode()":"bd14598f"}}}}}