{"project/contracts/examples/SequentialEncodingExample.sol":{"SequentialEncodingExample":{"abi":[{"inputs":[],"name":"decodeMapThenMoreData","outputs":[{"internalType":"uint256","name":"mapValueA","type":"uint256"},{"internalType":"uint256","name":"mapValueB","type":"uint256"},{"internalType":"bool","name":"hasMoreData","type":"bool"},{"internalType":"uint256","name":"afterMapNumber","type":"uint256"},{"internalType":"string","name":"afterMapString","type":"string"}],"stateMutability":"pure","type":"function"},{"inputs":[],"name":"decodeMismatchedCount","outputs":[{"internalType":"uint256","name":"mapEntryCount","type":"uint256"},{"internalType":"uint256","name":"firstValue","type":"uint256"},{"internalType":"uint256","name":"secondValue","type":"uint256"},{"internalType":"bool","name":"hasDataAfterMap","type":"bool"},{"internalType":"string","name":"extraKey","type":"string"},{"internalType":"uint256","name":"extraValue","type":"uint256"}],"stateMutability":"pure","type":"function"},{"inputs":[],"name":"demonstrateSequentialEncoding","outputs":[{"internalType":"bytes","name":"justMap","type":"bytes"},{"internalType":"bytes","name":"mapPlusOne","type":"bytes"},{"internalType":"bytes","name":"mapPlusTwo","type":"bytes"},{"internalType":"bool","name":"lengthsMatch","type":"bool"}],"stateMutability":"pure","type":"function"},{"inputs":[],"name":"encodeMapThenMoreData","outputs":[{"internalType":"bytes","name":"","type":"bytes"}],"stateMutability":"pure","type":"function"},{"inputs":[],"name":"encodeMismatchedCount","outputs":[{"internalType":"bytes","name":"","type":"bytes"}],"stateMutability":"pure","type":"function"},{"inputs":[],"name":"encodeProperlyWithArray","outputs":[{"internalType":"bytes","name":"","type":"bytes"}],"stateMutability":"pure","type":"function"},{"inputs":[],"name":"encodeProperlyWithOuterMap","outputs":[{"internalType":"bytes","name":"","type":"bytes"}],"stateMutability":"pure","type":"function"}],"evm":{"bytecode":{"linkReferences":{},"object":"608060405234801561000f575f80fd5b506115fa8061001d5f395ff3fe608060405234801561000f575f80fd5b506004361061007a575f3560e01c80639de023a0116100585780639de023a0146100cd578063bd1a9b65146100d5578063daad53d8146100ef578063faf193e9146100f7575f80fd5b80633578fce71461007e5780633b996f2e146100a057806371eca3f9146100b8575b5f80fd5b6100866100ff565b604051610097959493929190611439565b60405180910390f35b6100a86101eb565b6040516100979493929190611470565b6100c0610327565b60405161009791906114bc565b6100c0610466565b6100dd6104f6565b604051610097969594939291906114d5565b6100c0610596565b6100c061064b565b5f805f8060605f61010e61064b565b604080518082018252606081525f602091820181905282518084019093528383529082018190529192509061014282610663565b90508060021461018e5760405162461bcd60e51b81526020600482015260126024820152714578706563746564203220656e747269657360701b60448201526064015b60405180910390fd5b610197826107c2565b506101a1826109e7565b97506101ac826107c2565b506101b6826109e7565b825151602084015191985011955085156101e1576101d3826109e7565b94506101de826107c2565b93505b5050509091929394565b60608060605f806101fa610bce565b9050610207816002610c13565b5061022b81604051806040016040528060018152602001606160f81b815250610c45565b50610237816001610c7a565b5061025b81604051806040016040528060018152602001603160f91b815250610c45565b50610267816002610c7a565b5061027181610ca3565b94505f61027c610bce565b9050610289816002610c13565b506102ad81604051806040016040528060018152602001606160f81b815250610c45565b506102b9816001610c7a565b506102dd81604051806040016040528060018152602001603160f91b815250610c45565b506102e9816002610c7a565b506102f581602a610c7a565b506102ff81610ca3565b945061030961064b565b93508551855111801561031d575084518451115b9250505090919293565b60605f610332610bce565b905061033f816003610c13565b5061036681604051806040016040528060048152602001636461746160e01b815250610c45565b50610372816002610c13565b5061039681604051806040016040528060018152602001606160f81b815250610c45565b506103a2816001610c7a565b506103c681604051806040016040528060018152602001603160f91b815250610c45565b506103d2816002610c7a565b506103fb8160405180604001604052806006815260200165373ab6b132b960d11b815250610c45565b5061040781602a610c7a565b5061042e81604051806040016040528060048152602001631d195e1d60e21b815250610c45565b50610456816040518060400160405280600581526020016468656c6c6f60d81b815250610c45565b5061046081610ca3565b91505090565b60605f610471610bce565b905061047e816003610d23565b5061048a816002610c13565b506104ae81604051806040016040528060018152602001606160f81b815250610c45565b506104ba816001610c7a565b506104de81604051806040016040528060018152602001603160f91b815250610c45565b506104ea816002610c7a565b5061042e81602a610c7a565b5f805f8060605f80610506610596565b604080518082018252606081525f602091820181905282518084019093528383529082015290915061053781610663565b9750610542816107c2565b5061054c816109e7565b9650610557816107c2565b50610561816109e7565b8151516020830151919750119450841561058c5761057e816107c2565b9350610589816109e7565b92505b5050909192939495565b60605f6105a1610bce565b90506105ae816002610c13565b506105d68160405180604001604052806005815260200164199a5c9cdd60da1b815250610c45565b506105e2816001610c7a565b5061060b81604051806040016040528060068152602001651cd958dbdb9960d21b815250610c45565b50610617816002610c7a565b5061063f81604051806040016040528060058152602001641d1a1a5c9960da1b815250610c45565b50610456816003610c7a565b60605f610656610bce565b905061048a816002610c13565b5f8061066e83610d4c565b60208401805191925061068082611528565b905250608060ff8216108015906106a7575061069e60806010611540565b60ff168160ff16105b156106c1576106b7608082611559565b60ff169392505050565b60d71960ff821601610700578251602084018051906106df82611528565b9052815181106106f1576106f1611572565b016020015160f81c9392505050565b60d81960ff82160161079057825160208401515f9190610721906001611586565b8151811061073157610731611572565b602001015160f81c60f81b60f81c60ff166008855f015186602001518151811061075d5761075d611572565b602001015160f81c60f81b60f81c60ff16901b1790506002846020018181516107869190611586565b9052509392505050565b60405162461bcd60e51b815260206004820152600760248201526604e6f74206d61760cc1b6044820152606401610185565b60605f6107ce83610d4c565b6020840180519192506107e082611528565b9052505f60a060ff83161080159061080857506107ff60a06020611540565b60ff168260ff16105b156108225761081860a083611559565b60ff169050610921565b60d11960ff8316016108615783516020850180519061084082611528565b90528151811061085257610852611572565b016020015160f81c9050610921565b60d21960ff8316016108ec578351602085015161087f906001611586565b8151811061088f5761088f611572565b602001015160f81c60f81b60f81c60ff166008855f01518660200151815181106108bb576108bb611572565b602001015160f81c60f81b60f81c60ff16901b1790506002846020018181516108e49190611586565b905250610921565b60405162461bcd60e51b815260206004820152600a6024820152694e6f7420737472696e6760b01b6044820152606401610185565b5f8167ffffffffffffffff81111561093b5761093b611599565b6040519080825280601f01601f191660200182016040528015610965576020820181803683370190505b509050602085015160208651010160208201602084045f5b818110156109995760208102848101519084015260010161097d565b50601f851680156109c657602082028481015160016008840290811b5f1901610100919091031b16908401525b5050505081856020018181516109dc9190611586565b905250949350505050565b5f806109f283610d4c565b602084018051919250610a0482611528565b905250607f60ff821611610a1b5760ff1692915050565b60c31960ff821601610a39578251602084018051906106df82611528565b60c41960ff821601610a76575f602084015160208551010160018101515f1a81515f1a60081b179150506002846020018181516107869190611586565b60c51960ff821601610ac9575f602084015160208551010160038101515f1a60028201515f1a60081b60018301515f1a60101b83515f1a60181b1717179150506004846020018181516107869190611586565b60c61960ff821601610b1a5760208381015184515f92910101815b6008811015610b0557808201515f1a8360081b179250600181019050610ae4565b50506008846020018181516107869190611586565b60c71960ff821601610b6b5760208381015184515f92910101815b6010811015610b5657808201515f1a8360081b179250600181019050610b35565b50506010846020018181516107869190611586565b60c81960ff821601610b93576020838101805185518101830151929190610786908390611586565b60405162461bcd60e51b815260206004820152601060248201526f496e76616c69642075696e742074616760801b6044820152606401610185565b60408051808201825260608082525f6020830152825161010081850181815261016083019095529293909283928301818036833750505081525f602090910152919050565b60408051808201909152606081525f6020820152610c32836003610daf565b610c3c8383610e73565b50815b92915050565b60408051808201909152606081525f6020820152610c708383516003610c6b9190611586565b610daf565b610c3c8383610f8d565b60408051808201909152606081525f6020820152610c99836021610daf565b610c3c838361115c565b60605f826020015167ffffffffffffffff811115610cc357610cc3611599565b6040519080825280601f01601f191660200182016040528015610ced576020820181803683370190505b50905060208351016020820160208501515f5b81811015610d18578381015183820152602001610d00565b509295945050505050565b60408051808201909152606081525f6020820152610d42836003610daf565b610c3c83836113ab565b5f815f015151826020015110610d8a5760405162461bcd60e51b815260206004820152600360248201526222a7a360e91b6044820152606401610185565b8151602083015181518110610da157610da1611572565b016020015160f81c92915050565b5f818360200151610dc09190611586565b8351519091508111610dd157505050565b8251515f90610de19060026115ad565b905081811015610df957610df6826040611586565b90505b5f8167ffffffffffffffff811115610e1357610e13611599565b6040519080825280601f01601f191660200182016040528015610e3d576020820181803683370190505b50905060208551016020820160208701515f5b81811015610e68578381015183820152602001610e50565b505050945250505050565b600f8111610ecb57610e86816080611586565b60f81b825f0151836020018051809190610e9f90611528565b905281518110610eb157610eb1611572565b60200101906001600160f81b03191690815f1a9053505050565b60ff8111610f2b578151602083018051601b60fb1b9291610eeb82611528565b905281518110610efd57610efd611572565b60200101906001600160f81b03191690815f1a905350815160208301805160f884901b9291610e9f82611528565b815160208301805160d960f81b9291610f4382611528565b905281518110610f5557610f55611572565b60200101906001600160f81b03191690815f1a90535081516020830180516001600160f81b031960f085901b169291610eeb82611528565b80518190601f8111610fea57610fa48160a0611586565b60f81b845f0151856020018051809190610fbd90611528565b905281518110610fcf57610fcf611572565b60200101906001600160f81b03191690815f1a905350611115565b60ff811161104a578351602085018051606960f91b929161100a82611528565b90528151811061101c5761101c611572565b60200101906001600160f81b03191690815f1a905350835160208501805160f884901b9291610fbd82611528565b835160208501805160d360f81b929161106282611528565b90528151811061107457611074611572565b60200101906001600160f81b03191690815f1a90535083516020850180516001600160f81b031960f085901b1692916110ac82611528565b9052815181106110be576110be611572565b60200101906001600160f81b03191690815f1a905350835160208501805160f884901b92916110ec82611528565b9052815181106110fe576110fe611572565b60200101906001600160f81b03191690815f1a9053505b6020820160208501516020865101015f5b8381101561113e578281015182820152602001611126565b50505080846020018181516111539190611586565b90525050505050565b607f811161117c57815160208301805160f884901b9291610e9f82611528565b60ff811161119c578151602083018051603160fa1b9291610eeb82611528565b61ffff811161121757815160208301805160c560f81b92916111bd82611528565b9052815181106111cf576111cf611572565b60200101906001600160f81b03191690815f1a90535060208201516020835101018160081c8153816001820153506002826020018181516112109190611586565b9052505050565b63ffffffff811161129f578151602083018051606360f91b929161123a82611528565b90528151811061124c5761124c611572565b60200101906001600160f81b03191690815f1a90535060208201516020835101018160181c81538160101c60018201538160081c6002820153816003820153506004826020018181516112109190611586565b67ffffffffffffffff811161134f57815160208301805160c760f81b92916112c682611528565b9052815181106112d8576112d8611572565b60200101906001600160f81b03191690815f1a90535060208201516020835101018160381c81538160301c60018201538160281c60028201538160201c60038201538160181c60048201538160101c60058201538160081c6006820153816007820153506008826020018181516112109190611586565b815160208301805160c960f81b929161136782611528565b90528151811061137957611379611572565b60200101906001600160f81b03191690815f1a9053506020828101805184510182018390528051611210908390611586565b600f81116113be57610e86816090611586565b60ff81116113de578151602083018051606b60f91b9291610eeb82611528565b815160208301805160d760f81b9291610f4382611528565b5f81518084525f5b8181101561141a576020818501810151868301820152016113fe565b505f602082860101526020601f19601f83011685010191505092915050565b858152846020820152831515604082015282606082015260a060808201525f61146560a08301846113f6565b979650505050505050565b608081525f61148260808301876113f6565b828103602084015261149481876113f6565b905082810360408401526114a881866113f6565b915050821515606083015295945050505050565b602081525f6114ce60208301846113f6565b9392505050565b868152856020820152846040820152831515606082015260c060808201525f61150160c08301856113f6565b90508260a0830152979650505050505050565b634e487b7160e01b5f52601160045260245ffd5b5f6001820161153957611539611514565b5060010190565b60ff8181168382160190811115610c3f57610c3f611514565b60ff8281168282160390811115610c3f57610c3f611514565b634e487b7160e01b5f52603260045260245ffd5b80820180821115610c3f57610c3f611514565b634e487b7160e01b5f52604160045260245ffd5b8082028115828204841417610c3f57610c3f61151456fea26469706673582212206f16509375da77c2e29caa66e7ff78f2ca0cbe02cbf6f9c98628c70fecc559ca64736f6c63430008140033","opcodes":"PUSH1 0x80 PUSH1 0x40 MSTORE CALLVALUE DUP1 ISZERO PUSH2 0xF JUMPI PUSH0 DUP1 REVERT JUMPDEST POP PUSH2 0x15FA DUP1 PUSH2 0x1D PUSH0 CODECOPY PUSH0 RETURN INVALID PUSH1 0x80 PUSH1 0x40 MSTORE CALLVALUE DUP1 ISZERO PUSH2 0xF JUMPI PUSH0 DUP1 REVERT JUMPDEST POP PUSH1 0x4 CALLDATASIZE LT PUSH2 0x7A JUMPI PUSH0 CALLDATALOAD PUSH1 0xE0 SHR DUP1 PUSH4 0x9DE023A0 GT PUSH2 0x58 JUMPI DUP1 PUSH4 0x9DE023A0 EQ PUSH2 0xCD JUMPI DUP1 PUSH4 0xBD1A9B65 EQ PUSH2 0xD5 JUMPI DUP1 PUSH4 0xDAAD53D8 EQ PUSH2 0xEF JUMPI DUP1 PUSH4 0xFAF193E9 EQ PUSH2 0xF7 JUMPI PUSH0 DUP1 REVERT JUMPDEST DUP1 PUSH4 0x3578FCE7 EQ PUSH2 0x7E JUMPI DUP1 PUSH4 0x3B996F2E EQ PUSH2 0xA0 JUMPI DUP1 PUSH4 0x71ECA3F9 EQ PUSH2 0xB8 JUMPI JUMPDEST PUSH0 DUP1 REVERT JUMPDEST PUSH2 0x86 PUSH2 0xFF JUMP JUMPDEST PUSH1 0x40 MLOAD PUSH2 0x97 SWAP6 SWAP5 SWAP4 SWAP3 SWAP2 SWAP1 PUSH2 0x1439 JUMP JUMPDEST PUSH1 0x40 MLOAD DUP1 SWAP2 SUB SWAP1 RETURN JUMPDEST PUSH2 0xA8 PUSH2 0x1EB JUMP JUMPDEST PUSH1 0x40 MLOAD PUSH2 0x97 SWAP5 SWAP4 SWAP3 SWAP2 SWAP1 PUSH2 0x1470 JUMP JUMPDEST PUSH2 0xC0 PUSH2 0x327 JUMP JUMPDEST PUSH1 0x40 MLOAD PUSH2 0x97 SWAP2 SWAP1 PUSH2 0x14BC JUMP JUMPDEST PUSH2 0xC0 PUSH2 0x466 JUMP JUMPDEST PUSH2 0xDD PUSH2 0x4F6 JUMP JUMPDEST PUSH1 0x40 MLOAD PUSH2 0x97 SWAP7 SWAP6 SWAP5 SWAP4 SWAP3 SWAP2 SWAP1 PUSH2 0x14D5 JUMP JUMPDEST PUSH2 0xC0 PUSH2 0x596 JUMP JUMPDEST PUSH2 0xC0 PUSH2 0x64B JUMP JUMPDEST PUSH0 DUP1 PUSH0 DUP1 PUSH1 0x60 PUSH0 PUSH2 0x10E PUSH2 0x64B JUMP JUMPDEST PUSH1 0x40 DUP1 MLOAD DUP1 DUP3 ADD DUP3 MSTORE PUSH1 0x60 DUP2 MSTORE PUSH0 PUSH1 0x20 SWAP2 DUP3 ADD DUP2 SWAP1 MSTORE DUP3 MLOAD DUP1 DUP5 ADD SWAP1 SWAP4 MSTORE DUP4 DUP4 MSTORE SWAP1 DUP3 ADD DUP2 SWAP1 MSTORE SWAP2 SWAP3 POP SWAP1 PUSH2 0x142 DUP3 PUSH2 0x663 JUMP JUMPDEST SWAP1 POP DUP1 PUSH1 0x2 EQ PUSH2 0x18E JUMPI PUSH1 0x40 MLOAD PUSH3 0x461BCD PUSH1 0xE5 SHL DUP2 MSTORE PUSH1 0x20 PUSH1 0x4 DUP3 ADD MSTORE PUSH1 0x12 PUSH1 0x24 DUP3 ADD MSTORE PUSH18 0x4578706563746564203220656E7472696573 PUSH1 0x70 SHL PUSH1 0x44 DUP3 ADD MSTORE PUSH1 0x64 ADD JUMPDEST PUSH1 0x40 MLOAD DUP1 SWAP2 SUB SWAP1 REVERT JUMPDEST PUSH2 0x197 DUP3 PUSH2 0x7C2 JUMP JUMPDEST POP PUSH2 0x1A1 DUP3 PUSH2 0x9E7 JUMP JUMPDEST SWAP8 POP PUSH2 0x1AC DUP3 PUSH2 0x7C2 JUMP JUMPDEST POP PUSH2 0x1B6 DUP3 PUSH2 0x9E7 JUMP JUMPDEST DUP3 MLOAD MLOAD PUSH1 0x20 DUP5 ADD MLOAD SWAP2 SWAP9 POP GT SWAP6 POP DUP6 ISZERO PUSH2 0x1E1 JUMPI PUSH2 0x1D3 DUP3 PUSH2 0x9E7 JUMP JUMPDEST SWAP5 POP PUSH2 0x1DE DUP3 PUSH2 0x7C2 JUMP JUMPDEST SWAP4 POP JUMPDEST POP POP POP SWAP1 SWAP2 SWAP3 SWAP4 SWAP5 JUMP JUMPDEST PUSH1 0x60 DUP1 PUSH1 0x60 PUSH0 DUP1 PUSH2 0x1FA PUSH2 0xBCE JUMP JUMPDEST SWAP1 POP PUSH2 0x207 DUP2 PUSH1 0x2 PUSH2 0xC13 JUMP JUMPDEST POP PUSH2 0x22B DUP2 PUSH1 0x40 MLOAD DUP1 PUSH1 0x40 ADD PUSH1 0x40 MSTORE DUP1 PUSH1 0x1 DUP2 MSTORE PUSH1 0x20 ADD PUSH1 0x61 PUSH1 0xF8 SHL DUP2 MSTORE POP PUSH2 0xC45 JUMP JUMPDEST POP PUSH2 0x237 DUP2 PUSH1 0x1 PUSH2 0xC7A JUMP JUMPDEST POP PUSH2 0x25B DUP2 PUSH1 0x40 MLOAD DUP1 PUSH1 0x40 ADD PUSH1 0x40 MSTORE DUP1 PUSH1 0x1 DUP2 MSTORE PUSH1 0x20 ADD PUSH1 0x31 PUSH1 0xF9 SHL DUP2 MSTORE POP PUSH2 0xC45 JUMP JUMPDEST POP PUSH2 0x267 DUP2 PUSH1 0x2 PUSH2 0xC7A JUMP JUMPDEST POP PUSH2 0x271 DUP2 PUSH2 0xCA3 JUMP JUMPDEST SWAP5 POP PUSH0 PUSH2 0x27C PUSH2 0xBCE JUMP JUMPDEST SWAP1 POP PUSH2 0x289 DUP2 PUSH1 0x2 PUSH2 0xC13 JUMP JUMPDEST POP PUSH2 0x2AD DUP2 PUSH1 0x40 MLOAD DUP1 PUSH1 0x40 ADD PUSH1 0x40 MSTORE DUP1 PUSH1 0x1 DUP2 MSTORE PUSH1 0x20 ADD PUSH1 0x61 PUSH1 0xF8 SHL DUP2 MSTORE POP PUSH2 0xC45 JUMP JUMPDEST POP PUSH2 0x2B9 DUP2 PUSH1 0x1 PUSH2 0xC7A JUMP JUMPDEST POP PUSH2 0x2DD DUP2 PUSH1 0x40 MLOAD DUP1 PUSH1 0x40 ADD PUSH1 0x40 MSTORE DUP1 PUSH1 0x1 DUP2 MSTORE PUSH1 0x20 ADD PUSH1 0x31 PUSH1 0xF9 SHL DUP2 MSTORE POP PUSH2 0xC45 JUMP JUMPDEST POP PUSH2 0x2E9 DUP2 PUSH1 0x2 PUSH2 0xC7A JUMP JUMPDEST POP PUSH2 0x2F5 DUP2 PUSH1 0x2A PUSH2 0xC7A JUMP JUMPDEST POP PUSH2 0x2FF DUP2 PUSH2 0xCA3 JUMP JUMPDEST SWAP5 POP PUSH2 0x309 PUSH2 0x64B JUMP JUMPDEST SWAP4 POP DUP6 MLOAD DUP6 MLOAD GT DUP1 ISZERO PUSH2 0x31D JUMPI POP DUP5 MLOAD DUP5 MLOAD GT JUMPDEST SWAP3 POP POP POP SWAP1 SWAP2 SWAP3 SWAP4 JUMP JUMPDEST PUSH1 0x60 PUSH0 PUSH2 0x332 PUSH2 0xBCE JUMP JUMPDEST SWAP1 POP PUSH2 0x33F DUP2 PUSH1 0x3 PUSH2 0xC13 JUMP JUMPDEST POP PUSH2 0x366 DUP2 PUSH1 0x40 MLOAD DUP1 PUSH1 0x40 ADD PUSH1 0x40 MSTORE DUP1 PUSH1 0x4 DUP2 MSTORE PUSH1 0x20 ADD PUSH4 0x64617461 PUSH1 0xE0 SHL DUP2 MSTORE POP PUSH2 0xC45 JUMP JUMPDEST POP PUSH2 0x372 DUP2 PUSH1 0x2 PUSH2 0xC13 JUMP JUMPDEST POP PUSH2 0x396 DUP2 PUSH1 0x40 MLOAD DUP1 PUSH1 0x40 ADD PUSH1 0x40 MSTORE DUP1 PUSH1 0x1 DUP2 MSTORE PUSH1 0x20 ADD PUSH1 0x61 PUSH1 0xF8 SHL DUP2 MSTORE POP PUSH2 0xC45 JUMP JUMPDEST POP PUSH2 0x3A2 DUP2 PUSH1 0x1 PUSH2 0xC7A JUMP JUMPDEST POP PUSH2 0x3C6 DUP2 PUSH1 0x40 MLOAD DUP1 PUSH1 0x40 ADD PUSH1 0x40 MSTORE DUP1 PUSH1 0x1 DUP2 MSTORE PUSH1 0x20 ADD PUSH1 0x31 PUSH1 0xF9 SHL DUP2 MSTORE POP PUSH2 0xC45 JUMP JUMPDEST POP PUSH2 0x3D2 DUP2 PUSH1 0x2 PUSH2 0xC7A JUMP JUMPDEST POP PUSH2 0x3FB DUP2 PUSH1 0x40 MLOAD DUP1 PUSH1 0x40 ADD PUSH1 0x40 MSTORE DUP1 PUSH1 0x6 DUP2 MSTORE PUSH1 0x20 ADD PUSH6 0x373AB6B132B9 PUSH1 0xD1 SHL DUP2 MSTORE POP PUSH2 0xC45 JUMP JUMPDEST POP PUSH2 0x407 DUP2 PUSH1 0x2A PUSH2 0xC7A JUMP JUMPDEST POP PUSH2 0x42E DUP2 PUSH1 0x40 MLOAD DUP1 PUSH1 0x40 ADD PUSH1 0x40 MSTORE DUP1 PUSH1 0x4 DUP2 MSTORE PUSH1 0x20 ADD PUSH4 0x1D195E1D PUSH1 0xE2 SHL DUP2 MSTORE POP PUSH2 0xC45 JUMP JUMPDEST POP PUSH2 0x456 DUP2 PUSH1 0x40 MLOAD DUP1 PUSH1 0x40 ADD PUSH1 0x40 MSTORE DUP1 PUSH1 0x5 DUP2 MSTORE PUSH1 0x20 ADD PUSH5 0x68656C6C6F PUSH1 0xD8 SHL DUP2 MSTORE POP PUSH2 0xC45 JUMP JUMPDEST POP PUSH2 0x460 DUP2 PUSH2 0xCA3 JUMP JUMPDEST SWAP2 POP POP SWAP1 JUMP JUMPDEST PUSH1 0x60 PUSH0 PUSH2 0x471 PUSH2 0xBCE JUMP JUMPDEST SWAP1 POP PUSH2 0x47E DUP2 PUSH1 0x3 PUSH2 0xD23 JUMP JUMPDEST POP PUSH2 0x48A DUP2 PUSH1 0x2 PUSH2 0xC13 JUMP JUMPDEST POP PUSH2 0x4AE DUP2 PUSH1 0x40 MLOAD DUP1 PUSH1 0x40 ADD PUSH1 0x40 MSTORE DUP1 PUSH1 0x1 DUP2 MSTORE PUSH1 0x20 ADD PUSH1 0x61 PUSH1 0xF8 SHL DUP2 MSTORE POP PUSH2 0xC45 JUMP JUMPDEST POP PUSH2 0x4BA DUP2 PUSH1 0x1 PUSH2 0xC7A JUMP JUMPDEST POP PUSH2 0x4DE DUP2 PUSH1 0x40 MLOAD DUP1 PUSH1 0x40 ADD PUSH1 0x40 MSTORE DUP1 PUSH1 0x1 DUP2 MSTORE PUSH1 0x20 ADD PUSH1 0x31 PUSH1 0xF9 SHL DUP2 MSTORE POP PUSH2 0xC45 JUMP JUMPDEST POP PUSH2 0x4EA DUP2 PUSH1 0x2 PUSH2 0xC7A JUMP JUMPDEST POP PUSH2 0x42E DUP2 PUSH1 0x2A PUSH2 0xC7A JUMP JUMPDEST PUSH0 DUP1 PUSH0 DUP1 PUSH1 0x60 PUSH0 DUP1 PUSH2 0x506 PUSH2 0x596 JUMP JUMPDEST PUSH1 0x40 DUP1 MLOAD DUP1 DUP3 ADD DUP3 MSTORE PUSH1 0x60 DUP2 MSTORE PUSH0 PUSH1 0x20 SWAP2 DUP3 ADD DUP2 SWAP1 MSTORE DUP3 MLOAD DUP1 DUP5 ADD SWAP1 SWAP4 MSTORE DUP4 DUP4 MSTORE SWAP1 DUP3 ADD MSTORE SWAP1 SWAP2 POP PUSH2 0x537 DUP2 PUSH2 0x663 JUMP JUMPDEST SWAP8 POP PUSH2 0x542 DUP2 PUSH2 0x7C2 JUMP JUMPDEST POP PUSH2 0x54C DUP2 PUSH2 0x9E7 JUMP JUMPDEST SWAP7 POP PUSH2 0x557 DUP2 PUSH2 0x7C2 JUMP JUMPDEST POP PUSH2 0x561 DUP2 PUSH2 0x9E7 JUMP JUMPDEST DUP2 MLOAD MLOAD PUSH1 0x20 DUP4 ADD MLOAD SWAP2 SWAP8 POP GT SWAP5 POP DUP5 ISZERO PUSH2 0x58C JUMPI PUSH2 0x57E DUP2 PUSH2 0x7C2 JUMP JUMPDEST SWAP4 POP PUSH2 0x589 DUP2 PUSH2 0x9E7 JUMP JUMPDEST SWAP3 POP JUMPDEST POP POP SWAP1 SWAP2 SWAP3 SWAP4 SWAP5 SWAP6 JUMP JUMPDEST PUSH1 0x60 PUSH0 PUSH2 0x5A1 PUSH2 0xBCE JUMP JUMPDEST SWAP1 POP PUSH2 0x5AE DUP2 PUSH1 0x2 PUSH2 0xC13 JUMP JUMPDEST POP PUSH2 0x5D6 DUP2 PUSH1 0x40 MLOAD DUP1 PUSH1 0x40 ADD PUSH1 0x40 MSTORE DUP1 PUSH1 0x5 DUP2 MSTORE PUSH1 0x20 ADD PUSH5 0x199A5C9CDD PUSH1 0xDA SHL DUP2 MSTORE POP PUSH2 0xC45 JUMP JUMPDEST POP PUSH2 0x5E2 DUP2 PUSH1 0x1 PUSH2 0xC7A JUMP JUMPDEST POP PUSH2 0x60B DUP2 PUSH1 0x40 MLOAD DUP1 PUSH1 0x40 ADD PUSH1 0x40 MSTORE DUP1 PUSH1 0x6 DUP2 MSTORE PUSH1 0x20 ADD PUSH6 0x1CD958DBDB99 PUSH1 0xD2 SHL DUP2 MSTORE POP PUSH2 0xC45 JUMP JUMPDEST POP PUSH2 0x617 DUP2 PUSH1 0x2 PUSH2 0xC7A JUMP JUMPDEST POP PUSH2 0x63F DUP2 PUSH1 0x40 MLOAD DUP1 PUSH1 0x40 ADD PUSH1 0x40 MSTORE DUP1 PUSH1 0x5 DUP2 MSTORE PUSH1 0x20 ADD PUSH5 0x1D1A1A5C99 PUSH1 0xDA SHL DUP2 MSTORE POP PUSH2 0xC45 JUMP JUMPDEST POP PUSH2 0x456 DUP2 PUSH1 0x3 PUSH2 0xC7A JUMP JUMPDEST PUSH1 0x60 PUSH0 PUSH2 0x656 PUSH2 0xBCE JUMP JUMPDEST SWAP1 POP PUSH2 0x48A DUP2 PUSH1 0x2 PUSH2 0xC13 JUMP JUMPDEST PUSH0 DUP1 PUSH2 0x66E DUP4 PUSH2 0xD4C JUMP JUMPDEST PUSH1 0x20 DUP5 ADD DUP1 MLOAD SWAP2 SWAP3 POP PUSH2 0x680 DUP3 PUSH2 0x1528 JUMP JUMPDEST SWAP1 MSTORE POP PUSH1 0x80 PUSH1 0xFF DUP3 AND LT DUP1 ISZERO SWAP1 PUSH2 0x6A7 JUMPI POP PUSH2 0x69E PUSH1 0x80 PUSH1 0x10 PUSH2 0x1540 JUMP JUMPDEST PUSH1 0xFF AND DUP2 PUSH1 0xFF AND LT JUMPDEST ISZERO PUSH2 0x6C1 JUMPI PUSH2 0x6B7 PUSH1 0x80 DUP3 PUSH2 0x1559 JUMP JUMPDEST PUSH1 0xFF AND SWAP4 SWAP3 POP POP POP JUMP JUMPDEST PUSH1 0xD7 NOT PUSH1 0xFF DUP3 AND ADD PUSH2 0x700 JUMPI DUP3 MLOAD PUSH1 0x20 DUP5 ADD DUP1 MLOAD SWAP1 PUSH2 0x6DF DUP3 PUSH2 0x1528 JUMP JUMPDEST SWAP1 MSTORE DUP2 MLOAD DUP2 LT PUSH2 0x6F1 JUMPI PUSH2 0x6F1 PUSH2 0x1572 JUMP JUMPDEST ADD PUSH1 0x20 ADD MLOAD PUSH1 0xF8 SHR SWAP4 SWAP3 POP POP POP JUMP JUMPDEST PUSH1 0xD8 NOT PUSH1 0xFF DUP3 AND ADD PUSH2 0x790 JUMPI DUP3 MLOAD PUSH1 0x20 DUP5 ADD MLOAD PUSH0 SWAP2 SWAP1 PUSH2 0x721 SWAP1 PUSH1 0x1 PUSH2 0x1586 JUMP JUMPDEST DUP2 MLOAD DUP2 LT PUSH2 0x731 JUMPI PUSH2 0x731 PUSH2 0x1572 JUMP JUMPDEST PUSH1 0x20 ADD ADD MLOAD PUSH1 0xF8 SHR PUSH1 0xF8 SHL PUSH1 0xF8 SHR PUSH1 0xFF AND PUSH1 0x8 DUP6 PUSH0 ADD MLOAD DUP7 PUSH1 0x20 ADD MLOAD DUP2 MLOAD DUP2 LT PUSH2 0x75D JUMPI PUSH2 0x75D PUSH2 0x1572 JUMP JUMPDEST PUSH1 0x20 ADD ADD MLOAD PUSH1 0xF8 SHR PUSH1 0xF8 SHL PUSH1 0xF8 SHR PUSH1 0xFF AND SWAP1 SHL OR SWAP1 POP PUSH1 0x2 DUP5 PUSH1 0x20 ADD DUP2 DUP2 MLOAD PUSH2 0x786 SWAP2 SWAP1 PUSH2 0x1586 JUMP JUMPDEST SWAP1 MSTORE POP SWAP4 SWAP3 POP POP POP JUMP JUMPDEST PUSH1 0x40 MLOAD PUSH3 0x461BCD PUSH1 0xE5 SHL DUP2 MSTORE PUSH1 0x20 PUSH1 0x4 DUP3 ADD MSTORE PUSH1 0x7 PUSH1 0x24 DUP3 ADD MSTORE PUSH7 0x4E6F74206D617 PUSH1 0xCC SHL PUSH1 0x44 DUP3 ADD MSTORE PUSH1 0x64 ADD PUSH2 0x185 JUMP JUMPDEST PUSH1 0x60 PUSH0 PUSH2 0x7CE DUP4 PUSH2 0xD4C JUMP JUMPDEST PUSH1 0x20 DUP5 ADD DUP1 MLOAD SWAP2 SWAP3 POP PUSH2 0x7E0 DUP3 PUSH2 0x1528 JUMP JUMPDEST SWAP1 MSTORE POP PUSH0 PUSH1 0xA0 PUSH1 0xFF DUP4 AND LT DUP1 ISZERO SWAP1 PUSH2 0x808 JUMPI POP PUSH2 0x7FF PUSH1 0xA0 PUSH1 0x20 PUSH2 0x1540 JUMP JUMPDEST PUSH1 0xFF AND DUP3 PUSH1 0xFF AND LT JUMPDEST ISZERO PUSH2 0x822 JUMPI PUSH2 0x818 PUSH1 0xA0 DUP4 PUSH2 0x1559 JUMP JUMPDEST PUSH1 0xFF AND SWAP1 POP PUSH2 0x921 JUMP JUMPDEST PUSH1 0xD1 NOT PUSH1 0xFF DUP4 AND ADD PUSH2 0x861 JUMPI DUP4 MLOAD PUSH1 0x20 DUP6 ADD DUP1 MLOAD SWAP1 PUSH2 0x840 DUP3 PUSH2 0x1528 JUMP JUMPDEST SWAP1 MSTORE DUP2 MLOAD DUP2 LT PUSH2 0x852 JUMPI PUSH2 0x852 PUSH2 0x1572 JUMP JUMPDEST ADD PUSH1 0x20 ADD MLOAD PUSH1 0xF8 SHR SWAP1 POP PUSH2 0x921 JUMP JUMPDEST PUSH1 0xD2 NOT PUSH1 0xFF DUP4 AND ADD PUSH2 0x8EC JUMPI DUP4 MLOAD PUSH1 0x20 DUP6 ADD MLOAD PUSH2 0x87F SWAP1 PUSH1 0x1 PUSH2 0x1586 JUMP JUMPDEST DUP2 MLOAD DUP2 LT PUSH2 0x88F JUMPI PUSH2 0x88F PUSH2 0x1572 JUMP JUMPDEST PUSH1 0x20 ADD ADD MLOAD PUSH1 0xF8 SHR PUSH1 0xF8 SHL PUSH1 0xF8 SHR PUSH1 0xFF AND PUSH1 0x8 DUP6 PUSH0 ADD MLOAD DUP7 PUSH1 0x20 ADD MLOAD DUP2 MLOAD DUP2 LT PUSH2 0x8BB JUMPI PUSH2 0x8BB PUSH2 0x1572 JUMP JUMPDEST PUSH1 0x20 ADD ADD MLOAD PUSH1 0xF8 SHR PUSH1 0xF8 SHL PUSH1 0xF8 SHR PUSH1 0xFF AND SWAP1 SHL OR SWAP1 POP PUSH1 0x2 DUP5 PUSH1 0x20 ADD DUP2 DUP2 MLOAD PUSH2 0x8E4 SWAP2 SWAP1 PUSH2 0x1586 JUMP JUMPDEST SWAP1 MSTORE POP PUSH2 0x921 JUMP JUMPDEST PUSH1 0x40 MLOAD PUSH3 0x461BCD PUSH1 0xE5 SHL DUP2 MSTORE PUSH1 0x20 PUSH1 0x4 DUP3 ADD MSTORE PUSH1 0xA PUSH1 0x24 DUP3 ADD MSTORE PUSH10 0x4E6F7420737472696E67 PUSH1 0xB0 SHL PUSH1 0x44 DUP3 ADD MSTORE PUSH1 0x64 ADD PUSH2 0x185 JUMP JUMPDEST PUSH0 DUP2 PUSH8 0xFFFFFFFFFFFFFFFF DUP2 GT ISZERO PUSH2 0x93B JUMPI PUSH2 0x93B PUSH2 0x1599 JUMP JUMPDEST PUSH1 0x40 MLOAD SWAP1 DUP1 DUP3 MSTORE DUP1 PUSH1 0x1F ADD PUSH1 0x1F NOT AND PUSH1 0x20 ADD DUP3 ADD PUSH1 0x40 MSTORE DUP1 ISZERO PUSH2 0x965 JUMPI PUSH1 0x20 DUP3 ADD DUP2 DUP1 CALLDATASIZE DUP4 CALLDATACOPY ADD SWAP1 POP JUMPDEST POP SWAP1 POP PUSH1 0x20 DUP6 ADD MLOAD PUSH1 0x20 DUP7 MLOAD ADD ADD PUSH1 0x20 DUP3 ADD PUSH1 0x20 DUP5 DIV PUSH0 JUMPDEST DUP2 DUP2 LT ISZERO PUSH2 0x999 JUMPI PUSH1 0x20 DUP2 MUL DUP5 DUP2 ADD MLOAD SWAP1 DUP5 ADD MSTORE PUSH1 0x1 ADD PUSH2 0x97D JUMP JUMPDEST POP PUSH1 0x1F DUP6 AND DUP1 ISZERO PUSH2 0x9C6 JUMPI PUSH1 0x20 DUP3 MUL DUP5 DUP2 ADD MLOAD PUSH1 0x1 PUSH1 0x8 DUP5 MUL SWAP1 DUP2 SHL PUSH0 NOT ADD PUSH2 0x100 SWAP2 SWAP1 SWAP2 SUB SHL AND SWAP1 DUP5 ADD MSTORE JUMPDEST POP POP POP POP DUP2 DUP6 PUSH1 0x20 ADD DUP2 DUP2 MLOAD PUSH2 0x9DC SWAP2 SWAP1 PUSH2 0x1586 JUMP JUMPDEST SWAP1 MSTORE POP SWAP5 SWAP4 POP POP POP POP JUMP JUMPDEST PUSH0 DUP1 PUSH2 0x9F2 DUP4 PUSH2 0xD4C JUMP JUMPDEST PUSH1 0x20 DUP5 ADD DUP1 MLOAD SWAP2 SWAP3 POP PUSH2 0xA04 DUP3 PUSH2 0x1528 JUMP JUMPDEST SWAP1 MSTORE POP PUSH1 0x7F PUSH1 0xFF DUP3 AND GT PUSH2 0xA1B JUMPI PUSH1 0xFF AND SWAP3 SWAP2 POP POP JUMP JUMPDEST PUSH1 0xC3 NOT PUSH1 0xFF DUP3 AND ADD PUSH2 0xA39 JUMPI DUP3 MLOAD PUSH1 0x20 DUP5 ADD DUP1 MLOAD SWAP1 PUSH2 0x6DF DUP3 PUSH2 0x1528 JUMP JUMPDEST PUSH1 0xC4 NOT PUSH1 0xFF DUP3 AND ADD PUSH2 0xA76 JUMPI PUSH0 PUSH1 0x20 DUP5 ADD MLOAD PUSH1 0x20 DUP6 MLOAD ADD ADD PUSH1 0x1 DUP2 ADD MLOAD PUSH0 BYTE DUP2 MLOAD PUSH0 BYTE PUSH1 0x8 SHL OR SWAP2 POP POP PUSH1 0x2 DUP5 PUSH1 0x20 ADD DUP2 DUP2 MLOAD PUSH2 0x786 SWAP2 SWAP1 PUSH2 0x1586 JUMP JUMPDEST PUSH1 0xC5 NOT PUSH1 0xFF DUP3 AND ADD PUSH2 0xAC9 JUMPI PUSH0 PUSH1 0x20 DUP5 ADD MLOAD PUSH1 0x20 DUP6 MLOAD ADD ADD PUSH1 0x3 DUP2 ADD MLOAD PUSH0 BYTE PUSH1 0x2 DUP3 ADD MLOAD PUSH0 BYTE PUSH1 0x8 SHL PUSH1 0x1 DUP4 ADD MLOAD PUSH0 BYTE PUSH1 0x10 SHL DUP4 MLOAD PUSH0 BYTE PUSH1 0x18 SHL OR OR OR SWAP2 POP POP PUSH1 0x4 DUP5 PUSH1 0x20 ADD DUP2 DUP2 MLOAD PUSH2 0x786 SWAP2 SWAP1 PUSH2 0x1586 JUMP JUMPDEST PUSH1 0xC6 NOT PUSH1 0xFF DUP3 AND ADD PUSH2 0xB1A JUMPI PUSH1 0x20 DUP4 DUP2 ADD MLOAD DUP5 MLOAD PUSH0 SWAP3 SWAP2 ADD ADD DUP2 JUMPDEST PUSH1 0x8 DUP2 LT ISZERO PUSH2 0xB05 JUMPI DUP1 DUP3 ADD MLOAD PUSH0 BYTE DUP4 PUSH1 0x8 SHL OR SWAP3 POP PUSH1 0x1 DUP2 ADD SWAP1 POP PUSH2 0xAE4 JUMP JUMPDEST POP POP PUSH1 0x8 DUP5 PUSH1 0x20 ADD DUP2 DUP2 MLOAD PUSH2 0x786 SWAP2 SWAP1 PUSH2 0x1586 JUMP JUMPDEST PUSH1 0xC7 NOT PUSH1 0xFF DUP3 AND ADD PUSH2 0xB6B JUMPI PUSH1 0x20 DUP4 DUP2 ADD MLOAD DUP5 MLOAD PUSH0 SWAP3 SWAP2 ADD ADD DUP2 JUMPDEST PUSH1 0x10 DUP2 LT ISZERO PUSH2 0xB56 JUMPI DUP1 DUP3 ADD MLOAD PUSH0 BYTE DUP4 PUSH1 0x8 SHL OR SWAP3 POP PUSH1 0x1 DUP2 ADD SWAP1 POP PUSH2 0xB35 JUMP JUMPDEST POP POP PUSH1 0x10 DUP5 PUSH1 0x20 ADD DUP2 DUP2 MLOAD PUSH2 0x786 SWAP2 SWAP1 PUSH2 0x1586 JUMP JUMPDEST PUSH1 0xC8 NOT PUSH1 0xFF DUP3 AND ADD PUSH2 0xB93 JUMPI PUSH1 0x20 DUP4 DUP2 ADD DUP1 MLOAD DUP6 MLOAD DUP2 ADD DUP4 ADD MLOAD SWAP3 SWAP2 SWAP1 PUSH2 0x786 SWAP1 DUP4 SWAP1 PUSH2 0x1586 JUMP JUMPDEST PUSH1 0x40 MLOAD PUSH3 0x461BCD PUSH1 0xE5 SHL DUP2 MSTORE PUSH1 0x20 PUSH1 0x4 DUP3 ADD MSTORE PUSH1 0x10 PUSH1 0x24 DUP3 ADD MSTORE PUSH16 0x496E76616C69642075696E7420746167 PUSH1 0x80 SHL PUSH1 0x44 DUP3 ADD MSTORE PUSH1 0x64 ADD PUSH2 0x185 JUMP JUMPDEST PUSH1 0x40 DUP1 MLOAD DUP1 DUP3 ADD DUP3 MSTORE PUSH1 0x60 DUP1 DUP3 MSTORE PUSH0 PUSH1 0x20 DUP4 ADD MSTORE DUP3 MLOAD PUSH2 0x100 DUP2 DUP6 ADD DUP2 DUP2 MSTORE PUSH2 0x160 DUP4 ADD SWAP1 SWAP6 MSTORE SWAP3 SWAP4 SWAP1 SWAP3 DUP4 SWAP3 DUP4 ADD DUP2 DUP1 CALLDATASIZE DUP4 CALLDATACOPY POP POP POP DUP2 MSTORE PUSH0 PUSH1 0x20 SWAP1 SWAP2 ADD MSTORE SWAP2 SWAP1 POP JUMP JUMPDEST PUSH1 0x40 DUP1 MLOAD DUP1 DUP3 ADD SWAP1 SWAP2 MSTORE PUSH1 0x60 DUP2 MSTORE PUSH0 PUSH1 0x20 DUP3 ADD MSTORE PUSH2 0xC32 DUP4 PUSH1 0x3 PUSH2 0xDAF JUMP JUMPDEST PUSH2 0xC3C DUP4 DUP4 PUSH2 0xE73 JUMP JUMPDEST POP DUP2 JUMPDEST SWAP3 SWAP2 POP POP JUMP JUMPDEST PUSH1 0x40 DUP1 MLOAD DUP1 DUP3 ADD SWAP1 SWAP2 MSTORE PUSH1 0x60 DUP2 MSTORE PUSH0 PUSH1 0x20 DUP3 ADD MSTORE PUSH2 0xC70 DUP4 DUP4 MLOAD PUSH1 0x3 PUSH2 0xC6B SWAP2 SWAP1 PUSH2 0x1586 JUMP JUMPDEST PUSH2 0xDAF JUMP JUMPDEST PUSH2 0xC3C DUP4 DUP4 PUSH2 0xF8D JUMP JUMPDEST PUSH1 0x40 DUP1 MLOAD DUP1 DUP3 ADD SWAP1 SWAP2 MSTORE PUSH1 0x60 DUP2 MSTORE PUSH0 PUSH1 0x20 DUP3 ADD MSTORE PUSH2 0xC99 DUP4 PUSH1 0x21 PUSH2 0xDAF JUMP JUMPDEST PUSH2 0xC3C DUP4 DUP4 PUSH2 0x115C JUMP JUMPDEST PUSH1 0x60 PUSH0 DUP3 PUSH1 0x20 ADD MLOAD PUSH8 0xFFFFFFFFFFFFFFFF DUP2 GT ISZERO PUSH2 0xCC3 JUMPI PUSH2 0xCC3 PUSH2 0x1599 JUMP JUMPDEST PUSH1 0x40 MLOAD SWAP1 DUP1 DUP3 MSTORE DUP1 PUSH1 0x1F ADD PUSH1 0x1F NOT AND PUSH1 0x20 ADD DUP3 ADD PUSH1 0x40 MSTORE DUP1 ISZERO PUSH2 0xCED JUMPI PUSH1 0x20 DUP3 ADD DUP2 DUP1 CALLDATASIZE DUP4 CALLDATACOPY ADD SWAP1 POP JUMPDEST POP SWAP1 POP PUSH1 0x20 DUP4 MLOAD ADD PUSH1 0x20 DUP3 ADD PUSH1 0x20 DUP6 ADD MLOAD PUSH0 JUMPDEST DUP2 DUP2 LT ISZERO PUSH2 0xD18 JUMPI DUP4 DUP2 ADD MLOAD DUP4 DUP3 ADD MSTORE PUSH1 0x20 ADD PUSH2 0xD00 JUMP JUMPDEST POP SWAP3 SWAP6 SWAP5 POP POP POP POP POP JUMP JUMPDEST PUSH1 0x40 DUP1 MLOAD DUP1 DUP3 ADD SWAP1 SWAP2 MSTORE PUSH1 0x60 DUP2 MSTORE PUSH0 PUSH1 0x20 DUP3 ADD MSTORE PUSH2 0xD42 DUP4 PUSH1 0x3 PUSH2 0xDAF JUMP JUMPDEST PUSH2 0xC3C DUP4 DUP4 PUSH2 0x13AB JUMP JUMPDEST PUSH0 DUP2 PUSH0 ADD MLOAD MLOAD DUP3 PUSH1 0x20 ADD MLOAD LT PUSH2 0xD8A JUMPI PUSH1 0x40 MLOAD PUSH3 0x461BCD PUSH1 0xE5 SHL DUP2 MSTORE PUSH1 0x20 PUSH1 0x4 DUP3 ADD MSTORE PUSH1 0x3 PUSH1 0x24 DUP3 ADD MSTORE PUSH3 0x22A7A3 PUSH1 0xE9 SHL PUSH1 0x44 DUP3 ADD MSTORE PUSH1 0x64 ADD PUSH2 0x185 JUMP JUMPDEST DUP2 MLOAD PUSH1 0x20 DUP4 ADD MLOAD DUP2 MLOAD DUP2 LT PUSH2 0xDA1 JUMPI PUSH2 0xDA1 PUSH2 0x1572 JUMP JUMPDEST ADD PUSH1 0x20 ADD MLOAD PUSH1 0xF8 SHR SWAP3 SWAP2 POP POP JUMP JUMPDEST PUSH0 DUP2 DUP4 PUSH1 0x20 ADD MLOAD PUSH2 0xDC0 SWAP2 SWAP1 PUSH2 0x1586 JUMP JUMPDEST DUP4 MLOAD MLOAD SWAP1 SWAP2 POP DUP2 GT PUSH2 0xDD1 JUMPI POP POP POP JUMP JUMPDEST DUP3 MLOAD MLOAD PUSH0 SWAP1 PUSH2 0xDE1 SWAP1 PUSH1 0x2 PUSH2 0x15AD JUMP JUMPDEST SWAP1 POP DUP2 DUP2 LT ISZERO PUSH2 0xDF9 JUMPI PUSH2 0xDF6 DUP3 PUSH1 0x40 PUSH2 0x1586 JUMP JUMPDEST SWAP1 POP JUMPDEST PUSH0 DUP2 PUSH8 0xFFFFFFFFFFFFFFFF DUP2 GT ISZERO PUSH2 0xE13 JUMPI PUSH2 0xE13 PUSH2 0x1599 JUMP JUMPDEST PUSH1 0x40 MLOAD SWAP1 DUP1 DUP3 MSTORE DUP1 PUSH1 0x1F ADD PUSH1 0x1F NOT AND PUSH1 0x20 ADD DUP3 ADD PUSH1 0x40 MSTORE DUP1 ISZERO PUSH2 0xE3D JUMPI PUSH1 0x20 DUP3 ADD DUP2 DUP1 CALLDATASIZE DUP4 CALLDATACOPY ADD SWAP1 POP JUMPDEST POP SWAP1 POP PUSH1 0x20 DUP6 MLOAD ADD PUSH1 0x20 DUP3 ADD PUSH1 0x20 DUP8 ADD MLOAD PUSH0 JUMPDEST DUP2 DUP2 LT ISZERO PUSH2 0xE68 JUMPI DUP4 DUP2 ADD MLOAD DUP4 DUP3 ADD MSTORE PUSH1 0x20 ADD PUSH2 0xE50 JUMP JUMPDEST POP POP POP SWAP5 MSTORE POP POP POP POP JUMP JUMPDEST PUSH1 0xF DUP2 GT PUSH2 0xECB JUMPI PUSH2 0xE86 DUP2 PUSH1 0x80 PUSH2 0x1586 JUMP JUMPDEST PUSH1 0xF8 SHL DUP3 PUSH0 ADD MLOAD DUP4 PUSH1 0x20 ADD DUP1 MLOAD DUP1 SWAP2 SWAP1 PUSH2 0xE9F SWAP1 PUSH2 0x1528 JUMP JUMPDEST SWAP1 MSTORE DUP2 MLOAD DUP2 LT PUSH2 0xEB1 JUMPI PUSH2 0xEB1 PUSH2 0x1572 JUMP JUMPDEST PUSH1 0x20 ADD ADD SWAP1 PUSH1 0x1 PUSH1 0x1 PUSH1 0xF8 SHL SUB NOT AND SWAP1 DUP2 PUSH0 BYTE SWAP1 MSTORE8 POP POP POP JUMP JUMPDEST PUSH1 0xFF DUP2 GT PUSH2 0xF2B JUMPI DUP2 MLOAD PUSH1 0x20 DUP4 ADD DUP1 MLOAD PUSH1 0x1B PUSH1 0xFB SHL SWAP3 SWAP2 PUSH2 0xEEB DUP3 PUSH2 0x1528 JUMP JUMPDEST SWAP1 MSTORE DUP2 MLOAD DUP2 LT PUSH2 0xEFD JUMPI PUSH2 0xEFD PUSH2 0x1572 JUMP JUMPDEST PUSH1 0x20 ADD ADD SWAP1 PUSH1 0x1 PUSH1 0x1 PUSH1 0xF8 SHL SUB NOT AND SWAP1 DUP2 PUSH0 BYTE SWAP1 MSTORE8 POP DUP2 MLOAD PUSH1 0x20 DUP4 ADD DUP1 MLOAD PUSH1 0xF8 DUP5 SWAP1 SHL SWAP3 SWAP2 PUSH2 0xE9F DUP3 PUSH2 0x1528 JUMP JUMPDEST DUP2 MLOAD PUSH1 0x20 DUP4 ADD DUP1 MLOAD PUSH1 0xD9 PUSH1 0xF8 SHL SWAP3 SWAP2 PUSH2 0xF43 DUP3 PUSH2 0x1528 JUMP JUMPDEST SWAP1 MSTORE DUP2 MLOAD DUP2 LT PUSH2 0xF55 JUMPI PUSH2 0xF55 PUSH2 0x1572 JUMP JUMPDEST PUSH1 0x20 ADD ADD SWAP1 PUSH1 0x1 PUSH1 0x1 PUSH1 0xF8 SHL SUB NOT AND SWAP1 DUP2 PUSH0 BYTE SWAP1 MSTORE8 POP DUP2 MLOAD PUSH1 0x20 DUP4 ADD DUP1 MLOAD PUSH1 0x1 PUSH1 0x1 PUSH1 0xF8 SHL SUB NOT PUSH1 0xF0 DUP6 SWAP1 SHL AND SWAP3 SWAP2 PUSH2 0xEEB DUP3 PUSH2 0x1528 JUMP JUMPDEST DUP1 MLOAD DUP2 SWAP1 PUSH1 0x1F DUP2 GT PUSH2 0xFEA JUMPI PUSH2 0xFA4 DUP2 PUSH1 0xA0 PUSH2 0x1586 JUMP JUMPDEST PUSH1 0xF8 SHL DUP5 PUSH0 ADD MLOAD DUP6 PUSH1 0x20 ADD DUP1 MLOAD DUP1 SWAP2 SWAP1 PUSH2 0xFBD SWAP1 PUSH2 0x1528 JUMP JUMPDEST SWAP1 MSTORE DUP2 MLOAD DUP2 LT PUSH2 0xFCF JUMPI PUSH2 0xFCF PUSH2 0x1572 JUMP JUMPDEST PUSH1 0x20 ADD ADD SWAP1 PUSH1 0x1 PUSH1 0x1 PUSH1 0xF8 SHL SUB NOT AND SWAP1 DUP2 PUSH0 BYTE SWAP1 MSTORE8 POP PUSH2 0x1115 JUMP JUMPDEST PUSH1 0xFF DUP2 GT PUSH2 0x104A JUMPI DUP4 MLOAD PUSH1 0x20 DUP6 ADD DUP1 MLOAD PUSH1 0x69 PUSH1 0xF9 SHL SWAP3 SWAP2 PUSH2 0x100A DUP3 PUSH2 0x1528 JUMP JUMPDEST SWAP1 MSTORE DUP2 MLOAD DUP2 LT PUSH2 0x101C JUMPI PUSH2 0x101C PUSH2 0x1572 JUMP JUMPDEST PUSH1 0x20 ADD ADD SWAP1 PUSH1 0x1 PUSH1 0x1 PUSH1 0xF8 SHL SUB NOT AND SWAP1 DUP2 PUSH0 BYTE SWAP1 MSTORE8 POP DUP4 MLOAD PUSH1 0x20 DUP6 ADD DUP1 MLOAD PUSH1 0xF8 DUP5 SWAP1 SHL SWAP3 SWAP2 PUSH2 0xFBD DUP3 PUSH2 0x1528 JUMP JUMPDEST DUP4 MLOAD PUSH1 0x20 DUP6 ADD DUP1 MLOAD PUSH1 0xD3 PUSH1 0xF8 SHL SWAP3 SWAP2 PUSH2 0x1062 DUP3 PUSH2 0x1528 JUMP JUMPDEST SWAP1 MSTORE DUP2 MLOAD DUP2 LT PUSH2 0x1074 JUMPI PUSH2 0x1074 PUSH2 0x1572 JUMP JUMPDEST PUSH1 0x20 ADD ADD SWAP1 PUSH1 0x1 PUSH1 0x1 PUSH1 0xF8 SHL SUB NOT AND SWAP1 DUP2 PUSH0 BYTE SWAP1 MSTORE8 POP DUP4 MLOAD PUSH1 0x20 DUP6 ADD DUP1 MLOAD PUSH1 0x1 PUSH1 0x1 PUSH1 0xF8 SHL SUB NOT PUSH1 0xF0 DUP6 SWAP1 SHL AND SWAP3 SWAP2 PUSH2 0x10AC DUP3 PUSH2 0x1528 JUMP JUMPDEST SWAP1 MSTORE DUP2 MLOAD DUP2 LT PUSH2 0x10BE JUMPI PUSH2 0x10BE PUSH2 0x1572 JUMP JUMPDEST PUSH1 0x20 ADD ADD SWAP1 PUSH1 0x1 PUSH1 0x1 PUSH1 0xF8 SHL SUB NOT AND SWAP1 DUP2 PUSH0 BYTE SWAP1 MSTORE8 POP DUP4 MLOAD PUSH1 0x20 DUP6 ADD DUP1 MLOAD PUSH1 0xF8 DUP5 SWAP1 SHL SWAP3 SWAP2 PUSH2 0x10EC DUP3 PUSH2 0x1528 JUMP JUMPDEST SWAP1 MSTORE DUP2 MLOAD DUP2 LT PUSH2 0x10FE JUMPI PUSH2 0x10FE PUSH2 0x1572 JUMP JUMPDEST PUSH1 0x20 ADD ADD SWAP1 PUSH1 0x1 PUSH1 0x1 PUSH1 0xF8 SHL SUB NOT AND SWAP1 DUP2 PUSH0 BYTE SWAP1 MSTORE8 POP JUMPDEST PUSH1 0x20 DUP3 ADD PUSH1 0x20 DUP6 ADD MLOAD PUSH1 0x20 DUP7 MLOAD ADD ADD PUSH0 JUMPDEST DUP4 DUP2 LT ISZERO PUSH2 0x113E JUMPI DUP3 DUP2 ADD MLOAD DUP3 DUP3 ADD MSTORE PUSH1 0x20 ADD PUSH2 0x1126 JUMP JUMPDEST POP POP POP DUP1 DUP5 PUSH1 0x20 ADD DUP2 DUP2 MLOAD PUSH2 0x1153 SWAP2 SWAP1 PUSH2 0x1586 JUMP JUMPDEST SWAP1 MSTORE POP POP POP POP POP JUMP JUMPDEST PUSH1 0x7F DUP2 GT PUSH2 0x117C JUMPI DUP2 MLOAD PUSH1 0x20 DUP4 ADD DUP1 MLOAD PUSH1 0xF8 DUP5 SWAP1 SHL SWAP3 SWAP2 PUSH2 0xE9F DUP3 PUSH2 0x1528 JUMP JUMPDEST PUSH1 0xFF DUP2 GT PUSH2 0x119C JUMPI DUP2 MLOAD PUSH1 0x20 DUP4 ADD DUP1 MLOAD PUSH1 0x31 PUSH1 0xFA SHL SWAP3 SWAP2 PUSH2 0xEEB DUP3 PUSH2 0x1528 JUMP JUMPDEST PUSH2 0xFFFF DUP2 GT PUSH2 0x1217 JUMPI DUP2 MLOAD PUSH1 0x20 DUP4 ADD DUP1 MLOAD PUSH1 0xC5 PUSH1 0xF8 SHL SWAP3 SWAP2 PUSH2 0x11BD DUP3 PUSH2 0x1528 JUMP JUMPDEST SWAP1 MSTORE DUP2 MLOAD DUP2 LT PUSH2 0x11CF JUMPI PUSH2 0x11CF PUSH2 0x1572 JUMP JUMPDEST PUSH1 0x20 ADD ADD SWAP1 PUSH1 0x1 PUSH1 0x1 PUSH1 0xF8 SHL SUB NOT AND SWAP1 DUP2 PUSH0 BYTE SWAP1 MSTORE8 POP PUSH1 0x20 DUP3 ADD MLOAD PUSH1 0x20 DUP4 MLOAD ADD ADD DUP2 PUSH1 0x8 SHR DUP2 MSTORE8 DUP2 PUSH1 0x1 DUP3 ADD MSTORE8 POP PUSH1 0x2 DUP3 PUSH1 0x20 ADD DUP2 DUP2 MLOAD PUSH2 0x1210 SWAP2 SWAP1 PUSH2 0x1586 JUMP JUMPDEST SWAP1 MSTORE POP POP POP JUMP JUMPDEST PUSH4 0xFFFFFFFF DUP2 GT PUSH2 0x129F JUMPI DUP2 MLOAD PUSH1 0x20 DUP4 ADD DUP1 MLOAD PUSH1 0x63 PUSH1 0xF9 SHL SWAP3 SWAP2 PUSH2 0x123A DUP3 PUSH2 0x1528 JUMP JUMPDEST SWAP1 MSTORE DUP2 MLOAD DUP2 LT PUSH2 0x124C JUMPI PUSH2 0x124C PUSH2 0x1572 JUMP JUMPDEST PUSH1 0x20 ADD ADD SWAP1 PUSH1 0x1 PUSH1 0x1 PUSH1 0xF8 SHL SUB NOT AND SWAP1 DUP2 PUSH0 BYTE SWAP1 MSTORE8 POP PUSH1 0x20 DUP3 ADD MLOAD PUSH1 0x20 DUP4 MLOAD ADD ADD DUP2 PUSH1 0x18 SHR DUP2 MSTORE8 DUP2 PUSH1 0x10 SHR PUSH1 0x1 DUP3 ADD MSTORE8 DUP2 PUSH1 0x8 SHR PUSH1 0x2 DUP3 ADD MSTORE8 DUP2 PUSH1 0x3 DUP3 ADD MSTORE8 POP PUSH1 0x4 DUP3 PUSH1 0x20 ADD DUP2 DUP2 MLOAD PUSH2 0x1210 SWAP2 SWAP1 PUSH2 0x1586 JUMP JUMPDEST PUSH8 0xFFFFFFFFFFFFFFFF DUP2 GT PUSH2 0x134F JUMPI DUP2 MLOAD PUSH1 0x20 DUP4 ADD DUP1 MLOAD PUSH1 0xC7 PUSH1 0xF8 SHL SWAP3 SWAP2 PUSH2 0x12C6 DUP3 PUSH2 0x1528 JUMP JUMPDEST SWAP1 MSTORE DUP2 MLOAD DUP2 LT PUSH2 0x12D8 JUMPI PUSH2 0x12D8 PUSH2 0x1572 JUMP JUMPDEST PUSH1 0x20 ADD ADD SWAP1 PUSH1 0x1 PUSH1 0x1 PUSH1 0xF8 SHL SUB NOT AND SWAP1 DUP2 PUSH0 BYTE SWAP1 MSTORE8 POP PUSH1 0x20 DUP3 ADD MLOAD PUSH1 0x20 DUP4 MLOAD ADD ADD DUP2 PUSH1 0x38 SHR DUP2 MSTORE8 DUP2 PUSH1 0x30 SHR PUSH1 0x1 DUP3 ADD MSTORE8 DUP2 PUSH1 0x28 SHR PUSH1 0x2 DUP3 ADD MSTORE8 DUP2 PUSH1 0x20 SHR PUSH1 0x3 DUP3 ADD MSTORE8 DUP2 PUSH1 0x18 SHR PUSH1 0x4 DUP3 ADD MSTORE8 DUP2 PUSH1 0x10 SHR PUSH1 0x5 DUP3 ADD MSTORE8 DUP2 PUSH1 0x8 SHR PUSH1 0x6 DUP3 ADD MSTORE8 DUP2 PUSH1 0x7 DUP3 ADD MSTORE8 POP PUSH1 0x8 DUP3 PUSH1 0x20 ADD DUP2 DUP2 MLOAD PUSH2 0x1210 SWAP2 SWAP1 PUSH2 0x1586 JUMP JUMPDEST DUP2 MLOAD PUSH1 0x20 DUP4 ADD DUP1 MLOAD PUSH1 0xC9 PUSH1 0xF8 SHL SWAP3 SWAP2 PUSH2 0x1367 DUP3 PUSH2 0x1528 JUMP JUMPDEST SWAP1 MSTORE DUP2 MLOAD DUP2 LT PUSH2 0x1379 JUMPI PUSH2 0x1379 PUSH2 0x1572 JUMP JUMPDEST PUSH1 0x20 ADD ADD SWAP1 PUSH1 0x1 PUSH1 0x1 PUSH1 0xF8 SHL SUB NOT AND SWAP1 DUP2 PUSH0 BYTE SWAP1 MSTORE8 POP PUSH1 0x20 DUP3 DUP2 ADD DUP1 MLOAD DUP5 MLOAD ADD DUP3 ADD DUP4 SWAP1 MSTORE DUP1 MLOAD PUSH2 0x1210 SWAP1 DUP4 SWAP1 PUSH2 0x1586 JUMP JUMPDEST PUSH1 0xF DUP2 GT PUSH2 0x13BE JUMPI PUSH2 0xE86 DUP2 PUSH1 0x90 PUSH2 0x1586 JUMP JUMPDEST PUSH1 0xFF DUP2 GT PUSH2 0x13DE JUMPI DUP2 MLOAD PUSH1 0x20 DUP4 ADD DUP1 MLOAD PUSH1 0x6B PUSH1 0xF9 SHL SWAP3 SWAP2 PUSH2 0xEEB DUP3 PUSH2 0x1528 JUMP JUMPDEST DUP2 MLOAD PUSH1 0x20 DUP4 ADD DUP1 MLOAD PUSH1 0xD7 PUSH1 0xF8 SHL SWAP3 SWAP2 PUSH2 0xF43 DUP3 PUSH2 0x1528 JUMP JUMPDEST PUSH0 DUP2 MLOAD DUP1 DUP5 MSTORE PUSH0 JUMPDEST DUP2 DUP2 LT ISZERO PUSH2 0x141A JUMPI PUSH1 0x20 DUP2 DUP6 ADD DUP2 ADD MLOAD DUP7 DUP4 ADD DUP3 ADD MSTORE ADD PUSH2 0x13FE JUMP JUMPDEST POP PUSH0 PUSH1 0x20 DUP3 DUP7 ADD ADD MSTORE PUSH1 0x20 PUSH1 0x1F NOT PUSH1 0x1F DUP4 ADD AND DUP6 ADD ADD SWAP2 POP POP SWAP3 SWAP2 POP POP JUMP JUMPDEST DUP6 DUP2 MSTORE DUP5 PUSH1 0x20 DUP3 ADD MSTORE DUP4 ISZERO ISZERO PUSH1 0x40 DUP3 ADD MSTORE DUP3 PUSH1 0x60 DUP3 ADD MSTORE PUSH1 0xA0 PUSH1 0x80 DUP3 ADD MSTORE PUSH0 PUSH2 0x1465 PUSH1 0xA0 DUP4 ADD DUP5 PUSH2 0x13F6 JUMP JUMPDEST SWAP8 SWAP7 POP POP POP POP POP POP POP JUMP JUMPDEST PUSH1 0x80 DUP2 MSTORE PUSH0 PUSH2 0x1482 PUSH1 0x80 DUP4 ADD DUP8 PUSH2 0x13F6 JUMP JUMPDEST DUP3 DUP2 SUB PUSH1 0x20 DUP5 ADD MSTORE PUSH2 0x1494 DUP2 DUP8 PUSH2 0x13F6 JUMP JUMPDEST SWAP1 POP DUP3 DUP2 SUB PUSH1 0x40 DUP5 ADD MSTORE PUSH2 0x14A8 DUP2 DUP7 PUSH2 0x13F6 JUMP JUMPDEST SWAP2 POP POP DUP3 ISZERO ISZERO PUSH1 0x60 DUP4 ADD MSTORE SWAP6 SWAP5 POP POP POP POP POP JUMP JUMPDEST PUSH1 0x20 DUP2 MSTORE PUSH0 PUSH2 0x14CE PUSH1 0x20 DUP4 ADD DUP5 PUSH2 0x13F6 JUMP JUMPDEST SWAP4 SWAP3 POP POP POP JUMP JUMPDEST DUP7 DUP2 MSTORE DUP6 PUSH1 0x20 DUP3 ADD MSTORE DUP5 PUSH1 0x40 DUP3 ADD MSTORE DUP4 ISZERO ISZERO PUSH1 0x60 DUP3 ADD MSTORE PUSH1 0xC0 PUSH1 0x80 DUP3 ADD MSTORE PUSH0 PUSH2 0x1501 PUSH1 0xC0 DUP4 ADD DUP6 PUSH2 0x13F6 JUMP JUMPDEST SWAP1 POP DUP3 PUSH1 0xA0 DUP4 ADD MSTORE SWAP8 SWAP7 POP POP POP POP POP POP POP JUMP JUMPDEST PUSH4 0x4E487B71 PUSH1 0xE0 SHL PUSH0 MSTORE PUSH1 0x11 PUSH1 0x4 MSTORE PUSH1 0x24 PUSH0 REVERT JUMPDEST PUSH0 PUSH1 0x1 DUP3 ADD PUSH2 0x1539 JUMPI PUSH2 0x1539 PUSH2 0x1514 JUMP JUMPDEST POP PUSH1 0x1 ADD SWAP1 JUMP JUMPDEST PUSH1 0xFF DUP2 DUP2 AND DUP4 DUP3 AND ADD SWAP1 DUP2 GT ISZERO PUSH2 0xC3F JUMPI PUSH2 0xC3F PUSH2 0x1514 JUMP JUMPDEST PUSH1 0xFF DUP3 DUP2 AND DUP3 DUP3 AND SUB SWAP1 DUP2 GT ISZERO PUSH2 0xC3F JUMPI PUSH2 0xC3F PUSH2 0x1514 JUMP JUMPDEST PUSH4 0x4E487B71 PUSH1 0xE0 SHL PUSH0 MSTORE PUSH1 0x32 PUSH1 0x4 MSTORE PUSH1 0x24 PUSH0 REVERT JUMPDEST DUP1 DUP3 ADD DUP1 DUP3 GT ISZERO PUSH2 0xC3F JUMPI PUSH2 0xC3F PUSH2 0x1514 JUMP JUMPDEST PUSH4 0x4E487B71 PUSH1 0xE0 SHL PUSH0 MSTORE PUSH1 0x41 PUSH1 0x4 MSTORE PUSH1 0x24 PUSH0 REVERT JUMPDEST DUP1 DUP3 MUL DUP2 ISZERO DUP3 DUP3 DIV DUP5 EQ OR PUSH2 0xC3F JUMPI PUSH2 0xC3F PUSH2 0x1514 JUMP INVALID LOG2 PUSH5 0x6970667358 0x22 SLT KECCAK256 PUSH16 0x16509375DA77C2E29CAA66E7FF78F2CA 0xC 0xBE MUL 0xCB 0xF6 0xF9 0xC9 DUP7 0x28 0xC7 0xF 0xEC 0xC5 MSIZE 0xCA PUSH5 0x736F6C6343 STOP ADDMOD EQ STOP CALLER "},"methodIdentifiers":{"decodeMapThenMoreData()":"3578fce7","decodeMismatchedCount()":"bd1a9b65","demonstrateSequentialEncoding()":"3b996f2e","encodeMapThenMoreData()":"faf193e9","encodeMismatchedCount()":"daad53d8","encodeProperlyWithArray()":"9de023a0","encodeProperlyWithOuterMap()":"71eca3f9"}}}}}