{"project/contracts/examples/BytecodeSizeDemo.sol":{"MinimalContractOldAPI":{"abi":[{"inputs":[],"name":"encode","outputs":[{"internalType":"bytes","name":"","type":"bytes"}],"stateMutability":"pure","type":"function"}],"evm":{"bytecode":{"linkReferences":{},"object":"608060405234801561000f575f80fd5b5061098e8061001d5f395ff3fe608060405234801561000f575f80fd5b5060043610610029575f3560e01c8063bd14598f1461002d575b5f80fd5b61003561004b565b604051610042919061088f565b60405180910390f35b60605f61005661012c565b9050610063816003610171565b5061008a81604051806040016040528060048152602001636e616d6560e01b8152506101a3565b506100b28160405180604001604052806005815260200164416c69636560d81b8152506101a3565b506100d8816040518060400160405280600381526020016261676560e81b8152506101a3565b506100e481601e6101d8565b5061010e816040518060400160405280600781526020016662616c616e636560c81b8152506101a3565b5061011c81620f42406101d8565b5061012681610201565b91505090565b60408051808201825260608082525f6020830152825161010081850181815261016083019095529293909283928301818036833750505081525f602090910152919050565b60408051808201909152606081525f6020820152610190836003610287565b61019a8383610352565b50815b92915050565b60408051808201909152606081525f60208201526101ce83835160036101c99190610902565b610287565b61019a838361046c565b60408051808201909152606081525f60208201526101f7836021610287565b61019a8383610640565b60605f826020015167ffffffffffffffff811115610221576102216108da565b6040519080825280601f01601f19166020018201604052801561024b576020820181803683370190505b509050602083510160208201602085015180830190505b8083101561027d578251825260209283019290910190610262565b5091949350505050565b5f8183602001516102989190610902565b83515190915081116102a957505050565b8251515f906102b9906002610915565b9050818110156102d1576102ce826040610902565b90505b5f8167ffffffffffffffff8111156102eb576102eb6108da565b6040519080825280601f01601f191660200182016040528015610315576020820181803683370190505b509050602085510160208201602087015180830190505b8083101561034757825182526020928301929091019061032c565b505050909352505050565b600f81116103aa57610365816080610902565b60f81b825f015183602001805180919061037e9061092c565b90528151811061039057610390610944565b60200101906001600160f81b03191690815f1a9053505050565b60ff811161040a578151602083018051601b60fb1b92916103ca8261092c565b9052815181106103dc576103dc610944565b60200101906001600160f81b03191690815f1a905350815160208301805160f884901b929161037e8261092c565b815160208301805160d960f81b92916104228261092c565b90528151811061043457610434610944565b60200101906001600160f81b03191690815f1a90535081516020830180516001600160f81b031960f085901b1692916103ca8261092c565b80518190601f81116104c9576104838160a0610902565b60f81b845f015185602001805180919061049c9061092c565b9052815181106104ae576104ae610944565b60200101906001600160f81b03191690815f1a9053506105f4565b60ff8111610529578351602085018051606960f91b92916104e98261092c565b9052815181106104fb576104fb610944565b60200101906001600160f81b03191690815f1a905350835160208501805160f884901b929161049c8261092c565b835160208501805160d360f81b92916105418261092c565b90528151811061055357610553610944565b60200101906001600160f81b03191690815f1a90535083516020850180516001600160f81b031960f085901b16929161058b8261092c565b90528151811061059d5761059d610944565b60200101906001600160f81b03191690815f1a905350835160208501805160f884901b92916105cb8261092c565b9052815181106105dd576105dd610944565b60200101906001600160f81b03191690815f1a9053505b6020820160208501516020865101018282015b80831015610622578251825260209283019290910190610607565b50505080846020018181516106379190610902565b90525050505050565b607f811161066057815160208301805160f884901b929161037e8261092c565b60ff8111610680578151602083018051603160fa1b92916103ca8261092c565b61ffff81116106fb57815160208301805160c560f81b92916106a18261092c565b9052815181106106b3576106b3610944565b60200101906001600160f81b03191690815f1a90535060208201516020835101018160081c8153816001820153506002826020018181516106f49190610902565b9052505050565b63ffffffff8111610783578151602083018051606360f91b929161071e8261092c565b90528151811061073057610730610944565b60200101906001600160f81b03191690815f1a90535060208201516020835101018160181c81538160101c60018201538160081c6002820153816003820153506004826020018181516106f49190610902565b67ffffffffffffffff811161083357815160208301805160c760f81b92916107aa8261092c565b9052815181106107bc576107bc610944565b60200101906001600160f81b03191690815f1a90535060208201516020835101018160381c81538160301c60018201538160281c60028201538160201c60038201538160181c60048201538160101c60058201538160081c6006820153816007820153506008826020018181516106f49190610902565b815160208301805160c960f81b929161084b8261092c565b90528151811061085d5761085d610944565b60200101906001600160f81b03191690815f1a90535060208281018051845101820183905280516106f4908390610902565b5f6020808352835180828501525f5b818110156108ba5785810183015185820160400152820161089e565b505f604082860101526040601f19601f8301168501019250505092915050565b634e487b7160e01b5f52604160045260245ffd5b634e487b7160e01b5f52601160045260245ffd5b8082018082111561019d5761019d6108ee565b808202811582820484141761019d5761019d6108ee565b5f6001820161093d5761093d6108ee565b5060010190565b634e487b7160e01b5f52603260045260245ffdfea2646970667358221220e21ceb57acd518be9d3806ffd2b0dd5dadf2419ebd1be3e41f379670ff1fd0e264736f6c63430008140033","opcodes":"PUSH1 0x80 PUSH1 0x40 MSTORE CALLVALUE DUP1 ISZERO PUSH2 0xF JUMPI PUSH0 DUP1 REVERT JUMPDEST POP PUSH2 0x98E DUP1 PUSH2 0x1D PUSH0 CODECOPY PUSH0 RETURN INVALID PUSH1 0x80 PUSH1 0x40 MSTORE CALLVALUE DUP1 ISZERO PUSH2 0xF JUMPI PUSH0 DUP1 REVERT JUMPDEST POP PUSH1 0x4 CALLDATASIZE LT PUSH2 0x29 JUMPI PUSH0 CALLDATALOAD PUSH1 0xE0 SHR DUP1 PUSH4 0xBD14598F EQ PUSH2 0x2D JUMPI JUMPDEST PUSH0 DUP1 REVERT JUMPDEST PUSH2 0x35 PUSH2 0x4B JUMP JUMPDEST PUSH1 0x40 MLOAD PUSH2 0x42 SWAP2 SWAP1 PUSH2 0x88F JUMP JUMPDEST PUSH1 0x40 MLOAD DUP1 SWAP2 SUB SWAP1 RETURN JUMPDEST PUSH1 0x60 PUSH0 PUSH2 0x56 PUSH2 0x12C JUMP JUMPDEST SWAP1 POP PUSH2 0x63 DUP2 PUSH1 0x3 PUSH2 0x171 JUMP JUMPDEST POP PUSH2 0x8A DUP2 PUSH1 0x40 MLOAD DUP1 PUSH1 0x40 ADD PUSH1 0x40 MSTORE DUP1 PUSH1 0x4 DUP2 MSTORE PUSH1 0x20 ADD PUSH4 0x6E616D65 PUSH1 0xE0 SHL DUP2 MSTORE POP PUSH2 0x1A3 JUMP JUMPDEST POP PUSH2 0xB2 DUP2 PUSH1 0x40 MLOAD DUP1 PUSH1 0x40 ADD PUSH1 0x40 MSTORE DUP1 PUSH1 0x5 DUP2 MSTORE PUSH1 0x20 ADD PUSH5 0x416C696365 PUSH1 0xD8 SHL DUP2 MSTORE POP PUSH2 0x1A3 JUMP JUMPDEST POP PUSH2 0xD8 DUP2 PUSH1 0x40 MLOAD DUP1 PUSH1 0x40 ADD PUSH1 0x40 MSTORE DUP1 PUSH1 0x3 DUP2 MSTORE PUSH1 0x20 ADD PUSH3 0x616765 PUSH1 0xE8 SHL DUP2 MSTORE POP PUSH2 0x1A3 JUMP JUMPDEST POP PUSH2 0xE4 DUP2 PUSH1 0x1E PUSH2 0x1D8 JUMP JUMPDEST POP PUSH2 0x10E DUP2 PUSH1 0x40 MLOAD DUP1 PUSH1 0x40 ADD PUSH1 0x40 MSTORE DUP1 PUSH1 0x7 DUP2 MSTORE PUSH1 0x20 ADD PUSH7 0x62616C616E6365 PUSH1 0xC8 SHL DUP2 MSTORE POP PUSH2 0x1A3 JUMP JUMPDEST POP PUSH2 0x11C DUP2 PUSH3 0xF4240 PUSH2 0x1D8 JUMP JUMPDEST POP PUSH2 0x126 DUP2 PUSH2 0x201 JUMP JUMPDEST SWAP2 POP POP SWAP1 JUMP JUMPDEST PUSH1 0x40 DUP1 MLOAD DUP1 DUP3 ADD DUP3 MSTORE PUSH1 0x60 DUP1 DUP3 MSTORE PUSH0 PUSH1 0x20 DUP4 ADD MSTORE DUP3 MLOAD PUSH2 0x100 DUP2 DUP6 ADD DUP2 DUP2 MSTORE PUSH2 0x160 DUP4 ADD SWAP1 SWAP6 MSTORE SWAP3 SWAP4 SWAP1 SWAP3 DUP4 SWAP3 DUP4 ADD DUP2 DUP1 CALLDATASIZE DUP4 CALLDATACOPY POP POP POP DUP2 MSTORE PUSH0 PUSH1 0x20 SWAP1 SWAP2 ADD MSTORE SWAP2 SWAP1 POP JUMP JUMPDEST PUSH1 0x40 DUP1 MLOAD DUP1 DUP3 ADD SWAP1 SWAP2 MSTORE PUSH1 0x60 DUP2 MSTORE PUSH0 PUSH1 0x20 DUP3 ADD MSTORE PUSH2 0x190 DUP4 PUSH1 0x3 PUSH2 0x287 JUMP JUMPDEST PUSH2 0x19A DUP4 DUP4 PUSH2 0x352 JUMP JUMPDEST POP DUP2 JUMPDEST SWAP3 SWAP2 POP POP JUMP JUMPDEST PUSH1 0x40 DUP1 MLOAD DUP1 DUP3 ADD SWAP1 SWAP2 MSTORE PUSH1 0x60 DUP2 MSTORE PUSH0 PUSH1 0x20 DUP3 ADD MSTORE PUSH2 0x1CE DUP4 DUP4 MLOAD PUSH1 0x3 PUSH2 0x1C9 SWAP2 SWAP1 PUSH2 0x902 JUMP JUMPDEST PUSH2 0x287 JUMP JUMPDEST PUSH2 0x19A DUP4 DUP4 PUSH2 0x46C JUMP JUMPDEST PUSH1 0x40 DUP1 MLOAD DUP1 DUP3 ADD SWAP1 SWAP2 MSTORE PUSH1 0x60 DUP2 MSTORE PUSH0 PUSH1 0x20 DUP3 ADD MSTORE PUSH2 0x1F7 DUP4 PUSH1 0x21 PUSH2 0x287 JUMP JUMPDEST PUSH2 0x19A DUP4 DUP4 PUSH2 0x640 JUMP JUMPDEST PUSH1 0x60 PUSH0 DUP3 PUSH1 0x20 ADD MLOAD PUSH8 0xFFFFFFFFFFFFFFFF DUP2 GT ISZERO PUSH2 0x221 JUMPI PUSH2 0x221 PUSH2 0x8DA JUMP JUMPDEST PUSH1 0x40 MLOAD SWAP1 DUP1 DUP3 MSTORE DUP1 PUSH1 0x1F ADD PUSH1 0x1F NOT AND PUSH1 0x20 ADD DUP3 ADD PUSH1 0x40 MSTORE DUP1 ISZERO PUSH2 0x24B JUMPI PUSH1 0x20 DUP3 ADD DUP2 DUP1 CALLDATASIZE DUP4 CALLDATACOPY ADD SWAP1 POP JUMPDEST POP SWAP1 POP PUSH1 0x20 DUP4 MLOAD ADD PUSH1 0x20 DUP3 ADD PUSH1 0x20 DUP6 ADD MLOAD DUP1 DUP4 ADD SWAP1 POP JUMPDEST DUP1 DUP4 LT ISZERO PUSH2 0x27D JUMPI DUP3 MLOAD DUP3 MSTORE PUSH1 0x20 SWAP3 DUP4 ADD SWAP3 SWAP1 SWAP2 ADD SWAP1 PUSH2 0x262 JUMP JUMPDEST POP SWAP2 SWAP5 SWAP4 POP POP POP POP JUMP JUMPDEST PUSH0 DUP2 DUP4 PUSH1 0x20 ADD MLOAD PUSH2 0x298 SWAP2 SWAP1 PUSH2 0x902 JUMP JUMPDEST DUP4 MLOAD MLOAD SWAP1 SWAP2 POP DUP2 GT PUSH2 0x2A9 JUMPI POP POP POP JUMP JUMPDEST DUP3 MLOAD MLOAD PUSH0 SWAP1 PUSH2 0x2B9 SWAP1 PUSH1 0x2 PUSH2 0x915 JUMP JUMPDEST SWAP1 POP DUP2 DUP2 LT ISZERO PUSH2 0x2D1 JUMPI PUSH2 0x2CE DUP3 PUSH1 0x40 PUSH2 0x902 JUMP JUMPDEST SWAP1 POP JUMPDEST PUSH0 DUP2 PUSH8 0xFFFFFFFFFFFFFFFF DUP2 GT ISZERO PUSH2 0x2EB JUMPI PUSH2 0x2EB PUSH2 0x8DA JUMP JUMPDEST PUSH1 0x40 MLOAD SWAP1 DUP1 DUP3 MSTORE DUP1 PUSH1 0x1F ADD PUSH1 0x1F NOT AND PUSH1 0x20 ADD DUP3 ADD PUSH1 0x40 MSTORE DUP1 ISZERO PUSH2 0x315 JUMPI PUSH1 0x20 DUP3 ADD DUP2 DUP1 CALLDATASIZE DUP4 CALLDATACOPY ADD SWAP1 POP JUMPDEST POP SWAP1 POP PUSH1 0x20 DUP6 MLOAD ADD PUSH1 0x20 DUP3 ADD PUSH1 0x20 DUP8 ADD MLOAD DUP1 DUP4 ADD SWAP1 POP JUMPDEST DUP1 DUP4 LT ISZERO PUSH2 0x347 JUMPI DUP3 MLOAD DUP3 MSTORE PUSH1 0x20 SWAP3 DUP4 ADD SWAP3 SWAP1 SWAP2 ADD SWAP1 PUSH2 0x32C JUMP JUMPDEST POP POP POP SWAP1 SWAP4 MSTORE POP POP POP JUMP JUMPDEST PUSH1 0xF DUP2 GT PUSH2 0x3AA JUMPI PUSH2 0x365 DUP2 PUSH1 0x80 PUSH2 0x902 JUMP JUMPDEST PUSH1 0xF8 SHL DUP3 PUSH0 ADD MLOAD DUP4 PUSH1 0x20 ADD DUP1 MLOAD DUP1 SWAP2 SWAP1 PUSH2 0x37E SWAP1 PUSH2 0x92C JUMP JUMPDEST SWAP1 MSTORE DUP2 MLOAD DUP2 LT PUSH2 0x390 JUMPI PUSH2 0x390 PUSH2 0x944 JUMP JUMPDEST PUSH1 0x20 ADD ADD SWAP1 PUSH1 0x1 PUSH1 0x1 PUSH1 0xF8 SHL SUB NOT AND SWAP1 DUP2 PUSH0 BYTE SWAP1 MSTORE8 POP POP POP JUMP JUMPDEST PUSH1 0xFF DUP2 GT PUSH2 0x40A JUMPI DUP2 MLOAD PUSH1 0x20 DUP4 ADD DUP1 MLOAD PUSH1 0x1B PUSH1 0xFB SHL SWAP3 SWAP2 PUSH2 0x3CA DUP3 PUSH2 0x92C JUMP JUMPDEST SWAP1 MSTORE DUP2 MLOAD DUP2 LT PUSH2 0x3DC JUMPI PUSH2 0x3DC PUSH2 0x944 JUMP JUMPDEST PUSH1 0x20 ADD ADD SWAP1 PUSH1 0x1 PUSH1 0x1 PUSH1 0xF8 SHL SUB NOT AND SWAP1 DUP2 PUSH0 BYTE SWAP1 MSTORE8 POP DUP2 MLOAD PUSH1 0x20 DUP4 ADD DUP1 MLOAD PUSH1 0xF8 DUP5 SWAP1 SHL SWAP3 SWAP2 PUSH2 0x37E DUP3 PUSH2 0x92C JUMP JUMPDEST DUP2 MLOAD PUSH1 0x20 DUP4 ADD DUP1 MLOAD PUSH1 0xD9 PUSH1 0xF8 SHL SWAP3 SWAP2 PUSH2 0x422 DUP3 PUSH2 0x92C JUMP JUMPDEST SWAP1 MSTORE DUP2 MLOAD DUP2 LT PUSH2 0x434 JUMPI PUSH2 0x434 PUSH2 0x944 JUMP JUMPDEST PUSH1 0x20 ADD ADD SWAP1 PUSH1 0x1 PUSH1 0x1 PUSH1 0xF8 SHL SUB NOT AND SWAP1 DUP2 PUSH0 BYTE SWAP1 MSTORE8 POP DUP2 MLOAD PUSH1 0x20 DUP4 ADD DUP1 MLOAD PUSH1 0x1 PUSH1 0x1 PUSH1 0xF8 SHL SUB NOT PUSH1 0xF0 DUP6 SWAP1 SHL AND SWAP3 SWAP2 PUSH2 0x3CA DUP3 PUSH2 0x92C JUMP JUMPDEST DUP1 MLOAD DUP2 SWAP1 PUSH1 0x1F DUP2 GT PUSH2 0x4C9 JUMPI PUSH2 0x483 DUP2 PUSH1 0xA0 PUSH2 0x902 JUMP JUMPDEST PUSH1 0xF8 SHL DUP5 PUSH0 ADD MLOAD DUP6 PUSH1 0x20 ADD DUP1 MLOAD DUP1 SWAP2 SWAP1 PUSH2 0x49C SWAP1 PUSH2 0x92C JUMP JUMPDEST SWAP1 MSTORE DUP2 MLOAD DUP2 LT PUSH2 0x4AE JUMPI PUSH2 0x4AE PUSH2 0x944 JUMP JUMPDEST PUSH1 0x20 ADD ADD SWAP1 PUSH1 0x1 PUSH1 0x1 PUSH1 0xF8 SHL SUB NOT AND SWAP1 DUP2 PUSH0 BYTE SWAP1 MSTORE8 POP PUSH2 0x5F4 JUMP JUMPDEST PUSH1 0xFF DUP2 GT PUSH2 0x529 JUMPI DUP4 MLOAD PUSH1 0x20 DUP6 ADD DUP1 MLOAD PUSH1 0x69 PUSH1 0xF9 SHL SWAP3 SWAP2 PUSH2 0x4E9 DUP3 PUSH2 0x92C JUMP JUMPDEST SWAP1 MSTORE DUP2 MLOAD DUP2 LT PUSH2 0x4FB JUMPI PUSH2 0x4FB PUSH2 0x944 JUMP JUMPDEST PUSH1 0x20 ADD ADD SWAP1 PUSH1 0x1 PUSH1 0x1 PUSH1 0xF8 SHL SUB NOT AND SWAP1 DUP2 PUSH0 BYTE SWAP1 MSTORE8 POP DUP4 MLOAD PUSH1 0x20 DUP6 ADD DUP1 MLOAD PUSH1 0xF8 DUP5 SWAP1 SHL SWAP3 SWAP2 PUSH2 0x49C DUP3 PUSH2 0x92C JUMP JUMPDEST DUP4 MLOAD PUSH1 0x20 DUP6 ADD DUP1 MLOAD PUSH1 0xD3 PUSH1 0xF8 SHL SWAP3 SWAP2 PUSH2 0x541 DUP3 PUSH2 0x92C JUMP JUMPDEST SWAP1 MSTORE DUP2 MLOAD DUP2 LT PUSH2 0x553 JUMPI PUSH2 0x553 PUSH2 0x944 JUMP JUMPDEST PUSH1 0x20 ADD ADD SWAP1 PUSH1 0x1 PUSH1 0x1 PUSH1 0xF8 SHL SUB NOT AND SWAP1 DUP2 PUSH0 BYTE SWAP1 MSTORE8 POP DUP4 MLOAD PUSH1 0x20 DUP6 ADD DUP1 MLOAD PUSH1 0x1 PUSH1 0x1 PUSH1 0xF8 SHL SUB NOT PUSH1 0xF0 DUP6 SWAP1 SHL AND SWAP3 SWAP2 PUSH2 0x58B DUP3 PUSH2 0x92C JUMP JUMPDEST SWAP1 MSTORE DUP2 MLOAD DUP2 LT PUSH2 0x59D JUMPI PUSH2 0x59D PUSH2 0x944 JUMP JUMPDEST PUSH1 0x20 ADD ADD SWAP1 PUSH1 0x1 PUSH1 0x1 PUSH1 0xF8 SHL SUB NOT AND SWAP1 DUP2 PUSH0 BYTE SWAP1 MSTORE8 POP DUP4 MLOAD PUSH1 0x20 DUP6 ADD DUP1 MLOAD PUSH1 0xF8 DUP5 SWAP1 SHL SWAP3 SWAP2 PUSH2 0x5CB DUP3 PUSH2 0x92C JUMP JUMPDEST SWAP1 MSTORE DUP2 MLOAD DUP2 LT PUSH2 0x5DD JUMPI PUSH2 0x5DD PUSH2 0x944 JUMP JUMPDEST PUSH1 0x20 ADD ADD SWAP1 PUSH1 0x1 PUSH1 0x1 PUSH1 0xF8 SHL SUB NOT AND SWAP1 DUP2 PUSH0 BYTE SWAP1 MSTORE8 POP JUMPDEST PUSH1 0x20 DUP3 ADD PUSH1 0x20 DUP6 ADD MLOAD PUSH1 0x20 DUP7 MLOAD ADD ADD DUP3 DUP3 ADD JUMPDEST DUP1 DUP4 LT ISZERO PUSH2 0x622 JUMPI DUP3 MLOAD DUP3 MSTORE PUSH1 0x20 SWAP3 DUP4 ADD SWAP3 SWAP1 SWAP2 ADD SWAP1 PUSH2 0x607 JUMP JUMPDEST POP POP POP DUP1 DUP5 PUSH1 0x20 ADD DUP2 DUP2 MLOAD PUSH2 0x637 SWAP2 SWAP1 PUSH2 0x902 JUMP JUMPDEST SWAP1 MSTORE POP POP POP POP POP JUMP JUMPDEST PUSH1 0x7F DUP2 GT PUSH2 0x660 JUMPI DUP2 MLOAD PUSH1 0x20 DUP4 ADD DUP1 MLOAD PUSH1 0xF8 DUP5 SWAP1 SHL SWAP3 SWAP2 PUSH2 0x37E DUP3 PUSH2 0x92C JUMP JUMPDEST PUSH1 0xFF DUP2 GT PUSH2 0x680 JUMPI DUP2 MLOAD PUSH1 0x20 DUP4 ADD DUP1 MLOAD PUSH1 0x31 PUSH1 0xFA SHL SWAP3 SWAP2 PUSH2 0x3CA DUP3 PUSH2 0x92C JUMP JUMPDEST PUSH2 0xFFFF DUP2 GT PUSH2 0x6FB JUMPI DUP2 MLOAD PUSH1 0x20 DUP4 ADD DUP1 MLOAD PUSH1 0xC5 PUSH1 0xF8 SHL SWAP3 SWAP2 PUSH2 0x6A1 DUP3 PUSH2 0x92C JUMP JUMPDEST SWAP1 MSTORE DUP2 MLOAD DUP2 LT PUSH2 0x6B3 JUMPI PUSH2 0x6B3 PUSH2 0x944 JUMP JUMPDEST PUSH1 0x20 ADD ADD SWAP1 PUSH1 0x1 PUSH1 0x1 PUSH1 0xF8 SHL SUB NOT AND SWAP1 DUP2 PUSH0 BYTE SWAP1 MSTORE8 POP PUSH1 0x20 DUP3 ADD MLOAD PUSH1 0x20 DUP4 MLOAD ADD ADD DUP2 PUSH1 0x8 SHR DUP2 MSTORE8 DUP2 PUSH1 0x1 DUP3 ADD MSTORE8 POP PUSH1 0x2 DUP3 PUSH1 0x20 ADD DUP2 DUP2 MLOAD PUSH2 0x6F4 SWAP2 SWAP1 PUSH2 0x902 JUMP JUMPDEST SWAP1 MSTORE POP POP POP JUMP JUMPDEST PUSH4 0xFFFFFFFF DUP2 GT PUSH2 0x783 JUMPI DUP2 MLOAD PUSH1 0x20 DUP4 ADD DUP1 MLOAD PUSH1 0x63 PUSH1 0xF9 SHL SWAP3 SWAP2 PUSH2 0x71E DUP3 PUSH2 0x92C JUMP JUMPDEST SWAP1 MSTORE DUP2 MLOAD DUP2 LT PUSH2 0x730 JUMPI PUSH2 0x730 PUSH2 0x944 JUMP JUMPDEST PUSH1 0x20 ADD ADD SWAP1 PUSH1 0x1 PUSH1 0x1 PUSH1 0xF8 SHL SUB NOT AND SWAP1 DUP2 PUSH0 BYTE SWAP1 MSTORE8 POP PUSH1 0x20 DUP3 ADD MLOAD PUSH1 0x20 DUP4 MLOAD ADD ADD DUP2 PUSH1 0x18 SHR DUP2 MSTORE8 DUP2 PUSH1 0x10 SHR PUSH1 0x1 DUP3 ADD MSTORE8 DUP2 PUSH1 0x8 SHR PUSH1 0x2 DUP3 ADD MSTORE8 DUP2 PUSH1 0x3 DUP3 ADD MSTORE8 POP PUSH1 0x4 DUP3 PUSH1 0x20 ADD DUP2 DUP2 MLOAD PUSH2 0x6F4 SWAP2 SWAP1 PUSH2 0x902 JUMP JUMPDEST PUSH8 0xFFFFFFFFFFFFFFFF DUP2 GT PUSH2 0x833 JUMPI DUP2 MLOAD PUSH1 0x20 DUP4 ADD DUP1 MLOAD PUSH1 0xC7 PUSH1 0xF8 SHL SWAP3 SWAP2 PUSH2 0x7AA DUP3 PUSH2 0x92C JUMP JUMPDEST SWAP1 MSTORE DUP2 MLOAD DUP2 LT PUSH2 0x7BC JUMPI PUSH2 0x7BC PUSH2 0x944 JUMP JUMPDEST PUSH1 0x20 ADD ADD SWAP1 PUSH1 0x1 PUSH1 0x1 PUSH1 0xF8 SHL SUB NOT AND SWAP1 DUP2 PUSH0 BYTE SWAP1 MSTORE8 POP PUSH1 0x20 DUP3 ADD MLOAD PUSH1 0x20 DUP4 MLOAD ADD ADD DUP2 PUSH1 0x38 SHR DUP2 MSTORE8 DUP2 PUSH1 0x30 SHR PUSH1 0x1 DUP3 ADD MSTORE8 DUP2 PUSH1 0x28 SHR PUSH1 0x2 DUP3 ADD MSTORE8 DUP2 PUSH1 0x20 SHR PUSH1 0x3 DUP3 ADD MSTORE8 DUP2 PUSH1 0x18 SHR PUSH1 0x4 DUP3 ADD MSTORE8 DUP2 PUSH1 0x10 SHR PUSH1 0x5 DUP3 ADD MSTORE8 DUP2 PUSH1 0x8 SHR PUSH1 0x6 DUP3 ADD MSTORE8 DUP2 PUSH1 0x7 DUP3 ADD MSTORE8 POP PUSH1 0x8 DUP3 PUSH1 0x20 ADD DUP2 DUP2 MLOAD PUSH2 0x6F4 SWAP2 SWAP1 PUSH2 0x902 JUMP JUMPDEST DUP2 MLOAD PUSH1 0x20 DUP4 ADD DUP1 MLOAD PUSH1 0xC9 PUSH1 0xF8 SHL SWAP3 SWAP2 PUSH2 0x84B DUP3 PUSH2 0x92C JUMP JUMPDEST SWAP1 MSTORE DUP2 MLOAD DUP2 LT PUSH2 0x85D JUMPI PUSH2 0x85D PUSH2 0x944 JUMP JUMPDEST PUSH1 0x20 ADD ADD SWAP1 PUSH1 0x1 PUSH1 0x1 PUSH1 0xF8 SHL SUB NOT AND SWAP1 DUP2 PUSH0 BYTE SWAP1 MSTORE8 POP PUSH1 0x20 DUP3 DUP2 ADD DUP1 MLOAD DUP5 MLOAD ADD DUP3 ADD DUP4 SWAP1 MSTORE DUP1 MLOAD PUSH2 0x6F4 SWAP1 DUP4 SWAP1 PUSH2 0x902 JUMP JUMPDEST PUSH0 PUSH1 0x20 DUP1 DUP4 MSTORE DUP4 MLOAD DUP1 DUP3 DUP6 ADD MSTORE PUSH0 JUMPDEST DUP2 DUP2 LT ISZERO PUSH2 0x8BA JUMPI DUP6 DUP2 ADD DUP4 ADD MLOAD DUP6 DUP3 ADD PUSH1 0x40 ADD MSTORE DUP3 ADD PUSH2 0x89E JUMP JUMPDEST POP PUSH0 PUSH1 0x40 DUP3 DUP7 ADD ADD MSTORE PUSH1 0x40 PUSH1 0x1F NOT PUSH1 0x1F DUP4 ADD AND DUP6 ADD ADD SWAP3 POP POP POP SWAP3 SWAP2 POP POP JUMP JUMPDEST PUSH4 0x4E487B71 PUSH1 0xE0 SHL PUSH0 MSTORE PUSH1 0x41 PUSH1 0x4 MSTORE PUSH1 0x24 PUSH0 REVERT JUMPDEST PUSH4 0x4E487B71 PUSH1 0xE0 SHL PUSH0 MSTORE PUSH1 0x11 PUSH1 0x4 MSTORE PUSH1 0x24 PUSH0 REVERT JUMPDEST DUP1 DUP3 ADD DUP1 DUP3 GT ISZERO PUSH2 0x19D JUMPI PUSH2 0x19D PUSH2 0x8EE JUMP JUMPDEST DUP1 DUP3 MUL DUP2 ISZERO DUP3 DUP3 DIV DUP5 EQ OR PUSH2 0x19D JUMPI PUSH2 0x19D PUSH2 0x8EE JUMP JUMPDEST PUSH0 PUSH1 0x1 DUP3 ADD PUSH2 0x93D JUMPI PUSH2 0x93D PUSH2 0x8EE JUMP JUMPDEST POP PUSH1 0x1 ADD SWAP1 JUMP JUMPDEST PUSH4 0x4E487B71 PUSH1 0xE0 SHL PUSH0 MSTORE PUSH1 0x32 PUSH1 0x4 MSTORE PUSH1 0x24 PUSH0 REVERT INVALID LOG2 PUSH5 0x6970667358 0x22 SLT KECCAK256 0xE2 SHR 0xEB JUMPI 0xAC 0xD5 XOR 0xBE SWAP14 CODESIZE MOD SELFDESTRUCT 0xD2 0xB0 0xDD 0x5D 0xAD CALLCODE COINBASE SWAP15 0xBD SHL 0xE3 0xE4 0x1F CALLDATACOPY SWAP7 PUSH17 0xFF1FD0E264736F6C634300081400330000 "},"methodIdentifiers":{"encode()":"bd14598f"}}}}}