{"project/contracts/examples/NestedStructuresExample.sol":{"NestedStructuresExample":{"abi":[{"inputs":[],"name":"decodeComplexAndExtractTags","outputs":[{"internalType":"string","name":"firstTag","type":"string"},{"internalType":"string","name":"secondTag","type":"string"},{"internalType":"bool","name":"foundTags","type":"bool"}],"stateMutability":"pure","type":"function"},{"inputs":[],"name":"decodeMapWithArrayUsingInspection","outputs":[{"internalType":"string","name":"name","type":"string"},{"internalType":"uint256","name":"firstScore","type":"uint256"},{"internalType":"uint256","name":"scoresCount","type":"uint256"}],"stateMutability":"pure","type":"function"},{"inputs":[],"name":"decodeNestedMapStepByStep","outputs":[{"internalType":"uint256","name":"outerValue","type":"uint256"},{"internalType":"uint256","name":"nestedInner","type":"uint256"},{"internalType":"string","name":"nestedName","type":"string"}],"stateMutability":"pure","type":"function"},{"inputs":[],"name":"decodeUnknownStructureWithSkip","outputs":[{"internalType":"uint256","name":"id","type":"uint256"},{"internalType":"uint256","name":"count","type":"uint256"}],"stateMutability":"pure","type":"function"},{"inputs":[],"name":"encodeComplexNesting","outputs":[{"internalType":"bytes","name":"","type":"bytes"}],"stateMutability":"pure","type":"function"},{"inputs":[],"name":"encodeMapWithArray","outputs":[{"internalType":"bytes","name":"","type":"bytes"}],"stateMutability":"pure","type":"function"},{"inputs":[],"name":"encodeNestedMap","outputs":[{"internalType":"bytes","name":"","type":"bytes"}],"stateMutability":"pure","type":"function"}],"evm":{"bytecode":{"linkReferences":{},"object":"608060405234801561000f575f80fd5b506124538061001d5f395ff3fe608060405234801561000f575f80fd5b506004361061007a575f3560e01c80634b5b7341116100585780634b5b7341146100ca578063652ac576146100d257806374f57d40146100e9578063c1b5ec0014610106575f80fd5b80631abb8e2c1461007e5780634686a7431461009e5780634ae99edc146100b3575b5f80fd5b61008661010e565b604051610095939291906122be565b60405180910390f35b6100a6610286565b60405161009591906122e2565b6100bb610399565b604051610095939291906122fb565b6100a661060c565b6100da6106cc565b60405161009593929190612322565b6100f161083e565b60408051928352602083019190915201610095565b6100a6610934565b60605f805f61011b61060c565b604080518082018252606081525f602091820181905282518084019093528383529082018190529192509061014f82610a94565b90505f5b8181101561027d575f61016584610bf3565b90507f2361458367e696363fbcc70777d07ebbd2394e89fd0adcaf147faccd1d294d608180519060200120036101a55761019e84610bf3565b975061026a565b805160208201207f3e2b5d90d4c60ae46e3fe89fcc828886238e60ead515c8e9eeb0a6d797c7a18a01610261576101dd846006610e18565b61021f5760405162461bcd60e51b815260206004820152600e60248201526d457870656374656420617272617960901b60448201526064015b60405180910390fd5b61022884610e65565b955061023384610f2c565b965060015b8681101561025b5761024985611113565b806102538161236d565b915050610238565b5061026a565b61026a84611113565b50806102758161236d565b915050610153565b50505050909192565b60605f610291611745565b905061029e81600261178a565b506102c6816040518060400160405280600581526020016437baba32b960d91b8152506117ba565b506102d281602a6117ef565b506102fb81604051806040016040528060068152602001651b995cdd195960d21b8152506117ba565b5061030781600261178a565b5061032f816040518060400160405280600581526020016434b73732b960d91b8152506117ba565b5061033b8160646117ef565b5061036281604051806040016040528060048152602001636e616d6560e01b8152506117ba565b5061038981604051806040016040528060048152602001631d195cdd60e21b8152506117ba565b5061039381611818565b91505090565b5f8060605f6103a6610286565b604080518082018252606081525f60209182018190528251808401909352838352908201819052919250906103da82610a94565b9050806002146104215760405162461bcd60e51b81526020600482015260126024820152714578706563746564203220656e747269657360701b6044820152606401610216565b5f61042b83610bf3565b90507fbd499fc997e96d0b6f6290e7a2f0fdf5178d7d1ee10d32540d79bec21ccfaa898180519060200120146104965760405162461bcd60e51b815260206004820152601060248201526f457870656374656420276f757465722760801b6044820152606401610216565b61049f83610f2c565b96505f6104ab84610bf3565b90507f4d5b14044d78fbf0c9dd8b9c49e35f09ee5a6f5b1b3b8117b5d0e15c8dd2cb098180519060200120146105175760405162461bcd60e51b8152602060048201526011602482015270457870656374656420276e65737465642760781b6044820152606401610216565b5f61052185611898565b9050600781600981111561053757610537612385565b1461057a5760405162461bcd60e51b815260206004820152601360248201527204578706563746564206e6573746564206d617606c1b6044820152606401610216565b5f61058486610a94565b9050806002146105d65760405162461bcd60e51b815260206004820152601960248201527f45787065637465642032206e657374656420656e7472696573000000000000006044820152606401610216565b6105df86610bf3565b506105e986610f2c565b98506105f486610bf3565b506105fe86610bf3565b975050505050505050909192565b60605f610617611745565b905061062481600261178a565b5061064b81604051806040016040528060048152602001636e616d6560e01b8152506117ba565b506106738160405180604001604052806005815260200164416c69636560d81b8152506117ba565b5061069c816040518060400160405280600681526020016573636f72657360d01b8152506117ba565b506106a8816003611b39565b506106b481600a6117ef565b506106c08160146117ef565b5061038981601e6117ef565b6060805f806106d9610934565b604080518082018252606081525f602091820181905282518084019093528383529082018190529192509061070d82610a94565b90505f5b8181101561027d575f61072384610bf3565b90507f8f54f1c2d0eb5771cd5bf67a6689fcd6eed9444d91a39e5ef32a9b4ae5ca14ff818051906020012003610822575f61075d85610a94565b90505f5b8181101561081b575f61077387610bf3565b90507f13f2570a4f3752e83e37ff7e082b475a97035ff53694ee2548f36573f6a5d8bc8180519060200120036107ff575f6107ad88610e65565b9050600281106107f9576107c088610bf3565b9b506107cb88610bf3565b9a506001995060025b818110156107f7576107e589611113565b806107ef8161236d565b9150506107d4565b505b50610808565b61080887611113565b50806108138161236d565b915050610761565b505061082b565b61082b84611113565b50806108368161236d565b915050610711565b5f805f610849610934565b604080518082018252606081525f602091820181905282518084019093528383529082018190529192509061087d82610a94565b90505f5b8181101561092c575f61089384610bf3565b90507fa709fd3aa96d9faf770e44a5aef2f4808a6fe3a5ddf546568f36ad3a3873f31d8180519060200120036108d3576108cc84610f2c565b9650610919565b805160208201207f37dcf94954e4b398bd6bbd014e192dc7eca5930355b8e5fe4f1cc90fe4fb71c8016109105761090984610f2c565b9550610919565b61091984611113565b50806109248161236d565b915050610881565b505050509091565b60605f61093f611745565b905061094c81600361178a565b5061097181604051806040016040528060028152602001611a5960f21b8152506117ba565b5061097d8160016117ef565b506109a481604051806040016040528060048152602001636461746160e01b8152506117ba565b506109b081600261178a565b506109d781604051806040016040528060048152602001637461677360e01b8152506117ba565b506109e3816002611b39565b50610a0781604051806040016040528060018152602001606160f81b8152506117ba565b50610a2b81604051806040016040528060018152602001603160f91b8152506117ba565b50610a54816040518060400160405280600681526020016561637469766560d01b8152506117ba565b50610a60816001611b62565b50610a88816040518060400160405280600581526020016418dbdd5b9d60da1b8152506117ba565b506103898160056117ef565b5f80610a9f83611bd8565b602084018051919250610ab18261236d565b905250608060ff821610801590610ad85750610acf60806010612399565b60ff168160ff16105b15610af257610ae86080826123b2565b60ff169392505050565b60d71960ff821601610b3157825160208401805190610b108261236d565b905281518110610b2257610b226123cb565b016020015160f81c9392505050565b60d81960ff821601610bc157825160208401515f9190610b529060016123df565b81518110610b6257610b626123cb565b602001015160f81c60f81b60f81c60ff166008855f0151866020015181518110610b8e57610b8e6123cb565b602001015160f81c60f81b60f81c60ff16901b179050600284602001818151610bb791906123df565b9052509392505050565b60405162461bcd60e51b815260206004820152600760248201526604e6f74206d61760cc1b6044820152606401610216565b60605f610bff83611bd8565b602084018051919250610c118261236d565b9052505f60a060ff831610801590610c395750610c3060a06020612399565b60ff168260ff16105b15610c5357610c4960a0836123b2565b60ff169050610d52565b60d11960ff831601610c9257835160208501805190610c718261236d565b905281518110610c8357610c836123cb565b016020015160f81c9050610d52565b60d21960ff831601610d1d5783516020850151610cb09060016123df565b81518110610cc057610cc06123cb565b602001015160f81c60f81b60f81c60ff166008855f0151866020015181518110610cec57610cec6123cb565b602001015160f81c60f81b60f81c60ff16901b179050600284602001818151610d1591906123df565b905250610d52565b60405162461bcd60e51b815260206004820152600a6024820152694e6f7420737472696e6760b01b6044820152606401610216565b5f8167ffffffffffffffff811115610d6c57610d6c6123f2565b6040519080825280601f01601f191660200182016040528015610d96576020820181803683370190505b509050602085015160208651010160208201602084045f5b81811015610dca57602081028481015190840152600101610dae565b50601f85168015610df757602082028481015160016008840290811b5f1901610100919091031b16908401525b505050508185602001818151610e0d91906123df565b905250949350505050565b5f825f015151836020015110610e2f57505f610e5f565b816009811115610e4157610e41612385565b610e4a84611898565b6009811115610e5b57610e5b612385565b1490505b92915050565b5f80610e7083611bd8565b602084018051919250610e828261236d565b905250609060ff821610801590610ea95750610ea060906010612399565b60ff168160ff16105b15610eb957610ae86090826123b2565b60d51960ff821601610ed757825160208401805190610b108261236d565b60d61960ff821601610ef857825160208401515f9190610b529060016123df565b60405162461bcd60e51b81526020600482015260096024820152684e6f7420617272617960b81b6044820152606401610216565b5f80610f3783611bd8565b602084018051919250610f498261236d565b905250607f60ff821611610f605760ff1692915050565b60c31960ff821601610f7e57825160208401805190610b108261236d565b60c41960ff821601610fbb575f602084015160208551010160018101515f1a81515f1a60081b17915050600284602001818151610bb791906123df565b60c51960ff82160161100e575f602084015160208551010160038101515f1a60028201515f1a60081b60018301515f1a60101b83515f1a60181b171717915050600484602001818151610bb791906123df565b60c61960ff82160161105f5760208381015184515f92910101815b600881101561104a57808201515f1a8360081b179250600181019050611029565b5050600884602001818151610bb791906123df565b60c71960ff8216016110b05760208381015184515f92910101815b601081101561109b57808201515f1a8360081b17925060018101905061107a565b5050601084602001818151610bb791906123df565b60c81960ff8216016110d8576020838101805185518101830151929190610bb79083906123df565b60405162461bcd60e51b815260206004820152601060248201526f496e76616c69642075696e742074616760801b6044820152606401610216565b5f61111d82611bd8565b60208301805191925061112f8261236d565b905250607f60ff8216111580611149575060e060ff821610155b15611152575050565b60a060ff821610801590611176575061116d60a06020612399565b60ff168160ff16105b156111a15761118660a0826123b2565b60ff168260200181815161119a91906123df565b9052505050565b609060ff8216108015906111c557506111bc60906010612399565b60ff168160ff16105b15611206575f6111d66090836123b2565b60ff1690505f5b81811015611200576111ee84611113565b806111f88161236d565b9150506111dd565b50505050565b608060ff82161080159061122a575061122160806010612399565b60ff168160ff16105b1561126f575f61123b6080836123b2565b60ff1690505f5b61124d826002612406565b8110156112005761125d84611113565b806112678161236d565b915050611242565b60ff811660c01480611284575060ff811660c3145b80611292575060ff811660c2145b6117415760ff811660c414806112ab575060ff811660ca145b156112c35760018260200181815161119a91906123df565b60ff811660c514806112d8575060ff811660cb145b156112f05760028260200181815161119a91906123df565b60ff811660c61480611305575060ff811660cc145b1561131d5760048260200181815161119a91906123df565b60ff811660c71480611332575060ff811660cd145b1561134a5760088260200181815161119a91906123df565b60ff811660c8148061135f575060ff811660ce145b156113775760108260200181815161119a91906123df565b60ff811660c9148061138c575060ff811660cf145b8061139a575060ff811660d5145b156113b25760208260200181815161119a91906123df565b60d31960ff8216016113d15760148260200181815161119a91906123df565b60ff811660d014806113e6575060ff811660d2145b156114405781516020830180515f92916113ff8261236d565b905281518110611411576114116123cb565b602001015160f81c60f81b60f81c60ff169050808360200181815161143691906123df565b9052506117419050565b60ff811660d11480611455575060ff811660d3145b156114d457815160208301515f919061146f9060016123df565b8151811061147f5761147f6123cb565b602001015160f81c60f81b60f81c60ff166008845f01518560200151815181106114ab576114ab6123cb565b016020015160f81c901b1790506114c38160026123df565b8360200181815161143691906123df565b60d51960ff8216016115355781516020830180515f92916114f48261236d565b905281518110611506576115066123cb565b016020015160f81c90505f5b818110156112005761152384611113565b8061152d8161236d565b915050611512565b60d61960ff8216016115e357815160208301515f91906115569060016123df565b81518110611566576115666123cb565b602001015160f81c60f81b60f81c60ff166008845f0151856020015181518110611592576115926123cb565b602001015160f81c60f81b60f81c60ff16901b1790506002836020018181516115bb91906123df565b9052505f5b81811015611200576115d184611113565b806115db8161236d565b9150506115c0565b60d71960ff82160161164e5781516020830180515f92916116038261236d565b905281518110611615576116156123cb565b016020015160f81c90505f5b61162c826002612406565b8110156112005761163c84611113565b806116468161236d565b915050611621565b60d81960ff82160161170657815160208301515f919061166f9060016123df565b8151811061167f5761167f6123cb565b602001015160f81c60f81b60f81c60ff166008845f01518560200151815181106116ab576116ab6123cb565b602001015160f81c60f81b60f81c60ff16901b1790506002836020018181516116d491906123df565b9052505f5b6116e4826002612406565b811015611200576116f484611113565b806116fe8161236d565b9150506116d9565b60405162461bcd60e51b815260206004820152601060248201526f556e6b6e6f776e20747970652074616760801b6044820152606401610216565b5050565b60408051808201825260608082525f6020830152825161010081850181815261016083019095529293909283928301818036833750505081525f602090910152919050565b60408051808201909152606081525f60208201526117a9836003611c3b565b6117b38383611cff565b5090919050565b60408051808201909152606081525f60208201526117e583835160036117e091906123df565b611c3b565b6117b38383611e19565b60408051808201909152606081525f602082015261180e836021611c3b565b6117b38383611fe8565b60605f826020015167ffffffffffffffff811115611838576118386123f2565b6040519080825280601f01601f191660200182016040528015611862576020820181803683370190505b50905060208351016020820160208501515f5b8181101561188d578381015183820152602001611875565b509295945050505050565b5f815f0151518260200151106118d65760405162461bcd60e51b815260206004820152600360248201526222a7a360e91b6044820152606401610216565b5f825f01518360200151815181106118f0576118f06123cb565b016020015160f81c905060bf19810161190b57505f92915050565b60ff811660c31480611920575060ff811660c2145b1561192e5750600192915050565b607f60ff8216111580611944575060ff811660c4145b80611952575060ff811660c5145b80611960575060ff811660c6145b8061196e575060ff811660c7145b8061197c575060ff811660c8145b8061198a575060ff811660c9145b156119985750600292915050565b60e060ff82161015806119ae575060ff811660ca145b806119bc575060ff811660cb145b806119ca575060ff811660cc145b806119d8575060ff811660cd145b806119e6575060ff811660ce145b806119f4575060ff811660cf145b15611a025750600392915050565b60ff811660d01480611a17575060ff811660d1145b15611a255750600492915050565b60a060ff821610801590611a495750611a4060a06020612399565b60ff168160ff16105b80611a57575060ff811660d2145b80611a65575060ff811660d3145b15611a735750600592915050565b609060ff821610801590611a975750611a8e60906010612399565b60ff168160ff16105b80611aa5575060ff811660d6145b80611ab3575060ff811660d7145b15611ac15750600692915050565b608060ff821610801590611ae55750611adc60806010612399565b60ff168160ff16105b80611af3575060ff811660d8145b80611b01575060ff811660d9145b15611b0f5750600792915050565b60d31960ff821601611b245750600892915050565b60d41960ff8216016117065750600992915050565b60408051808201909152606081525f6020820152611b58836003611c3b565b6117b38383612230565b60408051808201909152606081525f6020820152611b81836001611c3b565b81611b8d5760c2611b90565b60c35b60f81b835f0151846020018051809190611ba99061236d565b905281518110611bbb57611bbb6123cb565b60200101906001600160f81b03191690815f1a9053509192915050565b5f815f015151826020015110611c165760405162461bcd60e51b815260206004820152600360248201526222a7a360e91b6044820152606401610216565b8151602083015181518110611c2d57611c2d6123cb565b016020015160f81c92915050565b5f818360200151611c4c91906123df565b8351519091508111611c5d57505050565b8251515f90611c6d906002612406565b905081811015611c8557611c828260406123df565b90505b5f8167ffffffffffffffff811115611c9f57611c9f6123f2565b6040519080825280601f01601f191660200182016040528015611cc9576020820181803683370190505b50905060208551016020820160208701515f5b81811015611cf4578381015183820152602001611cdc565b505050945250505050565b600f8111611d5757611d128160806123df565b60f81b825f0151836020018051809190611d2b9061236d565b905281518110611d3d57611d3d6123cb565b60200101906001600160f81b03191690815f1a9053505050565b60ff8111611db7578151602083018051601b60fb1b9291611d778261236d565b905281518110611d8957611d896123cb565b60200101906001600160f81b03191690815f1a905350815160208301805160f884901b9291611d2b8261236d565b815160208301805160d960f81b9291611dcf8261236d565b905281518110611de157611de16123cb565b60200101906001600160f81b03191690815f1a90535081516020830180516001600160f81b031960f085901b169291611d778261236d565b80518190601f8111611e7657611e308160a06123df565b60f81b845f0151856020018051809190611e499061236d565b905281518110611e5b57611e5b6123cb565b60200101906001600160f81b03191690815f1a905350611fa1565b60ff8111611ed6578351602085018051606960f91b9291611e968261236d565b905281518110611ea857611ea86123cb565b60200101906001600160f81b03191690815f1a905350835160208501805160f884901b9291611e498261236d565b835160208501805160d360f81b9291611eee8261236d565b905281518110611f0057611f006123cb565b60200101906001600160f81b03191690815f1a90535083516020850180516001600160f81b031960f085901b169291611f388261236d565b905281518110611f4a57611f4a6123cb565b60200101906001600160f81b03191690815f1a905350835160208501805160f884901b9291611f788261236d565b905281518110611f8a57611f8a6123cb565b60200101906001600160f81b03191690815f1a9053505b6020820160208501516020865101015f5b83811015611fca578281015182820152602001611fb2565b5050508084602001818151611fdf91906123df565b90525050505050565b607f811161200857815160208301805160f884901b9291611d2b8261236d565b60ff8111612028578151602083018051603160fa1b9291611d778261236d565b61ffff811161209c57815160208301805160c560f81b92916120498261236d565b90528151811061205b5761205b6123cb565b60200101906001600160f81b03191690815f1a90535060208201516020835101018160081c81538160018201535060028260200181815161119a91906123df565b63ffffffff8111612124578151602083018051606360f91b92916120bf8261236d565b9052815181106120d1576120d16123cb565b60200101906001600160f81b03191690815f1a90535060208201516020835101018160181c81538160101c60018201538160081c60028201538160038201535060048260200181815161119a91906123df565b67ffffffffffffffff81116121d457815160208301805160c760f81b929161214b8261236d565b90528151811061215d5761215d6123cb565b60200101906001600160f81b03191690815f1a90535060208201516020835101018160381c81538160301c60018201538160281c60028201538160201c60038201538160181c60048201538160101c60058201538160081c60068201538160078201535060088260200181815161119a91906123df565b815160208301805160c960f81b92916121ec8261236d565b9052815181106121fe576121fe6123cb565b60200101906001600160f81b03191690815f1a905350602082810180518451018201839052805161119a9083906123df565b600f811161224357611d128160906123df565b60ff8111612263578151602083018051606b60f91b9291611d778261236d565b815160208301805160d760f81b9291611dcf8261236d565b5f81518084525f5b8181101561229f57602081850181015186830182015201612283565b505f602082860101526020601f19601f83011685010191505092915050565b606081525f6122d0606083018661227b565b60208301949094525060400152919050565b602081525f6122f4602083018461227b565b9392505050565b838152826020820152606060408201525f612319606083018461227b565b95945050505050565b606081525f612334606083018661227b565b8281036020840152612346818661227b565b9150508215156040830152949350505050565b634e487b7160e01b5f52601160045260245ffd5b5f6001820161237e5761237e612359565b5060010190565b634e487b7160e01b5f52602160045260245ffd5b60ff8181168382160190811115610e5f57610e5f612359565b60ff8281168282160390811115610e5f57610e5f612359565b634e487b7160e01b5f52603260045260245ffd5b80820180821115610e5f57610e5f612359565b634e487b7160e01b5f52604160045260245ffd5b8082028115828204841417610e5f57610e5f61235956fea26469706673582212205bc185e80cb9977627cf44dcc8f3b3f1de014708d0d6ba38e16379a8eefa2a6d64736f6c63430008140033","opcodes":"PUSH1 0x80 PUSH1 0x40 MSTORE CALLVALUE DUP1 ISZERO PUSH2 0xF JUMPI PUSH0 DUP1 REVERT JUMPDEST POP PUSH2 0x2453 DUP1 PUSH2 0x1D PUSH0 CODECOPY PUSH0 RETURN INVALID PUSH1 0x80 PUSH1 0x40 MSTORE CALLVALUE DUP1 ISZERO PUSH2 0xF JUMPI PUSH0 DUP1 REVERT JUMPDEST POP PUSH1 0x4 CALLDATASIZE LT PUSH2 0x7A JUMPI PUSH0 CALLDATALOAD PUSH1 0xE0 SHR DUP1 PUSH4 0x4B5B7341 GT PUSH2 0x58 JUMPI DUP1 PUSH4 0x4B5B7341 EQ PUSH2 0xCA JUMPI DUP1 PUSH4 0x652AC576 EQ PUSH2 0xD2 JUMPI DUP1 PUSH4 0x74F57D40 EQ PUSH2 0xE9 JUMPI DUP1 PUSH4 0xC1B5EC00 EQ PUSH2 0x106 JUMPI PUSH0 DUP1 REVERT JUMPDEST DUP1 PUSH4 0x1ABB8E2C EQ PUSH2 0x7E JUMPI DUP1 PUSH4 0x4686A743 EQ PUSH2 0x9E JUMPI DUP1 PUSH4 0x4AE99EDC EQ PUSH2 0xB3 JUMPI JUMPDEST PUSH0 DUP1 REVERT JUMPDEST PUSH2 0x86 PUSH2 0x10E JUMP JUMPDEST PUSH1 0x40 MLOAD PUSH2 0x95 SWAP4 SWAP3 SWAP2 SWAP1 PUSH2 0x22BE JUMP JUMPDEST PUSH1 0x40 MLOAD DUP1 SWAP2 SUB SWAP1 RETURN JUMPDEST PUSH2 0xA6 PUSH2 0x286 JUMP JUMPDEST PUSH1 0x40 MLOAD PUSH2 0x95 SWAP2 SWAP1 PUSH2 0x22E2 JUMP JUMPDEST PUSH2 0xBB PUSH2 0x399 JUMP JUMPDEST PUSH1 0x40 MLOAD PUSH2 0x95 SWAP4 SWAP3 SWAP2 SWAP1 PUSH2 0x22FB JUMP JUMPDEST PUSH2 0xA6 PUSH2 0x60C JUMP JUMPDEST PUSH2 0xDA PUSH2 0x6CC JUMP JUMPDEST PUSH1 0x40 MLOAD PUSH2 0x95 SWAP4 SWAP3 SWAP2 SWAP1 PUSH2 0x2322 JUMP JUMPDEST PUSH2 0xF1 PUSH2 0x83E JUMP JUMPDEST PUSH1 0x40 DUP1 MLOAD SWAP3 DUP4 MSTORE PUSH1 0x20 DUP4 ADD SWAP2 SWAP1 SWAP2 MSTORE ADD PUSH2 0x95 JUMP JUMPDEST PUSH2 0xA6 PUSH2 0x934 JUMP JUMPDEST PUSH1 0x60 PUSH0 DUP1 PUSH0 PUSH2 0x11B PUSH2 0x60C JUMP JUMPDEST PUSH1 0x40 DUP1 MLOAD DUP1 DUP3 ADD DUP3 MSTORE PUSH1 0x60 DUP2 MSTORE PUSH0 PUSH1 0x20 SWAP2 DUP3 ADD DUP2 SWAP1 MSTORE DUP3 MLOAD DUP1 DUP5 ADD SWAP1 SWAP4 MSTORE DUP4 DUP4 MSTORE SWAP1 DUP3 ADD DUP2 SWAP1 MSTORE SWAP2 SWAP3 POP SWAP1 PUSH2 0x14F DUP3 PUSH2 0xA94 JUMP JUMPDEST SWAP1 POP PUSH0 JUMPDEST DUP2 DUP2 LT ISZERO PUSH2 0x27D JUMPI PUSH0 PUSH2 0x165 DUP5 PUSH2 0xBF3 JUMP JUMPDEST SWAP1 POP PUSH32 0x2361458367E696363FBCC70777D07EBBD2394E89FD0ADCAF147FACCD1D294D60 DUP2 DUP1 MLOAD SWAP1 PUSH1 0x20 ADD KECCAK256 SUB PUSH2 0x1A5 JUMPI PUSH2 0x19E DUP5 PUSH2 0xBF3 JUMP JUMPDEST SWAP8 POP PUSH2 0x26A JUMP JUMPDEST DUP1 MLOAD PUSH1 0x20 DUP3 ADD KECCAK256 PUSH32 0x3E2B5D90D4C60AE46E3FE89FCC828886238E60EAD515C8E9EEB0A6D797C7A18A ADD PUSH2 0x261 JUMPI PUSH2 0x1DD DUP5 PUSH1 0x6 PUSH2 0xE18 JUMP JUMPDEST PUSH2 0x21F JUMPI PUSH1 0x40 MLOAD PUSH3 0x461BCD PUSH1 0xE5 SHL DUP2 MSTORE PUSH1 0x20 PUSH1 0x4 DUP3 ADD MSTORE PUSH1 0xE PUSH1 0x24 DUP3 ADD MSTORE PUSH14 0x4578706563746564206172726179 PUSH1 0x90 SHL PUSH1 0x44 DUP3 ADD MSTORE PUSH1 0x64 ADD JUMPDEST PUSH1 0x40 MLOAD DUP1 SWAP2 SUB SWAP1 REVERT JUMPDEST PUSH2 0x228 DUP5 PUSH2 0xE65 JUMP JUMPDEST SWAP6 POP PUSH2 0x233 DUP5 PUSH2 0xF2C JUMP JUMPDEST SWAP7 POP PUSH1 0x1 JUMPDEST DUP7 DUP2 LT ISZERO PUSH2 0x25B JUMPI PUSH2 0x249 DUP6 PUSH2 0x1113 JUMP JUMPDEST DUP1 PUSH2 0x253 DUP2 PUSH2 0x236D JUMP JUMPDEST SWAP2 POP POP PUSH2 0x238 JUMP JUMPDEST POP PUSH2 0x26A JUMP JUMPDEST PUSH2 0x26A DUP5 PUSH2 0x1113 JUMP JUMPDEST POP DUP1 PUSH2 0x275 DUP2 PUSH2 0x236D JUMP JUMPDEST SWAP2 POP POP PUSH2 0x153 JUMP JUMPDEST POP POP POP POP SWAP1 SWAP2 SWAP3 JUMP JUMPDEST PUSH1 0x60 PUSH0 PUSH2 0x291 PUSH2 0x1745 JUMP JUMPDEST SWAP1 POP PUSH2 0x29E DUP2 PUSH1 0x2 PUSH2 0x178A JUMP JUMPDEST POP PUSH2 0x2C6 DUP2 PUSH1 0x40 MLOAD DUP1 PUSH1 0x40 ADD PUSH1 0x40 MSTORE DUP1 PUSH1 0x5 DUP2 MSTORE PUSH1 0x20 ADD PUSH5 0x37BABA32B9 PUSH1 0xD9 SHL DUP2 MSTORE POP PUSH2 0x17BA JUMP JUMPDEST POP PUSH2 0x2D2 DUP2 PUSH1 0x2A PUSH2 0x17EF JUMP JUMPDEST POP PUSH2 0x2FB DUP2 PUSH1 0x40 MLOAD DUP1 PUSH1 0x40 ADD PUSH1 0x40 MSTORE DUP1 PUSH1 0x6 DUP2 MSTORE PUSH1 0x20 ADD PUSH6 0x1B995CDD1959 PUSH1 0xD2 SHL DUP2 MSTORE POP PUSH2 0x17BA JUMP JUMPDEST POP PUSH2 0x307 DUP2 PUSH1 0x2 PUSH2 0x178A JUMP JUMPDEST POP PUSH2 0x32F DUP2 PUSH1 0x40 MLOAD DUP1 PUSH1 0x40 ADD PUSH1 0x40 MSTORE DUP1 PUSH1 0x5 DUP2 MSTORE PUSH1 0x20 ADD PUSH5 0x34B73732B9 PUSH1 0xD9 SHL DUP2 MSTORE POP PUSH2 0x17BA JUMP JUMPDEST POP PUSH2 0x33B DUP2 PUSH1 0x64 PUSH2 0x17EF JUMP JUMPDEST POP PUSH2 0x362 DUP2 PUSH1 0x40 MLOAD DUP1 PUSH1 0x40 ADD PUSH1 0x40 MSTORE DUP1 PUSH1 0x4 DUP2 MSTORE PUSH1 0x20 ADD PUSH4 0x6E616D65 PUSH1 0xE0 SHL DUP2 MSTORE POP PUSH2 0x17BA JUMP JUMPDEST POP PUSH2 0x389 DUP2 PUSH1 0x40 MLOAD DUP1 PUSH1 0x40 ADD PUSH1 0x40 MSTORE DUP1 PUSH1 0x4 DUP2 MSTORE PUSH1 0x20 ADD PUSH4 0x1D195CDD PUSH1 0xE2 SHL DUP2 MSTORE POP PUSH2 0x17BA JUMP JUMPDEST POP PUSH2 0x393 DUP2 PUSH2 0x1818 JUMP JUMPDEST SWAP2 POP POP SWAP1 JUMP JUMPDEST PUSH0 DUP1 PUSH1 0x60 PUSH0 PUSH2 0x3A6 PUSH2 0x286 JUMP JUMPDEST PUSH1 0x40 DUP1 MLOAD DUP1 DUP3 ADD DUP3 MSTORE PUSH1 0x60 DUP2 MSTORE PUSH0 PUSH1 0x20 SWAP2 DUP3 ADD DUP2 SWAP1 MSTORE DUP3 MLOAD DUP1 DUP5 ADD SWAP1 SWAP4 MSTORE DUP4 DUP4 MSTORE SWAP1 DUP3 ADD DUP2 SWAP1 MSTORE SWAP2 SWAP3 POP SWAP1 PUSH2 0x3DA DUP3 PUSH2 0xA94 JUMP JUMPDEST SWAP1 POP DUP1 PUSH1 0x2 EQ PUSH2 0x421 JUMPI PUSH1 0x40 MLOAD PUSH3 0x461BCD PUSH1 0xE5 SHL DUP2 MSTORE PUSH1 0x20 PUSH1 0x4 DUP3 ADD MSTORE PUSH1 0x12 PUSH1 0x24 DUP3 ADD MSTORE PUSH18 0x4578706563746564203220656E7472696573 PUSH1 0x70 SHL PUSH1 0x44 DUP3 ADD MSTORE PUSH1 0x64 ADD PUSH2 0x216 JUMP JUMPDEST PUSH0 PUSH2 0x42B DUP4 PUSH2 0xBF3 JUMP JUMPDEST SWAP1 POP PUSH32 0xBD499FC997E96D0B6F6290E7A2F0FDF5178D7D1EE10D32540D79BEC21CCFAA89 DUP2 DUP1 MLOAD SWAP1 PUSH1 0x20 ADD KECCAK256 EQ PUSH2 0x496 JUMPI PUSH1 0x40 MLOAD PUSH3 0x461BCD PUSH1 0xE5 SHL DUP2 MSTORE PUSH1 0x20 PUSH1 0x4 DUP3 ADD MSTORE PUSH1 0x10 PUSH1 0x24 DUP3 ADD MSTORE PUSH16 0x457870656374656420276F7574657227 PUSH1 0x80 SHL PUSH1 0x44 DUP3 ADD MSTORE PUSH1 0x64 ADD PUSH2 0x216 JUMP JUMPDEST PUSH2 0x49F DUP4 PUSH2 0xF2C JUMP JUMPDEST SWAP7 POP PUSH0 PUSH2 0x4AB DUP5 PUSH2 0xBF3 JUMP JUMPDEST SWAP1 POP PUSH32 0x4D5B14044D78FBF0C9DD8B9C49E35F09EE5A6F5B1B3B8117B5D0E15C8DD2CB09 DUP2 DUP1 MLOAD SWAP1 PUSH1 0x20 ADD KECCAK256 EQ PUSH2 0x517 JUMPI PUSH1 0x40 MLOAD PUSH3 0x461BCD PUSH1 0xE5 SHL DUP2 MSTORE PUSH1 0x20 PUSH1 0x4 DUP3 ADD MSTORE PUSH1 0x11 PUSH1 0x24 DUP3 ADD MSTORE PUSH17 0x457870656374656420276E657374656427 PUSH1 0x78 SHL PUSH1 0x44 DUP3 ADD MSTORE PUSH1 0x64 ADD PUSH2 0x216 JUMP JUMPDEST PUSH0 PUSH2 0x521 DUP6 PUSH2 0x1898 JUMP JUMPDEST SWAP1 POP PUSH1 0x7 DUP2 PUSH1 0x9 DUP2 GT ISZERO PUSH2 0x537 JUMPI PUSH2 0x537 PUSH2 0x2385 JUMP JUMPDEST EQ PUSH2 0x57A JUMPI PUSH1 0x40 MLOAD PUSH3 0x461BCD PUSH1 0xE5 SHL DUP2 MSTORE PUSH1 0x20 PUSH1 0x4 DUP3 ADD MSTORE PUSH1 0x13 PUSH1 0x24 DUP3 ADD MSTORE PUSH19 0x4578706563746564206E6573746564206D617 PUSH1 0x6C SHL PUSH1 0x44 DUP3 ADD MSTORE PUSH1 0x64 ADD PUSH2 0x216 JUMP JUMPDEST PUSH0 PUSH2 0x584 DUP7 PUSH2 0xA94 JUMP JUMPDEST SWAP1 POP DUP1 PUSH1 0x2 EQ PUSH2 0x5D6 JUMPI PUSH1 0x40 MLOAD PUSH3 0x461BCD PUSH1 0xE5 SHL DUP2 MSTORE PUSH1 0x20 PUSH1 0x4 DUP3 ADD MSTORE PUSH1 0x19 PUSH1 0x24 DUP3 ADD MSTORE PUSH32 0x45787065637465642032206E657374656420656E747269657300000000000000 PUSH1 0x44 DUP3 ADD MSTORE PUSH1 0x64 ADD PUSH2 0x216 JUMP JUMPDEST PUSH2 0x5DF DUP7 PUSH2 0xBF3 JUMP JUMPDEST POP PUSH2 0x5E9 DUP7 PUSH2 0xF2C JUMP JUMPDEST SWAP9 POP PUSH2 0x5F4 DUP7 PUSH2 0xBF3 JUMP JUMPDEST POP PUSH2 0x5FE DUP7 PUSH2 0xBF3 JUMP JUMPDEST SWAP8 POP POP POP POP POP POP POP POP SWAP1 SWAP2 SWAP3 JUMP JUMPDEST PUSH1 0x60 PUSH0 PUSH2 0x617 PUSH2 0x1745 JUMP JUMPDEST SWAP1 POP PUSH2 0x624 DUP2 PUSH1 0x2 PUSH2 0x178A JUMP JUMPDEST POP PUSH2 0x64B DUP2 PUSH1 0x40 MLOAD DUP1 PUSH1 0x40 ADD PUSH1 0x40 MSTORE DUP1 PUSH1 0x4 DUP2 MSTORE PUSH1 0x20 ADD PUSH4 0x6E616D65 PUSH1 0xE0 SHL DUP2 MSTORE POP PUSH2 0x17BA JUMP JUMPDEST POP PUSH2 0x673 DUP2 PUSH1 0x40 MLOAD DUP1 PUSH1 0x40 ADD PUSH1 0x40 MSTORE DUP1 PUSH1 0x5 DUP2 MSTORE PUSH1 0x20 ADD PUSH5 0x416C696365 PUSH1 0xD8 SHL DUP2 MSTORE POP PUSH2 0x17BA JUMP JUMPDEST POP PUSH2 0x69C DUP2 PUSH1 0x40 MLOAD DUP1 PUSH1 0x40 ADD PUSH1 0x40 MSTORE DUP1 PUSH1 0x6 DUP2 MSTORE PUSH1 0x20 ADD PUSH6 0x73636F726573 PUSH1 0xD0 SHL DUP2 MSTORE POP PUSH2 0x17BA JUMP JUMPDEST POP PUSH2 0x6A8 DUP2 PUSH1 0x3 PUSH2 0x1B39 JUMP JUMPDEST POP PUSH2 0x6B4 DUP2 PUSH1 0xA PUSH2 0x17EF JUMP JUMPDEST POP PUSH2 0x6C0 DUP2 PUSH1 0x14 PUSH2 0x17EF JUMP JUMPDEST POP PUSH2 0x389 DUP2 PUSH1 0x1E PUSH2 0x17EF JUMP JUMPDEST PUSH1 0x60 DUP1 PUSH0 DUP1 PUSH2 0x6D9 PUSH2 0x934 JUMP JUMPDEST PUSH1 0x40 DUP1 MLOAD DUP1 DUP3 ADD DUP3 MSTORE PUSH1 0x60 DUP2 MSTORE PUSH0 PUSH1 0x20 SWAP2 DUP3 ADD DUP2 SWAP1 MSTORE DUP3 MLOAD DUP1 DUP5 ADD SWAP1 SWAP4 MSTORE DUP4 DUP4 MSTORE SWAP1 DUP3 ADD DUP2 SWAP1 MSTORE SWAP2 SWAP3 POP SWAP1 PUSH2 0x70D DUP3 PUSH2 0xA94 JUMP JUMPDEST SWAP1 POP PUSH0 JUMPDEST DUP2 DUP2 LT ISZERO PUSH2 0x27D JUMPI PUSH0 PUSH2 0x723 DUP5 PUSH2 0xBF3 JUMP JUMPDEST SWAP1 POP PUSH32 0x8F54F1C2D0EB5771CD5BF67A6689FCD6EED9444D91A39E5EF32A9B4AE5CA14FF DUP2 DUP1 MLOAD SWAP1 PUSH1 0x20 ADD KECCAK256 SUB PUSH2 0x822 JUMPI PUSH0 PUSH2 0x75D DUP6 PUSH2 0xA94 JUMP JUMPDEST SWAP1 POP PUSH0 JUMPDEST DUP2 DUP2 LT ISZERO PUSH2 0x81B JUMPI PUSH0 PUSH2 0x773 DUP8 PUSH2 0xBF3 JUMP JUMPDEST SWAP1 POP PUSH32 0x13F2570A4F3752E83E37FF7E082B475A97035FF53694EE2548F36573F6A5D8BC DUP2 DUP1 MLOAD SWAP1 PUSH1 0x20 ADD KECCAK256 SUB PUSH2 0x7FF JUMPI PUSH0 PUSH2 0x7AD DUP9 PUSH2 0xE65 JUMP JUMPDEST SWAP1 POP PUSH1 0x2 DUP2 LT PUSH2 0x7F9 JUMPI PUSH2 0x7C0 DUP9 PUSH2 0xBF3 JUMP JUMPDEST SWAP12 POP PUSH2 0x7CB DUP9 PUSH2 0xBF3 JUMP JUMPDEST SWAP11 POP PUSH1 0x1 SWAP10 POP PUSH1 0x2 JUMPDEST DUP2 DUP2 LT ISZERO PUSH2 0x7F7 JUMPI PUSH2 0x7E5 DUP10 PUSH2 0x1113 JUMP JUMPDEST DUP1 PUSH2 0x7EF DUP2 PUSH2 0x236D JUMP JUMPDEST SWAP2 POP POP PUSH2 0x7D4 JUMP JUMPDEST POP JUMPDEST POP PUSH2 0x808 JUMP JUMPDEST PUSH2 0x808 DUP8 PUSH2 0x1113 JUMP JUMPDEST POP DUP1 PUSH2 0x813 DUP2 PUSH2 0x236D JUMP JUMPDEST SWAP2 POP POP PUSH2 0x761 JUMP JUMPDEST POP POP PUSH2 0x82B JUMP JUMPDEST PUSH2 0x82B DUP5 PUSH2 0x1113 JUMP JUMPDEST POP DUP1 PUSH2 0x836 DUP2 PUSH2 0x236D JUMP JUMPDEST SWAP2 POP POP PUSH2 0x711 JUMP JUMPDEST PUSH0 DUP1 PUSH0 PUSH2 0x849 PUSH2 0x934 JUMP JUMPDEST PUSH1 0x40 DUP1 MLOAD DUP1 DUP3 ADD DUP3 MSTORE PUSH1 0x60 DUP2 MSTORE PUSH0 PUSH1 0x20 SWAP2 DUP3 ADD DUP2 SWAP1 MSTORE DUP3 MLOAD DUP1 DUP5 ADD SWAP1 SWAP4 MSTORE DUP4 DUP4 MSTORE SWAP1 DUP3 ADD DUP2 SWAP1 MSTORE SWAP2 SWAP3 POP SWAP1 PUSH2 0x87D DUP3 PUSH2 0xA94 JUMP JUMPDEST SWAP1 POP PUSH0 JUMPDEST DUP2 DUP2 LT ISZERO PUSH2 0x92C JUMPI PUSH0 PUSH2 0x893 DUP5 PUSH2 0xBF3 JUMP JUMPDEST SWAP1 POP PUSH32 0xA709FD3AA96D9FAF770E44A5AEF2F4808A6FE3A5DDF546568F36AD3A3873F31D DUP2 DUP1 MLOAD SWAP1 PUSH1 0x20 ADD KECCAK256 SUB PUSH2 0x8D3 JUMPI PUSH2 0x8CC DUP5 PUSH2 0xF2C JUMP JUMPDEST SWAP7 POP PUSH2 0x919 JUMP JUMPDEST DUP1 MLOAD PUSH1 0x20 DUP3 ADD KECCAK256 PUSH32 0x37DCF94954E4B398BD6BBD014E192DC7ECA5930355B8E5FE4F1CC90FE4FB71C8 ADD PUSH2 0x910 JUMPI PUSH2 0x909 DUP5 PUSH2 0xF2C JUMP JUMPDEST SWAP6 POP PUSH2 0x919 JUMP JUMPDEST PUSH2 0x919 DUP5 PUSH2 0x1113 JUMP JUMPDEST POP DUP1 PUSH2 0x924 DUP2 PUSH2 0x236D JUMP JUMPDEST SWAP2 POP POP PUSH2 0x881 JUMP JUMPDEST POP POP POP POP SWAP1 SWAP2 JUMP JUMPDEST PUSH1 0x60 PUSH0 PUSH2 0x93F PUSH2 0x1745 JUMP JUMPDEST SWAP1 POP PUSH2 0x94C DUP2 PUSH1 0x3 PUSH2 0x178A JUMP JUMPDEST POP PUSH2 0x971 DUP2 PUSH1 0x40 MLOAD DUP1 PUSH1 0x40 ADD PUSH1 0x40 MSTORE DUP1 PUSH1 0x2 DUP2 MSTORE PUSH1 0x20 ADD PUSH2 0x1A59 PUSH1 0xF2 SHL DUP2 MSTORE POP PUSH2 0x17BA JUMP JUMPDEST POP PUSH2 0x97D DUP2 PUSH1 0x1 PUSH2 0x17EF JUMP JUMPDEST POP PUSH2 0x9A4 DUP2 PUSH1 0x40 MLOAD DUP1 PUSH1 0x40 ADD PUSH1 0x40 MSTORE DUP1 PUSH1 0x4 DUP2 MSTORE PUSH1 0x20 ADD PUSH4 0x64617461 PUSH1 0xE0 SHL DUP2 MSTORE POP PUSH2 0x17BA JUMP JUMPDEST POP PUSH2 0x9B0 DUP2 PUSH1 0x2 PUSH2 0x178A JUMP JUMPDEST POP PUSH2 0x9D7 DUP2 PUSH1 0x40 MLOAD DUP1 PUSH1 0x40 ADD PUSH1 0x40 MSTORE DUP1 PUSH1 0x4 DUP2 MSTORE PUSH1 0x20 ADD PUSH4 0x74616773 PUSH1 0xE0 SHL DUP2 MSTORE POP PUSH2 0x17BA JUMP JUMPDEST POP PUSH2 0x9E3 DUP2 PUSH1 0x2 PUSH2 0x1B39 JUMP JUMPDEST POP PUSH2 0xA07 DUP2 PUSH1 0x40 MLOAD DUP1 PUSH1 0x40 ADD PUSH1 0x40 MSTORE DUP1 PUSH1 0x1 DUP2 MSTORE PUSH1 0x20 ADD PUSH1 0x61 PUSH1 0xF8 SHL DUP2 MSTORE POP PUSH2 0x17BA JUMP JUMPDEST POP PUSH2 0xA2B DUP2 PUSH1 0x40 MLOAD DUP1 PUSH1 0x40 ADD PUSH1 0x40 MSTORE DUP1 PUSH1 0x1 DUP2 MSTORE PUSH1 0x20 ADD PUSH1 0x31 PUSH1 0xF9 SHL DUP2 MSTORE POP PUSH2 0x17BA JUMP JUMPDEST POP PUSH2 0xA54 DUP2 PUSH1 0x40 MLOAD DUP1 PUSH1 0x40 ADD PUSH1 0x40 MSTORE DUP1 PUSH1 0x6 DUP2 MSTORE PUSH1 0x20 ADD PUSH6 0x616374697665 PUSH1 0xD0 SHL DUP2 MSTORE POP PUSH2 0x17BA JUMP JUMPDEST POP PUSH2 0xA60 DUP2 PUSH1 0x1 PUSH2 0x1B62 JUMP JUMPDEST POP PUSH2 0xA88 DUP2 PUSH1 0x40 MLOAD DUP1 PUSH1 0x40 ADD PUSH1 0x40 MSTORE DUP1 PUSH1 0x5 DUP2 MSTORE PUSH1 0x20 ADD PUSH5 0x18DBDD5B9D PUSH1 0xDA SHL DUP2 MSTORE POP PUSH2 0x17BA JUMP JUMPDEST POP PUSH2 0x389 DUP2 PUSH1 0x5 PUSH2 0x17EF JUMP JUMPDEST PUSH0 DUP1 PUSH2 0xA9F DUP4 PUSH2 0x1BD8 JUMP JUMPDEST PUSH1 0x20 DUP5 ADD DUP1 MLOAD SWAP2 SWAP3 POP PUSH2 0xAB1 DUP3 PUSH2 0x236D JUMP JUMPDEST SWAP1 MSTORE POP PUSH1 0x80 PUSH1 0xFF DUP3 AND LT DUP1 ISZERO SWAP1 PUSH2 0xAD8 JUMPI POP PUSH2 0xACF PUSH1 0x80 PUSH1 0x10 PUSH2 0x2399 JUMP JUMPDEST PUSH1 0xFF AND DUP2 PUSH1 0xFF AND LT JUMPDEST ISZERO PUSH2 0xAF2 JUMPI PUSH2 0xAE8 PUSH1 0x80 DUP3 PUSH2 0x23B2 JUMP JUMPDEST PUSH1 0xFF AND SWAP4 SWAP3 POP POP POP JUMP JUMPDEST PUSH1 0xD7 NOT PUSH1 0xFF DUP3 AND ADD PUSH2 0xB31 JUMPI DUP3 MLOAD PUSH1 0x20 DUP5 ADD DUP1 MLOAD SWAP1 PUSH2 0xB10 DUP3 PUSH2 0x236D JUMP JUMPDEST SWAP1 MSTORE DUP2 MLOAD DUP2 LT PUSH2 0xB22 JUMPI PUSH2 0xB22 PUSH2 0x23CB JUMP JUMPDEST ADD PUSH1 0x20 ADD MLOAD PUSH1 0xF8 SHR SWAP4 SWAP3 POP POP POP JUMP JUMPDEST PUSH1 0xD8 NOT PUSH1 0xFF DUP3 AND ADD PUSH2 0xBC1 JUMPI DUP3 MLOAD PUSH1 0x20 DUP5 ADD MLOAD PUSH0 SWAP2 SWAP1 PUSH2 0xB52 SWAP1 PUSH1 0x1 PUSH2 0x23DF JUMP JUMPDEST DUP2 MLOAD DUP2 LT PUSH2 0xB62 JUMPI PUSH2 0xB62 PUSH2 0x23CB JUMP JUMPDEST PUSH1 0x20 ADD ADD MLOAD PUSH1 0xF8 SHR PUSH1 0xF8 SHL PUSH1 0xF8 SHR PUSH1 0xFF AND PUSH1 0x8 DUP6 PUSH0 ADD MLOAD DUP7 PUSH1 0x20 ADD MLOAD DUP2 MLOAD DUP2 LT PUSH2 0xB8E JUMPI PUSH2 0xB8E PUSH2 0x23CB JUMP JUMPDEST PUSH1 0x20 ADD ADD MLOAD PUSH1 0xF8 SHR PUSH1 0xF8 SHL PUSH1 0xF8 SHR PUSH1 0xFF AND SWAP1 SHL OR SWAP1 POP PUSH1 0x2 DUP5 PUSH1 0x20 ADD DUP2 DUP2 MLOAD PUSH2 0xBB7 SWAP2 SWAP1 PUSH2 0x23DF JUMP JUMPDEST SWAP1 MSTORE POP SWAP4 SWAP3 POP POP POP JUMP JUMPDEST PUSH1 0x40 MLOAD PUSH3 0x461BCD PUSH1 0xE5 SHL DUP2 MSTORE PUSH1 0x20 PUSH1 0x4 DUP3 ADD MSTORE PUSH1 0x7 PUSH1 0x24 DUP3 ADD MSTORE PUSH7 0x4E6F74206D617 PUSH1 0xCC SHL PUSH1 0x44 DUP3 ADD MSTORE PUSH1 0x64 ADD PUSH2 0x216 JUMP JUMPDEST PUSH1 0x60 PUSH0 PUSH2 0xBFF DUP4 PUSH2 0x1BD8 JUMP JUMPDEST PUSH1 0x20 DUP5 ADD DUP1 MLOAD SWAP2 SWAP3 POP PUSH2 0xC11 DUP3 PUSH2 0x236D JUMP JUMPDEST SWAP1 MSTORE POP PUSH0 PUSH1 0xA0 PUSH1 0xFF DUP4 AND LT DUP1 ISZERO SWAP1 PUSH2 0xC39 JUMPI POP PUSH2 0xC30 PUSH1 0xA0 PUSH1 0x20 PUSH2 0x2399 JUMP JUMPDEST PUSH1 0xFF AND DUP3 PUSH1 0xFF AND LT JUMPDEST ISZERO PUSH2 0xC53 JUMPI PUSH2 0xC49 PUSH1 0xA0 DUP4 PUSH2 0x23B2 JUMP JUMPDEST PUSH1 0xFF AND SWAP1 POP PUSH2 0xD52 JUMP JUMPDEST PUSH1 0xD1 NOT PUSH1 0xFF DUP4 AND ADD PUSH2 0xC92 JUMPI DUP4 MLOAD PUSH1 0x20 DUP6 ADD DUP1 MLOAD SWAP1 PUSH2 0xC71 DUP3 PUSH2 0x236D JUMP JUMPDEST SWAP1 MSTORE DUP2 MLOAD DUP2 LT PUSH2 0xC83 JUMPI PUSH2 0xC83 PUSH2 0x23CB JUMP JUMPDEST ADD PUSH1 0x20 ADD MLOAD PUSH1 0xF8 SHR SWAP1 POP PUSH2 0xD52 JUMP JUMPDEST PUSH1 0xD2 NOT PUSH1 0xFF DUP4 AND ADD PUSH2 0xD1D JUMPI DUP4 MLOAD PUSH1 0x20 DUP6 ADD MLOAD PUSH2 0xCB0 SWAP1 PUSH1 0x1 PUSH2 0x23DF JUMP JUMPDEST DUP2 MLOAD DUP2 LT PUSH2 0xCC0 JUMPI PUSH2 0xCC0 PUSH2 0x23CB JUMP JUMPDEST PUSH1 0x20 ADD ADD MLOAD PUSH1 0xF8 SHR PUSH1 0xF8 SHL PUSH1 0xF8 SHR PUSH1 0xFF AND PUSH1 0x8 DUP6 PUSH0 ADD MLOAD DUP7 PUSH1 0x20 ADD MLOAD DUP2 MLOAD DUP2 LT PUSH2 0xCEC JUMPI PUSH2 0xCEC PUSH2 0x23CB JUMP JUMPDEST PUSH1 0x20 ADD ADD MLOAD PUSH1 0xF8 SHR PUSH1 0xF8 SHL PUSH1 0xF8 SHR PUSH1 0xFF AND SWAP1 SHL OR SWAP1 POP PUSH1 0x2 DUP5 PUSH1 0x20 ADD DUP2 DUP2 MLOAD PUSH2 0xD15 SWAP2 SWAP1 PUSH2 0x23DF JUMP JUMPDEST SWAP1 MSTORE POP PUSH2 0xD52 JUMP JUMPDEST PUSH1 0x40 MLOAD PUSH3 0x461BCD PUSH1 0xE5 SHL DUP2 MSTORE PUSH1 0x20 PUSH1 0x4 DUP3 ADD MSTORE PUSH1 0xA PUSH1 0x24 DUP3 ADD MSTORE PUSH10 0x4E6F7420737472696E67 PUSH1 0xB0 SHL PUSH1 0x44 DUP3 ADD MSTORE PUSH1 0x64 ADD PUSH2 0x216 JUMP JUMPDEST PUSH0 DUP2 PUSH8 0xFFFFFFFFFFFFFFFF DUP2 GT ISZERO PUSH2 0xD6C JUMPI PUSH2 0xD6C PUSH2 0x23F2 JUMP JUMPDEST PUSH1 0x40 MLOAD SWAP1 DUP1 DUP3 MSTORE DUP1 PUSH1 0x1F ADD PUSH1 0x1F NOT AND PUSH1 0x20 ADD DUP3 ADD PUSH1 0x40 MSTORE DUP1 ISZERO PUSH2 0xD96 JUMPI PUSH1 0x20 DUP3 ADD DUP2 DUP1 CALLDATASIZE DUP4 CALLDATACOPY ADD SWAP1 POP JUMPDEST POP SWAP1 POP PUSH1 0x20 DUP6 ADD MLOAD PUSH1 0x20 DUP7 MLOAD ADD ADD PUSH1 0x20 DUP3 ADD PUSH1 0x20 DUP5 DIV PUSH0 JUMPDEST DUP2 DUP2 LT ISZERO PUSH2 0xDCA JUMPI PUSH1 0x20 DUP2 MUL DUP5 DUP2 ADD MLOAD SWAP1 DUP5 ADD MSTORE PUSH1 0x1 ADD PUSH2 0xDAE JUMP JUMPDEST POP PUSH1 0x1F DUP6 AND DUP1 ISZERO PUSH2 0xDF7 JUMPI PUSH1 0x20 DUP3 MUL DUP5 DUP2 ADD MLOAD PUSH1 0x1 PUSH1 0x8 DUP5 MUL SWAP1 DUP2 SHL PUSH0 NOT ADD PUSH2 0x100 SWAP2 SWAP1 SWAP2 SUB SHL AND SWAP1 DUP5 ADD MSTORE JUMPDEST POP POP POP POP DUP2 DUP6 PUSH1 0x20 ADD DUP2 DUP2 MLOAD PUSH2 0xE0D SWAP2 SWAP1 PUSH2 0x23DF JUMP JUMPDEST SWAP1 MSTORE POP SWAP5 SWAP4 POP POP POP POP JUMP JUMPDEST PUSH0 DUP3 PUSH0 ADD MLOAD MLOAD DUP4 PUSH1 0x20 ADD MLOAD LT PUSH2 0xE2F JUMPI POP PUSH0 PUSH2 0xE5F JUMP JUMPDEST DUP2 PUSH1 0x9 DUP2 GT ISZERO PUSH2 0xE41 JUMPI PUSH2 0xE41 PUSH2 0x2385 JUMP JUMPDEST PUSH2 0xE4A DUP5 PUSH2 0x1898 JUMP JUMPDEST PUSH1 0x9 DUP2 GT ISZERO PUSH2 0xE5B JUMPI PUSH2 0xE5B PUSH2 0x2385 JUMP JUMPDEST EQ SWAP1 POP JUMPDEST SWAP3 SWAP2 POP POP JUMP JUMPDEST PUSH0 DUP1 PUSH2 0xE70 DUP4 PUSH2 0x1BD8 JUMP JUMPDEST PUSH1 0x20 DUP5 ADD DUP1 MLOAD SWAP2 SWAP3 POP PUSH2 0xE82 DUP3 PUSH2 0x236D JUMP JUMPDEST SWAP1 MSTORE POP PUSH1 0x90 PUSH1 0xFF DUP3 AND LT DUP1 ISZERO SWAP1 PUSH2 0xEA9 JUMPI POP PUSH2 0xEA0 PUSH1 0x90 PUSH1 0x10 PUSH2 0x2399 JUMP JUMPDEST PUSH1 0xFF AND DUP2 PUSH1 0xFF AND LT JUMPDEST ISZERO PUSH2 0xEB9 JUMPI PUSH2 0xAE8 PUSH1 0x90 DUP3 PUSH2 0x23B2 JUMP JUMPDEST PUSH1 0xD5 NOT PUSH1 0xFF DUP3 AND ADD PUSH2 0xED7 JUMPI DUP3 MLOAD PUSH1 0x20 DUP5 ADD DUP1 MLOAD SWAP1 PUSH2 0xB10 DUP3 PUSH2 0x236D JUMP JUMPDEST PUSH1 0xD6 NOT PUSH1 0xFF DUP3 AND ADD PUSH2 0xEF8 JUMPI DUP3 MLOAD PUSH1 0x20 DUP5 ADD MLOAD PUSH0 SWAP2 SWAP1 PUSH2 0xB52 SWAP1 PUSH1 0x1 PUSH2 0x23DF JUMP JUMPDEST PUSH1 0x40 MLOAD PUSH3 0x461BCD PUSH1 0xE5 SHL DUP2 MSTORE PUSH1 0x20 PUSH1 0x4 DUP3 ADD MSTORE PUSH1 0x9 PUSH1 0x24 DUP3 ADD MSTORE PUSH9 0x4E6F74206172726179 PUSH1 0xB8 SHL PUSH1 0x44 DUP3 ADD MSTORE PUSH1 0x64 ADD PUSH2 0x216 JUMP JUMPDEST PUSH0 DUP1 PUSH2 0xF37 DUP4 PUSH2 0x1BD8 JUMP JUMPDEST PUSH1 0x20 DUP5 ADD DUP1 MLOAD SWAP2 SWAP3 POP PUSH2 0xF49 DUP3 PUSH2 0x236D JUMP JUMPDEST SWAP1 MSTORE POP PUSH1 0x7F PUSH1 0xFF DUP3 AND GT PUSH2 0xF60 JUMPI PUSH1 0xFF AND SWAP3 SWAP2 POP POP JUMP JUMPDEST PUSH1 0xC3 NOT PUSH1 0xFF DUP3 AND ADD PUSH2 0xF7E JUMPI DUP3 MLOAD PUSH1 0x20 DUP5 ADD DUP1 MLOAD SWAP1 PUSH2 0xB10 DUP3 PUSH2 0x236D JUMP JUMPDEST PUSH1 0xC4 NOT PUSH1 0xFF DUP3 AND ADD PUSH2 0xFBB JUMPI PUSH0 PUSH1 0x20 DUP5 ADD MLOAD PUSH1 0x20 DUP6 MLOAD ADD ADD PUSH1 0x1 DUP2 ADD MLOAD PUSH0 BYTE DUP2 MLOAD PUSH0 BYTE PUSH1 0x8 SHL OR SWAP2 POP POP PUSH1 0x2 DUP5 PUSH1 0x20 ADD DUP2 DUP2 MLOAD PUSH2 0xBB7 SWAP2 SWAP1 PUSH2 0x23DF JUMP JUMPDEST PUSH1 0xC5 NOT PUSH1 0xFF DUP3 AND ADD PUSH2 0x100E JUMPI PUSH0 PUSH1 0x20 DUP5 ADD MLOAD PUSH1 0x20 DUP6 MLOAD ADD ADD PUSH1 0x3 DUP2 ADD MLOAD PUSH0 BYTE PUSH1 0x2 DUP3 ADD MLOAD PUSH0 BYTE PUSH1 0x8 SHL PUSH1 0x1 DUP4 ADD MLOAD PUSH0 BYTE PUSH1 0x10 SHL DUP4 MLOAD PUSH0 BYTE PUSH1 0x18 SHL OR OR OR SWAP2 POP POP PUSH1 0x4 DUP5 PUSH1 0x20 ADD DUP2 DUP2 MLOAD PUSH2 0xBB7 SWAP2 SWAP1 PUSH2 0x23DF JUMP JUMPDEST PUSH1 0xC6 NOT PUSH1 0xFF DUP3 AND ADD PUSH2 0x105F JUMPI PUSH1 0x20 DUP4 DUP2 ADD MLOAD DUP5 MLOAD PUSH0 SWAP3 SWAP2 ADD ADD DUP2 JUMPDEST PUSH1 0x8 DUP2 LT ISZERO PUSH2 0x104A JUMPI DUP1 DUP3 ADD MLOAD PUSH0 BYTE DUP4 PUSH1 0x8 SHL OR SWAP3 POP PUSH1 0x1 DUP2 ADD SWAP1 POP PUSH2 0x1029 JUMP JUMPDEST POP POP PUSH1 0x8 DUP5 PUSH1 0x20 ADD DUP2 DUP2 MLOAD PUSH2 0xBB7 SWAP2 SWAP1 PUSH2 0x23DF JUMP JUMPDEST PUSH1 0xC7 NOT PUSH1 0xFF DUP3 AND ADD PUSH2 0x10B0 JUMPI PUSH1 0x20 DUP4 DUP2 ADD MLOAD DUP5 MLOAD PUSH0 SWAP3 SWAP2 ADD ADD DUP2 JUMPDEST PUSH1 0x10 DUP2 LT ISZERO PUSH2 0x109B JUMPI DUP1 DUP3 ADD MLOAD PUSH0 BYTE DUP4 PUSH1 0x8 SHL OR SWAP3 POP PUSH1 0x1 DUP2 ADD SWAP1 POP PUSH2 0x107A JUMP JUMPDEST POP POP PUSH1 0x10 DUP5 PUSH1 0x20 ADD DUP2 DUP2 MLOAD PUSH2 0xBB7 SWAP2 SWAP1 PUSH2 0x23DF JUMP JUMPDEST PUSH1 0xC8 NOT PUSH1 0xFF DUP3 AND ADD PUSH2 0x10D8 JUMPI PUSH1 0x20 DUP4 DUP2 ADD DUP1 MLOAD DUP6 MLOAD DUP2 ADD DUP4 ADD MLOAD SWAP3 SWAP2 SWAP1 PUSH2 0xBB7 SWAP1 DUP4 SWAP1 PUSH2 0x23DF JUMP JUMPDEST PUSH1 0x40 MLOAD PUSH3 0x461BCD PUSH1 0xE5 SHL DUP2 MSTORE PUSH1 0x20 PUSH1 0x4 DUP3 ADD MSTORE PUSH1 0x10 PUSH1 0x24 DUP3 ADD MSTORE PUSH16 0x496E76616C69642075696E7420746167 PUSH1 0x80 SHL PUSH1 0x44 DUP3 ADD MSTORE PUSH1 0x64 ADD PUSH2 0x216 JUMP JUMPDEST PUSH0 PUSH2 0x111D DUP3 PUSH2 0x1BD8 JUMP JUMPDEST PUSH1 0x20 DUP4 ADD DUP1 MLOAD SWAP2 SWAP3 POP PUSH2 0x112F DUP3 PUSH2 0x236D JUMP JUMPDEST SWAP1 MSTORE POP PUSH1 0x7F PUSH1 0xFF DUP3 AND GT ISZERO DUP1 PUSH2 0x1149 JUMPI POP PUSH1 0xE0 PUSH1 0xFF DUP3 AND LT ISZERO JUMPDEST ISZERO PUSH2 0x1152 JUMPI POP POP JUMP JUMPDEST PUSH1 0xA0 PUSH1 0xFF DUP3 AND LT DUP1 ISZERO SWAP1 PUSH2 0x1176 JUMPI POP PUSH2 0x116D PUSH1 0xA0 PUSH1 0x20 PUSH2 0x2399 JUMP JUMPDEST PUSH1 0xFF AND DUP2 PUSH1 0xFF AND LT JUMPDEST ISZERO PUSH2 0x11A1 JUMPI PUSH2 0x1186 PUSH1 0xA0 DUP3 PUSH2 0x23B2 JUMP JUMPDEST PUSH1 0xFF AND DUP3 PUSH1 0x20 ADD DUP2 DUP2 MLOAD PUSH2 0x119A SWAP2 SWAP1 PUSH2 0x23DF JUMP JUMPDEST SWAP1 MSTORE POP POP POP JUMP JUMPDEST PUSH1 0x90 PUSH1 0xFF DUP3 AND LT DUP1 ISZERO SWAP1 PUSH2 0x11C5 JUMPI POP PUSH2 0x11BC PUSH1 0x90 PUSH1 0x10 PUSH2 0x2399 JUMP JUMPDEST PUSH1 0xFF AND DUP2 PUSH1 0xFF AND LT JUMPDEST ISZERO PUSH2 0x1206 JUMPI PUSH0 PUSH2 0x11D6 PUSH1 0x90 DUP4 PUSH2 0x23B2 JUMP JUMPDEST PUSH1 0xFF AND SWAP1 POP PUSH0 JUMPDEST DUP2 DUP2 LT ISZERO PUSH2 0x1200 JUMPI PUSH2 0x11EE DUP5 PUSH2 0x1113 JUMP JUMPDEST DUP1 PUSH2 0x11F8 DUP2 PUSH2 0x236D JUMP JUMPDEST SWAP2 POP POP PUSH2 0x11DD JUMP JUMPDEST POP POP POP POP JUMP JUMPDEST PUSH1 0x80 PUSH1 0xFF DUP3 AND LT DUP1 ISZERO SWAP1 PUSH2 0x122A JUMPI POP PUSH2 0x1221 PUSH1 0x80 PUSH1 0x10 PUSH2 0x2399 JUMP JUMPDEST PUSH1 0xFF AND DUP2 PUSH1 0xFF AND LT JUMPDEST ISZERO PUSH2 0x126F JUMPI PUSH0 PUSH2 0x123B PUSH1 0x80 DUP4 PUSH2 0x23B2 JUMP JUMPDEST PUSH1 0xFF AND SWAP1 POP PUSH0 JUMPDEST PUSH2 0x124D DUP3 PUSH1 0x2 PUSH2 0x2406 JUMP JUMPDEST DUP2 LT ISZERO PUSH2 0x1200 JUMPI PUSH2 0x125D DUP5 PUSH2 0x1113 JUMP JUMPDEST DUP1 PUSH2 0x1267 DUP2 PUSH2 0x236D JUMP JUMPDEST SWAP2 POP POP PUSH2 0x1242 JUMP JUMPDEST PUSH1 0xFF DUP2 AND PUSH1 0xC0 EQ DUP1 PUSH2 0x1284 JUMPI POP PUSH1 0xFF DUP2 AND PUSH1 0xC3 EQ JUMPDEST DUP1 PUSH2 0x1292 JUMPI POP PUSH1 0xFF DUP2 AND PUSH1 0xC2 EQ JUMPDEST PUSH2 0x1741 JUMPI PUSH1 0xFF DUP2 AND PUSH1 0xC4 EQ DUP1 PUSH2 0x12AB JUMPI POP PUSH1 0xFF DUP2 AND PUSH1 0xCA EQ JUMPDEST ISZERO PUSH2 0x12C3 JUMPI PUSH1 0x1 DUP3 PUSH1 0x20 ADD DUP2 DUP2 MLOAD PUSH2 0x119A SWAP2 SWAP1 PUSH2 0x23DF JUMP JUMPDEST PUSH1 0xFF DUP2 AND PUSH1 0xC5 EQ DUP1 PUSH2 0x12D8 JUMPI POP PUSH1 0xFF DUP2 AND PUSH1 0xCB EQ JUMPDEST ISZERO PUSH2 0x12F0 JUMPI PUSH1 0x2 DUP3 PUSH1 0x20 ADD DUP2 DUP2 MLOAD PUSH2 0x119A SWAP2 SWAP1 PUSH2 0x23DF JUMP JUMPDEST PUSH1 0xFF DUP2 AND PUSH1 0xC6 EQ DUP1 PUSH2 0x1305 JUMPI POP PUSH1 0xFF DUP2 AND PUSH1 0xCC EQ JUMPDEST ISZERO PUSH2 0x131D JUMPI PUSH1 0x4 DUP3 PUSH1 0x20 ADD DUP2 DUP2 MLOAD PUSH2 0x119A SWAP2 SWAP1 PUSH2 0x23DF JUMP JUMPDEST PUSH1 0xFF DUP2 AND PUSH1 0xC7 EQ DUP1 PUSH2 0x1332 JUMPI POP PUSH1 0xFF DUP2 AND PUSH1 0xCD EQ JUMPDEST ISZERO PUSH2 0x134A JUMPI PUSH1 0x8 DUP3 PUSH1 0x20 ADD DUP2 DUP2 MLOAD PUSH2 0x119A SWAP2 SWAP1 PUSH2 0x23DF JUMP JUMPDEST PUSH1 0xFF DUP2 AND PUSH1 0xC8 EQ DUP1 PUSH2 0x135F JUMPI POP PUSH1 0xFF DUP2 AND PUSH1 0xCE EQ JUMPDEST ISZERO PUSH2 0x1377 JUMPI PUSH1 0x10 DUP3 PUSH1 0x20 ADD DUP2 DUP2 MLOAD PUSH2 0x119A SWAP2 SWAP1 PUSH2 0x23DF JUMP JUMPDEST PUSH1 0xFF DUP2 AND PUSH1 0xC9 EQ DUP1 PUSH2 0x138C JUMPI POP PUSH1 0xFF DUP2 AND PUSH1 0xCF EQ JUMPDEST DUP1 PUSH2 0x139A JUMPI POP PUSH1 0xFF DUP2 AND PUSH1 0xD5 EQ JUMPDEST ISZERO PUSH2 0x13B2 JUMPI PUSH1 0x20 DUP3 PUSH1 0x20 ADD DUP2 DUP2 MLOAD PUSH2 0x119A SWAP2 SWAP1 PUSH2 0x23DF JUMP JUMPDEST PUSH1 0xD3 NOT PUSH1 0xFF DUP3 AND ADD PUSH2 0x13D1 JUMPI PUSH1 0x14 DUP3 PUSH1 0x20 ADD DUP2 DUP2 MLOAD PUSH2 0x119A SWAP2 SWAP1 PUSH2 0x23DF JUMP JUMPDEST PUSH1 0xFF DUP2 AND PUSH1 0xD0 EQ DUP1 PUSH2 0x13E6 JUMPI POP PUSH1 0xFF DUP2 AND PUSH1 0xD2 EQ JUMPDEST ISZERO PUSH2 0x1440 JUMPI DUP2 MLOAD PUSH1 0x20 DUP4 ADD DUP1 MLOAD PUSH0 SWAP3 SWAP2 PUSH2 0x13FF DUP3 PUSH2 0x236D JUMP JUMPDEST SWAP1 MSTORE DUP2 MLOAD DUP2 LT PUSH2 0x1411 JUMPI PUSH2 0x1411 PUSH2 0x23CB JUMP JUMPDEST PUSH1 0x20 ADD ADD MLOAD PUSH1 0xF8 SHR PUSH1 0xF8 SHL PUSH1 0xF8 SHR PUSH1 0xFF AND SWAP1 POP DUP1 DUP4 PUSH1 0x20 ADD DUP2 DUP2 MLOAD PUSH2 0x1436 SWAP2 SWAP1 PUSH2 0x23DF JUMP JUMPDEST SWAP1 MSTORE POP PUSH2 0x1741 SWAP1 POP JUMP JUMPDEST PUSH1 0xFF DUP2 AND PUSH1 0xD1 EQ DUP1 PUSH2 0x1455 JUMPI POP PUSH1 0xFF DUP2 AND PUSH1 0xD3 EQ JUMPDEST ISZERO PUSH2 0x14D4 JUMPI DUP2 MLOAD PUSH1 0x20 DUP4 ADD MLOAD PUSH0 SWAP2 SWAP1 PUSH2 0x146F SWAP1 PUSH1 0x1 PUSH2 0x23DF JUMP JUMPDEST DUP2 MLOAD DUP2 LT PUSH2 0x147F JUMPI PUSH2 0x147F PUSH2 0x23CB JUMP JUMPDEST PUSH1 0x20 ADD ADD MLOAD PUSH1 0xF8 SHR PUSH1 0xF8 SHL PUSH1 0xF8 SHR PUSH1 0xFF AND PUSH1 0x8 DUP5 PUSH0 ADD MLOAD DUP6 PUSH1 0x20 ADD MLOAD DUP2 MLOAD DUP2 LT PUSH2 0x14AB JUMPI PUSH2 0x14AB PUSH2 0x23CB JUMP JUMPDEST ADD PUSH1 0x20 ADD MLOAD PUSH1 0xF8 SHR SWAP1 SHL OR SWAP1 POP PUSH2 0x14C3 DUP2 PUSH1 0x2 PUSH2 0x23DF JUMP JUMPDEST DUP4 PUSH1 0x20 ADD DUP2 DUP2 MLOAD PUSH2 0x1436 SWAP2 SWAP1 PUSH2 0x23DF JUMP JUMPDEST PUSH1 0xD5 NOT PUSH1 0xFF DUP3 AND ADD PUSH2 0x1535 JUMPI DUP2 MLOAD PUSH1 0x20 DUP4 ADD DUP1 MLOAD PUSH0 SWAP3 SWAP2 PUSH2 0x14F4 DUP3 PUSH2 0x236D JUMP JUMPDEST SWAP1 MSTORE DUP2 MLOAD DUP2 LT PUSH2 0x1506 JUMPI PUSH2 0x1506 PUSH2 0x23CB JUMP JUMPDEST ADD PUSH1 0x20 ADD MLOAD PUSH1 0xF8 SHR SWAP1 POP PUSH0 JUMPDEST DUP2 DUP2 LT ISZERO PUSH2 0x1200 JUMPI PUSH2 0x1523 DUP5 PUSH2 0x1113 JUMP JUMPDEST DUP1 PUSH2 0x152D DUP2 PUSH2 0x236D JUMP JUMPDEST SWAP2 POP POP PUSH2 0x1512 JUMP JUMPDEST PUSH1 0xD6 NOT PUSH1 0xFF DUP3 AND ADD PUSH2 0x15E3 JUMPI DUP2 MLOAD PUSH1 0x20 DUP4 ADD MLOAD PUSH0 SWAP2 SWAP1 PUSH2 0x1556 SWAP1 PUSH1 0x1 PUSH2 0x23DF JUMP JUMPDEST DUP2 MLOAD DUP2 LT PUSH2 0x1566 JUMPI PUSH2 0x1566 PUSH2 0x23CB JUMP JUMPDEST PUSH1 0x20 ADD ADD MLOAD PUSH1 0xF8 SHR PUSH1 0xF8 SHL PUSH1 0xF8 SHR PUSH1 0xFF AND PUSH1 0x8 DUP5 PUSH0 ADD MLOAD DUP6 PUSH1 0x20 ADD MLOAD DUP2 MLOAD DUP2 LT PUSH2 0x1592 JUMPI PUSH2 0x1592 PUSH2 0x23CB JUMP JUMPDEST PUSH1 0x20 ADD ADD MLOAD PUSH1 0xF8 SHR PUSH1 0xF8 SHL PUSH1 0xF8 SHR PUSH1 0xFF AND SWAP1 SHL OR SWAP1 POP PUSH1 0x2 DUP4 PUSH1 0x20 ADD DUP2 DUP2 MLOAD PUSH2 0x15BB SWAP2 SWAP1 PUSH2 0x23DF JUMP JUMPDEST SWAP1 MSTORE POP PUSH0 JUMPDEST DUP2 DUP2 LT ISZERO PUSH2 0x1200 JUMPI PUSH2 0x15D1 DUP5 PUSH2 0x1113 JUMP JUMPDEST DUP1 PUSH2 0x15DB DUP2 PUSH2 0x236D JUMP JUMPDEST SWAP2 POP POP PUSH2 0x15C0 JUMP JUMPDEST PUSH1 0xD7 NOT PUSH1 0xFF DUP3 AND ADD PUSH2 0x164E JUMPI DUP2 MLOAD PUSH1 0x20 DUP4 ADD DUP1 MLOAD PUSH0 SWAP3 SWAP2 PUSH2 0x1603 DUP3 PUSH2 0x236D JUMP JUMPDEST SWAP1 MSTORE DUP2 MLOAD DUP2 LT PUSH2 0x1615 JUMPI PUSH2 0x1615 PUSH2 0x23CB JUMP JUMPDEST ADD PUSH1 0x20 ADD MLOAD PUSH1 0xF8 SHR SWAP1 POP PUSH0 JUMPDEST PUSH2 0x162C DUP3 PUSH1 0x2 PUSH2 0x2406 JUMP JUMPDEST DUP2 LT ISZERO PUSH2 0x1200 JUMPI PUSH2 0x163C DUP5 PUSH2 0x1113 JUMP JUMPDEST DUP1 PUSH2 0x1646 DUP2 PUSH2 0x236D JUMP JUMPDEST SWAP2 POP POP PUSH2 0x1621 JUMP JUMPDEST PUSH1 0xD8 NOT PUSH1 0xFF DUP3 AND ADD PUSH2 0x1706 JUMPI DUP2 MLOAD PUSH1 0x20 DUP4 ADD MLOAD PUSH0 SWAP2 SWAP1 PUSH2 0x166F SWAP1 PUSH1 0x1 PUSH2 0x23DF JUMP JUMPDEST DUP2 MLOAD DUP2 LT PUSH2 0x167F JUMPI PUSH2 0x167F PUSH2 0x23CB JUMP JUMPDEST PUSH1 0x20 ADD ADD MLOAD PUSH1 0xF8 SHR PUSH1 0xF8 SHL PUSH1 0xF8 SHR PUSH1 0xFF AND PUSH1 0x8 DUP5 PUSH0 ADD MLOAD DUP6 PUSH1 0x20 ADD MLOAD DUP2 MLOAD DUP2 LT PUSH2 0x16AB JUMPI PUSH2 0x16AB PUSH2 0x23CB JUMP JUMPDEST PUSH1 0x20 ADD ADD MLOAD PUSH1 0xF8 SHR PUSH1 0xF8 SHL PUSH1 0xF8 SHR PUSH1 0xFF AND SWAP1 SHL OR SWAP1 POP PUSH1 0x2 DUP4 PUSH1 0x20 ADD DUP2 DUP2 MLOAD PUSH2 0x16D4 SWAP2 SWAP1 PUSH2 0x23DF JUMP JUMPDEST SWAP1 MSTORE POP PUSH0 JUMPDEST PUSH2 0x16E4 DUP3 PUSH1 0x2 PUSH2 0x2406 JUMP JUMPDEST DUP2 LT ISZERO PUSH2 0x1200 JUMPI PUSH2 0x16F4 DUP5 PUSH2 0x1113 JUMP JUMPDEST DUP1 PUSH2 0x16FE DUP2 PUSH2 0x236D JUMP JUMPDEST SWAP2 POP POP PUSH2 0x16D9 JUMP JUMPDEST PUSH1 0x40 MLOAD PUSH3 0x461BCD PUSH1 0xE5 SHL DUP2 MSTORE PUSH1 0x20 PUSH1 0x4 DUP3 ADD MSTORE PUSH1 0x10 PUSH1 0x24 DUP3 ADD MSTORE PUSH16 0x556E6B6E6F776E207479706520746167 PUSH1 0x80 SHL PUSH1 0x44 DUP3 ADD MSTORE PUSH1 0x64 ADD PUSH2 0x216 JUMP JUMPDEST POP POP JUMP JUMPDEST PUSH1 0x40 DUP1 MLOAD DUP1 DUP3 ADD DUP3 MSTORE PUSH1 0x60 DUP1 DUP3 MSTORE PUSH0 PUSH1 0x20 DUP4 ADD MSTORE DUP3 MLOAD PUSH2 0x100 DUP2 DUP6 ADD DUP2 DUP2 MSTORE PUSH2 0x160 DUP4 ADD SWAP1 SWAP6 MSTORE SWAP3 SWAP4 SWAP1 SWAP3 DUP4 SWAP3 DUP4 ADD DUP2 DUP1 CALLDATASIZE DUP4 CALLDATACOPY POP POP POP DUP2 MSTORE PUSH0 PUSH1 0x20 SWAP1 SWAP2 ADD MSTORE SWAP2 SWAP1 POP JUMP JUMPDEST PUSH1 0x40 DUP1 MLOAD DUP1 DUP3 ADD SWAP1 SWAP2 MSTORE PUSH1 0x60 DUP2 MSTORE PUSH0 PUSH1 0x20 DUP3 ADD MSTORE PUSH2 0x17A9 DUP4 PUSH1 0x3 PUSH2 0x1C3B JUMP JUMPDEST PUSH2 0x17B3 DUP4 DUP4 PUSH2 0x1CFF JUMP JUMPDEST POP SWAP1 SWAP2 SWAP1 POP JUMP JUMPDEST PUSH1 0x40 DUP1 MLOAD DUP1 DUP3 ADD SWAP1 SWAP2 MSTORE PUSH1 0x60 DUP2 MSTORE PUSH0 PUSH1 0x20 DUP3 ADD MSTORE PUSH2 0x17E5 DUP4 DUP4 MLOAD PUSH1 0x3 PUSH2 0x17E0 SWAP2 SWAP1 PUSH2 0x23DF JUMP JUMPDEST PUSH2 0x1C3B JUMP JUMPDEST PUSH2 0x17B3 DUP4 DUP4 PUSH2 0x1E19 JUMP JUMPDEST PUSH1 0x40 DUP1 MLOAD DUP1 DUP3 ADD SWAP1 SWAP2 MSTORE PUSH1 0x60 DUP2 MSTORE PUSH0 PUSH1 0x20 DUP3 ADD MSTORE PUSH2 0x180E DUP4 PUSH1 0x21 PUSH2 0x1C3B JUMP JUMPDEST PUSH2 0x17B3 DUP4 DUP4 PUSH2 0x1FE8 JUMP JUMPDEST PUSH1 0x60 PUSH0 DUP3 PUSH1 0x20 ADD MLOAD PUSH8 0xFFFFFFFFFFFFFFFF DUP2 GT ISZERO PUSH2 0x1838 JUMPI PUSH2 0x1838 PUSH2 0x23F2 JUMP JUMPDEST PUSH1 0x40 MLOAD SWAP1 DUP1 DUP3 MSTORE DUP1 PUSH1 0x1F ADD PUSH1 0x1F NOT AND PUSH1 0x20 ADD DUP3 ADD PUSH1 0x40 MSTORE DUP1 ISZERO PUSH2 0x1862 JUMPI PUSH1 0x20 DUP3 ADD DUP2 DUP1 CALLDATASIZE DUP4 CALLDATACOPY ADD SWAP1 POP JUMPDEST POP SWAP1 POP PUSH1 0x20 DUP4 MLOAD ADD PUSH1 0x20 DUP3 ADD PUSH1 0x20 DUP6 ADD MLOAD PUSH0 JUMPDEST DUP2 DUP2 LT ISZERO PUSH2 0x188D JUMPI DUP4 DUP2 ADD MLOAD DUP4 DUP3 ADD MSTORE PUSH1 0x20 ADD PUSH2 0x1875 JUMP JUMPDEST POP SWAP3 SWAP6 SWAP5 POP POP POP POP POP JUMP JUMPDEST PUSH0 DUP2 PUSH0 ADD MLOAD MLOAD DUP3 PUSH1 0x20 ADD MLOAD LT PUSH2 0x18D6 JUMPI PUSH1 0x40 MLOAD PUSH3 0x461BCD PUSH1 0xE5 SHL DUP2 MSTORE PUSH1 0x20 PUSH1 0x4 DUP3 ADD MSTORE PUSH1 0x3 PUSH1 0x24 DUP3 ADD MSTORE PUSH3 0x22A7A3 PUSH1 0xE9 SHL PUSH1 0x44 DUP3 ADD MSTORE PUSH1 0x64 ADD PUSH2 0x216 JUMP JUMPDEST PUSH0 DUP3 PUSH0 ADD MLOAD DUP4 PUSH1 0x20 ADD MLOAD DUP2 MLOAD DUP2 LT PUSH2 0x18F0 JUMPI PUSH2 0x18F0 PUSH2 0x23CB JUMP JUMPDEST ADD PUSH1 0x20 ADD MLOAD PUSH1 0xF8 SHR SWAP1 POP PUSH1 0xBF NOT DUP2 ADD PUSH2 0x190B JUMPI POP PUSH0 SWAP3 SWAP2 POP POP JUMP JUMPDEST PUSH1 0xFF DUP2 AND PUSH1 0xC3 EQ DUP1 PUSH2 0x1920 JUMPI POP PUSH1 0xFF DUP2 AND PUSH1 0xC2 EQ JUMPDEST ISZERO PUSH2 0x192E JUMPI POP PUSH1 0x1 SWAP3 SWAP2 POP POP JUMP JUMPDEST PUSH1 0x7F PUSH1 0xFF DUP3 AND GT ISZERO DUP1 PUSH2 0x1944 JUMPI POP PUSH1 0xFF DUP2 AND PUSH1 0xC4 EQ JUMPDEST DUP1 PUSH2 0x1952 JUMPI POP PUSH1 0xFF DUP2 AND PUSH1 0xC5 EQ JUMPDEST DUP1 PUSH2 0x1960 JUMPI POP PUSH1 0xFF DUP2 AND PUSH1 0xC6 EQ JUMPDEST DUP1 PUSH2 0x196E JUMPI POP PUSH1 0xFF DUP2 AND PUSH1 0xC7 EQ JUMPDEST DUP1 PUSH2 0x197C JUMPI POP PUSH1 0xFF DUP2 AND PUSH1 0xC8 EQ JUMPDEST DUP1 PUSH2 0x198A JUMPI POP PUSH1 0xFF DUP2 AND PUSH1 0xC9 EQ JUMPDEST ISZERO PUSH2 0x1998 JUMPI POP PUSH1 0x2 SWAP3 SWAP2 POP POP JUMP JUMPDEST PUSH1 0xE0 PUSH1 0xFF DUP3 AND LT ISZERO DUP1 PUSH2 0x19AE JUMPI POP PUSH1 0xFF DUP2 AND PUSH1 0xCA EQ JUMPDEST DUP1 PUSH2 0x19BC JUMPI POP PUSH1 0xFF DUP2 AND PUSH1 0xCB EQ JUMPDEST DUP1 PUSH2 0x19CA JUMPI POP PUSH1 0xFF DUP2 AND PUSH1 0xCC EQ JUMPDEST DUP1 PUSH2 0x19D8 JUMPI POP PUSH1 0xFF DUP2 AND PUSH1 0xCD EQ JUMPDEST DUP1 PUSH2 0x19E6 JUMPI POP PUSH1 0xFF DUP2 AND PUSH1 0xCE EQ JUMPDEST DUP1 PUSH2 0x19F4 JUMPI POP PUSH1 0xFF DUP2 AND PUSH1 0xCF EQ JUMPDEST ISZERO PUSH2 0x1A02 JUMPI POP PUSH1 0x3 SWAP3 SWAP2 POP POP JUMP JUMPDEST PUSH1 0xFF DUP2 AND PUSH1 0xD0 EQ DUP1 PUSH2 0x1A17 JUMPI POP PUSH1 0xFF DUP2 AND PUSH1 0xD1 EQ JUMPDEST ISZERO PUSH2 0x1A25 JUMPI POP PUSH1 0x4 SWAP3 SWAP2 POP POP JUMP JUMPDEST PUSH1 0xA0 PUSH1 0xFF DUP3 AND LT DUP1 ISZERO SWAP1 PUSH2 0x1A49 JUMPI POP PUSH2 0x1A40 PUSH1 0xA0 PUSH1 0x20 PUSH2 0x2399 JUMP JUMPDEST PUSH1 0xFF AND DUP2 PUSH1 0xFF AND LT JUMPDEST DUP1 PUSH2 0x1A57 JUMPI POP PUSH1 0xFF DUP2 AND PUSH1 0xD2 EQ JUMPDEST DUP1 PUSH2 0x1A65 JUMPI POP PUSH1 0xFF DUP2 AND PUSH1 0xD3 EQ JUMPDEST ISZERO PUSH2 0x1A73 JUMPI POP PUSH1 0x5 SWAP3 SWAP2 POP POP JUMP JUMPDEST PUSH1 0x90 PUSH1 0xFF DUP3 AND LT DUP1 ISZERO SWAP1 PUSH2 0x1A97 JUMPI POP PUSH2 0x1A8E PUSH1 0x90 PUSH1 0x10 PUSH2 0x2399 JUMP JUMPDEST PUSH1 0xFF AND DUP2 PUSH1 0xFF AND LT JUMPDEST DUP1 PUSH2 0x1AA5 JUMPI POP PUSH1 0xFF DUP2 AND PUSH1 0xD6 EQ JUMPDEST DUP1 PUSH2 0x1AB3 JUMPI POP PUSH1 0xFF DUP2 AND PUSH1 0xD7 EQ JUMPDEST ISZERO PUSH2 0x1AC1 JUMPI POP PUSH1 0x6 SWAP3 SWAP2 POP POP JUMP JUMPDEST PUSH1 0x80 PUSH1 0xFF DUP3 AND LT DUP1 ISZERO SWAP1 PUSH2 0x1AE5 JUMPI POP PUSH2 0x1ADC PUSH1 0x80 PUSH1 0x10 PUSH2 0x2399 JUMP JUMPDEST PUSH1 0xFF AND DUP2 PUSH1 0xFF AND LT JUMPDEST DUP1 PUSH2 0x1AF3 JUMPI POP PUSH1 0xFF DUP2 AND PUSH1 0xD8 EQ JUMPDEST DUP1 PUSH2 0x1B01 JUMPI POP PUSH1 0xFF DUP2 AND PUSH1 0xD9 EQ JUMPDEST ISZERO PUSH2 0x1B0F JUMPI POP PUSH1 0x7 SWAP3 SWAP2 POP POP JUMP JUMPDEST PUSH1 0xD3 NOT PUSH1 0xFF DUP3 AND ADD PUSH2 0x1B24 JUMPI POP PUSH1 0x8 SWAP3 SWAP2 POP POP JUMP JUMPDEST PUSH1 0xD4 NOT PUSH1 0xFF DUP3 AND ADD PUSH2 0x1706 JUMPI POP PUSH1 0x9 SWAP3 SWAP2 POP POP JUMP JUMPDEST PUSH1 0x40 DUP1 MLOAD DUP1 DUP3 ADD SWAP1 SWAP2 MSTORE PUSH1 0x60 DUP2 MSTORE PUSH0 PUSH1 0x20 DUP3 ADD MSTORE PUSH2 0x1B58 DUP4 PUSH1 0x3 PUSH2 0x1C3B JUMP JUMPDEST PUSH2 0x17B3 DUP4 DUP4 PUSH2 0x2230 JUMP JUMPDEST PUSH1 0x40 DUP1 MLOAD DUP1 DUP3 ADD SWAP1 SWAP2 MSTORE PUSH1 0x60 DUP2 MSTORE PUSH0 PUSH1 0x20 DUP3 ADD MSTORE PUSH2 0x1B81 DUP4 PUSH1 0x1 PUSH2 0x1C3B JUMP JUMPDEST DUP2 PUSH2 0x1B8D JUMPI PUSH1 0xC2 PUSH2 0x1B90 JUMP JUMPDEST PUSH1 0xC3 JUMPDEST PUSH1 0xF8 SHL DUP4 PUSH0 ADD MLOAD DUP5 PUSH1 0x20 ADD DUP1 MLOAD DUP1 SWAP2 SWAP1 PUSH2 0x1BA9 SWAP1 PUSH2 0x236D JUMP JUMPDEST SWAP1 MSTORE DUP2 MLOAD DUP2 LT PUSH2 0x1BBB JUMPI PUSH2 0x1BBB PUSH2 0x23CB JUMP JUMPDEST PUSH1 0x20 ADD ADD SWAP1 PUSH1 0x1 PUSH1 0x1 PUSH1 0xF8 SHL SUB NOT AND SWAP1 DUP2 PUSH0 BYTE SWAP1 MSTORE8 POP SWAP2 SWAP3 SWAP2 POP POP JUMP JUMPDEST PUSH0 DUP2 PUSH0 ADD MLOAD MLOAD DUP3 PUSH1 0x20 ADD MLOAD LT PUSH2 0x1C16 JUMPI PUSH1 0x40 MLOAD PUSH3 0x461BCD PUSH1 0xE5 SHL DUP2 MSTORE PUSH1 0x20 PUSH1 0x4 DUP3 ADD MSTORE PUSH1 0x3 PUSH1 0x24 DUP3 ADD MSTORE PUSH3 0x22A7A3 PUSH1 0xE9 SHL PUSH1 0x44 DUP3 ADD MSTORE PUSH1 0x64 ADD PUSH2 0x216 JUMP JUMPDEST DUP2 MLOAD PUSH1 0x20 DUP4 ADD MLOAD DUP2 MLOAD DUP2 LT PUSH2 0x1C2D JUMPI PUSH2 0x1C2D PUSH2 0x23CB JUMP JUMPDEST ADD PUSH1 0x20 ADD MLOAD PUSH1 0xF8 SHR SWAP3 SWAP2 POP POP JUMP JUMPDEST PUSH0 DUP2 DUP4 PUSH1 0x20 ADD MLOAD PUSH2 0x1C4C SWAP2 SWAP1 PUSH2 0x23DF JUMP JUMPDEST DUP4 MLOAD MLOAD SWAP1 SWAP2 POP DUP2 GT PUSH2 0x1C5D JUMPI POP POP POP JUMP JUMPDEST DUP3 MLOAD MLOAD PUSH0 SWAP1 PUSH2 0x1C6D SWAP1 PUSH1 0x2 PUSH2 0x2406 JUMP JUMPDEST SWAP1 POP DUP2 DUP2 LT ISZERO PUSH2 0x1C85 JUMPI PUSH2 0x1C82 DUP3 PUSH1 0x40 PUSH2 0x23DF JUMP JUMPDEST SWAP1 POP JUMPDEST PUSH0 DUP2 PUSH8 0xFFFFFFFFFFFFFFFF DUP2 GT ISZERO PUSH2 0x1C9F JUMPI PUSH2 0x1C9F PUSH2 0x23F2 JUMP JUMPDEST PUSH1 0x40 MLOAD SWAP1 DUP1 DUP3 MSTORE DUP1 PUSH1 0x1F ADD PUSH1 0x1F NOT AND PUSH1 0x20 ADD DUP3 ADD PUSH1 0x40 MSTORE DUP1 ISZERO PUSH2 0x1CC9 JUMPI PUSH1 0x20 DUP3 ADD DUP2 DUP1 CALLDATASIZE DUP4 CALLDATACOPY ADD SWAP1 POP JUMPDEST POP SWAP1 POP PUSH1 0x20 DUP6 MLOAD ADD PUSH1 0x20 DUP3 ADD PUSH1 0x20 DUP8 ADD MLOAD PUSH0 JUMPDEST DUP2 DUP2 LT ISZERO PUSH2 0x1CF4 JUMPI DUP4 DUP2 ADD MLOAD DUP4 DUP3 ADD MSTORE PUSH1 0x20 ADD PUSH2 0x1CDC JUMP JUMPDEST POP POP POP SWAP5 MSTORE POP POP POP POP JUMP JUMPDEST PUSH1 0xF DUP2 GT PUSH2 0x1D57 JUMPI PUSH2 0x1D12 DUP2 PUSH1 0x80 PUSH2 0x23DF JUMP JUMPDEST PUSH1 0xF8 SHL DUP3 PUSH0 ADD MLOAD DUP4 PUSH1 0x20 ADD DUP1 MLOAD DUP1 SWAP2 SWAP1 PUSH2 0x1D2B SWAP1 PUSH2 0x236D JUMP JUMPDEST SWAP1 MSTORE DUP2 MLOAD DUP2 LT PUSH2 0x1D3D JUMPI PUSH2 0x1D3D PUSH2 0x23CB JUMP JUMPDEST PUSH1 0x20 ADD ADD SWAP1 PUSH1 0x1 PUSH1 0x1 PUSH1 0xF8 SHL SUB NOT AND SWAP1 DUP2 PUSH0 BYTE SWAP1 MSTORE8 POP POP POP JUMP JUMPDEST PUSH1 0xFF DUP2 GT PUSH2 0x1DB7 JUMPI DUP2 MLOAD PUSH1 0x20 DUP4 ADD DUP1 MLOAD PUSH1 0x1B PUSH1 0xFB SHL SWAP3 SWAP2 PUSH2 0x1D77 DUP3 PUSH2 0x236D JUMP JUMPDEST SWAP1 MSTORE DUP2 MLOAD DUP2 LT PUSH2 0x1D89 JUMPI PUSH2 0x1D89 PUSH2 0x23CB JUMP JUMPDEST PUSH1 0x20 ADD ADD SWAP1 PUSH1 0x1 PUSH1 0x1 PUSH1 0xF8 SHL SUB NOT AND SWAP1 DUP2 PUSH0 BYTE SWAP1 MSTORE8 POP DUP2 MLOAD PUSH1 0x20 DUP4 ADD DUP1 MLOAD PUSH1 0xF8 DUP5 SWAP1 SHL SWAP3 SWAP2 PUSH2 0x1D2B DUP3 PUSH2 0x236D JUMP JUMPDEST DUP2 MLOAD PUSH1 0x20 DUP4 ADD DUP1 MLOAD PUSH1 0xD9 PUSH1 0xF8 SHL SWAP3 SWAP2 PUSH2 0x1DCF DUP3 PUSH2 0x236D JUMP JUMPDEST SWAP1 MSTORE DUP2 MLOAD DUP2 LT PUSH2 0x1DE1 JUMPI PUSH2 0x1DE1 PUSH2 0x23CB JUMP JUMPDEST PUSH1 0x20 ADD ADD SWAP1 PUSH1 0x1 PUSH1 0x1 PUSH1 0xF8 SHL SUB NOT AND SWAP1 DUP2 PUSH0 BYTE SWAP1 MSTORE8 POP DUP2 MLOAD PUSH1 0x20 DUP4 ADD DUP1 MLOAD PUSH1 0x1 PUSH1 0x1 PUSH1 0xF8 SHL SUB NOT PUSH1 0xF0 DUP6 SWAP1 SHL AND SWAP3 SWAP2 PUSH2 0x1D77 DUP3 PUSH2 0x236D JUMP JUMPDEST DUP1 MLOAD DUP2 SWAP1 PUSH1 0x1F DUP2 GT PUSH2 0x1E76 JUMPI PUSH2 0x1E30 DUP2 PUSH1 0xA0 PUSH2 0x23DF JUMP JUMPDEST PUSH1 0xF8 SHL DUP5 PUSH0 ADD MLOAD DUP6 PUSH1 0x20 ADD DUP1 MLOAD DUP1 SWAP2 SWAP1 PUSH2 0x1E49 SWAP1 PUSH2 0x236D JUMP JUMPDEST SWAP1 MSTORE DUP2 MLOAD DUP2 LT PUSH2 0x1E5B JUMPI PUSH2 0x1E5B PUSH2 0x23CB JUMP JUMPDEST PUSH1 0x20 ADD ADD SWAP1 PUSH1 0x1 PUSH1 0x1 PUSH1 0xF8 SHL SUB NOT AND SWAP1 DUP2 PUSH0 BYTE SWAP1 MSTORE8 POP PUSH2 0x1FA1 JUMP JUMPDEST PUSH1 0xFF DUP2 GT PUSH2 0x1ED6 JUMPI DUP4 MLOAD PUSH1 0x20 DUP6 ADD DUP1 MLOAD PUSH1 0x69 PUSH1 0xF9 SHL SWAP3 SWAP2 PUSH2 0x1E96 DUP3 PUSH2 0x236D JUMP JUMPDEST SWAP1 MSTORE DUP2 MLOAD DUP2 LT PUSH2 0x1EA8 JUMPI PUSH2 0x1EA8 PUSH2 0x23CB JUMP JUMPDEST PUSH1 0x20 ADD ADD SWAP1 PUSH1 0x1 PUSH1 0x1 PUSH1 0xF8 SHL SUB NOT AND SWAP1 DUP2 PUSH0 BYTE SWAP1 MSTORE8 POP DUP4 MLOAD PUSH1 0x20 DUP6 ADD DUP1 MLOAD PUSH1 0xF8 DUP5 SWAP1 SHL SWAP3 SWAP2 PUSH2 0x1E49 DUP3 PUSH2 0x236D JUMP JUMPDEST DUP4 MLOAD PUSH1 0x20 DUP6 ADD DUP1 MLOAD PUSH1 0xD3 PUSH1 0xF8 SHL SWAP3 SWAP2 PUSH2 0x1EEE DUP3 PUSH2 0x236D JUMP JUMPDEST SWAP1 MSTORE DUP2 MLOAD DUP2 LT PUSH2 0x1F00 JUMPI PUSH2 0x1F00 PUSH2 0x23CB JUMP JUMPDEST PUSH1 0x20 ADD ADD SWAP1 PUSH1 0x1 PUSH1 0x1 PUSH1 0xF8 SHL SUB NOT AND SWAP1 DUP2 PUSH0 BYTE SWAP1 MSTORE8 POP DUP4 MLOAD PUSH1 0x20 DUP6 ADD DUP1 MLOAD PUSH1 0x1 PUSH1 0x1 PUSH1 0xF8 SHL SUB NOT PUSH1 0xF0 DUP6 SWAP1 SHL AND SWAP3 SWAP2 PUSH2 0x1F38 DUP3 PUSH2 0x236D JUMP JUMPDEST SWAP1 MSTORE DUP2 MLOAD DUP2 LT PUSH2 0x1F4A JUMPI PUSH2 0x1F4A PUSH2 0x23CB JUMP JUMPDEST PUSH1 0x20 ADD ADD SWAP1 PUSH1 0x1 PUSH1 0x1 PUSH1 0xF8 SHL SUB NOT AND SWAP1 DUP2 PUSH0 BYTE SWAP1 MSTORE8 POP DUP4 MLOAD PUSH1 0x20 DUP6 ADD DUP1 MLOAD PUSH1 0xF8 DUP5 SWAP1 SHL SWAP3 SWAP2 PUSH2 0x1F78 DUP3 PUSH2 0x236D JUMP JUMPDEST SWAP1 MSTORE DUP2 MLOAD DUP2 LT PUSH2 0x1F8A JUMPI PUSH2 0x1F8A PUSH2 0x23CB JUMP JUMPDEST PUSH1 0x20 ADD ADD SWAP1 PUSH1 0x1 PUSH1 0x1 PUSH1 0xF8 SHL SUB NOT AND SWAP1 DUP2 PUSH0 BYTE SWAP1 MSTORE8 POP JUMPDEST PUSH1 0x20 DUP3 ADD PUSH1 0x20 DUP6 ADD MLOAD PUSH1 0x20 DUP7 MLOAD ADD ADD PUSH0 JUMPDEST DUP4 DUP2 LT ISZERO PUSH2 0x1FCA JUMPI DUP3 DUP2 ADD MLOAD DUP3 DUP3 ADD MSTORE PUSH1 0x20 ADD PUSH2 0x1FB2 JUMP JUMPDEST POP POP POP DUP1 DUP5 PUSH1 0x20 ADD DUP2 DUP2 MLOAD PUSH2 0x1FDF SWAP2 SWAP1 PUSH2 0x23DF JUMP JUMPDEST SWAP1 MSTORE POP POP POP POP POP JUMP JUMPDEST PUSH1 0x7F DUP2 GT PUSH2 0x2008 JUMPI DUP2 MLOAD PUSH1 0x20 DUP4 ADD DUP1 MLOAD PUSH1 0xF8 DUP5 SWAP1 SHL SWAP3 SWAP2 PUSH2 0x1D2B DUP3 PUSH2 0x236D JUMP JUMPDEST PUSH1 0xFF DUP2 GT PUSH2 0x2028 JUMPI DUP2 MLOAD PUSH1 0x20 DUP4 ADD DUP1 MLOAD PUSH1 0x31 PUSH1 0xFA SHL SWAP3 SWAP2 PUSH2 0x1D77 DUP3 PUSH2 0x236D JUMP JUMPDEST PUSH2 0xFFFF DUP2 GT PUSH2 0x209C JUMPI DUP2 MLOAD PUSH1 0x20 DUP4 ADD DUP1 MLOAD PUSH1 0xC5 PUSH1 0xF8 SHL SWAP3 SWAP2 PUSH2 0x2049 DUP3 PUSH2 0x236D JUMP JUMPDEST SWAP1 MSTORE DUP2 MLOAD DUP2 LT PUSH2 0x205B JUMPI PUSH2 0x205B PUSH2 0x23CB JUMP JUMPDEST PUSH1 0x20 ADD ADD SWAP1 PUSH1 0x1 PUSH1 0x1 PUSH1 0xF8 SHL SUB NOT AND SWAP1 DUP2 PUSH0 BYTE SWAP1 MSTORE8 POP PUSH1 0x20 DUP3 ADD MLOAD PUSH1 0x20 DUP4 MLOAD ADD ADD DUP2 PUSH1 0x8 SHR DUP2 MSTORE8 DUP2 PUSH1 0x1 DUP3 ADD MSTORE8 POP PUSH1 0x2 DUP3 PUSH1 0x20 ADD DUP2 DUP2 MLOAD PUSH2 0x119A SWAP2 SWAP1 PUSH2 0x23DF JUMP JUMPDEST PUSH4 0xFFFFFFFF DUP2 GT PUSH2 0x2124 JUMPI DUP2 MLOAD PUSH1 0x20 DUP4 ADD DUP1 MLOAD PUSH1 0x63 PUSH1 0xF9 SHL SWAP3 SWAP2 PUSH2 0x20BF DUP3 PUSH2 0x236D JUMP JUMPDEST SWAP1 MSTORE DUP2 MLOAD DUP2 LT PUSH2 0x20D1 JUMPI PUSH2 0x20D1 PUSH2 0x23CB JUMP JUMPDEST PUSH1 0x20 ADD ADD SWAP1 PUSH1 0x1 PUSH1 0x1 PUSH1 0xF8 SHL SUB NOT AND SWAP1 DUP2 PUSH0 BYTE SWAP1 MSTORE8 POP PUSH1 0x20 DUP3 ADD MLOAD PUSH1 0x20 DUP4 MLOAD ADD ADD DUP2 PUSH1 0x18 SHR DUP2 MSTORE8 DUP2 PUSH1 0x10 SHR PUSH1 0x1 DUP3 ADD MSTORE8 DUP2 PUSH1 0x8 SHR PUSH1 0x2 DUP3 ADD MSTORE8 DUP2 PUSH1 0x3 DUP3 ADD MSTORE8 POP PUSH1 0x4 DUP3 PUSH1 0x20 ADD DUP2 DUP2 MLOAD PUSH2 0x119A SWAP2 SWAP1 PUSH2 0x23DF JUMP JUMPDEST PUSH8 0xFFFFFFFFFFFFFFFF DUP2 GT PUSH2 0x21D4 JUMPI DUP2 MLOAD PUSH1 0x20 DUP4 ADD DUP1 MLOAD PUSH1 0xC7 PUSH1 0xF8 SHL SWAP3 SWAP2 PUSH2 0x214B DUP3 PUSH2 0x236D JUMP JUMPDEST SWAP1 MSTORE DUP2 MLOAD DUP2 LT PUSH2 0x215D JUMPI PUSH2 0x215D PUSH2 0x23CB JUMP JUMPDEST PUSH1 0x20 ADD ADD SWAP1 PUSH1 0x1 PUSH1 0x1 PUSH1 0xF8 SHL SUB NOT AND SWAP1 DUP2 PUSH0 BYTE SWAP1 MSTORE8 POP PUSH1 0x20 DUP3 ADD MLOAD PUSH1 0x20 DUP4 MLOAD ADD ADD DUP2 PUSH1 0x38 SHR DUP2 MSTORE8 DUP2 PUSH1 0x30 SHR PUSH1 0x1 DUP3 ADD MSTORE8 DUP2 PUSH1 0x28 SHR PUSH1 0x2 DUP3 ADD MSTORE8 DUP2 PUSH1 0x20 SHR PUSH1 0x3 DUP3 ADD MSTORE8 DUP2 PUSH1 0x18 SHR PUSH1 0x4 DUP3 ADD MSTORE8 DUP2 PUSH1 0x10 SHR PUSH1 0x5 DUP3 ADD MSTORE8 DUP2 PUSH1 0x8 SHR PUSH1 0x6 DUP3 ADD MSTORE8 DUP2 PUSH1 0x7 DUP3 ADD MSTORE8 POP PUSH1 0x8 DUP3 PUSH1 0x20 ADD DUP2 DUP2 MLOAD PUSH2 0x119A SWAP2 SWAP1 PUSH2 0x23DF JUMP JUMPDEST DUP2 MLOAD PUSH1 0x20 DUP4 ADD DUP1 MLOAD PUSH1 0xC9 PUSH1 0xF8 SHL SWAP3 SWAP2 PUSH2 0x21EC DUP3 PUSH2 0x236D JUMP JUMPDEST SWAP1 MSTORE DUP2 MLOAD DUP2 LT PUSH2 0x21FE JUMPI PUSH2 0x21FE PUSH2 0x23CB JUMP JUMPDEST PUSH1 0x20 ADD ADD SWAP1 PUSH1 0x1 PUSH1 0x1 PUSH1 0xF8 SHL SUB NOT AND SWAP1 DUP2 PUSH0 BYTE SWAP1 MSTORE8 POP PUSH1 0x20 DUP3 DUP2 ADD DUP1 MLOAD DUP5 MLOAD ADD DUP3 ADD DUP4 SWAP1 MSTORE DUP1 MLOAD PUSH2 0x119A SWAP1 DUP4 SWAP1 PUSH2 0x23DF JUMP JUMPDEST PUSH1 0xF DUP2 GT PUSH2 0x2243 JUMPI PUSH2 0x1D12 DUP2 PUSH1 0x90 PUSH2 0x23DF JUMP JUMPDEST PUSH1 0xFF DUP2 GT PUSH2 0x2263 JUMPI DUP2 MLOAD PUSH1 0x20 DUP4 ADD DUP1 MLOAD PUSH1 0x6B PUSH1 0xF9 SHL SWAP3 SWAP2 PUSH2 0x1D77 DUP3 PUSH2 0x236D JUMP JUMPDEST DUP2 MLOAD PUSH1 0x20 DUP4 ADD DUP1 MLOAD PUSH1 0xD7 PUSH1 0xF8 SHL SWAP3 SWAP2 PUSH2 0x1DCF DUP3 PUSH2 0x236D JUMP JUMPDEST PUSH0 DUP2 MLOAD DUP1 DUP5 MSTORE PUSH0 JUMPDEST DUP2 DUP2 LT ISZERO PUSH2 0x229F JUMPI PUSH1 0x20 DUP2 DUP6 ADD DUP2 ADD MLOAD DUP7 DUP4 ADD DUP3 ADD MSTORE ADD PUSH2 0x2283 JUMP JUMPDEST POP PUSH0 PUSH1 0x20 DUP3 DUP7 ADD ADD MSTORE PUSH1 0x20 PUSH1 0x1F NOT PUSH1 0x1F DUP4 ADD AND DUP6 ADD ADD SWAP2 POP POP SWAP3 SWAP2 POP POP JUMP JUMPDEST PUSH1 0x60 DUP2 MSTORE PUSH0 PUSH2 0x22D0 PUSH1 0x60 DUP4 ADD DUP7 PUSH2 0x227B JUMP JUMPDEST PUSH1 0x20 DUP4 ADD SWAP5 SWAP1 SWAP5 MSTORE POP PUSH1 0x40 ADD MSTORE SWAP2 SWAP1 POP JUMP JUMPDEST PUSH1 0x20 DUP2 MSTORE PUSH0 PUSH2 0x22F4 PUSH1 0x20 DUP4 ADD DUP5 PUSH2 0x227B JUMP JUMPDEST SWAP4 SWAP3 POP POP POP JUMP JUMPDEST DUP4 DUP2 MSTORE DUP3 PUSH1 0x20 DUP3 ADD MSTORE PUSH1 0x60 PUSH1 0x40 DUP3 ADD MSTORE PUSH0 PUSH2 0x2319 PUSH1 0x60 DUP4 ADD DUP5 PUSH2 0x227B JUMP JUMPDEST SWAP6 SWAP5 POP POP POP POP POP JUMP JUMPDEST PUSH1 0x60 DUP2 MSTORE PUSH0 PUSH2 0x2334 PUSH1 0x60 DUP4 ADD DUP7 PUSH2 0x227B JUMP JUMPDEST DUP3 DUP2 SUB PUSH1 0x20 DUP5 ADD MSTORE PUSH2 0x2346 DUP2 DUP7 PUSH2 0x227B JUMP JUMPDEST SWAP2 POP POP DUP3 ISZERO ISZERO PUSH1 0x40 DUP4 ADD MSTORE SWAP5 SWAP4 POP POP POP POP JUMP JUMPDEST PUSH4 0x4E487B71 PUSH1 0xE0 SHL PUSH0 MSTORE PUSH1 0x11 PUSH1 0x4 MSTORE PUSH1 0x24 PUSH0 REVERT JUMPDEST PUSH0 PUSH1 0x1 DUP3 ADD PUSH2 0x237E JUMPI PUSH2 0x237E PUSH2 0x2359 JUMP JUMPDEST POP PUSH1 0x1 ADD SWAP1 JUMP JUMPDEST PUSH4 0x4E487B71 PUSH1 0xE0 SHL PUSH0 MSTORE PUSH1 0x21 PUSH1 0x4 MSTORE PUSH1 0x24 PUSH0 REVERT JUMPDEST PUSH1 0xFF DUP2 DUP2 AND DUP4 DUP3 AND ADD SWAP1 DUP2 GT ISZERO PUSH2 0xE5F JUMPI PUSH2 0xE5F PUSH2 0x2359 JUMP JUMPDEST PUSH1 0xFF DUP3 DUP2 AND DUP3 DUP3 AND SUB SWAP1 DUP2 GT ISZERO PUSH2 0xE5F JUMPI PUSH2 0xE5F PUSH2 0x2359 JUMP JUMPDEST PUSH4 0x4E487B71 PUSH1 0xE0 SHL PUSH0 MSTORE PUSH1 0x32 PUSH1 0x4 MSTORE PUSH1 0x24 PUSH0 REVERT JUMPDEST DUP1 DUP3 ADD DUP1 DUP3 GT ISZERO PUSH2 0xE5F JUMPI PUSH2 0xE5F PUSH2 0x2359 JUMP JUMPDEST PUSH4 0x4E487B71 PUSH1 0xE0 SHL PUSH0 MSTORE PUSH1 0x41 PUSH1 0x4 MSTORE PUSH1 0x24 PUSH0 REVERT JUMPDEST DUP1 DUP3 MUL DUP2 ISZERO DUP3 DUP3 DIV DUP5 EQ OR PUSH2 0xE5F JUMPI PUSH2 0xE5F PUSH2 0x2359 JUMP INVALID LOG2 PUSH5 0x6970667358 0x22 SLT KECCAK256 JUMPDEST 0xC1 DUP6 0xE8 0xC 0xB9 SWAP8 PUSH23 0x27CF44DCC8F3B3F1DE014708D0D6BA38E16379A8EEFA2A PUSH14 0x64736F6C63430008140033000000 "},"methodIdentifiers":{"decodeComplexAndExtractTags()":"652ac576","decodeMapWithArrayUsingInspection()":"1abb8e2c","decodeNestedMapStepByStep()":"4ae99edc","decodeUnknownStructureWithSkip()":"74f57d40","encodeComplexNesting()":"c1b5ec00","encodeMapWithArray()":"4b5b7341","encodeNestedMap()":"4686a743"}}}}}