{"project/contracts/examples/GenericDecodingExample.sol":{"GenericDecodingExample":{"abi":[{"inputs":[{"internalType":"bytes","name":"data","type":"bytes"}],"name":"decodeHeterogeneousArray","outputs":[{"internalType":"uint256","name":"uintCount","type":"uint256"},{"internalType":"uint256","name":"stringCount","type":"uint256"},{"internalType":"uint256","name":"addressCount","type":"uint256"}],"stateMutability":"pure","type":"function"},{"inputs":[{"internalType":"bytes","name":"data","type":"bytes"}],"name":"decodeMapDynamic","outputs":[{"internalType":"uint256","name":"numericFieldCount","type":"uint256"},{"internalType":"uint256","name":"textFieldCount","type":"uint256"}],"stateMutability":"pure","type":"function"},{"inputs":[{"internalType":"bytes","name":"data","type":"bytes"}],"name":"extractAddresses","outputs":[{"internalType":"address[]","name":"","type":"address[]"}],"stateMutability":"pure","type":"function"},{"inputs":[{"internalType":"bytes","name":"data","type":"bytes"}],"name":"findFirstString","outputs":[{"internalType":"string","name":"result","type":"string"},{"internalType":"bool","name":"found","type":"bool"}],"stateMutability":"pure","type":"function"},{"inputs":[{"internalType":"bytes","name":"data","type":"bytes"}],"name":"processStream","outputs":[{"internalType":"uint256","name":"itemCount","type":"uint256"}],"stateMutability":"pure","type":"function"},{"inputs":[{"internalType":"bytes","name":"data","type":"bytes"}],"name":"validateStructure","outputs":[{"internalType":"bool","name":"valid","type":"bool"},{"internalType":"string","name":"errorMsg","type":"string"}],"stateMutability":"pure","type":"function"}],"evm":{"bytecode":{"linkReferences":{},"object":"608060405234801561000f575f80fd5b50611a068061001d5f395ff3fe608060405234801561000f575f80fd5b5060043610610060575f3560e01c8063113ddb5c14610064578063254cf1b01461008a578063865ded50146100ab5780638cf78654146100d3578063ebeb7fe8146100f4578063ef2c47b514610122575b5f80fd5b6100776100723660046117a1565b610142565b6040519081526020015b60405180910390f35b61009d6100983660046117a1565b610249565b60405161008192919061188f565b6100be6100b93660046117a1565b6102cc565b60408051928352602083019190915201610081565b6100e66100e13660046117a1565b6103aa565b6040516100819291906118b2565b6101076101023660046117a1565b6104f5565b60408051938452602084019290925290820152606001610081565b6101356101303660046117a1565b6105df565b60405161008191906118d4565b5f8061014d83610720565b90505f6101598261074b565b90505b808310801561017057508151516020830151105b15610242575f61017f836108b1565b9050600681600981111561019557610195611920565b036101d2575f6101a48461074b565b90505f5b818110156101cb576101b985610b8d565b806101c381611948565b9150506101a8565b505061022f565b60078160098111156101e6576101e6611920565b03610226575f6101f584611184565b90505f5b610204826002611960565b8110156101cb5761021485610b8d565b8061021e81611948565b9150506101f9565b61022f83610b8d565b8361023981611948565b9450505061015c565b5050919050565b60605f8061025684610720565b90505f6102628261074b565b90505f5b818110156102af57610279836005611249565b156102945761028783611296565b9660019650945050505050565b61029d83610b8d565b806102a781611948565b915050610266565b505f60405180602001604052805f81525090935093505050915091565b5f805f6102d884610720565b90505f6102e482611184565b90505f5b818110156103a2576102f983611296565b505f610304846108b1565b9050600281600981111561031a5761031a611920565b14806103375750600381600981111561033557610335611920565b145b15610357578561034681611948565b96505061035284610b8d565b61038f565b600581600981111561036b5761036b611920565b03610386578461037a81611948565b95505061035284610b8d565b61038f84610b8d565b508061039a81611948565b9150506102e8565b505050915091565b5f60605f6103b784610720565b90506103c4816007611249565b610400575f60405180604001604052806014815260200173115e1c1958dd1959081b585c08185d081c9bdbdd60621b8152509250925050915091565b5f61040a82611184565b90506002811015610457575f6040518060400160405280601f81526020017f4d6170206d7573742068617665206174206c656173742032206669656c647300815250935093505050915091565b5f5b818110156104d85761046c836005611249565b6104b3575f6040518060400160405280601881526020017f416c6c206b657973206d75737420626520737472696e6773000000000000000081525094509450505050915091565b6104bc83611296565b506104c683610b8d565b806104d081611948565b915050610459565b50600160405180602001604052805f815250935093505050915091565b5f805f8061050285610720565b90505f61050e8261074b565b90505f5b818110156105d5575f610524846108b1565b9050600281600981111561053a5761053a611920565b0361055b578661054981611948565b975050610555846114bb565b506105c2565b600581600981111561056f5761056f611920565b0361058a578561057e81611948565b96505061055584611296565b600881600981111561059e5761059e611920565b036105b957846105ad81611948565b955050610555846116a2565b6105c284610b8d565b50806105cd81611948565b915050610512565b5050509193909250565b60605f6105eb83610720565b90505f6105f78261074b565b60208301519091505f90815b8381101561064457610616856008611249565b15610629578261062581611948565b9350505b61063285610b8d565b8061063c81611948565b915050610603565b50602084018190525f8267ffffffffffffffff8111156106665761066661178d565b60405190808252806020026020018201604052801561068f578160200160208202803683370190505b5090505f805b85811015610713576106a8876008611249565b156106f8576106b6876116a2565b83836106c181611948565b9450815181106106d3576106d3611977565b60200260200101906001600160a01b031690816001600160a01b031681525050610701565b61070187610b8d565b8061070b81611948565b915050610695565b5090979650505050505050565b60408051808201909152606081525f602082015250604080518082019091529081525f602082015290565b5f806107568361172a565b60208401805191925061076882611948565b905250609060ff82161080159061078f57506107866090601061198b565b60ff168160ff16105b156107a95761079f6090826119a4565b60ff169392505050565b60d51960ff8216016107e8578251602084018051906107c782611948565b9052815181106107d9576107d9611977565b016020015160f81c9392505050565b60d61960ff82160161087857825160208401515f91906108099060016119bd565b8151811061081957610819611977565b602001015160f81c60f81b60f81c60ff166008855f015186602001518151811061084557610845611977565b602001015160f81c60f81b60f81c60ff16901b17905060028460200181815161086e91906119bd565b9052509392505050565b60405162461bcd60e51b81526020600482015260096024820152684e6f7420617272617960b81b60448201526064015b60405180910390fd5b5f815f0151518260200151106108ef5760405162461bcd60e51b815260206004820152600360248201526222a7a360e91b60448201526064016108a8565b5f825f015183602001518151811061090957610909611977565b016020015160f81c905060bf19810161092457505f92915050565b60ff811660c31480610939575060ff811660c2145b156109475750600192915050565b607f60ff821611158061095d575060ff811660c4145b8061096b575060ff811660c5145b80610979575060ff811660c6145b80610987575060ff811660c7145b80610995575060ff811660c8145b806109a3575060ff811660c9145b156109b15750600292915050565b60e060ff82161015806109c7575060ff811660ca145b806109d5575060ff811660cb145b806109e3575060ff811660cc145b806109f1575060ff811660cd145b806109ff575060ff811660ce145b80610a0d575060ff811660cf145b15610a1b5750600392915050565b60ff811660d01480610a30575060ff811660d1145b15610a3e5750600492915050565b60a060ff821610801590610a625750610a5960a0602061198b565b60ff168160ff16105b80610a70575060ff811660d2145b80610a7e575060ff811660d3145b15610a8c5750600592915050565b609060ff821610801590610ab05750610aa76090601061198b565b60ff168160ff16105b80610abe575060ff811660d6145b80610acc575060ff811660d7145b15610ada5750600692915050565b608060ff821610801590610afe5750610af56080601061198b565b60ff168160ff16105b80610b0c575060ff811660d8145b80610b1a575060ff811660d9145b15610b285750600792915050565b60d31960ff821601610b3d5750600892915050565b60d41960ff821601610b525750600992915050565b60405162461bcd60e51b815260206004820152601060248201526f556e6b6e6f776e20747970652074616760801b60448201526064016108a8565b5f610b978261172a565b602083018051919250610ba982611948565b905250607f60ff8216111580610bc3575060e060ff821610155b15610bcc575050565b60a060ff821610801590610bf05750610be760a0602061198b565b60ff168160ff16105b15610c1b57610c0060a0826119a4565b60ff1682602001818151610c1491906119bd565b9052505050565b609060ff821610801590610c3f5750610c366090601061198b565b60ff168160ff16105b15610c80575f610c506090836119a4565b60ff1690505f5b81811015610c7a57610c6884610b8d565b80610c7281611948565b915050610c57565b50505050565b608060ff821610801590610ca45750610c9b6080601061198b565b60ff168160ff16105b15610ce9575f610cb56080836119a4565b60ff1690505f5b610cc7826002611960565b811015610c7a57610cd784610b8d565b80610ce181611948565b915050610cbc565b60ff811660c01480610cfe575060ff811660c3145b80610d0c575060ff811660c2145b6111805760ff811660c41480610d25575060ff811660ca145b15610d3d57600182602001818151610c1491906119bd565b60ff811660c51480610d52575060ff811660cb145b15610d6a57600282602001818151610c1491906119bd565b60ff811660c61480610d7f575060ff811660cc145b15610d9757600482602001818151610c1491906119bd565b60ff811660c71480610dac575060ff811660cd145b15610dc457600882602001818151610c1491906119bd565b60ff811660c81480610dd9575060ff811660ce145b15610df157601082602001818151610c1491906119bd565b60ff811660c91480610e06575060ff811660cf145b80610e14575060ff811660d5145b15610e2c57602082602001818151610c1491906119bd565b60d31960ff821601610e4b57601482602001818151610c1491906119bd565b60ff811660d01480610e60575060ff811660d2145b15610eba5781516020830180515f9291610e7982611948565b905281518110610e8b57610e8b611977565b602001015160f81c60f81b60f81c60ff1690508083602001818151610eb091906119bd565b9052506111809050565b60ff811660d11480610ecf575060ff811660d3145b15610f4e57815160208301515f9190610ee99060016119bd565b81518110610ef957610ef9611977565b602001015160f81c60f81b60f81c60ff166008845f0151856020015181518110610f2557610f25611977565b016020015160f81c901b179050610f3d8160026119bd565b83602001818151610eb091906119bd565b60d51960ff821601610faf5781516020830180515f9291610f6e82611948565b905281518110610f8057610f80611977565b016020015160f81c90505f5b81811015610c7a57610f9d84610b8d565b80610fa781611948565b915050610f8c565b60d61960ff82160161105d57815160208301515f9190610fd09060016119bd565b81518110610fe057610fe0611977565b602001015160f81c60f81b60f81c60ff166008845f015185602001518151811061100c5761100c611977565b602001015160f81c60f81b60f81c60ff16901b17905060028360200181815161103591906119bd565b9052505f5b81811015610c7a5761104b84610b8d565b8061105581611948565b91505061103a565b60d71960ff8216016110c85781516020830180515f929161107d82611948565b90528151811061108f5761108f611977565b016020015160f81c90505f5b6110a6826002611960565b811015610c7a576110b684610b8d565b806110c081611948565b91505061109b565b60d81960ff821601610b5257815160208301515f91906110e99060016119bd565b815181106110f9576110f9611977565b602001015160f81c60f81b60f81c60ff166008845f015185602001518151811061112557611125611977565b602001015160f81c60f81b60f81c60ff16901b17905060028360200181815161114e91906119bd565b9052505f5b61115e826002611960565b811015610c7a5761116e84610b8d565b8061117881611948565b915050611153565b5050565b5f8061118f8361172a565b6020840180519192506111a182611948565b905250608060ff8216108015906111c857506111bf6080601061198b565b60ff168160ff16105b156111d85761079f6080826119a4565b60d71960ff8216016111f6578251602084018051906107c782611948565b60d81960ff82160161121757825160208401515f91906108099060016119bd565b60405162461bcd60e51b815260206004820152600760248201526604e6f74206d61760cc1b60448201526064016108a8565b5f825f01515183602001511061126057505f611290565b81600981111561127257611272611920565b61127b846108b1565b600981111561128c5761128c611920565b1490505b92915050565b60605f6112a28361172a565b6020840180519192506112b482611948565b9052505f60a060ff8316108015906112dc57506112d360a0602061198b565b60ff168260ff16105b156112f6576112ec60a0836119a4565b60ff1690506113f5565b60d11960ff8316016113355783516020850180519061131482611948565b90528151811061132657611326611977565b016020015160f81c90506113f5565b60d21960ff8316016113c057835160208501516113539060016119bd565b8151811061136357611363611977565b602001015160f81c60f81b60f81c60ff166008855f015186602001518151811061138f5761138f611977565b602001015160f81c60f81b60f81c60ff16901b1790506002846020018181516113b891906119bd565b9052506113f5565b60405162461bcd60e51b815260206004820152600a6024820152694e6f7420737472696e6760b01b60448201526064016108a8565b5f8167ffffffffffffffff81111561140f5761140f61178d565b6040519080825280601f01601f191660200182016040528015611439576020820181803683370190505b509050602085015160208651010160208201602084045f5b8181101561146d57602081028481015190840152600101611451565b50601f8516801561149a57602082028481015160016008840290811b5f1901610100919091031b16908401525b5050505081856020018181516114b091906119bd565b905250949350505050565b5f806114c68361172a565b6020840180519192506114d882611948565b905250607f60ff8216116114ef5760ff1692915050565b60c31960ff82160161150d578251602084018051906107c782611948565b60c41960ff82160161154a575f602084015160208551010160018101515f1a81515f1a60081b1791505060028460200181815161086e91906119bd565b60c51960ff82160161159d575f602084015160208551010160038101515f1a60028201515f1a60081b60018301515f1a60101b83515f1a60181b17171791505060048460200181815161086e91906119bd565b60c61960ff8216016115ee5760208381015184515f92910101815b60088110156115d957808201515f1a8360081b1792506001810190506115b8565b505060088460200181815161086e91906119bd565b60c71960ff82160161163f5760208381015184515f92910101815b601081101561162a57808201515f1a8360081b179250600181019050611609565b505060108460200181815161086e91906119bd565b60c81960ff82160161166757602083810180518551810183015192919061086e9083906119bd565b60405162461bcd60e51b815260206004820152601060248201526f496e76616c69642075696e742074616760801b60448201526064016108a8565b5f60d46116ae8361172a565b60ff16146116ec5760405162461bcd60e51b815260206004820152600b60248201526a4e6f74206164647265737360a81b60448201526064016108a8565b602082018051906116fc82611948565b90525060208281018051845181019092015160601c91601491906117219083906119bd565b90525092915050565b5f815f0151518260200151106117685760405162461bcd60e51b815260206004820152600360248201526222a7a360e91b60448201526064016108a8565b815160208301518151811061177f5761177f611977565b016020015160f81c92915050565b634e487b7160e01b5f52604160045260245ffd5b5f602082840312156117b1575f80fd5b813567ffffffffffffffff808211156117c8575f80fd5b818401915084601f8301126117db575f80fd5b8135818111156117ed576117ed61178d565b604051601f8201601f19908116603f011681019083821181831017156118155761181561178d565b8160405282815287602084870101111561182d575f80fd5b826020860160208301375f928101602001929092525095945050505050565b5f81518084525f5b8181101561187057602081850181015186830182015201611854565b505f602082860101526020601f19601f83011685010191505092915050565b604081525f6118a1604083018561184c565b905082151560208301529392505050565b8215158152604060208201525f6118cc604083018461184c565b949350505050565b602080825282518282018190525f9190848201906040850190845b818110156119145783516001600160a01b0316835292840192918401916001016118ef565b50909695505050505050565b634e487b7160e01b5f52602160045260245ffd5b634e487b7160e01b5f52601160045260245ffd5b5f6001820161195957611959611934565b5060010190565b808202811582820484141761129057611290611934565b634e487b7160e01b5f52603260045260245ffd5b60ff818116838216019081111561129057611290611934565b60ff828116828216039081111561129057611290611934565b808201808211156112905761129061193456fea26469706673582212206572a1674395ab5b4b40dad2b0dfb2c3a4ba356b049ed8de9763a74e40904b6e64736f6c63430008140033","opcodes":"PUSH1 0x80 PUSH1 0x40 MSTORE CALLVALUE DUP1 ISZERO PUSH2 0xF JUMPI PUSH0 DUP1 REVERT JUMPDEST POP PUSH2 0x1A06 DUP1 PUSH2 0x1D PUSH0 CODECOPY PUSH0 RETURN INVALID PUSH1 0x80 PUSH1 0x40 MSTORE CALLVALUE DUP1 ISZERO PUSH2 0xF JUMPI PUSH0 DUP1 REVERT JUMPDEST POP PUSH1 0x4 CALLDATASIZE LT PUSH2 0x60 JUMPI PUSH0 CALLDATALOAD PUSH1 0xE0 SHR DUP1 PUSH4 0x113DDB5C EQ PUSH2 0x64 JUMPI DUP1 PUSH4 0x254CF1B0 EQ PUSH2 0x8A JUMPI DUP1 PUSH4 0x865DED50 EQ PUSH2 0xAB JUMPI DUP1 PUSH4 0x8CF78654 EQ PUSH2 0xD3 JUMPI DUP1 PUSH4 0xEBEB7FE8 EQ PUSH2 0xF4 JUMPI DUP1 PUSH4 0xEF2C47B5 EQ PUSH2 0x122 JUMPI JUMPDEST PUSH0 DUP1 REVERT JUMPDEST PUSH2 0x77 PUSH2 0x72 CALLDATASIZE PUSH1 0x4 PUSH2 0x17A1 JUMP JUMPDEST PUSH2 0x142 JUMP JUMPDEST PUSH1 0x40 MLOAD SWAP1 DUP2 MSTORE PUSH1 0x20 ADD JUMPDEST PUSH1 0x40 MLOAD DUP1 SWAP2 SUB SWAP1 RETURN JUMPDEST PUSH2 0x9D PUSH2 0x98 CALLDATASIZE PUSH1 0x4 PUSH2 0x17A1 JUMP JUMPDEST PUSH2 0x249 JUMP JUMPDEST PUSH1 0x40 MLOAD PUSH2 0x81 SWAP3 SWAP2 SWAP1 PUSH2 0x188F JUMP JUMPDEST PUSH2 0xBE PUSH2 0xB9 CALLDATASIZE PUSH1 0x4 PUSH2 0x17A1 JUMP JUMPDEST PUSH2 0x2CC JUMP JUMPDEST PUSH1 0x40 DUP1 MLOAD SWAP3 DUP4 MSTORE PUSH1 0x20 DUP4 ADD SWAP2 SWAP1 SWAP2 MSTORE ADD PUSH2 0x81 JUMP JUMPDEST PUSH2 0xE6 PUSH2 0xE1 CALLDATASIZE PUSH1 0x4 PUSH2 0x17A1 JUMP JUMPDEST PUSH2 0x3AA JUMP JUMPDEST PUSH1 0x40 MLOAD PUSH2 0x81 SWAP3 SWAP2 SWAP1 PUSH2 0x18B2 JUMP JUMPDEST PUSH2 0x107 PUSH2 0x102 CALLDATASIZE PUSH1 0x4 PUSH2 0x17A1 JUMP JUMPDEST PUSH2 0x4F5 JUMP JUMPDEST PUSH1 0x40 DUP1 MLOAD SWAP4 DUP5 MSTORE PUSH1 0x20 DUP5 ADD SWAP3 SWAP1 SWAP3 MSTORE SWAP1 DUP3 ADD MSTORE PUSH1 0x60 ADD PUSH2 0x81 JUMP JUMPDEST PUSH2 0x135 PUSH2 0x130 CALLDATASIZE PUSH1 0x4 PUSH2 0x17A1 JUMP JUMPDEST PUSH2 0x5DF JUMP JUMPDEST PUSH1 0x40 MLOAD PUSH2 0x81 SWAP2 SWAP1 PUSH2 0x18D4 JUMP JUMPDEST PUSH0 DUP1 PUSH2 0x14D DUP4 PUSH2 0x720 JUMP JUMPDEST SWAP1 POP PUSH0 PUSH2 0x159 DUP3 PUSH2 0x74B JUMP JUMPDEST SWAP1 POP JUMPDEST DUP1 DUP4 LT DUP1 ISZERO PUSH2 0x170 JUMPI POP DUP2 MLOAD MLOAD PUSH1 0x20 DUP4 ADD MLOAD LT JUMPDEST ISZERO PUSH2 0x242 JUMPI PUSH0 PUSH2 0x17F DUP4 PUSH2 0x8B1 JUMP JUMPDEST SWAP1 POP PUSH1 0x6 DUP2 PUSH1 0x9 DUP2 GT ISZERO PUSH2 0x195 JUMPI PUSH2 0x195 PUSH2 0x1920 JUMP JUMPDEST SUB PUSH2 0x1D2 JUMPI PUSH0 PUSH2 0x1A4 DUP5 PUSH2 0x74B JUMP JUMPDEST SWAP1 POP PUSH0 JUMPDEST DUP2 DUP2 LT ISZERO PUSH2 0x1CB JUMPI PUSH2 0x1B9 DUP6 PUSH2 0xB8D JUMP JUMPDEST DUP1 PUSH2 0x1C3 DUP2 PUSH2 0x1948 JUMP JUMPDEST SWAP2 POP POP PUSH2 0x1A8 JUMP JUMPDEST POP POP PUSH2 0x22F JUMP JUMPDEST PUSH1 0x7 DUP2 PUSH1 0x9 DUP2 GT ISZERO PUSH2 0x1E6 JUMPI PUSH2 0x1E6 PUSH2 0x1920 JUMP JUMPDEST SUB PUSH2 0x226 JUMPI PUSH0 PUSH2 0x1F5 DUP5 PUSH2 0x1184 JUMP JUMPDEST SWAP1 POP PUSH0 JUMPDEST PUSH2 0x204 DUP3 PUSH1 0x2 PUSH2 0x1960 JUMP JUMPDEST DUP2 LT ISZERO PUSH2 0x1CB JUMPI PUSH2 0x214 DUP6 PUSH2 0xB8D JUMP JUMPDEST DUP1 PUSH2 0x21E DUP2 PUSH2 0x1948 JUMP JUMPDEST SWAP2 POP POP PUSH2 0x1F9 JUMP JUMPDEST PUSH2 0x22F DUP4 PUSH2 0xB8D JUMP JUMPDEST DUP4 PUSH2 0x239 DUP2 PUSH2 0x1948 JUMP JUMPDEST SWAP5 POP POP POP PUSH2 0x15C JUMP JUMPDEST POP POP SWAP2 SWAP1 POP JUMP JUMPDEST PUSH1 0x60 PUSH0 DUP1 PUSH2 0x256 DUP5 PUSH2 0x720 JUMP JUMPDEST SWAP1 POP PUSH0 PUSH2 0x262 DUP3 PUSH2 0x74B JUMP JUMPDEST SWAP1 POP PUSH0 JUMPDEST DUP2 DUP2 LT ISZERO PUSH2 0x2AF JUMPI PUSH2 0x279 DUP4 PUSH1 0x5 PUSH2 0x1249 JUMP JUMPDEST ISZERO PUSH2 0x294 JUMPI PUSH2 0x287 DUP4 PUSH2 0x1296 JUMP JUMPDEST SWAP7 PUSH1 0x1 SWAP7 POP SWAP5 POP POP POP POP POP JUMP JUMPDEST PUSH2 0x29D DUP4 PUSH2 0xB8D JUMP JUMPDEST DUP1 PUSH2 0x2A7 DUP2 PUSH2 0x1948 JUMP JUMPDEST SWAP2 POP POP PUSH2 0x266 JUMP JUMPDEST POP PUSH0 PUSH1 0x40 MLOAD DUP1 PUSH1 0x20 ADD PUSH1 0x40 MSTORE DUP1 PUSH0 DUP2 MSTORE POP SWAP1 SWAP4 POP SWAP4 POP POP POP SWAP2 POP SWAP2 JUMP JUMPDEST PUSH0 DUP1 PUSH0 PUSH2 0x2D8 DUP5 PUSH2 0x720 JUMP JUMPDEST SWAP1 POP PUSH0 PUSH2 0x2E4 DUP3 PUSH2 0x1184 JUMP JUMPDEST SWAP1 POP PUSH0 JUMPDEST DUP2 DUP2 LT ISZERO PUSH2 0x3A2 JUMPI PUSH2 0x2F9 DUP4 PUSH2 0x1296 JUMP JUMPDEST POP PUSH0 PUSH2 0x304 DUP5 PUSH2 0x8B1 JUMP JUMPDEST SWAP1 POP PUSH1 0x2 DUP2 PUSH1 0x9 DUP2 GT ISZERO PUSH2 0x31A JUMPI PUSH2 0x31A PUSH2 0x1920 JUMP JUMPDEST EQ DUP1 PUSH2 0x337 JUMPI POP PUSH1 0x3 DUP2 PUSH1 0x9 DUP2 GT ISZERO PUSH2 0x335 JUMPI PUSH2 0x335 PUSH2 0x1920 JUMP JUMPDEST EQ JUMPDEST ISZERO PUSH2 0x357 JUMPI DUP6 PUSH2 0x346 DUP2 PUSH2 0x1948 JUMP JUMPDEST SWAP7 POP POP PUSH2 0x352 DUP5 PUSH2 0xB8D JUMP JUMPDEST PUSH2 0x38F JUMP JUMPDEST PUSH1 0x5 DUP2 PUSH1 0x9 DUP2 GT ISZERO PUSH2 0x36B JUMPI PUSH2 0x36B PUSH2 0x1920 JUMP JUMPDEST SUB PUSH2 0x386 JUMPI DUP5 PUSH2 0x37A DUP2 PUSH2 0x1948 JUMP JUMPDEST SWAP6 POP POP PUSH2 0x352 DUP5 PUSH2 0xB8D JUMP JUMPDEST PUSH2 0x38F DUP5 PUSH2 0xB8D JUMP JUMPDEST POP DUP1 PUSH2 0x39A DUP2 PUSH2 0x1948 JUMP JUMPDEST SWAP2 POP POP PUSH2 0x2E8 JUMP JUMPDEST POP POP POP SWAP2 POP SWAP2 JUMP JUMPDEST PUSH0 PUSH1 0x60 PUSH0 PUSH2 0x3B7 DUP5 PUSH2 0x720 JUMP JUMPDEST SWAP1 POP PUSH2 0x3C4 DUP2 PUSH1 0x7 PUSH2 0x1249 JUMP JUMPDEST PUSH2 0x400 JUMPI PUSH0 PUSH1 0x40 MLOAD DUP1 PUSH1 0x40 ADD PUSH1 0x40 MSTORE DUP1 PUSH1 0x14 DUP2 MSTORE PUSH1 0x20 ADD PUSH20 0x115E1C1958DD1959081B585C08185D081C9BDBDD PUSH1 0x62 SHL DUP2 MSTORE POP SWAP3 POP SWAP3 POP POP SWAP2 POP SWAP2 JUMP JUMPDEST PUSH0 PUSH2 0x40A DUP3 PUSH2 0x1184 JUMP JUMPDEST SWAP1 POP PUSH1 0x2 DUP2 LT ISZERO PUSH2 0x457 JUMPI PUSH0 PUSH1 0x40 MLOAD DUP1 PUSH1 0x40 ADD PUSH1 0x40 MSTORE DUP1 PUSH1 0x1F DUP2 MSTORE PUSH1 0x20 ADD PUSH32 0x4D6170206D7573742068617665206174206C656173742032206669656C647300 DUP2 MSTORE POP SWAP4 POP SWAP4 POP POP POP SWAP2 POP SWAP2 JUMP JUMPDEST PUSH0 JUMPDEST DUP2 DUP2 LT ISZERO PUSH2 0x4D8 JUMPI PUSH2 0x46C DUP4 PUSH1 0x5 PUSH2 0x1249 JUMP JUMPDEST PUSH2 0x4B3 JUMPI PUSH0 PUSH1 0x40 MLOAD DUP1 PUSH1 0x40 ADD PUSH1 0x40 MSTORE DUP1 PUSH1 0x18 DUP2 MSTORE PUSH1 0x20 ADD PUSH32 0x416C6C206B657973206D75737420626520737472696E67730000000000000000 DUP2 MSTORE POP SWAP5 POP SWAP5 POP POP POP POP SWAP2 POP SWAP2 JUMP JUMPDEST PUSH2 0x4BC DUP4 PUSH2 0x1296 JUMP JUMPDEST POP PUSH2 0x4C6 DUP4 PUSH2 0xB8D JUMP JUMPDEST DUP1 PUSH2 0x4D0 DUP2 PUSH2 0x1948 JUMP JUMPDEST SWAP2 POP POP PUSH2 0x459 JUMP JUMPDEST POP PUSH1 0x1 PUSH1 0x40 MLOAD DUP1 PUSH1 0x20 ADD PUSH1 0x40 MSTORE DUP1 PUSH0 DUP2 MSTORE POP SWAP4 POP SWAP4 POP POP POP SWAP2 POP SWAP2 JUMP JUMPDEST PUSH0 DUP1 PUSH0 DUP1 PUSH2 0x502 DUP6 PUSH2 0x720 JUMP JUMPDEST SWAP1 POP PUSH0 PUSH2 0x50E DUP3 PUSH2 0x74B JUMP JUMPDEST SWAP1 POP PUSH0 JUMPDEST DUP2 DUP2 LT ISZERO PUSH2 0x5D5 JUMPI PUSH0 PUSH2 0x524 DUP5 PUSH2 0x8B1 JUMP JUMPDEST SWAP1 POP PUSH1 0x2 DUP2 PUSH1 0x9 DUP2 GT ISZERO PUSH2 0x53A JUMPI PUSH2 0x53A PUSH2 0x1920 JUMP JUMPDEST SUB PUSH2 0x55B JUMPI DUP7 PUSH2 0x549 DUP2 PUSH2 0x1948 JUMP JUMPDEST SWAP8 POP POP PUSH2 0x555 DUP5 PUSH2 0x14BB JUMP JUMPDEST POP PUSH2 0x5C2 JUMP JUMPDEST PUSH1 0x5 DUP2 PUSH1 0x9 DUP2 GT ISZERO PUSH2 0x56F JUMPI PUSH2 0x56F PUSH2 0x1920 JUMP JUMPDEST SUB PUSH2 0x58A JUMPI DUP6 PUSH2 0x57E DUP2 PUSH2 0x1948 JUMP JUMPDEST SWAP7 POP POP PUSH2 0x555 DUP5 PUSH2 0x1296 JUMP JUMPDEST PUSH1 0x8 DUP2 PUSH1 0x9 DUP2 GT ISZERO PUSH2 0x59E JUMPI PUSH2 0x59E PUSH2 0x1920 JUMP JUMPDEST SUB PUSH2 0x5B9 JUMPI DUP5 PUSH2 0x5AD DUP2 PUSH2 0x1948 JUMP JUMPDEST SWAP6 POP POP PUSH2 0x555 DUP5 PUSH2 0x16A2 JUMP JUMPDEST PUSH2 0x5C2 DUP5 PUSH2 0xB8D JUMP JUMPDEST POP DUP1 PUSH2 0x5CD DUP2 PUSH2 0x1948 JUMP JUMPDEST SWAP2 POP POP PUSH2 0x512 JUMP JUMPDEST POP POP POP SWAP2 SWAP4 SWAP1 SWAP3 POP JUMP JUMPDEST PUSH1 0x60 PUSH0 PUSH2 0x5EB DUP4 PUSH2 0x720 JUMP JUMPDEST SWAP1 POP PUSH0 PUSH2 0x5F7 DUP3 PUSH2 0x74B JUMP JUMPDEST PUSH1 0x20 DUP4 ADD MLOAD SWAP1 SWAP2 POP PUSH0 SWAP1 DUP2 JUMPDEST DUP4 DUP2 LT ISZERO PUSH2 0x644 JUMPI PUSH2 0x616 DUP6 PUSH1 0x8 PUSH2 0x1249 JUMP JUMPDEST ISZERO PUSH2 0x629 JUMPI DUP3 PUSH2 0x625 DUP2 PUSH2 0x1948 JUMP JUMPDEST SWAP4 POP POP JUMPDEST PUSH2 0x632 DUP6 PUSH2 0xB8D JUMP JUMPDEST DUP1 PUSH2 0x63C DUP2 PUSH2 0x1948 JUMP JUMPDEST SWAP2 POP POP PUSH2 0x603 JUMP JUMPDEST POP PUSH1 0x20 DUP5 ADD DUP2 SWAP1 MSTORE PUSH0 DUP3 PUSH8 0xFFFFFFFFFFFFFFFF DUP2 GT ISZERO PUSH2 0x666 JUMPI PUSH2 0x666 PUSH2 0x178D JUMP JUMPDEST PUSH1 0x40 MLOAD SWAP1 DUP1 DUP3 MSTORE DUP1 PUSH1 0x20 MUL PUSH1 0x20 ADD DUP3 ADD PUSH1 0x40 MSTORE DUP1 ISZERO PUSH2 0x68F JUMPI DUP2 PUSH1 0x20 ADD PUSH1 0x20 DUP3 MUL DUP1 CALLDATASIZE DUP4 CALLDATACOPY ADD SWAP1 POP JUMPDEST POP SWAP1 POP PUSH0 DUP1 JUMPDEST DUP6 DUP2 LT ISZERO PUSH2 0x713 JUMPI PUSH2 0x6A8 DUP8 PUSH1 0x8 PUSH2 0x1249 JUMP JUMPDEST ISZERO PUSH2 0x6F8 JUMPI PUSH2 0x6B6 DUP8 PUSH2 0x16A2 JUMP JUMPDEST DUP4 DUP4 PUSH2 0x6C1 DUP2 PUSH2 0x1948 JUMP JUMPDEST SWAP5 POP DUP2 MLOAD DUP2 LT PUSH2 0x6D3 JUMPI PUSH2 0x6D3 PUSH2 0x1977 JUMP JUMPDEST PUSH1 0x20 MUL PUSH1 0x20 ADD ADD SWAP1 PUSH1 0x1 PUSH1 0x1 PUSH1 0xA0 SHL SUB AND SWAP1 DUP2 PUSH1 0x1 PUSH1 0x1 PUSH1 0xA0 SHL SUB AND DUP2 MSTORE POP POP PUSH2 0x701 JUMP JUMPDEST PUSH2 0x701 DUP8 PUSH2 0xB8D JUMP JUMPDEST DUP1 PUSH2 0x70B DUP2 PUSH2 0x1948 JUMP JUMPDEST SWAP2 POP POP PUSH2 0x695 JUMP JUMPDEST POP SWAP1 SWAP8 SWAP7 POP POP POP POP POP POP POP JUMP JUMPDEST PUSH1 0x40 DUP1 MLOAD DUP1 DUP3 ADD SWAP1 SWAP2 MSTORE PUSH1 0x60 DUP2 MSTORE PUSH0 PUSH1 0x20 DUP3 ADD MSTORE POP PUSH1 0x40 DUP1 MLOAD DUP1 DUP3 ADD SWAP1 SWAP2 MSTORE SWAP1 DUP2 MSTORE PUSH0 PUSH1 0x20 DUP3 ADD MSTORE SWAP1 JUMP JUMPDEST PUSH0 DUP1 PUSH2 0x756 DUP4 PUSH2 0x172A JUMP JUMPDEST PUSH1 0x20 DUP5 ADD DUP1 MLOAD SWAP2 SWAP3 POP PUSH2 0x768 DUP3 PUSH2 0x1948 JUMP JUMPDEST SWAP1 MSTORE POP PUSH1 0x90 PUSH1 0xFF DUP3 AND LT DUP1 ISZERO SWAP1 PUSH2 0x78F JUMPI POP PUSH2 0x786 PUSH1 0x90 PUSH1 0x10 PUSH2 0x198B JUMP JUMPDEST PUSH1 0xFF AND DUP2 PUSH1 0xFF AND LT JUMPDEST ISZERO PUSH2 0x7A9 JUMPI PUSH2 0x79F PUSH1 0x90 DUP3 PUSH2 0x19A4 JUMP JUMPDEST PUSH1 0xFF AND SWAP4 SWAP3 POP POP POP JUMP JUMPDEST PUSH1 0xD5 NOT PUSH1 0xFF DUP3 AND ADD PUSH2 0x7E8 JUMPI DUP3 MLOAD PUSH1 0x20 DUP5 ADD DUP1 MLOAD SWAP1 PUSH2 0x7C7 DUP3 PUSH2 0x1948 JUMP JUMPDEST SWAP1 MSTORE DUP2 MLOAD DUP2 LT PUSH2 0x7D9 JUMPI PUSH2 0x7D9 PUSH2 0x1977 JUMP JUMPDEST ADD PUSH1 0x20 ADD MLOAD PUSH1 0xF8 SHR SWAP4 SWAP3 POP POP POP JUMP JUMPDEST PUSH1 0xD6 NOT PUSH1 0xFF DUP3 AND ADD PUSH2 0x878 JUMPI DUP3 MLOAD PUSH1 0x20 DUP5 ADD MLOAD PUSH0 SWAP2 SWAP1 PUSH2 0x809 SWAP1 PUSH1 0x1 PUSH2 0x19BD JUMP JUMPDEST DUP2 MLOAD DUP2 LT PUSH2 0x819 JUMPI PUSH2 0x819 PUSH2 0x1977 JUMP JUMPDEST PUSH1 0x20 ADD ADD MLOAD PUSH1 0xF8 SHR PUSH1 0xF8 SHL PUSH1 0xF8 SHR PUSH1 0xFF AND PUSH1 0x8 DUP6 PUSH0 ADD MLOAD DUP7 PUSH1 0x20 ADD MLOAD DUP2 MLOAD DUP2 LT PUSH2 0x845 JUMPI PUSH2 0x845 PUSH2 0x1977 JUMP JUMPDEST PUSH1 0x20 ADD ADD MLOAD PUSH1 0xF8 SHR PUSH1 0xF8 SHL PUSH1 0xF8 SHR PUSH1 0xFF AND SWAP1 SHL OR SWAP1 POP PUSH1 0x2 DUP5 PUSH1 0x20 ADD DUP2 DUP2 MLOAD PUSH2 0x86E SWAP2 SWAP1 PUSH2 0x19BD JUMP JUMPDEST SWAP1 MSTORE POP SWAP4 SWAP3 POP POP POP JUMP JUMPDEST PUSH1 0x40 MLOAD PUSH3 0x461BCD PUSH1 0xE5 SHL DUP2 MSTORE PUSH1 0x20 PUSH1 0x4 DUP3 ADD MSTORE PUSH1 0x9 PUSH1 0x24 DUP3 ADD MSTORE PUSH9 0x4E6F74206172726179 PUSH1 0xB8 SHL PUSH1 0x44 DUP3 ADD MSTORE PUSH1 0x64 ADD JUMPDEST PUSH1 0x40 MLOAD DUP1 SWAP2 SUB SWAP1 REVERT JUMPDEST PUSH0 DUP2 PUSH0 ADD MLOAD MLOAD DUP3 PUSH1 0x20 ADD MLOAD LT PUSH2 0x8EF JUMPI PUSH1 0x40 MLOAD PUSH3 0x461BCD PUSH1 0xE5 SHL DUP2 MSTORE PUSH1 0x20 PUSH1 0x4 DUP3 ADD MSTORE PUSH1 0x3 PUSH1 0x24 DUP3 ADD MSTORE PUSH3 0x22A7A3 PUSH1 0xE9 SHL PUSH1 0x44 DUP3 ADD MSTORE PUSH1 0x64 ADD PUSH2 0x8A8 JUMP JUMPDEST PUSH0 DUP3 PUSH0 ADD MLOAD DUP4 PUSH1 0x20 ADD MLOAD DUP2 MLOAD DUP2 LT PUSH2 0x909 JUMPI PUSH2 0x909 PUSH2 0x1977 JUMP JUMPDEST ADD PUSH1 0x20 ADD MLOAD PUSH1 0xF8 SHR SWAP1 POP PUSH1 0xBF NOT DUP2 ADD PUSH2 0x924 JUMPI POP PUSH0 SWAP3 SWAP2 POP POP JUMP JUMPDEST PUSH1 0xFF DUP2 AND PUSH1 0xC3 EQ DUP1 PUSH2 0x939 JUMPI POP PUSH1 0xFF DUP2 AND PUSH1 0xC2 EQ JUMPDEST ISZERO PUSH2 0x947 JUMPI POP PUSH1 0x1 SWAP3 SWAP2 POP POP JUMP JUMPDEST PUSH1 0x7F PUSH1 0xFF DUP3 AND GT ISZERO DUP1 PUSH2 0x95D JUMPI POP PUSH1 0xFF DUP2 AND PUSH1 0xC4 EQ JUMPDEST DUP1 PUSH2 0x96B JUMPI POP PUSH1 0xFF DUP2 AND PUSH1 0xC5 EQ JUMPDEST DUP1 PUSH2 0x979 JUMPI POP PUSH1 0xFF DUP2 AND PUSH1 0xC6 EQ JUMPDEST DUP1 PUSH2 0x987 JUMPI POP PUSH1 0xFF DUP2 AND PUSH1 0xC7 EQ JUMPDEST DUP1 PUSH2 0x995 JUMPI POP PUSH1 0xFF DUP2 AND PUSH1 0xC8 EQ JUMPDEST DUP1 PUSH2 0x9A3 JUMPI POP PUSH1 0xFF DUP2 AND PUSH1 0xC9 EQ JUMPDEST ISZERO PUSH2 0x9B1 JUMPI POP PUSH1 0x2 SWAP3 SWAP2 POP POP JUMP JUMPDEST PUSH1 0xE0 PUSH1 0xFF DUP3 AND LT ISZERO DUP1 PUSH2 0x9C7 JUMPI POP PUSH1 0xFF DUP2 AND PUSH1 0xCA EQ JUMPDEST DUP1 PUSH2 0x9D5 JUMPI POP PUSH1 0xFF DUP2 AND PUSH1 0xCB EQ JUMPDEST DUP1 PUSH2 0x9E3 JUMPI POP PUSH1 0xFF DUP2 AND PUSH1 0xCC EQ JUMPDEST DUP1 PUSH2 0x9F1 JUMPI POP PUSH1 0xFF DUP2 AND PUSH1 0xCD EQ JUMPDEST DUP1 PUSH2 0x9FF JUMPI POP PUSH1 0xFF DUP2 AND PUSH1 0xCE EQ JUMPDEST DUP1 PUSH2 0xA0D JUMPI POP PUSH1 0xFF DUP2 AND PUSH1 0xCF EQ JUMPDEST ISZERO PUSH2 0xA1B JUMPI POP PUSH1 0x3 SWAP3 SWAP2 POP POP JUMP JUMPDEST PUSH1 0xFF DUP2 AND PUSH1 0xD0 EQ DUP1 PUSH2 0xA30 JUMPI POP PUSH1 0xFF DUP2 AND PUSH1 0xD1 EQ JUMPDEST ISZERO PUSH2 0xA3E JUMPI POP PUSH1 0x4 SWAP3 SWAP2 POP POP JUMP JUMPDEST PUSH1 0xA0 PUSH1 0xFF DUP3 AND LT DUP1 ISZERO SWAP1 PUSH2 0xA62 JUMPI POP PUSH2 0xA59 PUSH1 0xA0 PUSH1 0x20 PUSH2 0x198B JUMP JUMPDEST PUSH1 0xFF AND DUP2 PUSH1 0xFF AND LT JUMPDEST DUP1 PUSH2 0xA70 JUMPI POP PUSH1 0xFF DUP2 AND PUSH1 0xD2 EQ JUMPDEST DUP1 PUSH2 0xA7E JUMPI POP PUSH1 0xFF DUP2 AND PUSH1 0xD3 EQ JUMPDEST ISZERO PUSH2 0xA8C JUMPI POP PUSH1 0x5 SWAP3 SWAP2 POP POP JUMP JUMPDEST PUSH1 0x90 PUSH1 0xFF DUP3 AND LT DUP1 ISZERO SWAP1 PUSH2 0xAB0 JUMPI POP PUSH2 0xAA7 PUSH1 0x90 PUSH1 0x10 PUSH2 0x198B JUMP JUMPDEST PUSH1 0xFF AND DUP2 PUSH1 0xFF AND LT JUMPDEST DUP1 PUSH2 0xABE JUMPI POP PUSH1 0xFF DUP2 AND PUSH1 0xD6 EQ JUMPDEST DUP1 PUSH2 0xACC JUMPI POP PUSH1 0xFF DUP2 AND PUSH1 0xD7 EQ JUMPDEST ISZERO PUSH2 0xADA JUMPI POP PUSH1 0x6 SWAP3 SWAP2 POP POP JUMP JUMPDEST PUSH1 0x80 PUSH1 0xFF DUP3 AND LT DUP1 ISZERO SWAP1 PUSH2 0xAFE JUMPI POP PUSH2 0xAF5 PUSH1 0x80 PUSH1 0x10 PUSH2 0x198B JUMP JUMPDEST PUSH1 0xFF AND DUP2 PUSH1 0xFF AND LT JUMPDEST DUP1 PUSH2 0xB0C JUMPI POP PUSH1 0xFF DUP2 AND PUSH1 0xD8 EQ JUMPDEST DUP1 PUSH2 0xB1A JUMPI POP PUSH1 0xFF DUP2 AND PUSH1 0xD9 EQ JUMPDEST ISZERO PUSH2 0xB28 JUMPI POP PUSH1 0x7 SWAP3 SWAP2 POP POP JUMP JUMPDEST PUSH1 0xD3 NOT PUSH1 0xFF DUP3 AND ADD PUSH2 0xB3D JUMPI POP PUSH1 0x8 SWAP3 SWAP2 POP POP JUMP JUMPDEST PUSH1 0xD4 NOT PUSH1 0xFF DUP3 AND ADD PUSH2 0xB52 JUMPI POP PUSH1 0x9 SWAP3 SWAP2 POP POP JUMP JUMPDEST PUSH1 0x40 MLOAD PUSH3 0x461BCD PUSH1 0xE5 SHL DUP2 MSTORE PUSH1 0x20 PUSH1 0x4 DUP3 ADD MSTORE PUSH1 0x10 PUSH1 0x24 DUP3 ADD MSTORE PUSH16 0x556E6B6E6F776E207479706520746167 PUSH1 0x80 SHL PUSH1 0x44 DUP3 ADD MSTORE PUSH1 0x64 ADD PUSH2 0x8A8 JUMP JUMPDEST PUSH0 PUSH2 0xB97 DUP3 PUSH2 0x172A JUMP JUMPDEST PUSH1 0x20 DUP4 ADD DUP1 MLOAD SWAP2 SWAP3 POP PUSH2 0xBA9 DUP3 PUSH2 0x1948 JUMP JUMPDEST SWAP1 MSTORE POP PUSH1 0x7F PUSH1 0xFF DUP3 AND GT ISZERO DUP1 PUSH2 0xBC3 JUMPI POP PUSH1 0xE0 PUSH1 0xFF DUP3 AND LT ISZERO JUMPDEST ISZERO PUSH2 0xBCC JUMPI POP POP JUMP JUMPDEST PUSH1 0xA0 PUSH1 0xFF DUP3 AND LT DUP1 ISZERO SWAP1 PUSH2 0xBF0 JUMPI POP PUSH2 0xBE7 PUSH1 0xA0 PUSH1 0x20 PUSH2 0x198B JUMP JUMPDEST PUSH1 0xFF AND DUP2 PUSH1 0xFF AND LT JUMPDEST ISZERO PUSH2 0xC1B JUMPI PUSH2 0xC00 PUSH1 0xA0 DUP3 PUSH2 0x19A4 JUMP JUMPDEST PUSH1 0xFF AND DUP3 PUSH1 0x20 ADD DUP2 DUP2 MLOAD PUSH2 0xC14 SWAP2 SWAP1 PUSH2 0x19BD JUMP JUMPDEST SWAP1 MSTORE POP POP POP JUMP JUMPDEST PUSH1 0x90 PUSH1 0xFF DUP3 AND LT DUP1 ISZERO SWAP1 PUSH2 0xC3F JUMPI POP PUSH2 0xC36 PUSH1 0x90 PUSH1 0x10 PUSH2 0x198B JUMP JUMPDEST PUSH1 0xFF AND DUP2 PUSH1 0xFF AND LT JUMPDEST ISZERO PUSH2 0xC80 JUMPI PUSH0 PUSH2 0xC50 PUSH1 0x90 DUP4 PUSH2 0x19A4 JUMP JUMPDEST PUSH1 0xFF AND SWAP1 POP PUSH0 JUMPDEST DUP2 DUP2 LT ISZERO PUSH2 0xC7A JUMPI PUSH2 0xC68 DUP5 PUSH2 0xB8D JUMP JUMPDEST DUP1 PUSH2 0xC72 DUP2 PUSH2 0x1948 JUMP JUMPDEST SWAP2 POP POP PUSH2 0xC57 JUMP JUMPDEST POP POP POP POP JUMP JUMPDEST PUSH1 0x80 PUSH1 0xFF DUP3 AND LT DUP1 ISZERO SWAP1 PUSH2 0xCA4 JUMPI POP PUSH2 0xC9B PUSH1 0x80 PUSH1 0x10 PUSH2 0x198B JUMP JUMPDEST PUSH1 0xFF AND DUP2 PUSH1 0xFF AND LT JUMPDEST ISZERO PUSH2 0xCE9 JUMPI PUSH0 PUSH2 0xCB5 PUSH1 0x80 DUP4 PUSH2 0x19A4 JUMP JUMPDEST PUSH1 0xFF AND SWAP1 POP PUSH0 JUMPDEST PUSH2 0xCC7 DUP3 PUSH1 0x2 PUSH2 0x1960 JUMP JUMPDEST DUP2 LT ISZERO PUSH2 0xC7A JUMPI PUSH2 0xCD7 DUP5 PUSH2 0xB8D JUMP JUMPDEST DUP1 PUSH2 0xCE1 DUP2 PUSH2 0x1948 JUMP JUMPDEST SWAP2 POP POP PUSH2 0xCBC JUMP JUMPDEST PUSH1 0xFF DUP2 AND PUSH1 0xC0 EQ DUP1 PUSH2 0xCFE JUMPI POP PUSH1 0xFF DUP2 AND PUSH1 0xC3 EQ JUMPDEST DUP1 PUSH2 0xD0C JUMPI POP PUSH1 0xFF DUP2 AND PUSH1 0xC2 EQ JUMPDEST PUSH2 0x1180 JUMPI PUSH1 0xFF DUP2 AND PUSH1 0xC4 EQ DUP1 PUSH2 0xD25 JUMPI POP PUSH1 0xFF DUP2 AND PUSH1 0xCA EQ JUMPDEST ISZERO PUSH2 0xD3D JUMPI PUSH1 0x1 DUP3 PUSH1 0x20 ADD DUP2 DUP2 MLOAD PUSH2 0xC14 SWAP2 SWAP1 PUSH2 0x19BD JUMP JUMPDEST PUSH1 0xFF DUP2 AND PUSH1 0xC5 EQ DUP1 PUSH2 0xD52 JUMPI POP PUSH1 0xFF DUP2 AND PUSH1 0xCB EQ JUMPDEST ISZERO PUSH2 0xD6A JUMPI PUSH1 0x2 DUP3 PUSH1 0x20 ADD DUP2 DUP2 MLOAD PUSH2 0xC14 SWAP2 SWAP1 PUSH2 0x19BD JUMP JUMPDEST PUSH1 0xFF DUP2 AND PUSH1 0xC6 EQ DUP1 PUSH2 0xD7F JUMPI POP PUSH1 0xFF DUP2 AND PUSH1 0xCC EQ JUMPDEST ISZERO PUSH2 0xD97 JUMPI PUSH1 0x4 DUP3 PUSH1 0x20 ADD DUP2 DUP2 MLOAD PUSH2 0xC14 SWAP2 SWAP1 PUSH2 0x19BD JUMP JUMPDEST PUSH1 0xFF DUP2 AND PUSH1 0xC7 EQ DUP1 PUSH2 0xDAC JUMPI POP PUSH1 0xFF DUP2 AND PUSH1 0xCD EQ JUMPDEST ISZERO PUSH2 0xDC4 JUMPI PUSH1 0x8 DUP3 PUSH1 0x20 ADD DUP2 DUP2 MLOAD PUSH2 0xC14 SWAP2 SWAP1 PUSH2 0x19BD JUMP JUMPDEST PUSH1 0xFF DUP2 AND PUSH1 0xC8 EQ DUP1 PUSH2 0xDD9 JUMPI POP PUSH1 0xFF DUP2 AND PUSH1 0xCE EQ JUMPDEST ISZERO PUSH2 0xDF1 JUMPI PUSH1 0x10 DUP3 PUSH1 0x20 ADD DUP2 DUP2 MLOAD PUSH2 0xC14 SWAP2 SWAP1 PUSH2 0x19BD JUMP JUMPDEST PUSH1 0xFF DUP2 AND PUSH1 0xC9 EQ DUP1 PUSH2 0xE06 JUMPI POP PUSH1 0xFF DUP2 AND PUSH1 0xCF EQ JUMPDEST DUP1 PUSH2 0xE14 JUMPI POP PUSH1 0xFF DUP2 AND PUSH1 0xD5 EQ JUMPDEST ISZERO PUSH2 0xE2C JUMPI PUSH1 0x20 DUP3 PUSH1 0x20 ADD DUP2 DUP2 MLOAD PUSH2 0xC14 SWAP2 SWAP1 PUSH2 0x19BD JUMP JUMPDEST PUSH1 0xD3 NOT PUSH1 0xFF DUP3 AND ADD PUSH2 0xE4B JUMPI PUSH1 0x14 DUP3 PUSH1 0x20 ADD DUP2 DUP2 MLOAD PUSH2 0xC14 SWAP2 SWAP1 PUSH2 0x19BD JUMP JUMPDEST PUSH1 0xFF DUP2 AND PUSH1 0xD0 EQ DUP1 PUSH2 0xE60 JUMPI POP PUSH1 0xFF DUP2 AND PUSH1 0xD2 EQ JUMPDEST ISZERO PUSH2 0xEBA JUMPI DUP2 MLOAD PUSH1 0x20 DUP4 ADD DUP1 MLOAD PUSH0 SWAP3 SWAP2 PUSH2 0xE79 DUP3 PUSH2 0x1948 JUMP JUMPDEST SWAP1 MSTORE DUP2 MLOAD DUP2 LT PUSH2 0xE8B JUMPI PUSH2 0xE8B PUSH2 0x1977 JUMP JUMPDEST PUSH1 0x20 ADD ADD MLOAD PUSH1 0xF8 SHR PUSH1 0xF8 SHL PUSH1 0xF8 SHR PUSH1 0xFF AND SWAP1 POP DUP1 DUP4 PUSH1 0x20 ADD DUP2 DUP2 MLOAD PUSH2 0xEB0 SWAP2 SWAP1 PUSH2 0x19BD JUMP JUMPDEST SWAP1 MSTORE POP PUSH2 0x1180 SWAP1 POP JUMP JUMPDEST PUSH1 0xFF DUP2 AND PUSH1 0xD1 EQ DUP1 PUSH2 0xECF JUMPI POP PUSH1 0xFF DUP2 AND PUSH1 0xD3 EQ JUMPDEST ISZERO PUSH2 0xF4E JUMPI DUP2 MLOAD PUSH1 0x20 DUP4 ADD MLOAD PUSH0 SWAP2 SWAP1 PUSH2 0xEE9 SWAP1 PUSH1 0x1 PUSH2 0x19BD JUMP JUMPDEST DUP2 MLOAD DUP2 LT PUSH2 0xEF9 JUMPI PUSH2 0xEF9 PUSH2 0x1977 JUMP JUMPDEST PUSH1 0x20 ADD ADD MLOAD PUSH1 0xF8 SHR PUSH1 0xF8 SHL PUSH1 0xF8 SHR PUSH1 0xFF AND PUSH1 0x8 DUP5 PUSH0 ADD MLOAD DUP6 PUSH1 0x20 ADD MLOAD DUP2 MLOAD DUP2 LT PUSH2 0xF25 JUMPI PUSH2 0xF25 PUSH2 0x1977 JUMP JUMPDEST ADD PUSH1 0x20 ADD MLOAD PUSH1 0xF8 SHR SWAP1 SHL OR SWAP1 POP PUSH2 0xF3D DUP2 PUSH1 0x2 PUSH2 0x19BD JUMP JUMPDEST DUP4 PUSH1 0x20 ADD DUP2 DUP2 MLOAD PUSH2 0xEB0 SWAP2 SWAP1 PUSH2 0x19BD JUMP JUMPDEST PUSH1 0xD5 NOT PUSH1 0xFF DUP3 AND ADD PUSH2 0xFAF JUMPI DUP2 MLOAD PUSH1 0x20 DUP4 ADD DUP1 MLOAD PUSH0 SWAP3 SWAP2 PUSH2 0xF6E DUP3 PUSH2 0x1948 JUMP JUMPDEST SWAP1 MSTORE DUP2 MLOAD DUP2 LT PUSH2 0xF80 JUMPI PUSH2 0xF80 PUSH2 0x1977 JUMP JUMPDEST ADD PUSH1 0x20 ADD MLOAD PUSH1 0xF8 SHR SWAP1 POP PUSH0 JUMPDEST DUP2 DUP2 LT ISZERO PUSH2 0xC7A JUMPI PUSH2 0xF9D DUP5 PUSH2 0xB8D JUMP JUMPDEST DUP1 PUSH2 0xFA7 DUP2 PUSH2 0x1948 JUMP JUMPDEST SWAP2 POP POP PUSH2 0xF8C JUMP JUMPDEST PUSH1 0xD6 NOT PUSH1 0xFF DUP3 AND ADD PUSH2 0x105D JUMPI DUP2 MLOAD PUSH1 0x20 DUP4 ADD MLOAD PUSH0 SWAP2 SWAP1 PUSH2 0xFD0 SWAP1 PUSH1 0x1 PUSH2 0x19BD JUMP JUMPDEST DUP2 MLOAD DUP2 LT PUSH2 0xFE0 JUMPI PUSH2 0xFE0 PUSH2 0x1977 JUMP JUMPDEST PUSH1 0x20 ADD ADD MLOAD PUSH1 0xF8 SHR PUSH1 0xF8 SHL PUSH1 0xF8 SHR PUSH1 0xFF AND PUSH1 0x8 DUP5 PUSH0 ADD MLOAD DUP6 PUSH1 0x20 ADD MLOAD DUP2 MLOAD DUP2 LT PUSH2 0x100C JUMPI PUSH2 0x100C PUSH2 0x1977 JUMP JUMPDEST PUSH1 0x20 ADD ADD MLOAD PUSH1 0xF8 SHR PUSH1 0xF8 SHL PUSH1 0xF8 SHR PUSH1 0xFF AND SWAP1 SHL OR SWAP1 POP PUSH1 0x2 DUP4 PUSH1 0x20 ADD DUP2 DUP2 MLOAD PUSH2 0x1035 SWAP2 SWAP1 PUSH2 0x19BD JUMP JUMPDEST SWAP1 MSTORE POP PUSH0 JUMPDEST DUP2 DUP2 LT ISZERO PUSH2 0xC7A JUMPI PUSH2 0x104B DUP5 PUSH2 0xB8D JUMP JUMPDEST DUP1 PUSH2 0x1055 DUP2 PUSH2 0x1948 JUMP JUMPDEST SWAP2 POP POP PUSH2 0x103A JUMP JUMPDEST PUSH1 0xD7 NOT PUSH1 0xFF DUP3 AND ADD PUSH2 0x10C8 JUMPI DUP2 MLOAD PUSH1 0x20 DUP4 ADD DUP1 MLOAD PUSH0 SWAP3 SWAP2 PUSH2 0x107D DUP3 PUSH2 0x1948 JUMP JUMPDEST SWAP1 MSTORE DUP2 MLOAD DUP2 LT PUSH2 0x108F JUMPI PUSH2 0x108F PUSH2 0x1977 JUMP JUMPDEST ADD PUSH1 0x20 ADD MLOAD PUSH1 0xF8 SHR SWAP1 POP PUSH0 JUMPDEST PUSH2 0x10A6 DUP3 PUSH1 0x2 PUSH2 0x1960 JUMP JUMPDEST DUP2 LT ISZERO PUSH2 0xC7A JUMPI PUSH2 0x10B6 DUP5 PUSH2 0xB8D JUMP JUMPDEST DUP1 PUSH2 0x10C0 DUP2 PUSH2 0x1948 JUMP JUMPDEST SWAP2 POP POP PUSH2 0x109B JUMP JUMPDEST PUSH1 0xD8 NOT PUSH1 0xFF DUP3 AND ADD PUSH2 0xB52 JUMPI DUP2 MLOAD PUSH1 0x20 DUP4 ADD MLOAD PUSH0 SWAP2 SWAP1 PUSH2 0x10E9 SWAP1 PUSH1 0x1 PUSH2 0x19BD JUMP JUMPDEST DUP2 MLOAD DUP2 LT PUSH2 0x10F9 JUMPI PUSH2 0x10F9 PUSH2 0x1977 JUMP JUMPDEST PUSH1 0x20 ADD ADD MLOAD PUSH1 0xF8 SHR PUSH1 0xF8 SHL PUSH1 0xF8 SHR PUSH1 0xFF AND PUSH1 0x8 DUP5 PUSH0 ADD MLOAD DUP6 PUSH1 0x20 ADD MLOAD DUP2 MLOAD DUP2 LT PUSH2 0x1125 JUMPI PUSH2 0x1125 PUSH2 0x1977 JUMP JUMPDEST PUSH1 0x20 ADD ADD MLOAD PUSH1 0xF8 SHR PUSH1 0xF8 SHL PUSH1 0xF8 SHR PUSH1 0xFF AND SWAP1 SHL OR SWAP1 POP PUSH1 0x2 DUP4 PUSH1 0x20 ADD DUP2 DUP2 MLOAD PUSH2 0x114E SWAP2 SWAP1 PUSH2 0x19BD JUMP JUMPDEST SWAP1 MSTORE POP PUSH0 JUMPDEST PUSH2 0x115E DUP3 PUSH1 0x2 PUSH2 0x1960 JUMP JUMPDEST DUP2 LT ISZERO PUSH2 0xC7A JUMPI PUSH2 0x116E DUP5 PUSH2 0xB8D JUMP JUMPDEST DUP1 PUSH2 0x1178 DUP2 PUSH2 0x1948 JUMP JUMPDEST SWAP2 POP POP PUSH2 0x1153 JUMP JUMPDEST POP POP JUMP JUMPDEST PUSH0 DUP1 PUSH2 0x118F DUP4 PUSH2 0x172A JUMP JUMPDEST PUSH1 0x20 DUP5 ADD DUP1 MLOAD SWAP2 SWAP3 POP PUSH2 0x11A1 DUP3 PUSH2 0x1948 JUMP JUMPDEST SWAP1 MSTORE POP PUSH1 0x80 PUSH1 0xFF DUP3 AND LT DUP1 ISZERO SWAP1 PUSH2 0x11C8 JUMPI POP PUSH2 0x11BF PUSH1 0x80 PUSH1 0x10 PUSH2 0x198B JUMP JUMPDEST PUSH1 0xFF AND DUP2 PUSH1 0xFF AND LT JUMPDEST ISZERO PUSH2 0x11D8 JUMPI PUSH2 0x79F PUSH1 0x80 DUP3 PUSH2 0x19A4 JUMP JUMPDEST PUSH1 0xD7 NOT PUSH1 0xFF DUP3 AND ADD PUSH2 0x11F6 JUMPI DUP3 MLOAD PUSH1 0x20 DUP5 ADD DUP1 MLOAD SWAP1 PUSH2 0x7C7 DUP3 PUSH2 0x1948 JUMP JUMPDEST PUSH1 0xD8 NOT PUSH1 0xFF DUP3 AND ADD PUSH2 0x1217 JUMPI DUP3 MLOAD PUSH1 0x20 DUP5 ADD MLOAD PUSH0 SWAP2 SWAP1 PUSH2 0x809 SWAP1 PUSH1 0x1 PUSH2 0x19BD JUMP JUMPDEST PUSH1 0x40 MLOAD PUSH3 0x461BCD PUSH1 0xE5 SHL DUP2 MSTORE PUSH1 0x20 PUSH1 0x4 DUP3 ADD MSTORE PUSH1 0x7 PUSH1 0x24 DUP3 ADD MSTORE PUSH7 0x4E6F74206D617 PUSH1 0xCC SHL PUSH1 0x44 DUP3 ADD MSTORE PUSH1 0x64 ADD PUSH2 0x8A8 JUMP JUMPDEST PUSH0 DUP3 PUSH0 ADD MLOAD MLOAD DUP4 PUSH1 0x20 ADD MLOAD LT PUSH2 0x1260 JUMPI POP PUSH0 PUSH2 0x1290 JUMP JUMPDEST DUP2 PUSH1 0x9 DUP2 GT ISZERO PUSH2 0x1272 JUMPI PUSH2 0x1272 PUSH2 0x1920 JUMP JUMPDEST PUSH2 0x127B DUP5 PUSH2 0x8B1 JUMP JUMPDEST PUSH1 0x9 DUP2 GT ISZERO PUSH2 0x128C JUMPI PUSH2 0x128C PUSH2 0x1920 JUMP JUMPDEST EQ SWAP1 POP JUMPDEST SWAP3 SWAP2 POP POP JUMP JUMPDEST PUSH1 0x60 PUSH0 PUSH2 0x12A2 DUP4 PUSH2 0x172A JUMP JUMPDEST PUSH1 0x20 DUP5 ADD DUP1 MLOAD SWAP2 SWAP3 POP PUSH2 0x12B4 DUP3 PUSH2 0x1948 JUMP JUMPDEST SWAP1 MSTORE POP PUSH0 PUSH1 0xA0 PUSH1 0xFF DUP4 AND LT DUP1 ISZERO SWAP1 PUSH2 0x12DC JUMPI POP PUSH2 0x12D3 PUSH1 0xA0 PUSH1 0x20 PUSH2 0x198B JUMP JUMPDEST PUSH1 0xFF AND DUP3 PUSH1 0xFF AND LT JUMPDEST ISZERO PUSH2 0x12F6 JUMPI PUSH2 0x12EC PUSH1 0xA0 DUP4 PUSH2 0x19A4 JUMP JUMPDEST PUSH1 0xFF AND SWAP1 POP PUSH2 0x13F5 JUMP JUMPDEST PUSH1 0xD1 NOT PUSH1 0xFF DUP4 AND ADD PUSH2 0x1335 JUMPI DUP4 MLOAD PUSH1 0x20 DUP6 ADD DUP1 MLOAD SWAP1 PUSH2 0x1314 DUP3 PUSH2 0x1948 JUMP JUMPDEST SWAP1 MSTORE DUP2 MLOAD DUP2 LT PUSH2 0x1326 JUMPI PUSH2 0x1326 PUSH2 0x1977 JUMP JUMPDEST ADD PUSH1 0x20 ADD MLOAD PUSH1 0xF8 SHR SWAP1 POP PUSH2 0x13F5 JUMP JUMPDEST PUSH1 0xD2 NOT PUSH1 0xFF DUP4 AND ADD PUSH2 0x13C0 JUMPI DUP4 MLOAD PUSH1 0x20 DUP6 ADD MLOAD PUSH2 0x1353 SWAP1 PUSH1 0x1 PUSH2 0x19BD JUMP JUMPDEST DUP2 MLOAD DUP2 LT PUSH2 0x1363 JUMPI PUSH2 0x1363 PUSH2 0x1977 JUMP JUMPDEST PUSH1 0x20 ADD ADD MLOAD PUSH1 0xF8 SHR PUSH1 0xF8 SHL PUSH1 0xF8 SHR PUSH1 0xFF AND PUSH1 0x8 DUP6 PUSH0 ADD MLOAD DUP7 PUSH1 0x20 ADD MLOAD DUP2 MLOAD DUP2 LT PUSH2 0x138F JUMPI PUSH2 0x138F PUSH2 0x1977 JUMP JUMPDEST PUSH1 0x20 ADD ADD MLOAD PUSH1 0xF8 SHR PUSH1 0xF8 SHL PUSH1 0xF8 SHR PUSH1 0xFF AND SWAP1 SHL OR SWAP1 POP PUSH1 0x2 DUP5 PUSH1 0x20 ADD DUP2 DUP2 MLOAD PUSH2 0x13B8 SWAP2 SWAP1 PUSH2 0x19BD JUMP JUMPDEST SWAP1 MSTORE POP PUSH2 0x13F5 JUMP JUMPDEST PUSH1 0x40 MLOAD PUSH3 0x461BCD PUSH1 0xE5 SHL DUP2 MSTORE PUSH1 0x20 PUSH1 0x4 DUP3 ADD MSTORE PUSH1 0xA PUSH1 0x24 DUP3 ADD MSTORE PUSH10 0x4E6F7420737472696E67 PUSH1 0xB0 SHL PUSH1 0x44 DUP3 ADD MSTORE PUSH1 0x64 ADD PUSH2 0x8A8 JUMP JUMPDEST PUSH0 DUP2 PUSH8 0xFFFFFFFFFFFFFFFF DUP2 GT ISZERO PUSH2 0x140F JUMPI PUSH2 0x140F PUSH2 0x178D JUMP JUMPDEST PUSH1 0x40 MLOAD SWAP1 DUP1 DUP3 MSTORE DUP1 PUSH1 0x1F ADD PUSH1 0x1F NOT AND PUSH1 0x20 ADD DUP3 ADD PUSH1 0x40 MSTORE DUP1 ISZERO PUSH2 0x1439 JUMPI PUSH1 0x20 DUP3 ADD DUP2 DUP1 CALLDATASIZE DUP4 CALLDATACOPY ADD SWAP1 POP JUMPDEST POP SWAP1 POP PUSH1 0x20 DUP6 ADD MLOAD PUSH1 0x20 DUP7 MLOAD ADD ADD PUSH1 0x20 DUP3 ADD PUSH1 0x20 DUP5 DIV PUSH0 JUMPDEST DUP2 DUP2 LT ISZERO PUSH2 0x146D JUMPI PUSH1 0x20 DUP2 MUL DUP5 DUP2 ADD MLOAD SWAP1 DUP5 ADD MSTORE PUSH1 0x1 ADD PUSH2 0x1451 JUMP JUMPDEST POP PUSH1 0x1F DUP6 AND DUP1 ISZERO PUSH2 0x149A JUMPI PUSH1 0x20 DUP3 MUL DUP5 DUP2 ADD MLOAD PUSH1 0x1 PUSH1 0x8 DUP5 MUL SWAP1 DUP2 SHL PUSH0 NOT ADD PUSH2 0x100 SWAP2 SWAP1 SWAP2 SUB SHL AND SWAP1 DUP5 ADD MSTORE JUMPDEST POP POP POP POP DUP2 DUP6 PUSH1 0x20 ADD DUP2 DUP2 MLOAD PUSH2 0x14B0 SWAP2 SWAP1 PUSH2 0x19BD JUMP JUMPDEST SWAP1 MSTORE POP SWAP5 SWAP4 POP POP POP POP JUMP JUMPDEST PUSH0 DUP1 PUSH2 0x14C6 DUP4 PUSH2 0x172A JUMP JUMPDEST PUSH1 0x20 DUP5 ADD DUP1 MLOAD SWAP2 SWAP3 POP PUSH2 0x14D8 DUP3 PUSH2 0x1948 JUMP JUMPDEST SWAP1 MSTORE POP PUSH1 0x7F PUSH1 0xFF DUP3 AND GT PUSH2 0x14EF JUMPI PUSH1 0xFF AND SWAP3 SWAP2 POP POP JUMP JUMPDEST PUSH1 0xC3 NOT PUSH1 0xFF DUP3 AND ADD PUSH2 0x150D JUMPI DUP3 MLOAD PUSH1 0x20 DUP5 ADD DUP1 MLOAD SWAP1 PUSH2 0x7C7 DUP3 PUSH2 0x1948 JUMP JUMPDEST PUSH1 0xC4 NOT PUSH1 0xFF DUP3 AND ADD PUSH2 0x154A JUMPI PUSH0 PUSH1 0x20 DUP5 ADD MLOAD PUSH1 0x20 DUP6 MLOAD ADD ADD PUSH1 0x1 DUP2 ADD MLOAD PUSH0 BYTE DUP2 MLOAD PUSH0 BYTE PUSH1 0x8 SHL OR SWAP2 POP POP PUSH1 0x2 DUP5 PUSH1 0x20 ADD DUP2 DUP2 MLOAD PUSH2 0x86E SWAP2 SWAP1 PUSH2 0x19BD JUMP JUMPDEST PUSH1 0xC5 NOT PUSH1 0xFF DUP3 AND ADD PUSH2 0x159D JUMPI PUSH0 PUSH1 0x20 DUP5 ADD MLOAD PUSH1 0x20 DUP6 MLOAD ADD ADD PUSH1 0x3 DUP2 ADD MLOAD PUSH0 BYTE PUSH1 0x2 DUP3 ADD MLOAD PUSH0 BYTE PUSH1 0x8 SHL PUSH1 0x1 DUP4 ADD MLOAD PUSH0 BYTE PUSH1 0x10 SHL DUP4 MLOAD PUSH0 BYTE PUSH1 0x18 SHL OR OR OR SWAP2 POP POP PUSH1 0x4 DUP5 PUSH1 0x20 ADD DUP2 DUP2 MLOAD PUSH2 0x86E SWAP2 SWAP1 PUSH2 0x19BD JUMP JUMPDEST PUSH1 0xC6 NOT PUSH1 0xFF DUP3 AND ADD PUSH2 0x15EE JUMPI PUSH1 0x20 DUP4 DUP2 ADD MLOAD DUP5 MLOAD PUSH0 SWAP3 SWAP2 ADD ADD DUP2 JUMPDEST PUSH1 0x8 DUP2 LT ISZERO PUSH2 0x15D9 JUMPI DUP1 DUP3 ADD MLOAD PUSH0 BYTE DUP4 PUSH1 0x8 SHL OR SWAP3 POP PUSH1 0x1 DUP2 ADD SWAP1 POP PUSH2 0x15B8 JUMP JUMPDEST POP POP PUSH1 0x8 DUP5 PUSH1 0x20 ADD DUP2 DUP2 MLOAD PUSH2 0x86E SWAP2 SWAP1 PUSH2 0x19BD JUMP JUMPDEST PUSH1 0xC7 NOT PUSH1 0xFF DUP3 AND ADD PUSH2 0x163F JUMPI PUSH1 0x20 DUP4 DUP2 ADD MLOAD DUP5 MLOAD PUSH0 SWAP3 SWAP2 ADD ADD DUP2 JUMPDEST PUSH1 0x10 DUP2 LT ISZERO PUSH2 0x162A JUMPI DUP1 DUP3 ADD MLOAD PUSH0 BYTE DUP4 PUSH1 0x8 SHL OR SWAP3 POP PUSH1 0x1 DUP2 ADD SWAP1 POP PUSH2 0x1609 JUMP JUMPDEST POP POP PUSH1 0x10 DUP5 PUSH1 0x20 ADD DUP2 DUP2 MLOAD PUSH2 0x86E SWAP2 SWAP1 PUSH2 0x19BD JUMP JUMPDEST PUSH1 0xC8 NOT PUSH1 0xFF DUP3 AND ADD PUSH2 0x1667 JUMPI PUSH1 0x20 DUP4 DUP2 ADD DUP1 MLOAD DUP6 MLOAD DUP2 ADD DUP4 ADD MLOAD SWAP3 SWAP2 SWAP1 PUSH2 0x86E SWAP1 DUP4 SWAP1 PUSH2 0x19BD JUMP JUMPDEST PUSH1 0x40 MLOAD PUSH3 0x461BCD PUSH1 0xE5 SHL DUP2 MSTORE PUSH1 0x20 PUSH1 0x4 DUP3 ADD MSTORE PUSH1 0x10 PUSH1 0x24 DUP3 ADD MSTORE PUSH16 0x496E76616C69642075696E7420746167 PUSH1 0x80 SHL PUSH1 0x44 DUP3 ADD MSTORE PUSH1 0x64 ADD PUSH2 0x8A8 JUMP JUMPDEST PUSH0 PUSH1 0xD4 PUSH2 0x16AE DUP4 PUSH2 0x172A JUMP JUMPDEST PUSH1 0xFF AND EQ PUSH2 0x16EC JUMPI PUSH1 0x40 MLOAD PUSH3 0x461BCD PUSH1 0xE5 SHL DUP2 MSTORE PUSH1 0x20 PUSH1 0x4 DUP3 ADD MSTORE PUSH1 0xB PUSH1 0x24 DUP3 ADD MSTORE PUSH11 0x4E6F742061646472657373 PUSH1 0xA8 SHL PUSH1 0x44 DUP3 ADD MSTORE PUSH1 0x64 ADD PUSH2 0x8A8 JUMP JUMPDEST PUSH1 0x20 DUP3 ADD DUP1 MLOAD SWAP1 PUSH2 0x16FC DUP3 PUSH2 0x1948 JUMP JUMPDEST SWAP1 MSTORE POP PUSH1 0x20 DUP3 DUP2 ADD DUP1 MLOAD DUP5 MLOAD DUP2 ADD SWAP1 SWAP3 ADD MLOAD PUSH1 0x60 SHR SWAP2 PUSH1 0x14 SWAP2 SWAP1 PUSH2 0x1721 SWAP1 DUP4 SWAP1 PUSH2 0x19BD JUMP JUMPDEST SWAP1 MSTORE POP SWAP3 SWAP2 POP POP JUMP JUMPDEST PUSH0 DUP2 PUSH0 ADD MLOAD MLOAD DUP3 PUSH1 0x20 ADD MLOAD LT PUSH2 0x1768 JUMPI PUSH1 0x40 MLOAD PUSH3 0x461BCD PUSH1 0xE5 SHL DUP2 MSTORE PUSH1 0x20 PUSH1 0x4 DUP3 ADD MSTORE PUSH1 0x3 PUSH1 0x24 DUP3 ADD MSTORE PUSH3 0x22A7A3 PUSH1 0xE9 SHL PUSH1 0x44 DUP3 ADD MSTORE PUSH1 0x64 ADD PUSH2 0x8A8 JUMP JUMPDEST DUP2 MLOAD PUSH1 0x20 DUP4 ADD MLOAD DUP2 MLOAD DUP2 LT PUSH2 0x177F JUMPI PUSH2 0x177F PUSH2 0x1977 JUMP JUMPDEST ADD PUSH1 0x20 ADD MLOAD PUSH1 0xF8 SHR SWAP3 SWAP2 POP POP JUMP JUMPDEST PUSH4 0x4E487B71 PUSH1 0xE0 SHL PUSH0 MSTORE PUSH1 0x41 PUSH1 0x4 MSTORE PUSH1 0x24 PUSH0 REVERT JUMPDEST PUSH0 PUSH1 0x20 DUP3 DUP5 SUB SLT ISZERO PUSH2 0x17B1 JUMPI PUSH0 DUP1 REVERT JUMPDEST DUP2 CALLDATALOAD PUSH8 0xFFFFFFFFFFFFFFFF DUP1 DUP3 GT ISZERO PUSH2 0x17C8 JUMPI PUSH0 DUP1 REVERT JUMPDEST DUP2 DUP5 ADD SWAP2 POP DUP5 PUSH1 0x1F DUP4 ADD SLT PUSH2 0x17DB JUMPI PUSH0 DUP1 REVERT JUMPDEST DUP2 CALLDATALOAD DUP2 DUP2 GT ISZERO PUSH2 0x17ED JUMPI PUSH2 0x17ED PUSH2 0x178D JUMP JUMPDEST PUSH1 0x40 MLOAD PUSH1 0x1F DUP3 ADD PUSH1 0x1F NOT SWAP1 DUP2 AND PUSH1 0x3F ADD AND DUP2 ADD SWAP1 DUP4 DUP3 GT DUP2 DUP4 LT OR ISZERO PUSH2 0x1815 JUMPI PUSH2 0x1815 PUSH2 0x178D JUMP JUMPDEST DUP2 PUSH1 0x40 MSTORE DUP3 DUP2 MSTORE DUP8 PUSH1 0x20 DUP5 DUP8 ADD ADD GT ISZERO PUSH2 0x182D JUMPI PUSH0 DUP1 REVERT JUMPDEST DUP3 PUSH1 0x20 DUP7 ADD PUSH1 0x20 DUP4 ADD CALLDATACOPY PUSH0 SWAP3 DUP2 ADD PUSH1 0x20 ADD SWAP3 SWAP1 SWAP3 MSTORE POP SWAP6 SWAP5 POP POP POP POP POP JUMP JUMPDEST PUSH0 DUP2 MLOAD DUP1 DUP5 MSTORE PUSH0 JUMPDEST DUP2 DUP2 LT ISZERO PUSH2 0x1870 JUMPI PUSH1 0x20 DUP2 DUP6 ADD DUP2 ADD MLOAD DUP7 DUP4 ADD DUP3 ADD MSTORE ADD PUSH2 0x1854 JUMP JUMPDEST POP PUSH0 PUSH1 0x20 DUP3 DUP7 ADD ADD MSTORE PUSH1 0x20 PUSH1 0x1F NOT PUSH1 0x1F DUP4 ADD AND DUP6 ADD ADD SWAP2 POP POP SWAP3 SWAP2 POP POP JUMP JUMPDEST PUSH1 0x40 DUP2 MSTORE PUSH0 PUSH2 0x18A1 PUSH1 0x40 DUP4 ADD DUP6 PUSH2 0x184C JUMP JUMPDEST SWAP1 POP DUP3 ISZERO ISZERO PUSH1 0x20 DUP4 ADD MSTORE SWAP4 SWAP3 POP POP POP JUMP JUMPDEST DUP3 ISZERO ISZERO DUP2 MSTORE PUSH1 0x40 PUSH1 0x20 DUP3 ADD MSTORE PUSH0 PUSH2 0x18CC PUSH1 0x40 DUP4 ADD DUP5 PUSH2 0x184C JUMP JUMPDEST SWAP5 SWAP4 POP POP POP POP JUMP JUMPDEST PUSH1 0x20 DUP1 DUP3 MSTORE DUP3 MLOAD DUP3 DUP3 ADD DUP2 SWAP1 MSTORE PUSH0 SWAP2 SWAP1 DUP5 DUP3 ADD SWAP1 PUSH1 0x40 DUP6 ADD SWAP1 DUP5 JUMPDEST DUP2 DUP2 LT ISZERO PUSH2 0x1914 JUMPI DUP4 MLOAD PUSH1 0x1 PUSH1 0x1 PUSH1 0xA0 SHL SUB AND DUP4 MSTORE SWAP3 DUP5 ADD SWAP3 SWAP2 DUP5 ADD SWAP2 PUSH1 0x1 ADD PUSH2 0x18EF JUMP JUMPDEST POP SWAP1 SWAP7 SWAP6 POP POP POP POP POP POP JUMP JUMPDEST PUSH4 0x4E487B71 PUSH1 0xE0 SHL PUSH0 MSTORE PUSH1 0x21 PUSH1 0x4 MSTORE PUSH1 0x24 PUSH0 REVERT JUMPDEST PUSH4 0x4E487B71 PUSH1 0xE0 SHL PUSH0 MSTORE PUSH1 0x11 PUSH1 0x4 MSTORE PUSH1 0x24 PUSH0 REVERT JUMPDEST PUSH0 PUSH1 0x1 DUP3 ADD PUSH2 0x1959 JUMPI PUSH2 0x1959 PUSH2 0x1934 JUMP JUMPDEST POP PUSH1 0x1 ADD SWAP1 JUMP JUMPDEST DUP1 DUP3 MUL DUP2 ISZERO DUP3 DUP3 DIV DUP5 EQ OR PUSH2 0x1290 JUMPI PUSH2 0x1290 PUSH2 0x1934 JUMP JUMPDEST PUSH4 0x4E487B71 PUSH1 0xE0 SHL PUSH0 MSTORE PUSH1 0x32 PUSH1 0x4 MSTORE PUSH1 0x24 PUSH0 REVERT JUMPDEST PUSH1 0xFF DUP2 DUP2 AND DUP4 DUP3 AND ADD SWAP1 DUP2 GT ISZERO PUSH2 0x1290 JUMPI PUSH2 0x1290 PUSH2 0x1934 JUMP JUMPDEST PUSH1 0xFF DUP3 DUP2 AND DUP3 DUP3 AND SUB SWAP1 DUP2 GT ISZERO PUSH2 0x1290 JUMPI PUSH2 0x1290 PUSH2 0x1934 JUMP JUMPDEST DUP1 DUP3 ADD DUP1 DUP3 GT ISZERO PUSH2 0x1290 JUMPI PUSH2 0x1290 PUSH2 0x1934 JUMP INVALID LOG2 PUSH5 0x6970667358 0x22 SLT KECCAK256 PUSH6 0x72A1674395AB JUMPDEST 0x4B BLOCKHASH 0xDA 0xD2 0xB0 0xDF 0xB2 0xC3 LOG4 0xBA CALLDATALOAD PUSH12 0x49ED8DE9763A74E40904B6E PUSH5 0x736F6C6343 STOP ADDMOD EQ STOP CALLER "},"methodIdentifiers":{"decodeHeterogeneousArray(bytes)":"ebeb7fe8","decodeMapDynamic(bytes)":"865ded50","extractAddresses(bytes)":"ef2c47b5","findFirstString(bytes)":"254cf1b0","processStream(bytes)":"113ddb5c","validateStructure(bytes)":"8cf78654"}}}}}