{
  "_format": "hh3-artifact-1",
  "contractName": "NestedStructuresExample",
  "sourceName": "contracts/examples/NestedStructuresExample.sol",
  "abi": [
    {
      "inputs": [],
      "name": "decodeComplexAndExtractTags",
      "outputs": [
        {
          "internalType": "string",
          "name": "firstTag",
          "type": "string"
        },
        {
          "internalType": "string",
          "name": "secondTag",
          "type": "string"
        },
        {
          "internalType": "bool",
          "name": "foundTags",
          "type": "bool"
        }
      ],
      "stateMutability": "pure",
      "type": "function"
    },
    {
      "inputs": [],
      "name": "decodeMapWithArrayUsingInspection",
      "outputs": [
        {
          "internalType": "string",
          "name": "name",
          "type": "string"
        },
        {
          "internalType": "uint256",
          "name": "firstScore",
          "type": "uint256"
        },
        {
          "internalType": "uint256",
          "name": "scoresCount",
          "type": "uint256"
        }
      ],
      "stateMutability": "pure",
      "type": "function"
    },
    {
      "inputs": [],
      "name": "decodeNestedMapStepByStep",
      "outputs": [
        {
          "internalType": "uint256",
          "name": "outerValue",
          "type": "uint256"
        },
        {
          "internalType": "uint256",
          "name": "nestedInner",
          "type": "uint256"
        },
        {
          "internalType": "string",
          "name": "nestedName",
          "type": "string"
        }
      ],
      "stateMutability": "pure",
      "type": "function"
    },
    {
      "inputs": [],
      "name": "decodeUnknownStructureWithSkip",
      "outputs": [
        {
          "internalType": "uint256",
          "name": "id",
          "type": "uint256"
        },
        {
          "internalType": "uint256",
          "name": "count",
          "type": "uint256"
        }
      ],
      "stateMutability": "pure",
      "type": "function"
    },
    {
      "inputs": [],
      "name": "encodeComplexNesting",
      "outputs": [
        {
          "internalType": "bytes",
          "name": "",
          "type": "bytes"
        }
      ],
      "stateMutability": "pure",
      "type": "function"
    },
    {
      "inputs": [],
      "name": "encodeMapWithArray",
      "outputs": [
        {
          "internalType": "bytes",
          "name": "",
          "type": "bytes"
        }
      ],
      "stateMutability": "pure",
      "type": "function"
    },
    {
      "inputs": [],
      "name": "encodeNestedMap",
      "outputs": [
        {
          "internalType": "bytes",
          "name": "",
          "type": "bytes"
        }
      ],
      "stateMutability": "pure",
      "type": "function"
    }
  ],
  "bytecode": "0x608060405234801561000f575f80fd5b506124658061001d5f395ff3fe608060405234801561000f575f80fd5b506004361061007a575f3560e01c80634b5b7341116100585780634b5b7341146100ca578063652ac576146100d257806374f57d40146100e9578063c1b5ec0014610106575f80fd5b80631abb8e2c1461007e5780634686a7431461009e5780634ae99edc146100b3575b5f80fd5b61008661010e565b604051610095939291906122d0565b60405180910390f35b6100a6610286565b60405161009591906122f4565b6100bb610399565b6040516100959392919061230d565b6100a661060c565b6100da6106cc565b60405161009593929190612334565b6100f161083e565b60408051928352602083019190915201610095565b6100a6610934565b60605f805f61011b61060c565b604080518082018252606081525f602091820181905282518084019093528383529082018190529192509061014f82610a94565b90505f5b8181101561027d575f61016584610bf3565b90507f2361458367e696363fbcc70777d07ebbd2394e89fd0adcaf147faccd1d294d608180519060200120036101a55761019e84610bf3565b975061026a565b805160208201207f3e2b5d90d4c60ae46e3fe89fcc828886238e60ead515c8e9eeb0a6d797c7a18a01610261576101dd846006610e18565b61021f5760405162461bcd60e51b815260206004820152600e60248201526d457870656374656420617272617960901b60448201526064015b60405180910390fd5b61022884610e65565b955061023384610f2c565b965060015b8681101561025b5761024985611113565b806102538161237f565b915050610238565b5061026a565b61026a84611113565b50806102758161237f565b915050610153565b50505050909192565b60605f610291611745565b905061029e81600261178a565b506102c6816040518060400160405280600581526020016437baba32b960d91b8152506117ba565b506102d281602a6117ef565b506102fb81604051806040016040528060068152602001651b995cdd195960d21b8152506117ba565b5061030781600261178a565b5061032f816040518060400160405280600581526020016434b73732b960d91b8152506117ba565b5061033b8160646117ef565b5061036281604051806040016040528060048152602001636e616d6560e01b8152506117ba565b5061038981604051806040016040528060048152602001631d195cdd60e21b8152506117ba565b5061039381611818565b91505090565b5f8060605f6103a6610286565b604080518082018252606081525f60209182018190528251808401909352838352908201819052919250906103da82610a94565b9050806002146104215760405162461bcd60e51b81526020600482015260126024820152714578706563746564203220656e747269657360701b6044820152606401610216565b5f61042b83610bf3565b90507fbd499fc997e96d0b6f6290e7a2f0fdf5178d7d1ee10d32540d79bec21ccfaa898180519060200120146104965760405162461bcd60e51b815260206004820152601060248201526f457870656374656420276f757465722760801b6044820152606401610216565b61049f83610f2c565b96505f6104ab84610bf3565b90507f4d5b14044d78fbf0c9dd8b9c49e35f09ee5a6f5b1b3b8117b5d0e15c8dd2cb098180519060200120146105175760405162461bcd60e51b8152602060048201526011602482015270457870656374656420276e65737465642760781b6044820152606401610216565b5f6105218561189e565b9050600781600981111561053757610537612397565b1461057a5760405162461bcd60e51b815260206004820152601360248201527204578706563746564206e6573746564206d617606c1b6044820152606401610216565b5f61058486610a94565b9050806002146105d65760405162461bcd60e51b815260206004820152601960248201527f45787065637465642032206e657374656420656e7472696573000000000000006044820152606401610216565b6105df86610bf3565b506105e986610f2c565b98506105f486610bf3565b506105fe86610bf3565b975050505050505050909192565b60605f610617611745565b905061062481600261178a565b5061064b81604051806040016040528060048152602001636e616d6560e01b8152506117ba565b506106738160405180604001604052806005815260200164416c69636560d81b8152506117ba565b5061069c816040518060400160405280600681526020016573636f72657360d01b8152506117ba565b506106a8816003611b3f565b506106b481600a6117ef565b506106c08160146117ef565b5061038981601e6117ef565b6060805f806106d9610934565b604080518082018252606081525f602091820181905282518084019093528383529082018190529192509061070d82610a94565b90505f5b8181101561027d575f61072384610bf3565b90507f8f54f1c2d0eb5771cd5bf67a6689fcd6eed9444d91a39e5ef32a9b4ae5ca14ff818051906020012003610822575f61075d85610a94565b90505f5b8181101561081b575f61077387610bf3565b90507f13f2570a4f3752e83e37ff7e082b475a97035ff53694ee2548f36573f6a5d8bc8180519060200120036107ff575f6107ad88610e65565b9050600281106107f9576107c088610bf3565b9b506107cb88610bf3565b9a506001995060025b818110156107f7576107e589611113565b806107ef8161237f565b9150506107d4565b505b50610808565b61080887611113565b50806108138161237f565b915050610761565b505061082b565b61082b84611113565b50806108368161237f565b915050610711565b5f805f610849610934565b604080518082018252606081525f602091820181905282518084019093528383529082018190529192509061087d82610a94565b90505f5b8181101561092c575f61089384610bf3565b90507fa709fd3aa96d9faf770e44a5aef2f4808a6fe3a5ddf546568f36ad3a3873f31d8180519060200120036108d3576108cc84610f2c565b9650610919565b805160208201207f37dcf94954e4b398bd6bbd014e192dc7eca5930355b8e5fe4f1cc90fe4fb71c8016109105761090984610f2c565b9550610919565b61091984611113565b50806109248161237f565b915050610881565b505050509091565b60605f61093f611745565b905061094c81600361178a565b5061097181604051806040016040528060028152602001611a5960f21b8152506117ba565b5061097d8160016117ef565b506109a481604051806040016040528060048152602001636461746160e01b8152506117ba565b506109b081600261178a565b506109d781604051806040016040528060048152602001637461677360e01b8152506117ba565b506109e3816002611b3f565b50610a0781604051806040016040528060018152602001606160f81b8152506117ba565b50610a2b81604051806040016040528060018152602001603160f91b8152506117ba565b50610a54816040518060400160405280600681526020016561637469766560d01b8152506117ba565b50610a60816001611b68565b50610a88816040518060400160405280600581526020016418dbdd5b9d60da1b8152506117ba565b506103898160056117ef565b5f80610a9f83611bde565b602084018051919250610ab18261237f565b905250608060ff821610801590610ad85750610acf608060106123ab565b60ff168160ff16105b15610af257610ae86080826123c4565b60ff169392505050565b60d71960ff821601610b3157825160208401805190610b108261237f565b905281518110610b2257610b226123dd565b016020015160f81c9392505050565b60d81960ff821601610bc157825160208401515f9190610b529060016123f1565b81518110610b6257610b626123dd565b602001015160f81c60f81b60f81c60ff166008855f0151866020015181518110610b8e57610b8e6123dd565b602001015160f81c60f81b60f81c60ff16901b179050600284602001818151610bb791906123f1565b9052509392505050565b60405162461bcd60e51b815260206004820152600760248201526604e6f74206d61760cc1b6044820152606401610216565b60605f610bff83611bde565b602084018051919250610c118261237f565b9052505f60a060ff831610801590610c395750610c3060a060206123ab565b60ff168260ff16105b15610c5357610c4960a0836123c4565b60ff169050610d52565b60d11960ff831601610c9257835160208501805190610c718261237f565b905281518110610c8357610c836123dd565b016020015160f81c9050610d52565b60d21960ff831601610d1d5783516020850151610cb09060016123f1565b81518110610cc057610cc06123dd565b602001015160f81c60f81b60f81c60ff166008855f0151866020015181518110610cec57610cec6123dd565b602001015160f81c60f81b60f81c60ff16901b179050600284602001818151610d1591906123f1565b905250610d52565b60405162461bcd60e51b815260206004820152600a6024820152694e6f7420737472696e6760b01b6044820152606401610216565b5f8167ffffffffffffffff811115610d6c57610d6c612404565b6040519080825280601f01601f191660200182016040528015610d96576020820181803683370190505b509050602085015160208651010160208201602084045f5b81811015610dca57602081028481015190840152600101610dae565b50601f85168015610df757602082028481015160016008840290811b5f1901610100919091031b16908401525b505050508185602001818151610e0d91906123f1565b905250949350505050565b5f825f015151836020015110610e2f57505f610e5f565b816009811115610e4157610e41612397565b610e4a8461189e565b6009811115610e5b57610e5b612397565b1490505b92915050565b5f80610e7083611bde565b602084018051919250610e828261237f565b905250609060ff821610801590610ea95750610ea0609060106123ab565b60ff168160ff16105b15610eb957610ae86090826123c4565b60d51960ff821601610ed757825160208401805190610b108261237f565b60d61960ff821601610ef857825160208401515f9190610b529060016123f1565b60405162461bcd60e51b81526020600482015260096024820152684e6f7420617272617960b81b6044820152606401610216565b5f80610f3783611bde565b602084018051919250610f498261237f565b905250607f60ff821611610f605760ff1692915050565b60c31960ff821601610f7e57825160208401805190610b108261237f565b60c41960ff821601610fbb575f602084015160208551010160018101515f1a81515f1a60081b17915050600284602001818151610bb791906123f1565b60c51960ff82160161100e575f602084015160208551010160038101515f1a60028201515f1a60081b60018301515f1a60101b83515f1a60181b171717915050600484602001818151610bb791906123f1565b60c61960ff82160161105f5760208381015184515f92910101815b600881101561104a57808201515f1a8360081b179250600181019050611029565b5050600884602001818151610bb791906123f1565b60c71960ff8216016110b05760208381015184515f92910101815b601081101561109b57808201515f1a8360081b17925060018101905061107a565b5050601084602001818151610bb791906123f1565b60c81960ff8216016110d8576020838101805185518101830151929190610bb79083906123f1565b60405162461bcd60e51b815260206004820152601060248201526f496e76616c69642075696e742074616760801b6044820152606401610216565b5f61111d82611bde565b60208301805191925061112f8261237f565b905250607f60ff8216111580611149575060e060ff821610155b15611152575050565b60a060ff821610801590611176575061116d60a060206123ab565b60ff168160ff16105b156111a15761118660a0826123c4565b60ff168260200181815161119a91906123f1565b9052505050565b609060ff8216108015906111c557506111bc609060106123ab565b60ff168160ff16105b15611206575f6111d66090836123c4565b60ff1690505f5b81811015611200576111ee84611113565b806111f88161237f565b9150506111dd565b50505050565b608060ff82161080159061122a5750611221608060106123ab565b60ff168160ff16105b1561126f575f61123b6080836123c4565b60ff1690505f5b61124d826002612418565b8110156112005761125d84611113565b806112678161237f565b915050611242565b60ff811660c01480611284575060ff811660c3145b80611292575060ff811660c2145b6117415760ff811660c414806112ab575060ff811660ca145b156112c35760018260200181815161119a91906123f1565b60ff811660c514806112d8575060ff811660cb145b156112f05760028260200181815161119a91906123f1565b60ff811660c61480611305575060ff811660cc145b1561131d5760048260200181815161119a91906123f1565b60ff811660c71480611332575060ff811660cd145b1561134a5760088260200181815161119a91906123f1565b60ff811660c8148061135f575060ff811660ce145b156113775760108260200181815161119a91906123f1565b60ff811660c9148061138c575060ff811660cf145b8061139a575060ff811660d5145b156113b25760208260200181815161119a91906123f1565b60d31960ff8216016113d15760148260200181815161119a91906123f1565b60ff811660d014806113e6575060ff811660d2145b156114405781516020830180515f92916113ff8261237f565b905281518110611411576114116123dd565b602001015160f81c60f81b60f81c60ff169050808360200181815161143691906123f1565b9052506117419050565b60ff811660d11480611455575060ff811660d3145b156114d457815160208301515f919061146f9060016123f1565b8151811061147f5761147f6123dd565b602001015160f81c60f81b60f81c60ff166008845f01518560200151815181106114ab576114ab6123dd565b016020015160f81c901b1790506114c38160026123f1565b8360200181815161143691906123f1565b60d51960ff8216016115355781516020830180515f92916114f48261237f565b905281518110611506576115066123dd565b016020015160f81c90505f5b818110156112005761152384611113565b8061152d8161237f565b915050611512565b60d61960ff8216016115e357815160208301515f91906115569060016123f1565b81518110611566576115666123dd565b602001015160f81c60f81b60f81c60ff166008845f0151856020015181518110611592576115926123dd565b602001015160f81c60f81b60f81c60ff16901b1790506002836020018181516115bb91906123f1565b9052505f5b81811015611200576115d184611113565b806115db8161237f565b9150506115c0565b60d71960ff82160161164e5781516020830180515f92916116038261237f565b905281518110611615576116156123dd565b016020015160f81c90505f5b61162c826002612418565b8110156112005761163c84611113565b806116468161237f565b915050611621565b60d81960ff82160161170657815160208301515f919061166f9060016123f1565b8151811061167f5761167f6123dd565b602001015160f81c60f81b60f81c60ff166008845f01518560200151815181106116ab576116ab6123dd565b602001015160f81c60f81b60f81c60ff16901b1790506002836020018181516116d491906123f1565b9052505f5b6116e4826002612418565b811015611200576116f484611113565b806116fe8161237f565b9150506116d9565b60405162461bcd60e51b815260206004820152601060248201526f556e6b6e6f776e20747970652074616760801b6044820152606401610216565b5050565b60408051808201825260608082525f6020830152825161010081850181815261016083019095529293909283928301818036833750505081525f602090910152919050565b60408051808201909152606081525f60208201526117a9836003611c41565b6117b38383611d0c565b5090919050565b60408051808201909152606081525f60208201526117e583835160036117e091906123f1565b611c41565b6117b38383611e26565b60408051808201909152606081525f602082015261180e836021611c41565b6117b38383611ffa565b60605f826020015167ffffffffffffffff81111561183857611838612404565b6040519080825280601f01601f191660200182016040528015611862576020820181803683370190505b509050602083510160208201602085015180830190505b80831015611894578251825260209283019290910190611879565b5091949350505050565b5f815f0151518260200151106118dc5760405162461bcd60e51b815260206004820152600360248201526222a7a360e91b6044820152606401610216565b5f825f01518360200151815181106118f6576118f66123dd565b016020015160f81c905060bf19810161191157505f92915050565b60ff811660c31480611926575060ff811660c2145b156119345750600192915050565b607f60ff821611158061194a575060ff811660c4145b80611958575060ff811660c5145b80611966575060ff811660c6145b80611974575060ff811660c7145b80611982575060ff811660c8145b80611990575060ff811660c9145b1561199e5750600292915050565b60e060ff82161015806119b4575060ff811660ca145b806119c2575060ff811660cb145b806119d0575060ff811660cc145b806119de575060ff811660cd145b806119ec575060ff811660ce145b806119fa575060ff811660cf145b15611a085750600392915050565b60ff811660d01480611a1d575060ff811660d1145b15611a2b5750600492915050565b60a060ff821610801590611a4f5750611a4660a060206123ab565b60ff168160ff16105b80611a5d575060ff811660d2145b80611a6b575060ff811660d3145b15611a795750600592915050565b609060ff821610801590611a9d5750611a94609060106123ab565b60ff168160ff16105b80611aab575060ff811660d6145b80611ab9575060ff811660d7145b15611ac75750600692915050565b608060ff821610801590611aeb5750611ae2608060106123ab565b60ff168160ff16105b80611af9575060ff811660d8145b80611b07575060ff811660d9145b15611b155750600792915050565b60d31960ff821601611b2a5750600892915050565b60d41960ff8216016117065750600992915050565b60408051808201909152606081525f6020820152611b5e836003611c41565b6117b38383612242565b60408051808201909152606081525f6020820152611b87836001611c41565b81611b935760c2611b96565b60c35b60f81b835f0151846020018051809190611baf9061237f565b905281518110611bc157611bc16123dd565b60200101906001600160f81b03191690815f1a9053509192915050565b5f815f015151826020015110611c1c5760405162461bcd60e51b815260206004820152600360248201526222a7a360e91b6044820152606401610216565b8151602083015181518110611c3357611c336123dd565b016020015160f81c92915050565b5f818360200151611c5291906123f1565b8351519091508111611c6357505050565b8251515f90611c73906002612418565b905081811015611c8b57611c888260406123f1565b90505b5f8167ffffffffffffffff811115611ca557611ca5612404565b6040519080825280601f01601f191660200182016040528015611ccf576020820181803683370190505b509050602085510160208201602087015180830190505b80831015611d01578251825260209283019290910190611ce6565b505050909352505050565b600f8111611d6457611d1f8160806123f1565b60f81b825f0151836020018051809190611d389061237f565b905281518110611d4a57611d4a6123dd565b60200101906001600160f81b03191690815f1a9053505050565b60ff8111611dc4578151602083018051601b60fb1b9291611d848261237f565b905281518110611d9657611d966123dd565b60200101906001600160f81b03191690815f1a905350815160208301805160f884901b9291611d388261237f565b815160208301805160d960f81b9291611ddc8261237f565b905281518110611dee57611dee6123dd565b60200101906001600160f81b03191690815f1a90535081516020830180516001600160f81b031960f085901b169291611d848261237f565b80518190601f8111611e8357611e3d8160a06123f1565b60f81b845f0151856020018051809190611e569061237f565b905281518110611e6857611e686123dd565b60200101906001600160f81b03191690815f1a905350611fae565b60ff8111611ee3578351602085018051606960f91b9291611ea38261237f565b905281518110611eb557611eb56123dd565b60200101906001600160f81b03191690815f1a905350835160208501805160f884901b9291611e568261237f565b835160208501805160d360f81b9291611efb8261237f565b905281518110611f0d57611f0d6123dd565b60200101906001600160f81b03191690815f1a90535083516020850180516001600160f81b031960f085901b169291611f458261237f565b905281518110611f5757611f576123dd565b60200101906001600160f81b03191690815f1a905350835160208501805160f884901b9291611f858261237f565b905281518110611f9757611f976123dd565b60200101906001600160f81b03191690815f1a9053505b6020820160208501516020865101018282015b80831015611fdc578251825260209283019290910190611fc1565b5050508084602001818151611ff191906123f1565b90525050505050565b607f811161201a57815160208301805160f884901b9291611d388261237f565b60ff811161203a578151602083018051603160fa1b9291611d848261237f565b61ffff81116120ae57815160208301805160c560f81b929161205b8261237f565b90528151811061206d5761206d6123dd565b60200101906001600160f81b03191690815f1a90535060208201516020835101018160081c81538160018201535060028260200181815161119a91906123f1565b63ffffffff8111612136578151602083018051606360f91b92916120d18261237f565b9052815181106120e3576120e36123dd565b60200101906001600160f81b03191690815f1a90535060208201516020835101018160181c81538160101c60018201538160081c60028201538160038201535060048260200181815161119a91906123f1565b67ffffffffffffffff81116121e657815160208301805160c760f81b929161215d8261237f565b90528151811061216f5761216f6123dd565b60200101906001600160f81b03191690815f1a90535060208201516020835101018160381c81538160301c60018201538160281c60028201538160201c60038201538160181c60048201538160101c60058201538160081c60068201538160078201535060088260200181815161119a91906123f1565b815160208301805160c960f81b92916121fe8261237f565b905281518110612210576122106123dd565b60200101906001600160f81b03191690815f1a905350602082810180518451018201839052805161119a9083906123f1565b600f811161225557611d1f8160906123f1565b60ff8111612275578151602083018051606b60f91b9291611d848261237f565b815160208301805160d760f81b9291611ddc8261237f565b5f81518084525f5b818110156122b157602081850181015186830182015201612295565b505f602082860101526020601f19601f83011685010191505092915050565b606081525f6122e2606083018661228d565b60208301949094525060400152919050565b602081525f612306602083018461228d565b9392505050565b838152826020820152606060408201525f61232b606083018461228d565b95945050505050565b606081525f612346606083018661228d565b8281036020840152612358818661228d565b9150508215156040830152949350505050565b634e487b7160e01b5f52601160045260245ffd5b5f600182016123905761239061236b565b5060010190565b634e487b7160e01b5f52602160045260245ffd5b60ff8181168382160190811115610e5f57610e5f61236b565b60ff8281168282160390811115610e5f57610e5f61236b565b634e487b7160e01b5f52603260045260245ffd5b80820180821115610e5f57610e5f61236b565b634e487b7160e01b5f52604160045260245ffd5b8082028115828204841417610e5f57610e5f61236b56fea2646970667358221220f52d1dfe7fd28e6b475f6f86b491fbce36f96e3da22e9db57de4709828243bdf64736f6c63430008140033",
  "linkReferences": {},
  "deployedLinkReferences": {},
  "immutableReferences": {},
  "inputSourceName": "project/contracts/examples/NestedStructuresExample.sol",
  "buildInfoId": "solc-0_8_20-309dc64c26e9b0680caf0e767bac9c02027a25a0"
}