{
  "_format": "hh3-artifact-1",
  "contractName": "ImprovedAPIExample",
  "sourceName": "contracts/examples/ImprovedAPIExample.sol",
  "abi": [
    {
      "inputs": [],
      "name": "encodeComplexObject",
      "outputs": [
        {
          "internalType": "bytes",
          "name": "",
          "type": "bytes"
        }
      ],
      "stateMutability": "pure",
      "type": "function"
    },
    {
      "inputs": [],
      "name": "encodeNestedObject",
      "outputs": [
        {
          "internalType": "bytes",
          "name": "",
          "type": "bytes"
        }
      ],
      "stateMutability": "pure",
      "type": "function"
    },
    {
      "inputs": [
        {
          "internalType": "address",
          "name": "from",
          "type": "address"
        },
        {
          "internalType": "address",
          "name": "to",
          "type": "address"
        },
        {
          "internalType": "uint256",
          "name": "amount",
          "type": "uint256"
        },
        {
          "internalType": "uint256",
          "name": "nonce",
          "type": "uint256"
        },
        {
          "internalType": "bytes32",
          "name": "txHash",
          "type": "bytes32"
        }
      ],
      "name": "encodeTransaction",
      "outputs": [
        {
          "internalType": "bytes",
          "name": "",
          "type": "bytes"
        }
      ],
      "stateMutability": "pure",
      "type": "function"
    },
    {
      "inputs": [],
      "name": "encodeUserDataNewWay",
      "outputs": [
        {
          "internalType": "bytes",
          "name": "",
          "type": "bytes"
        }
      ],
      "stateMutability": "pure",
      "type": "function"
    },
    {
      "inputs": [],
      "name": "encodeUserDataOldWay",
      "outputs": [
        {
          "internalType": "bytes",
          "name": "",
          "type": "bytes"
        }
      ],
      "stateMutability": "pure",
      "type": "function"
    }
  ],
  "bytecode": "0x608060405234801561000f575f80fd5b506111f48061001d5f395ff3fe608060405234801561000f575f80fd5b5060043610610055575f3560e01c80631f4ef43d146100595780633708614d14610077578063b65cb7111461007f578063bbdad36b14610087578063c46e82271461007f575b5f80fd5b61006161009a565b60405161006e9190611091565b60405180910390f35b6100616103d2565b610061610545565b6100616100953660046110f7565b61064b565b604080516003808252608082019092526060915f9190602082018480368337019050509050605f815f815181106100d3576100d3611154565b6020026020010181815250506057816001815181106100f4576100f4611154565b602002602001018181525050605c8160028151811061011557610115611154565b6020908102919091010152604080516002808252606082019092525f9181602001602082028036833701905050905073742d35cc6634c0532925a3b844bc9e7595f0beb1815f8151811061016b5761016b611154565b60200260200101906001600160a01b031690816001600160a01b031681525050731234567890123456789012345678901234567890816001815181106101b3576101b3611154565b60200260200101906001600160a01b031690816001600160a01b0316815250505f6101dc610775565b90506101e98160056107ba565b5061021081604051806040016040528060048152602001636e616d6560e01b8152506107ec565b5061023681604051806040016040528060038152602001622137b160e91b8152506107ec565b5061025f81604051806040016040528060068152602001651dd85b1b195d60d21b8152506107ec565b5061027e8173742d35cc6634c0532925a3b844bc9e7595f0beb1610821565b506102a581604051806040016040528060048152602001630d0c2e6d60e31b8152506107ec565b506102d0817f9c22ff5f21f0b81b113e63f7db6da94fedef11b2119b4088b89664fb9a3cb65861084a565b506102f9816040518060400160405280600681526020016573636f72657360d01b8152506107ec565b50610305818451610873565b505f5b8351811015610347576103348285838151811061032757610327611154565b602002602001015161089c565b508061033f8161117c565b915050610308565b506103728160405180604001604052806008815260200167636f6e746163747360c01b8152506107ec565b5061037e818351610873565b505f5b82518110156103c0576103ad828483815181106103a0576103a0611154565b6020026020010151610821565b50806103b88161117c565b915050610381565b506103ca816108c5565b935050505090565b60605f6103dd610775565b90506103ea8160036107ba565b5061041381604051806040016040528060068152602001651d5cd95c925960d21b8152506107ec565b5061043d81604051806040016040528060078152602001667573657231323360c81b8152506107ec565b5061046781604051806040016040528060078152602001663b32b939b4b7b760c91b8152506107ec565b5061047381600161089c565b5061049e816040518060400160405280600881526020016773657474696e677360c01b8152506107ec565b506104aa8160026107ba565b506104da816040518060400160405280600d81526020016c6e6f74696669636174696f6e7360981b8152506107ec565b506104e681600161094b565b5061050e81604051806040016040528060058152602001647468656d6560d81b8152506107ec565b5061053581604051806040016040528060048152602001636461726b60e01b8152506107ec565b5061053f816108c5565b91505090565b60605f610550610775565b905061055d8160046107ba565b5061058481604051806040016040528060048152602001636e616d6560e01b8152506107ec565b506105ac8160405180604001604052806005815260200164416c69636560d81b8152506107ec565b506105d2816040518060400160405280600381526020016261676560e81b8152506107ec565b506105de81601e61089c565b50610607816040518060400160405280600681526020016561637469766560d01b8152506107ec565b5061061381600161094b565b5061063d816040518060400160405280600781526020016662616c616e636560c81b8152506107ec565b5061053581620f424061089c565b60605f610656610775565b90506106638160056107ba565b5061068a816040518060400160405280600481526020016366726f6d60e01b8152506107ec565b506106958188610821565b506106ba8160405180604001604052806002815260200161746f60f01b8152506107ec565b506106c58187610821565b506106ee8160405180604001604052806006815260200165185b5bdd5b9d60d21b8152506107ec565b506106f9818661089c565b5061072181604051806040016040528060058152602001646e6f6e636560d81b8152506107ec565b5061072c818561089c565b5061075581604051806040016040528060068152602001650e8f090c2e6d60d31b8152506107ec565b50610760818461084a565b5061076a816108c5565b979650505050505050565b60408051808201825260608082525f6020830152825161010081850181815261016083019095529293909283928301818036833750505081525f602090910152919050565b60408051808201909152606081525f60208201526107d98360036109c1565b6107e38383610a8c565b50815b92915050565b60408051808201909152606081525f602082015261081783835160036108129190611194565b6109c1565b6107e38383610ba6565b60408051808201909152606081525f60208201526108408360156109c1565b6107e38383610d7a565b60408051808201909152606081525f60208201526108698360226109c1565b6107e38383610de6565b60408051808201909152606081525f60208201526108928360036109c1565b6107e38383610e42565b60408051808201909152606081525f60208201526108bb8360216109c1565b6107e38383610e8d565b60605f826020015167ffffffffffffffff8111156108e5576108e5611140565b6040519080825280601f01601f19166020018201604052801561090f576020820181803683370190505b509050602083510160208201602085015180830190505b80831015610941578251825260209283019290910190610926565b5091949350505050565b60408051808201909152606081525f602082015261096a8360016109c1565b816109765760c2610979565b60c35b60f81b835f01518460200180518091906109929061117c565b9052815181106109a4576109a4611154565b60200101906001600160f81b03191690815f1a9053509192915050565b5f8183602001516109d29190611194565b83515190915081116109e357505050565b8251515f906109f39060026111a7565b905081811015610a0b57610a08826040611194565b90505b5f8167ffffffffffffffff811115610a2557610a25611140565b6040519080825280601f01601f191660200182016040528015610a4f576020820181803683370190505b509050602085510160208201602087015180830190505b80831015610a81578251825260209283019290910190610a66565b505050909352505050565b600f8111610ae457610a9f816080611194565b60f81b825f0151836020018051809190610ab89061117c565b905281518110610aca57610aca611154565b60200101906001600160f81b03191690815f1a9053505050565b60ff8111610b44578151602083018051601b60fb1b9291610b048261117c565b905281518110610b1657610b16611154565b60200101906001600160f81b03191690815f1a905350815160208301805160f884901b9291610ab88261117c565b815160208301805160d960f81b9291610b5c8261117c565b905281518110610b6e57610b6e611154565b60200101906001600160f81b03191690815f1a90535081516020830180516001600160f81b031960f085901b169291610b048261117c565b80518190601f8111610c0357610bbd8160a0611194565b60f81b845f0151856020018051809190610bd69061117c565b905281518110610be857610be8611154565b60200101906001600160f81b03191690815f1a905350610d2e565b60ff8111610c63578351602085018051606960f91b9291610c238261117c565b905281518110610c3557610c35611154565b60200101906001600160f81b03191690815f1a905350835160208501805160f884901b9291610bd68261117c565b835160208501805160d360f81b9291610c7b8261117c565b905281518110610c8d57610c8d611154565b60200101906001600160f81b03191690815f1a90535083516020850180516001600160f81b031960f085901b169291610cc58261117c565b905281518110610cd757610cd7611154565b60200101906001600160f81b03191690815f1a905350835160208501805160f884901b9291610d058261117c565b905281518110610d1757610d17611154565b60200101906001600160f81b03191690815f1a9053505b6020820160208501516020865101018282015b80831015610d5c578251825260209283019290910190610d41565b5050508084602001818151610d719190611194565b90525050505050565b8151602083018051603560fa1b9291610d928261117c565b905281518110610da457610da4611154565b60200101906001600160f81b03191690815f1a90535060208201516020835101018160601b815250601482602001818151610ddf9190611194565b9052505050565b815160208301805160d560f81b9291610dfe8261117c565b905281518110610e1057610e10611154565b60200101906001600160f81b03191690815f1a9053506020828101805184510182018390528051610ddf908390611194565b600f8111610e5557610a9f816090611194565b60ff8111610e75578151602083018051606b60f91b9291610b048261117c565b815160208301805160d760f81b9291610b5c8261117c565b607f8111610ead57815160208301805160f884901b9291610ab88261117c565b60ff8111610ecd578151602083018051603160fa1b9291610b048261117c565b61ffff8111610f4157815160208301805160c560f81b9291610eee8261117c565b905281518110610f0057610f00611154565b60200101906001600160f81b03191690815f1a90535060208201516020835101018160081c815381600182015350600282602001818151610ddf9190611194565b63ffffffff8111610fc9578151602083018051606360f91b9291610f648261117c565b905281518110610f7657610f76611154565b60200101906001600160f81b03191690815f1a90535060208201516020835101018160181c81538160101c60018201538160081c600282015381600382015350600482602001818151610ddf9190611194565b67ffffffffffffffff811161107957815160208301805160c760f81b9291610ff08261117c565b90528151811061100257611002611154565b60200101906001600160f81b03191690815f1a90535060208201516020835101018160381c81538160301c60018201538160281c60028201538160201c60038201538160181c60048201538160101c60058201538160081c600682015381600782015350600882602001818151610ddf9190611194565b815160208301805160c960f81b9291610dfe8261117c565b5f6020808352835180828501525f5b818110156110bc578581018301518582016040015282016110a0565b505f604082860101526040601f19601f8301168501019250505092915050565b80356001600160a01b03811681146110f2575f80fd5b919050565b5f805f805f60a0868803121561110b575f80fd5b611114866110dc565b9450611122602087016110dc565b94979496505050506040830135926060810135926080909101359150565b634e487b7160e01b5f52604160045260245ffd5b634e487b7160e01b5f52603260045260245ffd5b634e487b7160e01b5f52601160045260245ffd5b5f6001820161118d5761118d611168565b5060010190565b808201808211156107e6576107e6611168565b80820281158282048414176107e6576107e661116856fea2646970667358221220de2c6246b36c34388b864bf36a131e0b4d4adb2c8973b511be270d25dd8b0abb64736f6c63430008140033",
  "linkReferences": {},
  "deployedLinkReferences": {},
  "immutableReferences": {},
  "inputSourceName": "project/contracts/examples/ImprovedAPIExample.sol",
  "buildInfoId": "solc-0_8_20-309dc64c26e9b0680caf0e767bac9c02027a25a0"
}